{
	"contracts/regalium.sol": {
		"RegaliumToken": {
			"abi": [
				{
					"inputs": [
						{
							"internalType": "address",
							"name": "initialOwner",
							"type": "address"
						}
					],
					"stateMutability": "nonpayable",
					"type": "constructor"
				},
				{
					"inputs": [
						{
							"internalType": "address",
							"name": "spender",
							"type": "address"
						},
						{
							"internalType": "uint256",
							"name": "allowance",
							"type": "uint256"
						},
						{
							"internalType": "uint256",
							"name": "needed",
							"type": "uint256"
						}
					],
					"name": "ERC20InsufficientAllowance",
					"type": "error"
				},
				{
					"inputs": [
						{
							"internalType": "address",
							"name": "sender",
							"type": "address"
						},
						{
							"internalType": "uint256",
							"name": "balance",
							"type": "uint256"
						},
						{
							"internalType": "uint256",
							"name": "needed",
							"type": "uint256"
						}
					],
					"name": "ERC20InsufficientBalance",
					"type": "error"
				},
				{
					"inputs": [
						{
							"internalType": "address",
							"name": "approver",
							"type": "address"
						}
					],
					"name": "ERC20InvalidApprover",
					"type": "error"
				},
				{
					"inputs": [
						{
							"internalType": "address",
							"name": "receiver",
							"type": "address"
						}
					],
					"name": "ERC20InvalidReceiver",
					"type": "error"
				},
				{
					"inputs": [
						{
							"internalType": "address",
							"name": "sender",
							"type": "address"
						}
					],
					"name": "ERC20InvalidSender",
					"type": "error"
				},
				{
					"inputs": [
						{
							"internalType": "address",
							"name": "spender",
							"type": "address"
						}
					],
					"name": "ERC20InvalidSpender",
					"type": "error"
				},
				{
					"inputs": [
						{
							"internalType": "address",
							"name": "owner",
							"type": "address"
						}
					],
					"name": "OwnableInvalidOwner",
					"type": "error"
				},
				{
					"inputs": [
						{
							"internalType": "address",
							"name": "account",
							"type": "address"
						}
					],
					"name": "OwnableUnauthorizedAccount",
					"type": "error"
				},
				{
					"anonymous": false,
					"inputs": [
						{
							"indexed": true,
							"internalType": "address",
							"name": "owner",
							"type": "address"
						},
						{
							"indexed": true,
							"internalType": "address",
							"name": "spender",
							"type": "address"
						},
						{
							"indexed": false,
							"internalType": "uint256",
							"name": "value",
							"type": "uint256"
						}
					],
					"name": "Approval",
					"type": "event"
				},
				{
					"anonymous": false,
					"inputs": [
						{
							"indexed": true,
							"internalType": "address",
							"name": "previousOwner",
							"type": "address"
						},
						{
							"indexed": true,
							"internalType": "address",
							"name": "newOwner",
							"type": "address"
						}
					],
					"name": "OwnershipTransferred",
					"type": "event"
				},
				{
					"anonymous": false,
					"inputs": [
						{
							"indexed": true,
							"internalType": "address",
							"name": "from",
							"type": "address"
						},
						{
							"indexed": true,
							"internalType": "address",
							"name": "to",
							"type": "address"
						},
						{
							"indexed": false,
							"internalType": "uint256",
							"name": "value",
							"type": "uint256"
						}
					],
					"name": "Transfer",
					"type": "event"
				},
				{
					"inputs": [],
					"name": "COOLDOWN_PERIOD",
					"outputs": [
						{
							"internalType": "uint256",
							"name": "",
							"type": "uint256"
						}
					],
					"stateMutability": "view",
					"type": "function"
				},
				{
					"inputs": [],
					"name": "MAX_SUPPLY",
					"outputs": [
						{
							"internalType": "uint256",
							"name": "",
							"type": "uint256"
						}
					],
					"stateMutability": "view",
					"type": "function"
				},
				{
					"inputs": [
						{
							"internalType": "address",
							"name": "newAdmin",
							"type": "address"
						}
					],
					"name": "addAdmin",
					"outputs": [],
					"stateMutability": "nonpayable",
					"type": "function"
				},
				{
					"inputs": [
						{
							"internalType": "uint256",
							"name": "",
							"type": "uint256"
						}
					],
					"name": "admins",
					"outputs": [
						{
							"internalType": "address",
							"name": "",
							"type": "address"
						}
					],
					"stateMutability": "view",
					"type": "function"
				},
				{
					"inputs": [
						{
							"internalType": "address",
							"name": "owner",
							"type": "address"
						},
						{
							"internalType": "address",
							"name": "spender",
							"type": "address"
						}
					],
					"name": "allowance",
					"outputs": [
						{
							"internalType": "uint256",
							"name": "",
							"type": "uint256"
						}
					],
					"stateMutability": "view",
					"type": "function"
				},
				{
					"inputs": [
						{
							"internalType": "address",
							"name": "spender",
							"type": "address"
						},
						{
							"internalType": "uint256",
							"name": "value",
							"type": "uint256"
						}
					],
					"name": "approve",
					"outputs": [
						{
							"internalType": "bool",
							"name": "",
							"type": "bool"
						}
					],
					"stateMutability": "nonpayable",
					"type": "function"
				},
				{
					"inputs": [
						{
							"internalType": "address",
							"name": "account",
							"type": "address"
						}
					],
					"name": "balanceOf",
					"outputs": [
						{
							"internalType": "uint256",
							"name": "",
							"type": "uint256"
						}
					],
					"stateMutability": "view",
					"type": "function"
				},
				{
					"inputs": [
						{
							"internalType": "uint256",
							"name": "value",
							"type": "uint256"
						}
					],
					"name": "burn",
					"outputs": [],
					"stateMutability": "nonpayable",
					"type": "function"
				},
				{
					"inputs": [
						{
							"internalType": "address",
							"name": "account",
							"type": "address"
						},
						{
							"internalType": "uint256",
							"name": "value",
							"type": "uint256"
						}
					],
					"name": "burnFrom",
					"outputs": [],
					"stateMutability": "nonpayable",
					"type": "function"
				},
				{
					"inputs": [
						{
							"internalType": "address",
							"name": "staker",
							"type": "address"
						}
					],
					"name": "calculateReward",
					"outputs": [
						{
							"internalType": "uint256",
							"name": "",
							"type": "uint256"
						}
					],
					"stateMutability": "view",
					"type": "function"
				},
				{
					"inputs": [
						{
							"internalType": "address",
							"name": "newOwner",
							"type": "address"
						}
					],
					"name": "changeOwner",
					"outputs": [],
					"stateMutability": "nonpayable",
					"type": "function"
				},
				{
					"inputs": [],
					"name": "decimals",
					"outputs": [
						{
							"internalType": "uint8",
							"name": "",
							"type": "uint8"
						}
					],
					"stateMutability": "view",
					"type": "function"
				},
				{
					"inputs": [],
					"name": "difficulty",
					"outputs": [
						{
							"internalType": "uint256",
							"name": "",
							"type": "uint256"
						}
					],
					"stateMutability": "view",
					"type": "function"
				},
				{
					"inputs": [],
					"name": "getAdmins",
					"outputs": [
						{
							"internalType": "address[]",
							"name": "",
							"type": "address[]"
						}
					],
					"stateMutability": "view",
					"type": "function"
				},
				{
					"inputs": [
						{
							"internalType": "address",
							"name": "",
							"type": "address"
						}
					],
					"name": "isAdmin",
					"outputs": [
						{
							"internalType": "bool",
							"name": "",
							"type": "bool"
						}
					],
					"stateMutability": "view",
					"type": "function"
				},
				{
					"inputs": [
						{
							"internalType": "address",
							"name": "",
							"type": "address"
						}
					],
					"name": "lastStakeTime",
					"outputs": [
						{
							"internalType": "uint256",
							"name": "",
							"type": "uint256"
						}
					],
					"stateMutability": "view",
					"type": "function"
				},
				{
					"inputs": [
						{
							"internalType": "address",
							"name": "",
							"type": "address"
						}
					],
					"name": "lastUnstakeTime",
					"outputs": [
						{
							"internalType": "uint256",
							"name": "",
							"type": "uint256"
						}
					],
					"stateMutability": "view",
					"type": "function"
				},
				{
					"inputs": [
						{
							"internalType": "uint256",
							"name": "nonce",
							"type": "uint256"
						}
					],
					"name": "mine",
					"outputs": [],
					"stateMutability": "nonpayable",
					"type": "function"
				},
				{
					"inputs": [],
					"name": "name",
					"outputs": [
						{
							"internalType": "string",
							"name": "",
							"type": "string"
						}
					],
					"stateMutability": "view",
					"type": "function"
				},
				{
					"inputs": [],
					"name": "owner",
					"outputs": [
						{
							"internalType": "address",
							"name": "",
							"type": "address"
						}
					],
					"stateMutability": "view",
					"type": "function"
				},
				{
					"inputs": [
						{
							"internalType": "address",
							"name": "adminToRemove",
							"type": "address"
						}
					],
					"name": "removeAdmin",
					"outputs": [],
					"stateMutability": "nonpayable",
					"type": "function"
				},
				{
					"inputs": [],
					"name": "renounceOwnership",
					"outputs": [],
					"stateMutability": "nonpayable",
					"type": "function"
				},
				{
					"inputs": [],
					"name": "rewardRate",
					"outputs": [
						{
							"internalType": "uint256",
							"name": "",
							"type": "uint256"
						}
					],
					"stateMutability": "view",
					"type": "function"
				},
				{
					"inputs": [
						{
							"internalType": "address",
							"name": "",
							"type": "address"
						}
					],
					"name": "rewards",
					"outputs": [
						{
							"internalType": "uint256",
							"name": "",
							"type": "uint256"
						}
					],
					"stateMutability": "view",
					"type": "function"
				},
				{
					"inputs": [
						{
							"internalType": "uint256",
							"name": "_difficulty",
							"type": "uint256"
						}
					],
					"name": "setDifficulty",
					"outputs": [],
					"stateMutability": "nonpayable",
					"type": "function"
				},
				{
					"inputs": [
						{
							"internalType": "uint256",
							"name": "_rewardRate",
							"type": "uint256"
						}
					],
					"name": "setRewardRate",
					"outputs": [],
					"stateMutability": "nonpayable",
					"type": "function"
				},
				{
					"inputs": [
						{
							"internalType": "uint256",
							"name": "amount",
							"type": "uint256"
						}
					],
					"name": "stake",
					"outputs": [],
					"stateMutability": "nonpayable",
					"type": "function"
				},
				{
					"inputs": [
						{
							"internalType": "address",
							"name": "",
							"type": "address"
						}
					],
					"name": "stakes",
					"outputs": [
						{
							"internalType": "uint256",
							"name": "",
							"type": "uint256"
						}
					],
					"stateMutability": "view",
					"type": "function"
				},
				{
					"inputs": [],
					"name": "symbol",
					"outputs": [
						{
							"internalType": "string",
							"name": "",
							"type": "string"
						}
					],
					"stateMutability": "view",
					"type": "function"
				},
				{
					"inputs": [],
					"name": "totalMined",
					"outputs": [
						{
							"internalType": "uint256",
							"name": "",
							"type": "uint256"
						}
					],
					"stateMutability": "view",
					"type": "function"
				},
				{
					"inputs": [],
					"name": "totalStaked",
					"outputs": [
						{
							"internalType": "uint256",
							"name": "",
							"type": "uint256"
						}
					],
					"stateMutability": "view",
					"type": "function"
				},
				{
					"inputs": [],
					"name": "totalSupply",
					"outputs": [
						{
							"internalType": "uint256",
							"name": "",
							"type": "uint256"
						}
					],
					"stateMutability": "view",
					"type": "function"
				},
				{
					"inputs": [
						{
							"internalType": "address",
							"name": "to",
							"type": "address"
						},
						{
							"internalType": "uint256",
							"name": "value",
							"type": "uint256"
						}
					],
					"name": "transfer",
					"outputs": [
						{
							"internalType": "bool",
							"name": "",
							"type": "bool"
						}
					],
					"stateMutability": "nonpayable",
					"type": "function"
				},
				{
					"inputs": [
						{
							"internalType": "address",
							"name": "from",
							"type": "address"
						},
						{
							"internalType": "address",
							"name": "to",
							"type": "address"
						},
						{
							"internalType": "uint256",
							"name": "value",
							"type": "uint256"
						}
					],
					"name": "transferFrom",
					"outputs": [
						{
							"internalType": "bool",
							"name": "",
							"type": "bool"
						}
					],
					"stateMutability": "nonpayable",
					"type": "function"
				},
				{
					"inputs": [
						{
							"internalType": "address",
							"name": "newOwner",
							"type": "address"
						}
					],
					"name": "transferOwnership",
					"outputs": [],
					"stateMutability": "nonpayable",
					"type": "function"
				},
				{
					"inputs": [
						{
							"internalType": "uint256",
							"name": "amount",
							"type": "uint256"
						}
					],
					"name": "unstake",
					"outputs": [],
					"stateMutability": "nonpayable",
					"type": "function"
				},
				{
					"inputs": [],
					"name": "withdrawRewards",
					"outputs": [],
					"stateMutability": "nonpayable",
					"type": "function"
				}
			],
			"devdoc": {
				"errors": {
					"ERC20InsufficientAllowance(address,uint256,uint256)": [
						{
							"details": "Indicates a failure with the `spender`’s `allowance`. Used in transfers.",
							"params": {
								"allowance": "Amount of tokens a `spender` is allowed to operate with.",
								"needed": "Minimum amount required to perform a transfer.",
								"spender": "Address that may be allowed to operate on tokens without being their owner."
							}
						}
					],
					"ERC20InsufficientBalance(address,uint256,uint256)": [
						{
							"details": "Indicates an error related to the current `balance` of a `sender`. Used in transfers.",
							"params": {
								"balance": "Current balance for the interacting account.",
								"needed": "Minimum amount required to perform a transfer.",
								"sender": "Address whose tokens are being transferred."
							}
						}
					],
					"ERC20InvalidApprover(address)": [
						{
							"details": "Indicates a failure with the `approver` of a token to be approved. Used in approvals.",
							"params": {
								"approver": "Address initiating an approval operation."
							}
						}
					],
					"ERC20InvalidReceiver(address)": [
						{
							"details": "Indicates a failure with the token `receiver`. Used in transfers.",
							"params": {
								"receiver": "Address to which tokens are being transferred."
							}
						}
					],
					"ERC20InvalidSender(address)": [
						{
							"details": "Indicates a failure with the token `sender`. Used in transfers.",
							"params": {
								"sender": "Address whose tokens are being transferred."
							}
						}
					],
					"ERC20InvalidSpender(address)": [
						{
							"details": "Indicates a failure with the `spender` to be approved. Used in approvals.",
							"params": {
								"spender": "Address that may be allowed to operate on tokens without being their owner."
							}
						}
					],
					"OwnableInvalidOwner(address)": [
						{
							"details": "The owner is not a valid owner account. (eg. `address(0)`)"
						}
					],
					"OwnableUnauthorizedAccount(address)": [
						{
							"details": "The caller account is not authorized to perform an operation."
						}
					]
				},
				"events": {
					"Approval(address,address,uint256)": {
						"details": "Emitted when the allowance of a `spender` for an `owner` is set by a call to {approve}. `value` is the new allowance."
					},
					"Transfer(address,address,uint256)": {
						"details": "Emitted when `value` tokens are moved from one account (`from`) to another (`to`). Note that `value` may be zero."
					}
				},
				"kind": "dev",
				"methods": {
					"allowance(address,address)": {
						"details": "See {IERC20-allowance}."
					},
					"approve(address,uint256)": {
						"details": "See {IERC20-approve}. NOTE: If `value` is the maximum `uint256`, the allowance is not updated on `transferFrom`. This is semantically equivalent to an infinite approval. Requirements: - `spender` cannot be the zero address."
					},
					"balanceOf(address)": {
						"details": "See {IERC20-balanceOf}."
					},
					"burn(uint256)": {
						"details": "Destroys a `value` amount of tokens from the caller. See {ERC20-_burn}."
					},
					"burnFrom(address,uint256)": {
						"details": "Destroys a `value` amount of tokens from `account`, deducting from the caller's allowance. See {ERC20-_burn} and {ERC20-allowance}. Requirements: - the caller must have allowance for ``accounts``'s tokens of at least `value`."
					},
					"decimals()": {
						"details": "Returns the number of decimals used to get its user representation. For example, if `decimals` equals `2`, a balance of `505` tokens should be displayed to a user as `5.05` (`505 / 10 ** 2`). Tokens usually opt for a value of 18, imitating the relationship between Ether and Wei. This is the default value returned by this function, unless it's overridden. NOTE: This information is only used for _display_ purposes: it in no way affects any of the arithmetic of the contract, including {IERC20-balanceOf} and {IERC20-transfer}."
					},
					"name()": {
						"details": "Returns the name of the token."
					},
					"owner()": {
						"details": "Returns the address of the current owner."
					},
					"renounceOwnership()": {
						"details": "Leaves the contract without owner. It will not be possible to call `onlyOwner` functions. Can only be called by the current owner. NOTE: Renouncing ownership will leave the contract without an owner, thereby disabling any functionality that is only available to the owner."
					},
					"symbol()": {
						"details": "Returns the symbol of the token, usually a shorter version of the name."
					},
					"totalSupply()": {
						"details": "See {IERC20-totalSupply}."
					},
					"transfer(address,uint256)": {
						"details": "See {IERC20-transfer}. Requirements: - `to` cannot be the zero address. - the caller must have a balance of at least `value`."
					},
					"transferFrom(address,address,uint256)": {
						"details": "See {IERC20-transferFrom}. Emits an {Approval} event indicating the updated allowance. This is not required by the EIP. See the note at the beginning of {ERC20}. NOTE: Does not update the allowance if the current allowance is the maximum `uint256`. Requirements: - `from` and `to` cannot be the zero address. - `from` must have a balance of at least `value`. - the caller must have allowance for ``from``'s tokens of at least `value`."
					},
					"transferOwnership(address)": {
						"details": "Transfers ownership of the contract to a new account (`newOwner`). Can only be called by the current owner."
					}
				},
				"version": 1
			},
			"evm": {
				"assembly": "    /* \"contracts/regalium.sol\":250:4894  contract RegaliumToken is ERC20, ERC20Burnable, Ownable {... */\n  mstore(0x40, 0x80)\n    /* \"contracts/regalium.sol\":436:442  10**10 */\n  0x02540be400\n    /* \"contracts/regalium.sol\":408:442  uint256 public difficulty = 10**10 */\n  0x07\n  sstore\n    /* \"contracts/regalium.sol\":721:724  100 */\n  0x64\n    /* \"contracts/regalium.sol\":693:724  uint256 public rewardRate = 100 */\n  0x0d\n  sstore\n    /* \"contracts/regalium.sol\":972:1252  constructor(address initialOwner) ERC20(\"Regalium Token\", \"RGLM\") Ownable(initialOwner) {... */\n  callvalue\n  dup1\n  iszero\n  tag_1\n  jumpi\n  0x00\n  dup1\n  revert\ntag_1:\n  pop\n  mload(0x40)\n  sub(codesize, bytecodeSize)\n  dup1\n  bytecodeSize\n  dup4\n  codecopy\n  dup2\n  dup2\n  add\n  0x40\n  mstore\n  dup2\n  add\n  swap1\n  tag_2\n  swap2\n  swap1\n  tag_3\n  jump\t// in\ntag_2:\n    /* \"contracts/regalium.sol\":1046:1058  initialOwner */\n  dup1\n    /* \"@openzeppelin/contracts/token/ERC20/ERC20.sol\":1896:2009  constructor(string memory name_, string memory symbol_) {... */\n  mload(0x40)\n  dup1\n  0x40\n  add\n  0x40\n  mstore\n  dup1\n  0x0e\n  dup2\n  mstore\n  0x20\n  add\n  0x526567616c69756d20546f6b656e000000000000000000000000000000000000\n  dup2\n  mstore\n  pop\n  mload(0x40)\n  dup1\n  0x40\n  add\n  0x40\n  mstore\n  dup1\n  0x04\n  dup2\n  mstore\n  0x20\n  add\n  0x52474c4d00000000000000000000000000000000000000000000000000000000\n  dup2\n  mstore\n  pop\n    /* \"@openzeppelin/contracts/token/ERC20/ERC20.sol\":1970:1975  name_ */\n  dup2\n    /* \"@openzeppelin/contracts/token/ERC20/ERC20.sol\":1962:1967  _name */\n  0x03\n    /* \"@openzeppelin/contracts/token/ERC20/ERC20.sol\":1962:1975  _name = name_ */\n  swap1\n  dup2\n  tag_8\n  swap2\n  swap1\n  tag_9\n  jump\t// in\ntag_8:\n  pop\n    /* \"@openzeppelin/contracts/token/ERC20/ERC20.sol\":1995:2002  symbol_ */\n  dup1\n    /* \"@openzeppelin/contracts/token/ERC20/ERC20.sol\":1985:1992  _symbol */\n  0x04\n    /* \"@openzeppelin/contracts/token/ERC20/ERC20.sol\":1985:2002  _symbol = symbol_ */\n  swap1\n  dup2\n  tag_10\n  swap2\n  swap1\n  tag_9\n  jump\t// in\ntag_10:\n  pop\n    /* \"@openzeppelin/contracts/token/ERC20/ERC20.sol\":1896:2009  constructor(string memory name_, string memory symbol_) {... */\n  pop\n  pop\n    /* \"@openzeppelin/contracts/access/Ownable.sol\":1297:1298  0 */\n  0x00\n    /* \"@openzeppelin/contracts/access/Ownable.sol\":1273:1299  initialOwner == address(0) */\n  0xffffffffffffffffffffffffffffffffffffffff\n  and\n    /* \"@openzeppelin/contracts/access/Ownable.sol\":1273:1285  initialOwner */\n  dup2\n    /* \"@openzeppelin/contracts/access/Ownable.sol\":1273:1299  initialOwner == address(0) */\n  0xffffffffffffffffffffffffffffffffffffffff\n  and\n  sub\n    /* \"@openzeppelin/contracts/access/Ownable.sol\":1269:1364  if (initialOwner == address(0)) {... */\n  tag_12\n  jumpi\n    /* \"@openzeppelin/contracts/access/Ownable.sol\":1350:1351  0 */\n  0x00\n    /* \"@openzeppelin/contracts/access/Ownable.sol\":1322:1353  OwnableInvalidOwner(address(0)) */\n  mload(0x40)\n  0x1e4fbdf700000000000000000000000000000000000000000000000000000000\n  dup2\n  mstore\n  0x04\n  add\n  tag_13\n  swap2\n  swap1\n  tag_14\n  jump\t// in\ntag_13:\n  mload(0x40)\n  dup1\n  swap2\n  sub\n  swap1\n  revert\n    /* \"@openzeppelin/contracts/access/Ownable.sol\":1269:1364  if (initialOwner == address(0)) {... */\ntag_12:\n    /* \"@openzeppelin/contracts/access/Ownable.sol\":1373:1405  _transferOwnership(initialOwner) */\n  tag_15\n    /* \"@openzeppelin/contracts/access/Ownable.sol\":1392:1404  initialOwner */\n  dup2\n    /* \"@openzeppelin/contracts/access/Ownable.sol\":1373:1391  _transferOwnership */\n  shl(0x20, tag_16)\n    /* \"@openzeppelin/contracts/access/Ownable.sol\":1373:1405  _transferOwnership(initialOwner) */\n  0x20\n  shr\n  jump\t// in\ntag_15:\n    /* \"@openzeppelin/contracts/access/Ownable.sol\":1225:1412  constructor(address initialOwner) {... */\n  pop\n    /* \"contracts/regalium.sol\":1071:1125  _mintWithCapCheck(initialOwner, MAX_SUPPLY * 20 / 100) */\n  tag_18\n    /* \"contracts/regalium.sol\":1089:1101  initialOwner */\n  dup2\n    /* \"contracts/regalium.sol\":1121:1124  100 */\n  0x64\n    /* \"contracts/regalium.sol\":1116:1118  20 */\n  0x14\n    /* \"contracts/regalium.sol\":352:369  50000000 * 10**18 */\n  0x295be96e64066972000000\n    /* \"contracts/regalium.sol\":1103:1118  MAX_SUPPLY * 20 */\n  tag_19\n  swap2\n  swap1\n  tag_20\n  jump\t// in\ntag_19:\n    /* \"contracts/regalium.sol\":1103:1124  MAX_SUPPLY * 20 / 100 */\n  tag_21\n  swap2\n  swap1\n  tag_22\n  jump\t// in\ntag_21:\n    /* \"contracts/regalium.sol\":1071:1088  _mintWithCapCheck */\n  shl(0x20, tag_23)\n    /* \"contracts/regalium.sol\":1071:1125  _mintWithCapCheck(initialOwner, MAX_SUPPLY * 20 / 100) */\n  0x20\n  shr\n  jump\t// in\ntag_18:\n    /* \"contracts/regalium.sol\":1180:1186  admins */\n  0x0e\n    /* \"contracts/regalium.sol\":1192:1204  initialOwner */\n  dup2\n    /* \"contracts/regalium.sol\":1180:1205  admins.push(initialOwner) */\n  swap1\n  dup1\n  0x01\n  dup2\n  sload\n  add\n  dup1\n  dup3\n  sstore\n  dup1\n  swap2\n  pop\n  pop\n  0x01\n  swap1\n  sub\n  swap1\n  0x00\n  mstore\n  keccak256(0x00, 0x20)\n  add\n  0x00\n  swap1\n  swap2\n  swap1\n  swap2\n  swap1\n  swap2\n  0x0100\n  exp\n  dup2\n  sload\n  dup2\n  0xffffffffffffffffffffffffffffffffffffffff\n  mul\n  not\n  and\n  swap1\n  dup4\n  0xffffffffffffffffffffffffffffffffffffffff\n  and\n  mul\n  or\n  swap1\n  sstore\n  pop\n    /* \"contracts/regalium.sol\":1240:1244  true */\n  0x01\n    /* \"contracts/regalium.sol\":1216:1223  isAdmin */\n  0x0f\n    /* \"contracts/regalium.sol\":1216:1237  isAdmin[initialOwner] */\n  0x00\n    /* \"contracts/regalium.sol\":1224:1236  initialOwner */\n  dup4\n    /* \"contracts/regalium.sol\":1216:1237  isAdmin[initialOwner] */\n  0xffffffffffffffffffffffffffffffffffffffff\n  and\n  0xffffffffffffffffffffffffffffffffffffffff\n  and\n  dup2\n  mstore\n  0x20\n  add\n  swap1\n  dup2\n  mstore\n  0x20\n  add\n  0x00\n  keccak256\n  0x00\n    /* \"contracts/regalium.sol\":1216:1244  isAdmin[initialOwner] = true */\n  0x0100\n  exp\n  dup2\n  sload\n  dup2\n  0xff\n  mul\n  not\n  and\n  swap1\n  dup4\n  iszero\n  iszero\n  mul\n  or\n  swap1\n  sstore\n  pop\n    /* \"contracts/regalium.sol\":972:1252  constructor(address initialOwner) ERC20(\"Regalium Token\", \"RGLM\") Ownable(initialOwner) {... */\n  pop\n    /* \"contracts/regalium.sol\":250:4894  contract RegaliumToken is ERC20, ERC20Burnable, Ownable {... */\n  jump(tag_25)\n    /* \"@openzeppelin/contracts/access/Ownable.sol\":2912:3099  function _transferOwnership(address newOwner) internal virtual {... */\ntag_16:\n    /* \"@openzeppelin/contracts/access/Ownable.sol\":2985:3001  address oldOwner */\n  0x00\n    /* \"@openzeppelin/contracts/access/Ownable.sol\":3004:3010  _owner */\n  0x05\n  0x00\n  swap1\n  sload\n  swap1\n  0x0100\n  exp\n  swap1\n  div\n  0xffffffffffffffffffffffffffffffffffffffff\n  and\n    /* \"@openzeppelin/contracts/access/Ownable.sol\":2985:3010  address oldOwner = _owner */\n  swap1\n  pop\n    /* \"@openzeppelin/contracts/access/Ownable.sol\":3029:3037  newOwner */\n  dup2\n    /* \"@openzeppelin/contracts/access/Ownable.sol\":3020:3026  _owner */\n  0x05\n  0x00\n    /* \"@openzeppelin/contracts/access/Ownable.sol\":3020:3037  _owner = newOwner */\n  0x0100\n  exp\n  dup2\n  sload\n  dup2\n  0xffffffffffffffffffffffffffffffffffffffff\n  mul\n  not\n  and\n  swap1\n  dup4\n  0xffffffffffffffffffffffffffffffffffffffff\n  and\n  mul\n  or\n  swap1\n  sstore\n  pop\n    /* \"@openzeppelin/contracts/access/Ownable.sol\":3083:3091  newOwner */\n  dup2\n    /* \"@openzeppelin/contracts/access/Ownable.sol\":3052:3092  OwnershipTransferred(oldOwner, newOwner) */\n  0xffffffffffffffffffffffffffffffffffffffff\n  and\n    /* \"@openzeppelin/contracts/access/Ownable.sol\":3073:3081  oldOwner */\n  dup2\n    /* \"@openzeppelin/contracts/access/Ownable.sol\":3052:3092  OwnershipTransferred(oldOwner, newOwner) */\n  0xffffffffffffffffffffffffffffffffffffffff\n  and\n  0x8be0079c531659141344cd1fd0a4f28419497f9722a3daafe3b4186f6b6457e0\n  mload(0x40)\n  mload(0x40)\n  dup1\n  swap2\n  sub\n  swap1\n  log3\n    /* \"@openzeppelin/contracts/access/Ownable.sol\":2975:3099  {... */\n  pop\n    /* \"@openzeppelin/contracts/access/Ownable.sol\":2912:3099  function _transferOwnership(address newOwner) internal virtual {... */\n  pop\n  jump\t// out\n    /* \"contracts/regalium.sol\":1323:1519  function _mintWithCapCheck(address account, uint256 amount) internal {... */\ntag_23:\n    /* \"contracts/regalium.sol\":352:369  50000000 * 10**18 */\n  0x295be96e64066972000000\n    /* \"contracts/regalium.sol\":1427:1433  amount */\n  dup2\n    /* \"contracts/regalium.sol\":1411:1424  totalSupply() */\n  tag_28\n    /* \"contracts/regalium.sol\":1411:1422  totalSupply */\n  shl(0x20, tag_29)\n    /* \"contracts/regalium.sol\":1411:1424  totalSupply() */\n  0x20\n  shr\n  jump\t// in\ntag_28:\n    /* \"contracts/regalium.sol\":1411:1433  totalSupply() + amount */\n  tag_30\n  swap2\n  swap1\n  tag_31\n  jump\t// in\ntag_30:\n    /* \"contracts/regalium.sol\":1411:1447  totalSupply() + amount <= MAX_SUPPLY */\n  gt\n  iszero\n    /* \"contracts/regalium.sol\":1403:1478  require(totalSupply() + amount <= MAX_SUPPLY, \"Minting exceeds max supply\") */\n  tag_32\n  jumpi\n  mload(0x40)\n  0x08c379a000000000000000000000000000000000000000000000000000000000\n  dup2\n  mstore\n  0x04\n  add\n  tag_33\n  swap1\n  tag_34\n  jump\t// in\ntag_33:\n  mload(0x40)\n  dup1\n  swap2\n  sub\n  swap1\n  revert\ntag_32:\n    /* \"contracts/regalium.sol\":1489:1511  _mint(account, amount) */\n  tag_35\n    /* \"contracts/regalium.sol\":1495:1502  account */\n  dup3\n    /* \"contracts/regalium.sol\":1504:1510  amount */\n  dup3\n    /* \"contracts/regalium.sol\":1489:1494  _mint */\n  shl(0x20, tag_36)\n    /* \"contracts/regalium.sol\":1489:1511  _mint(account, amount) */\n  0x20\n  shr\n  jump\t// in\ntag_35:\n    /* \"contracts/regalium.sol\":1323:1519  function _mintWithCapCheck(address account, uint256 amount) internal {... */\n  pop\n  pop\n  jump\t// out\n    /* \"@openzeppelin/contracts/token/ERC20/ERC20.sol\":3144:3241  function totalSupply() public view virtual returns (uint256) {... */\ntag_29:\n    /* \"@openzeppelin/contracts/token/ERC20/ERC20.sol\":3196:3203  uint256 */\n  0x00\n    /* \"@openzeppelin/contracts/token/ERC20/ERC20.sol\":3222:3234  _totalSupply */\n  sload(0x02)\n    /* \"@openzeppelin/contracts/token/ERC20/ERC20.sol\":3215:3234  return _totalSupply */\n  swap1\n  pop\n    /* \"@openzeppelin/contracts/token/ERC20/ERC20.sol\":3144:3241  function totalSupply() public view virtual returns (uint256) {... */\n  swap1\n  jump\t// out\n    /* \"@openzeppelin/contracts/token/ERC20/ERC20.sol\":7721:7929  function _mint(address account, uint256 value) internal {... */\ntag_36:\n    /* \"@openzeppelin/contracts/token/ERC20/ERC20.sol\":7810:7811  0 */\n  0x00\n    /* \"@openzeppelin/contracts/token/ERC20/ERC20.sol\":7791:7812  account == address(0) */\n  0xffffffffffffffffffffffffffffffffffffffff\n  and\n    /* \"@openzeppelin/contracts/token/ERC20/ERC20.sol\":7791:7798  account */\n  dup3\n    /* \"@openzeppelin/contracts/token/ERC20/ERC20.sol\":7791:7812  account == address(0) */\n  0xffffffffffffffffffffffffffffffffffffffff\n  and\n  sub\n    /* \"@openzeppelin/contracts/token/ERC20/ERC20.sol\":7787:7878  if (account == address(0)) {... */\n  tag_39\n  jumpi\n    /* \"@openzeppelin/contracts/token/ERC20/ERC20.sol\":7864:7865  0 */\n  0x00\n    /* \"@openzeppelin/contracts/token/ERC20/ERC20.sol\":7835:7867  ERC20InvalidReceiver(address(0)) */\n  mload(0x40)\n  0xec442f0500000000000000000000000000000000000000000000000000000000\n  dup2\n  mstore\n  0x04\n  add\n  tag_40\n  swap2\n  swap1\n  tag_14\n  jump\t// in\ntag_40:\n  mload(0x40)\n  dup1\n  swap2\n  sub\n  swap1\n  revert\n    /* \"@openzeppelin/contracts/token/ERC20/ERC20.sol\":7787:7878  if (account == address(0)) {... */\ntag_39:\n    /* \"@openzeppelin/contracts/token/ERC20/ERC20.sol\":7887:7922  _update(address(0), account, value) */\n  tag_41\n    /* \"@openzeppelin/contracts/token/ERC20/ERC20.sol\":7903:7904  0 */\n  0x00\n    /* \"@openzeppelin/contracts/token/ERC20/ERC20.sol\":7907:7914  account */\n  dup4\n    /* \"@openzeppelin/contracts/token/ERC20/ERC20.sol\":7916:7921  value */\n  dup4\n    /* \"@openzeppelin/contracts/token/ERC20/ERC20.sol\":7887:7894  _update */\n  shl(0x20, tag_42)\n    /* \"@openzeppelin/contracts/token/ERC20/ERC20.sol\":7887:7922  _update(address(0), account, value) */\n  0x20\n  shr\n  jump\t// in\ntag_41:\n    /* \"@openzeppelin/contracts/token/ERC20/ERC20.sol\":7721:7929  function _mint(address account, uint256 value) internal {... */\n  pop\n  pop\n  jump\t// out\n    /* \"@openzeppelin/contracts/token/ERC20/ERC20.sol\":6271:7378  function _update(address from, address to, uint256 value) internal virtual {... */\ntag_42:\n    /* \"@openzeppelin/contracts/token/ERC20/ERC20.sol\":6376:6377  0 */\n  0x00\n    /* \"@openzeppelin/contracts/token/ERC20/ERC20.sol\":6360:6378  from == address(0) */\n  0xffffffffffffffffffffffffffffffffffffffff\n  and\n    /* \"@openzeppelin/contracts/token/ERC20/ERC20.sol\":6360:6364  from */\n  dup4\n    /* \"@openzeppelin/contracts/token/ERC20/ERC20.sol\":6360:6378  from == address(0) */\n  0xffffffffffffffffffffffffffffffffffffffff\n  and\n  sub\n    /* \"@openzeppelin/contracts/token/ERC20/ERC20.sol\":6356:6896  if (from == address(0)) {... */\n  tag_44\n  jumpi\n    /* \"@openzeppelin/contracts/token/ERC20/ERC20.sol\":6512:6517  value */\n  dup1\n    /* \"@openzeppelin/contracts/token/ERC20/ERC20.sol\":6496:6508  _totalSupply */\n  0x02\n  0x00\n    /* \"@openzeppelin/contracts/token/ERC20/ERC20.sol\":6496:6517  _totalSupply += value */\n  dup3\n  dup3\n  sload\n  tag_45\n  swap2\n  swap1\n  tag_31\n  jump\t// in\ntag_45:\n  swap3\n  pop\n  pop\n  dup2\n  swap1\n  sstore\n  pop\n    /* \"@openzeppelin/contracts/token/ERC20/ERC20.sol\":6356:6896  if (from == address(0)) {... */\n  jump(tag_46)\ntag_44:\n    /* \"@openzeppelin/contracts/token/ERC20/ERC20.sol\":6548:6567  uint256 fromBalance */\n  0x00\n    /* \"@openzeppelin/contracts/token/ERC20/ERC20.sol\":6570:6579  _balances */\n  dup1\n    /* \"@openzeppelin/contracts/token/ERC20/ERC20.sol\":6570:6585  _balances[from] */\n  0x00\n    /* \"@openzeppelin/contracts/token/ERC20/ERC20.sol\":6580:6584  from */\n  dup6\n    /* \"@openzeppelin/contracts/token/ERC20/ERC20.sol\":6570:6585  _balances[from] */\n  0xffffffffffffffffffffffffffffffffffffffff\n  and\n  0xffffffffffffffffffffffffffffffffffffffff\n  and\n  dup2\n  mstore\n  0x20\n  add\n  swap1\n  dup2\n  mstore\n  0x20\n  add\n  0x00\n  keccak256\n  sload\n    /* \"@openzeppelin/contracts/token/ERC20/ERC20.sol\":6548:6585  uint256 fromBalance = _balances[from] */\n  swap1\n  pop\n    /* \"@openzeppelin/contracts/token/ERC20/ERC20.sol\":6617:6622  value */\n  dup2\n    /* \"@openzeppelin/contracts/token/ERC20/ERC20.sol\":6603:6614  fromBalance */\n  dup2\n    /* \"@openzeppelin/contracts/token/ERC20/ERC20.sol\":6603:6622  fromBalance < value */\n  lt\n    /* \"@openzeppelin/contracts/token/ERC20/ERC20.sol\":6599:6714  if (fromBalance < value) {... */\n  iszero\n  tag_47\n  jumpi\n    /* \"@openzeppelin/contracts/token/ERC20/ERC20.sol\":6674:6678  from */\n  dup4\n    /* \"@openzeppelin/contracts/token/ERC20/ERC20.sol\":6680:6691  fromBalance */\n  dup2\n    /* \"@openzeppelin/contracts/token/ERC20/ERC20.sol\":6693:6698  value */\n  dup4\n    /* \"@openzeppelin/contracts/token/ERC20/ERC20.sol\":6649:6699  ERC20InsufficientBalance(from, fromBalance, value) */\n  mload(0x40)\n  0xe450d38c00000000000000000000000000000000000000000000000000000000\n  dup2\n  mstore\n  0x04\n  add\n  tag_48\n  swap4\n  swap3\n  swap2\n  swap1\n  tag_49\n  jump\t// in\ntag_48:\n  mload(0x40)\n  dup1\n  swap2\n  sub\n  swap1\n  revert\n    /* \"@openzeppelin/contracts/token/ERC20/ERC20.sol\":6599:6714  if (fromBalance < value) {... */\ntag_47:\n    /* \"@openzeppelin/contracts/token/ERC20/ERC20.sol\":6866:6871  value */\n  dup2\n    /* \"@openzeppelin/contracts/token/ERC20/ERC20.sol\":6852:6863  fromBalance */\n  dup2\n    /* \"@openzeppelin/contracts/token/ERC20/ERC20.sol\":6852:6871  fromBalance - value */\n  sub\n    /* \"@openzeppelin/contracts/token/ERC20/ERC20.sol\":6834:6843  _balances */\n  0x00\n    /* \"@openzeppelin/contracts/token/ERC20/ERC20.sol\":6834:6849  _balances[from] */\n  dup1\n    /* \"@openzeppelin/contracts/token/ERC20/ERC20.sol\":6844:6848  from */\n  dup7\n    /* \"@openzeppelin/contracts/token/ERC20/ERC20.sol\":6834:6849  _balances[from] */\n  0xffffffffffffffffffffffffffffffffffffffff\n  and\n  0xffffffffffffffffffffffffffffffffffffffff\n  and\n  dup2\n  mstore\n  0x20\n  add\n  swap1\n  dup2\n  mstore\n  0x20\n  add\n  0x00\n  keccak256\n    /* \"@openzeppelin/contracts/token/ERC20/ERC20.sol\":6834:6871  _balances[from] = fromBalance - value */\n  dup2\n  swap1\n  sstore\n  pop\n    /* \"@openzeppelin/contracts/token/ERC20/ERC20.sol\":6534:6896  {... */\n  pop\n    /* \"@openzeppelin/contracts/token/ERC20/ERC20.sol\":6356:6896  if (from == address(0)) {... */\ntag_46:\n    /* \"@openzeppelin/contracts/token/ERC20/ERC20.sol\":6924:6925  0 */\n  0x00\n    /* \"@openzeppelin/contracts/token/ERC20/ERC20.sol\":6910:6926  to == address(0) */\n  0xffffffffffffffffffffffffffffffffffffffff\n  and\n    /* \"@openzeppelin/contracts/token/ERC20/ERC20.sol\":6910:6912  to */\n  dup3\n    /* \"@openzeppelin/contracts/token/ERC20/ERC20.sol\":6910:6926  to == address(0) */\n  0xffffffffffffffffffffffffffffffffffffffff\n  and\n  sub\n    /* \"@openzeppelin/contracts/token/ERC20/ERC20.sol\":6906:7331  if (to == address(0)) {... */\n  tag_50\n  jumpi\n    /* \"@openzeppelin/contracts/token/ERC20/ERC20.sol\":7089:7094  value */\n  dup1\n    /* \"@openzeppelin/contracts/token/ERC20/ERC20.sol\":7073:7085  _totalSupply */\n  0x02\n  0x00\n    /* \"@openzeppelin/contracts/token/ERC20/ERC20.sol\":7073:7094  _totalSupply -= value */\n  dup3\n  dup3\n  sload\n  sub\n  swap3\n  pop\n  pop\n  dup2\n  swap1\n  sstore\n  pop\n    /* \"@openzeppelin/contracts/token/ERC20/ERC20.sol\":6906:7331  if (to == address(0)) {... */\n  jump(tag_51)\ntag_50:\n    /* \"@openzeppelin/contracts/token/ERC20/ERC20.sol\":7301:7306  value */\n  dup1\n    /* \"@openzeppelin/contracts/token/ERC20/ERC20.sol\":7284:7293  _balances */\n  0x00\n    /* \"@openzeppelin/contracts/token/ERC20/ERC20.sol\":7284:7297  _balances[to] */\n  dup1\n    /* \"@openzeppelin/contracts/token/ERC20/ERC20.sol\":7294:7296  to */\n  dup5\n    /* \"@openzeppelin/contracts/token/ERC20/ERC20.sol\":7284:7297  _balances[to] */\n  0xffffffffffffffffffffffffffffffffffffffff\n  and\n  0xffffffffffffffffffffffffffffffffffffffff\n  and\n  dup2\n  mstore\n  0x20\n  add\n  swap1\n  dup2\n  mstore\n  0x20\n  add\n  0x00\n  keccak256\n  0x00\n    /* \"@openzeppelin/contracts/token/ERC20/ERC20.sol\":7284:7306  _balances[to] += value */\n  dup3\n  dup3\n  sload\n  add\n  swap3\n  pop\n  pop\n  dup2\n  swap1\n  sstore\n  pop\n    /* \"@openzeppelin/contracts/token/ERC20/ERC20.sol\":6906:7331  if (to == address(0)) {... */\ntag_51:\n    /* \"@openzeppelin/contracts/token/ERC20/ERC20.sol\":7361:7363  to */\n  dup2\n    /* \"@openzeppelin/contracts/token/ERC20/ERC20.sol\":7346:7371  Transfer(from, to, value) */\n  0xffffffffffffffffffffffffffffffffffffffff\n  and\n    /* \"@openzeppelin/contracts/token/ERC20/ERC20.sol\":7355:7359  from */\n  dup4\n    /* \"@openzeppelin/contracts/token/ERC20/ERC20.sol\":7346:7371  Transfer(from, to, value) */\n  0xffffffffffffffffffffffffffffffffffffffff\n  and\n  0xddf252ad1be2c89b69c2b068fc378daa952ba7f163c4a11628f55a4df523b3ef\n    /* \"@openzeppelin/contracts/token/ERC20/ERC20.sol\":7365:7370  value */\n  dup4\n    /* \"@openzeppelin/contracts/token/ERC20/ERC20.sol\":7346:7371  Transfer(from, to, value) */\n  mload(0x40)\n  tag_52\n  swap2\n  swap1\n  tag_53\n  jump\t// in\ntag_52:\n  mload(0x40)\n  dup1\n  swap2\n  sub\n  swap1\n  log3\n    /* \"@openzeppelin/contracts/token/ERC20/ERC20.sol\":6271:7378  function _update(address from, address to, uint256 value) internal virtual {... */\n  pop\n  pop\n  pop\n  jump\t// out\n    /* \"#utility.yul\":88:205   */\ntag_55:\n    /* \"#utility.yul\":197:198   */\n  0x00\n    /* \"#utility.yul\":194:195   */\n  dup1\n    /* \"#utility.yul\":187:199   */\n  revert\n    /* \"#utility.yul\":334:460   */\ntag_57:\n    /* \"#utility.yul\":371:378   */\n  0x00\n    /* \"#utility.yul\":411:453   */\n  0xffffffffffffffffffffffffffffffffffffffff\n    /* \"#utility.yul\":404:409   */\n  dup3\n    /* \"#utility.yul\":400:454   */\n  and\n    /* \"#utility.yul\":389:454   */\n  swap1\n  pop\n    /* \"#utility.yul\":334:460   */\n  swap2\n  swap1\n  pop\n  jump\t// out\n    /* \"#utility.yul\":466:562   */\ntag_58:\n    /* \"#utility.yul\":503:510   */\n  0x00\n    /* \"#utility.yul\":532:556   */\n  tag_94\n    /* \"#utility.yul\":550:555   */\n  dup3\n    /* \"#utility.yul\":532:556   */\n  tag_57\n  jump\t// in\ntag_94:\n    /* \"#utility.yul\":521:556   */\n  swap1\n  pop\n    /* \"#utility.yul\":466:562   */\n  swap2\n  swap1\n  pop\n  jump\t// out\n    /* \"#utility.yul\":568:690   */\ntag_59:\n    /* \"#utility.yul\":641:665   */\n  tag_96\n    /* \"#utility.yul\":659:664   */\n  dup2\n    /* \"#utility.yul\":641:665   */\n  tag_58\n  jump\t// in\ntag_96:\n    /* \"#utility.yul\":634:639   */\n  dup2\n    /* \"#utility.yul\":631:666   */\n  eq\n    /* \"#utility.yul\":621:684   */\n  tag_97\n  jumpi\n    /* \"#utility.yul\":680:681   */\n  0x00\n    /* \"#utility.yul\":677:678   */\n  dup1\n    /* \"#utility.yul\":670:682   */\n  revert\n    /* \"#utility.yul\":621:684   */\ntag_97:\n    /* \"#utility.yul\":568:690   */\n  pop\n  jump\t// out\n    /* \"#utility.yul\":696:839   */\ntag_60:\n    /* \"#utility.yul\":753:758   */\n  0x00\n    /* \"#utility.yul\":784:790   */\n  dup2\n    /* \"#utility.yul\":778:791   */\n  mload\n    /* \"#utility.yul\":769:791   */\n  swap1\n  pop\n    /* \"#utility.yul\":800:833   */\n  tag_99\n    /* \"#utility.yul\":827:832   */\n  dup2\n    /* \"#utility.yul\":800:833   */\n  tag_59\n  jump\t// in\ntag_99:\n    /* \"#utility.yul\":696:839   */\n  swap3\n  swap2\n  pop\n  pop\n  jump\t// out\n    /* \"#utility.yul\":845:1196   */\ntag_3:\n    /* \"#utility.yul\":915:921   */\n  0x00\n    /* \"#utility.yul\":964:966   */\n  0x20\n    /* \"#utility.yul\":952:961   */\n  dup3\n    /* \"#utility.yul\":943:950   */\n  dup5\n    /* \"#utility.yul\":939:962   */\n  sub\n    /* \"#utility.yul\":935:967   */\n  slt\n    /* \"#utility.yul\":932:1051   */\n  iszero\n  tag_101\n  jumpi\n    /* \"#utility.yul\":970:1049   */\n  tag_102\n  tag_55\n  jump\t// in\ntag_102:\n    /* \"#utility.yul\":932:1051   */\ntag_101:\n    /* \"#utility.yul\":1090:1091   */\n  0x00\n    /* \"#utility.yul\":1115:1179   */\n  tag_103\n    /* \"#utility.yul\":1171:1178   */\n  dup5\n    /* \"#utility.yul\":1162:1168   */\n  dup3\n    /* \"#utility.yul\":1151:1160   */\n  dup6\n    /* \"#utility.yul\":1147:1169   */\n  add\n    /* \"#utility.yul\":1115:1179   */\n  tag_60\n  jump\t// in\ntag_103:\n    /* \"#utility.yul\":1105:1179   */\n  swap2\n  pop\n    /* \"#utility.yul\":1061:1189   */\n  pop\n    /* \"#utility.yul\":845:1196   */\n  swap3\n  swap2\n  pop\n  pop\n  jump\t// out\n    /* \"#utility.yul\":1202:1301   */\ntag_61:\n    /* \"#utility.yul\":1254:1260   */\n  0x00\n    /* \"#utility.yul\":1288:1293   */\n  dup2\n    /* \"#utility.yul\":1282:1294   */\n  mload\n    /* \"#utility.yul\":1272:1294   */\n  swap1\n  pop\n    /* \"#utility.yul\":1202:1301   */\n  swap2\n  swap1\n  pop\n  jump\t// out\n    /* \"#utility.yul\":1307:1487   */\ntag_62:\n    /* \"#utility.yul\":1355:1432   */\n  0x4e487b7100000000000000000000000000000000000000000000000000000000\n    /* \"#utility.yul\":1352:1353   */\n  0x00\n    /* \"#utility.yul\":1345:1433   */\n  mstore\n    /* \"#utility.yul\":1452:1456   */\n  0x41\n    /* \"#utility.yul\":1449:1450   */\n  0x04\n    /* \"#utility.yul\":1442:1457   */\n  mstore\n    /* \"#utility.yul\":1476:1480   */\n  0x24\n    /* \"#utility.yul\":1473:1474   */\n  0x00\n    /* \"#utility.yul\":1466:1481   */\n  revert\n    /* \"#utility.yul\":1493:1673   */\ntag_63:\n    /* \"#utility.yul\":1541:1618   */\n  0x4e487b7100000000000000000000000000000000000000000000000000000000\n    /* \"#utility.yul\":1538:1539   */\n  0x00\n    /* \"#utility.yul\":1531:1619   */\n  mstore\n    /* \"#utility.yul\":1638:1642   */\n  0x22\n    /* \"#utility.yul\":1635:1636   */\n  0x04\n    /* \"#utility.yul\":1628:1643   */\n  mstore\n    /* \"#utility.yul\":1662:1666   */\n  0x24\n    /* \"#utility.yul\":1659:1660   */\n  0x00\n    /* \"#utility.yul\":1652:1667   */\n  revert\n    /* \"#utility.yul\":1679:1999   */\ntag_64:\n    /* \"#utility.yul\":1723:1729   */\n  0x00\n    /* \"#utility.yul\":1760:1761   */\n  0x02\n    /* \"#utility.yul\":1754:1758   */\n  dup3\n    /* \"#utility.yul\":1750:1762   */\n  div\n    /* \"#utility.yul\":1740:1762   */\n  swap1\n  pop\n    /* \"#utility.yul\":1807:1808   */\n  0x01\n    /* \"#utility.yul\":1801:1805   */\n  dup3\n    /* \"#utility.yul\":1797:1809   */\n  and\n    /* \"#utility.yul\":1828:1846   */\n  dup1\n    /* \"#utility.yul\":1818:1899   */\n  tag_108\n  jumpi\n    /* \"#utility.yul\":1884:1888   */\n  0x7f\n    /* \"#utility.yul\":1876:1882   */\n  dup3\n    /* \"#utility.yul\":1872:1889   */\n  and\n    /* \"#utility.yul\":1862:1889   */\n  swap2\n  pop\n    /* \"#utility.yul\":1818:1899   */\ntag_108:\n    /* \"#utility.yul\":1946:1948   */\n  0x20\n    /* \"#utility.yul\":1938:1944   */\n  dup3\n    /* \"#utility.yul\":1935:1949   */\n  lt\n    /* \"#utility.yul\":1915:1933   */\n  dup2\n    /* \"#utility.yul\":1912:1950   */\n  sub\n    /* \"#utility.yul\":1909:1993   */\n  tag_109\n  jumpi\n    /* \"#utility.yul\":1965:1983   */\n  tag_110\n  tag_63\n  jump\t// in\ntag_110:\n    /* \"#utility.yul\":1909:1993   */\ntag_109:\n    /* \"#utility.yul\":1730:1999   */\n  pop\n    /* \"#utility.yul\":1679:1999   */\n  swap2\n  swap1\n  pop\n  jump\t// out\n    /* \"#utility.yul\":2005:2146   */\ntag_65:\n    /* \"#utility.yul\":2054:2058   */\n  0x00\n    /* \"#utility.yul\":2077:2080   */\n  dup2\n    /* \"#utility.yul\":2069:2080   */\n  swap1\n  pop\n    /* \"#utility.yul\":2100:2103   */\n  dup2\n    /* \"#utility.yul\":2097:2098   */\n  0x00\n    /* \"#utility.yul\":2090:2104   */\n  mstore\n    /* \"#utility.yul\":2134:2138   */\n  0x20\n    /* \"#utility.yul\":2131:2132   */\n  0x00\n    /* \"#utility.yul\":2121:2139   */\n  keccak256\n    /* \"#utility.yul\":2113:2139   */\n  swap1\n  pop\n    /* \"#utility.yul\":2005:2146   */\n  swap2\n  swap1\n  pop\n  jump\t// out\n    /* \"#utility.yul\":2152:2245   */\ntag_66:\n    /* \"#utility.yul\":2189:2195   */\n  0x00\n    /* \"#utility.yul\":2236:2238   */\n  0x20\n    /* \"#utility.yul\":2231:2233   */\n  0x1f\n    /* \"#utility.yul\":2224:2229   */\n  dup4\n    /* \"#utility.yul\":2220:2234   */\n  add\n    /* \"#utility.yul\":2216:2239   */\n  div\n    /* \"#utility.yul\":2206:2239   */\n  swap1\n  pop\n    /* \"#utility.yul\":2152:2245   */\n  swap2\n  swap1\n  pop\n  jump\t// out\n    /* \"#utility.yul\":2251:2358   */\ntag_67:\n    /* \"#utility.yul\":2295:2303   */\n  0x00\n    /* \"#utility.yul\":2345:2350   */\n  dup3\n    /* \"#utility.yul\":2339:2343   */\n  dup3\n    /* \"#utility.yul\":2335:2351   */\n  shl\n    /* \"#utility.yul\":2314:2351   */\n  swap1\n  pop\n    /* \"#utility.yul\":2251:2358   */\n  swap3\n  swap2\n  pop\n  pop\n  jump\t// out\n    /* \"#utility.yul\":2364:2757   */\ntag_68:\n    /* \"#utility.yul\":2433:2439   */\n  0x00\n    /* \"#utility.yul\":2483:2484   */\n  0x08\n    /* \"#utility.yul\":2471:2481   */\n  dup4\n    /* \"#utility.yul\":2467:2485   */\n  mul\n    /* \"#utility.yul\":2506:2603   */\n  tag_115\n    /* \"#utility.yul\":2536:2602   */\n  0xffffffffffffffffffffffffffffffffffffffffffffffffffffffffffffffff\n    /* \"#utility.yul\":2525:2534   */\n  dup3\n    /* \"#utility.yul\":2506:2603   */\n  tag_67\n  jump\t// in\ntag_115:\n    /* \"#utility.yul\":2624:2663   */\n  tag_116\n    /* \"#utility.yul\":2654:2662   */\n  dup7\n    /* \"#utility.yul\":2643:2652   */\n  dup4\n    /* \"#utility.yul\":2624:2663   */\n  tag_67\n  jump\t// in\ntag_116:\n    /* \"#utility.yul\":2612:2663   */\n  swap6\n  pop\n    /* \"#utility.yul\":2696:2700   */\n  dup1\n    /* \"#utility.yul\":2692:2701   */\n  not\n    /* \"#utility.yul\":2685:2690   */\n  dup5\n    /* \"#utility.yul\":2681:2702   */\n  and\n    /* \"#utility.yul\":2672:2702   */\n  swap4\n  pop\n    /* \"#utility.yul\":2745:2749   */\n  dup1\n    /* \"#utility.yul\":2735:2743   */\n  dup7\n    /* \"#utility.yul\":2731:2750   */\n  and\n    /* \"#utility.yul\":2724:2729   */\n  dup5\n    /* \"#utility.yul\":2721:2751   */\n  or\n    /* \"#utility.yul\":2711:2751   */\n  swap3\n  pop\n    /* \"#utility.yul\":2440:2757   */\n  pop\n  pop\n    /* \"#utility.yul\":2364:2757   */\n  swap4\n  swap3\n  pop\n  pop\n  pop\n  jump\t// out\n    /* \"#utility.yul\":2763:2840   */\ntag_69:\n    /* \"#utility.yul\":2800:2807   */\n  0x00\n    /* \"#utility.yul\":2829:2834   */\n  dup2\n    /* \"#utility.yul\":2818:2834   */\n  swap1\n  pop\n    /* \"#utility.yul\":2763:2840   */\n  swap2\n  swap1\n  pop\n  jump\t// out\n    /* \"#utility.yul\":2846:2906   */\ntag_70:\n    /* \"#utility.yul\":2874:2877   */\n  0x00\n    /* \"#utility.yul\":2895:2900   */\n  dup2\n    /* \"#utility.yul\":2888:2900   */\n  swap1\n  pop\n    /* \"#utility.yul\":2846:2906   */\n  swap2\n  swap1\n  pop\n  jump\t// out\n    /* \"#utility.yul\":2912:3054   */\ntag_71:\n    /* \"#utility.yul\":2962:2971   */\n  0x00\n    /* \"#utility.yul\":2995:3048   */\n  tag_120\n    /* \"#utility.yul\":3013:3047   */\n  tag_121\n    /* \"#utility.yul\":3022:3046   */\n  tag_122\n    /* \"#utility.yul\":3040:3045   */\n  dup5\n    /* \"#utility.yul\":3022:3046   */\n  tag_69\n  jump\t// in\ntag_122:\n    /* \"#utility.yul\":3013:3047   */\n  tag_70\n  jump\t// in\ntag_121:\n    /* \"#utility.yul\":2995:3048   */\n  tag_69\n  jump\t// in\ntag_120:\n    /* \"#utility.yul\":2982:3048   */\n  swap1\n  pop\n    /* \"#utility.yul\":2912:3054   */\n  swap2\n  swap1\n  pop\n  jump\t// out\n    /* \"#utility.yul\":3060:3135   */\ntag_72:\n    /* \"#utility.yul\":3103:3106   */\n  0x00\n    /* \"#utility.yul\":3124:3129   */\n  dup2\n    /* \"#utility.yul\":3117:3129   */\n  swap1\n  pop\n    /* \"#utility.yul\":3060:3135   */\n  swap2\n  swap1\n  pop\n  jump\t// out\n    /* \"#utility.yul\":3141:3410   */\ntag_73:\n    /* \"#utility.yul\":3251:3290   */\n  tag_125\n    /* \"#utility.yul\":3282:3289   */\n  dup4\n    /* \"#utility.yul\":3251:3290   */\n  tag_71\n  jump\t// in\ntag_125:\n    /* \"#utility.yul\":3312:3403   */\n  tag_126\n    /* \"#utility.yul\":3361:3402   */\n  tag_127\n    /* \"#utility.yul\":3385:3401   */\n  dup3\n    /* \"#utility.yul\":3361:3402   */\n  tag_72\n  jump\t// in\ntag_127:\n    /* \"#utility.yul\":3353:3359   */\n  dup5\n    /* \"#utility.yul\":3346:3350   */\n  dup5\n    /* \"#utility.yul\":3340:3351   */\n  sload\n    /* \"#utility.yul\":3312:3403   */\n  tag_68\n  jump\t// in\ntag_126:\n    /* \"#utility.yul\":3306:3310   */\n  dup3\n    /* \"#utility.yul\":3299:3404   */\n  sstore\n    /* \"#utility.yul\":3217:3410   */\n  pop\n    /* \"#utility.yul\":3141:3410   */\n  pop\n  pop\n  pop\n  jump\t// out\n    /* \"#utility.yul\":3416:3489   */\ntag_74:\n    /* \"#utility.yul\":3461:3464   */\n  0x00\n    /* \"#utility.yul\":3416:3489   */\n  swap1\n  jump\t// out\n    /* \"#utility.yul\":3495:3684   */\ntag_75:\n    /* \"#utility.yul\":3572:3604   */\n  tag_130\n  tag_74\n  jump\t// in\ntag_130:\n    /* \"#utility.yul\":3613:3678   */\n  tag_131\n    /* \"#utility.yul\":3671:3677   */\n  dup2\n    /* \"#utility.yul\":3663:3669   */\n  dup5\n    /* \"#utility.yul\":3657:3661   */\n  dup5\n    /* \"#utility.yul\":3613:3678   */\n  tag_73\n  jump\t// in\ntag_131:\n    /* \"#utility.yul\":3548:3684   */\n  pop\n    /* \"#utility.yul\":3495:3684   */\n  pop\n  pop\n  jump\t// out\n    /* \"#utility.yul\":3690:3876   */\ntag_76:\n    /* \"#utility.yul\":3750:3870   */\ntag_133:\n    /* \"#utility.yul\":3767:3770   */\n  dup2\n    /* \"#utility.yul\":3760:3765   */\n  dup2\n    /* \"#utility.yul\":3757:3771   */\n  lt\n    /* \"#utility.yul\":3750:3870   */\n  iszero\n  tag_135\n  jumpi\n    /* \"#utility.yul\":3821:3860   */\n  tag_136\n    /* \"#utility.yul\":3858:3859   */\n  0x00\n    /* \"#utility.yul\":3851:3856   */\n  dup3\n    /* \"#utility.yul\":3821:3860   */\n  tag_75\n  jump\t// in\ntag_136:\n    /* \"#utility.yul\":3794:3795   */\n  0x01\n    /* \"#utility.yul\":3787:3792   */\n  dup2\n    /* \"#utility.yul\":3783:3796   */\n  add\n    /* \"#utility.yul\":3774:3796   */\n  swap1\n  pop\n    /* \"#utility.yul\":3750:3870   */\n  jump(tag_133)\ntag_135:\n    /* \"#utility.yul\":3690:3876   */\n  pop\n  pop\n  jump\t// out\n    /* \"#utility.yul\":3882:4425   */\ntag_77:\n    /* \"#utility.yul\":3983:3985   */\n  0x1f\n    /* \"#utility.yul\":3978:3981   */\n  dup3\n    /* \"#utility.yul\":3975:3986   */\n  gt\n    /* \"#utility.yul\":3972:4418   */\n  iszero\n  tag_138\n  jumpi\n    /* \"#utility.yul\":4017:4055   */\n  tag_139\n    /* \"#utility.yul\":4049:4054   */\n  dup2\n    /* \"#utility.yul\":4017:4055   */\n  tag_65\n  jump\t// in\ntag_139:\n    /* \"#utility.yul\":4101:4130   */\n  tag_140\n    /* \"#utility.yul\":4119:4129   */\n  dup5\n    /* \"#utility.yul\":4101:4130   */\n  tag_66\n  jump\t// in\ntag_140:\n    /* \"#utility.yul\":4091:4099   */\n  dup2\n    /* \"#utility.yul\":4087:4131   */\n  add\n    /* \"#utility.yul\":4284:4286   */\n  0x20\n    /* \"#utility.yul\":4272:4282   */\n  dup6\n    /* \"#utility.yul\":4269:4287   */\n  lt\n    /* \"#utility.yul\":4266:4315   */\n  iszero\n  tag_141\n  jumpi\n    /* \"#utility.yul\":4305:4313   */\n  dup2\n    /* \"#utility.yul\":4290:4313   */\n  swap1\n  pop\n    /* \"#utility.yul\":4266:4315   */\ntag_141:\n    /* \"#utility.yul\":4328:4408   */\n  tag_142\n    /* \"#utility.yul\":4384:4406   */\n  tag_143\n    /* \"#utility.yul\":4402:4405   */\n  dup6\n    /* \"#utility.yul\":4384:4406   */\n  tag_66\n  jump\t// in\ntag_143:\n    /* \"#utility.yul\":4374:4382   */\n  dup4\n    /* \"#utility.yul\":4370:4407   */\n  add\n    /* \"#utility.yul\":4357:4368   */\n  dup3\n    /* \"#utility.yul\":4328:4408   */\n  tag_76\n  jump\t// in\ntag_142:\n    /* \"#utility.yul\":3987:4418   */\n  pop\n  pop\n    /* \"#utility.yul\":3972:4418   */\ntag_138:\n    /* \"#utility.yul\":3882:4425   */\n  pop\n  pop\n  pop\n  jump\t// out\n    /* \"#utility.yul\":4431:4548   */\ntag_78:\n    /* \"#utility.yul\":4485:4493   */\n  0x00\n    /* \"#utility.yul\":4535:4540   */\n  dup3\n    /* \"#utility.yul\":4529:4533   */\n  dup3\n    /* \"#utility.yul\":4525:4541   */\n  shr\n    /* \"#utility.yul\":4504:4541   */\n  swap1\n  pop\n    /* \"#utility.yul\":4431:4548   */\n  swap3\n  swap2\n  pop\n  pop\n  jump\t// out\n    /* \"#utility.yul\":4554:4723   */\ntag_79:\n    /* \"#utility.yul\":4598:4604   */\n  0x00\n    /* \"#utility.yul\":4631:4682   */\n  tag_146\n    /* \"#utility.yul\":4679:4680   */\n  0x00\n    /* \"#utility.yul\":4675:4681   */\n  not\n    /* \"#utility.yul\":4667:4672   */\n  dup5\n    /* \"#utility.yul\":4664:4665   */\n  0x08\n    /* \"#utility.yul\":4660:4673   */\n  mul\n    /* \"#utility.yul\":4631:4682   */\n  tag_78\n  jump\t// in\ntag_146:\n    /* \"#utility.yul\":4627:4683   */\n  not\n    /* \"#utility.yul\":4712:4716   */\n  dup1\n    /* \"#utility.yul\":4706:4710   */\n  dup4\n    /* \"#utility.yul\":4702:4717   */\n  and\n    /* \"#utility.yul\":4692:4717   */\n  swap2\n  pop\n    /* \"#utility.yul\":4605:4723   */\n  pop\n    /* \"#utility.yul\":4554:4723   */\n  swap3\n  swap2\n  pop\n  pop\n  jump\t// out\n    /* \"#utility.yul\":4728:5023   */\ntag_80:\n    /* \"#utility.yul\":4804:4808   */\n  0x00\n    /* \"#utility.yul\":4950:4979   */\n  tag_148\n    /* \"#utility.yul\":4975:4978   */\n  dup4\n    /* \"#utility.yul\":4969:4973   */\n  dup4\n    /* \"#utility.yul\":4950:4979   */\n  tag_79\n  jump\t// in\ntag_148:\n    /* \"#utility.yul\":4942:4979   */\n  swap2\n  pop\n    /* \"#utility.yul\":5012:5015   */\n  dup3\n    /* \"#utility.yul\":5009:5010   */\n  0x02\n    /* \"#utility.yul\":5005:5016   */\n  mul\n    /* \"#utility.yul\":4999:5003   */\n  dup3\n    /* \"#utility.yul\":4996:5017   */\n  or\n    /* \"#utility.yul\":4988:5017   */\n  swap1\n  pop\n    /* \"#utility.yul\":4728:5023   */\n  swap3\n  swap2\n  pop\n  pop\n  jump\t// out\n    /* \"#utility.yul\":5028:6423   */\ntag_9:\n    /* \"#utility.yul\":5145:5182   */\n  tag_150\n    /* \"#utility.yul\":5178:5181   */\n  dup3\n    /* \"#utility.yul\":5145:5182   */\n  tag_61\n  jump\t// in\ntag_150:\n    /* \"#utility.yul\":5247:5265   */\n  0xffffffffffffffff\n    /* \"#utility.yul\":5239:5245   */\n  dup2\n    /* \"#utility.yul\":5236:5266   */\n  gt\n    /* \"#utility.yul\":5233:5289   */\n  iszero\n  tag_151\n  jumpi\n    /* \"#utility.yul\":5269:5287   */\n  tag_152\n  tag_62\n  jump\t// in\ntag_152:\n    /* \"#utility.yul\":5233:5289   */\ntag_151:\n    /* \"#utility.yul\":5313:5351   */\n  tag_153\n    /* \"#utility.yul\":5345:5349   */\n  dup3\n    /* \"#utility.yul\":5339:5350   */\n  sload\n    /* \"#utility.yul\":5313:5351   */\n  tag_64\n  jump\t// in\ntag_153:\n    /* \"#utility.yul\":5398:5465   */\n  tag_154\n    /* \"#utility.yul\":5458:5464   */\n  dup3\n    /* \"#utility.yul\":5450:5456   */\n  dup3\n    /* \"#utility.yul\":5444:5448   */\n  dup6\n    /* \"#utility.yul\":5398:5465   */\n  tag_77\n  jump\t// in\ntag_154:\n    /* \"#utility.yul\":5492:5493   */\n  0x00\n    /* \"#utility.yul\":5516:5520   */\n  0x20\n    /* \"#utility.yul\":5503:5520   */\n  swap1\n  pop\n    /* \"#utility.yul\":5548:5550   */\n  0x1f\n    /* \"#utility.yul\":5540:5546   */\n  dup4\n    /* \"#utility.yul\":5537:5551   */\n  gt\n    /* \"#utility.yul\":5565:5566   */\n  0x01\n    /* \"#utility.yul\":5560:6178   */\n  dup2\n  eq\n  tag_156\n  jumpi\n    /* \"#utility.yul\":6222:6223   */\n  0x00\n    /* \"#utility.yul\":6239:6245   */\n  dup5\n    /* \"#utility.yul\":6236:6313   */\n  iszero\n  tag_157\n  jumpi\n    /* \"#utility.yul\":6288:6297   */\n  dup3\n    /* \"#utility.yul\":6283:6286   */\n  dup8\n    /* \"#utility.yul\":6279:6298   */\n  add\n    /* \"#utility.yul\":6273:6299   */\n  mload\n    /* \"#utility.yul\":6264:6299   */\n  swap1\n  pop\n    /* \"#utility.yul\":6236:6313   */\ntag_157:\n    /* \"#utility.yul\":6339:6406   */\n  tag_158\n    /* \"#utility.yul\":6399:6405   */\n  dup6\n    /* \"#utility.yul\":6392:6397   */\n  dup3\n    /* \"#utility.yul\":6339:6406   */\n  tag_80\n  jump\t// in\ntag_158:\n    /* \"#utility.yul\":6333:6337   */\n  dup7\n    /* \"#utility.yul\":6326:6407   */\n  sstore\n    /* \"#utility.yul\":6195:6417   */\n  pop\n    /* \"#utility.yul\":5530:6417   */\n  jump(tag_155)\n    /* \"#utility.yul\":5560:6178   */\ntag_156:\n    /* \"#utility.yul\":5612:5616   */\n  0x1f\n    /* \"#utility.yul\":5608:5617   */\n  not\n    /* \"#utility.yul\":5600:5606   */\n  dup5\n    /* \"#utility.yul\":5596:5618   */\n  and\n    /* \"#utility.yul\":5646:5683   */\n  tag_159\n    /* \"#utility.yul\":5678:5682   */\n  dup7\n    /* \"#utility.yul\":5646:5683   */\n  tag_65\n  jump\t// in\ntag_159:\n    /* \"#utility.yul\":5705:5706   */\n  0x00\n    /* \"#utility.yul\":5719:5927   */\ntag_160:\n    /* \"#utility.yul\":5733:5740   */\n  dup3\n    /* \"#utility.yul\":5730:5731   */\n  dup2\n    /* \"#utility.yul\":5727:5741   */\n  lt\n    /* \"#utility.yul\":5719:5927   */\n  iszero\n  tag_162\n  jumpi\n    /* \"#utility.yul\":5812:5821   */\n  dup5\n    /* \"#utility.yul\":5807:5810   */\n  dup10\n    /* \"#utility.yul\":5803:5822   */\n  add\n    /* \"#utility.yul\":5797:5823   */\n  mload\n    /* \"#utility.yul\":5789:5795   */\n  dup3\n    /* \"#utility.yul\":5782:5824   */\n  sstore\n    /* \"#utility.yul\":5863:5864   */\n  0x01\n    /* \"#utility.yul\":5855:5861   */\n  dup3\n    /* \"#utility.yul\":5851:5865   */\n  add\n    /* \"#utility.yul\":5841:5865   */\n  swap2\n  pop\n    /* \"#utility.yul\":5910:5912   */\n  0x20\n    /* \"#utility.yul\":5899:5908   */\n  dup6\n    /* \"#utility.yul\":5895:5913   */\n  add\n    /* \"#utility.yul\":5882:5913   */\n  swap5\n  pop\n    /* \"#utility.yul\":5756:5760   */\n  0x20\n    /* \"#utility.yul\":5753:5754   */\n  dup2\n    /* \"#utility.yul\":5749:5761   */\n  add\n    /* \"#utility.yul\":5744:5761   */\n  swap1\n  pop\n    /* \"#utility.yul\":5719:5927   */\n  jump(tag_160)\ntag_162:\n    /* \"#utility.yul\":5955:5961   */\n  dup7\n    /* \"#utility.yul\":5946:5953   */\n  dup4\n    /* \"#utility.yul\":5943:5962   */\n  lt\n    /* \"#utility.yul\":5940:6119   */\n  iszero\n  tag_163\n  jumpi\n    /* \"#utility.yul\":6013:6022   */\n  dup5\n    /* \"#utility.yul\":6008:6011   */\n  dup10\n    /* \"#utility.yul\":6004:6023   */\n  add\n    /* \"#utility.yul\":5998:6024   */\n  mload\n    /* \"#utility.yul\":6056:6104   */\n  tag_164\n    /* \"#utility.yul\":6098:6102   */\n  0x1f\n    /* \"#utility.yul\":6090:6096   */\n  dup10\n    /* \"#utility.yul\":6086:6103   */\n  and\n    /* \"#utility.yul\":6075:6084   */\n  dup3\n    /* \"#utility.yul\":6056:6104   */\n  tag_79\n  jump\t// in\ntag_164:\n    /* \"#utility.yul\":6048:6054   */\n  dup4\n    /* \"#utility.yul\":6041:6105   */\n  sstore\n    /* \"#utility.yul\":5963:6119   */\n  pop\n    /* \"#utility.yul\":5940:6119   */\ntag_163:\n    /* \"#utility.yul\":6165:6166   */\n  0x01\n    /* \"#utility.yul\":6161:6162   */\n  0x02\n    /* \"#utility.yul\":6153:6159   */\n  dup9\n    /* \"#utility.yul\":6149:6163   */\n  mul\n    /* \"#utility.yul\":6145:6167   */\n  add\n    /* \"#utility.yul\":6139:6143   */\n  dup9\n    /* \"#utility.yul\":6132:6168   */\n  sstore\n    /* \"#utility.yul\":5567:6178   */\n  pop\n  pop\n  pop\n    /* \"#utility.yul\":5530:6417   */\ntag_155:\n  pop\n    /* \"#utility.yul\":5120:6423   */\n  pop\n  pop\n  pop\n    /* \"#utility.yul\":5028:6423   */\n  pop\n  pop\n  jump\t// out\n    /* \"#utility.yul\":6429:6547   */\ntag_81:\n    /* \"#utility.yul\":6516:6540   */\n  tag_166\n    /* \"#utility.yul\":6534:6539   */\n  dup2\n    /* \"#utility.yul\":6516:6540   */\n  tag_58\n  jump\t// in\ntag_166:\n    /* \"#utility.yul\":6511:6514   */\n  dup3\n    /* \"#utility.yul\":6504:6541   */\n  mstore\n    /* \"#utility.yul\":6429:6547   */\n  pop\n  pop\n  jump\t// out\n    /* \"#utility.yul\":6553:6775   */\ntag_14:\n    /* \"#utility.yul\":6646:6650   */\n  0x00\n    /* \"#utility.yul\":6684:6686   */\n  0x20\n    /* \"#utility.yul\":6673:6682   */\n  dup3\n    /* \"#utility.yul\":6669:6687   */\n  add\n    /* \"#utility.yul\":6661:6687   */\n  swap1\n  pop\n    /* \"#utility.yul\":6697:6768   */\n  tag_168\n    /* \"#utility.yul\":6765:6766   */\n  0x00\n    /* \"#utility.yul\":6754:6763   */\n  dup4\n    /* \"#utility.yul\":6750:6767   */\n  add\n    /* \"#utility.yul\":6741:6747   */\n  dup5\n    /* \"#utility.yul\":6697:6768   */\n  tag_81\n  jump\t// in\ntag_168:\n    /* \"#utility.yul\":6553:6775   */\n  swap3\n  swap2\n  pop\n  pop\n  jump\t// out\n    /* \"#utility.yul\":6781:6961   */\ntag_82:\n    /* \"#utility.yul\":6829:6906   */\n  0x4e487b7100000000000000000000000000000000000000000000000000000000\n    /* \"#utility.yul\":6826:6827   */\n  0x00\n    /* \"#utility.yul\":6819:6907   */\n  mstore\n    /* \"#utility.yul\":6926:6930   */\n  0x11\n    /* \"#utility.yul\":6923:6924   */\n  0x04\n    /* \"#utility.yul\":6916:6931   */\n  mstore\n    /* \"#utility.yul\":6950:6954   */\n  0x24\n    /* \"#utility.yul\":6947:6948   */\n  0x00\n    /* \"#utility.yul\":6940:6955   */\n  revert\n    /* \"#utility.yul\":6967:7377   */\ntag_20:\n    /* \"#utility.yul\":7007:7014   */\n  0x00\n    /* \"#utility.yul\":7030:7050   */\n  tag_171\n    /* \"#utility.yul\":7048:7049   */\n  dup3\n    /* \"#utility.yul\":7030:7050   */\n  tag_69\n  jump\t// in\ntag_171:\n    /* \"#utility.yul\":7025:7050   */\n  swap2\n  pop\n    /* \"#utility.yul\":7064:7084   */\n  tag_172\n    /* \"#utility.yul\":7082:7083   */\n  dup4\n    /* \"#utility.yul\":7064:7084   */\n  tag_69\n  jump\t// in\ntag_172:\n    /* \"#utility.yul\":7059:7084   */\n  swap3\n  pop\n    /* \"#utility.yul\":7119:7120   */\n  dup3\n    /* \"#utility.yul\":7116:7117   */\n  dup3\n    /* \"#utility.yul\":7112:7121   */\n  mul\n    /* \"#utility.yul\":7141:7171   */\n  tag_173\n    /* \"#utility.yul\":7159:7170   */\n  dup2\n    /* \"#utility.yul\":7141:7171   */\n  tag_69\n  jump\t// in\ntag_173:\n    /* \"#utility.yul\":7130:7171   */\n  swap2\n  pop\n    /* \"#utility.yul\":7320:7321   */\n  dup3\n    /* \"#utility.yul\":7311:7318   */\n  dup3\n    /* \"#utility.yul\":7307:7322   */\n  div\n    /* \"#utility.yul\":7304:7305   */\n  dup5\n    /* \"#utility.yul\":7301:7323   */\n  eq\n    /* \"#utility.yul\":7281:7282   */\n  dup4\n    /* \"#utility.yul\":7274:7283   */\n  iszero\n    /* \"#utility.yul\":7254:7337   */\n  or\n    /* \"#utility.yul\":7231:7370   */\n  tag_174\n  jumpi\n    /* \"#utility.yul\":7350:7368   */\n  tag_175\n  tag_82\n  jump\t// in\ntag_175:\n    /* \"#utility.yul\":7231:7370   */\ntag_174:\n    /* \"#utility.yul\":7015:7377   */\n  pop\n    /* \"#utility.yul\":6967:7377   */\n  swap3\n  swap2\n  pop\n  pop\n  jump\t// out\n    /* \"#utility.yul\":7383:7563   */\ntag_83:\n    /* \"#utility.yul\":7431:7508   */\n  0x4e487b7100000000000000000000000000000000000000000000000000000000\n    /* \"#utility.yul\":7428:7429   */\n  0x00\n    /* \"#utility.yul\":7421:7509   */\n  mstore\n    /* \"#utility.yul\":7528:7532   */\n  0x12\n    /* \"#utility.yul\":7525:7526   */\n  0x04\n    /* \"#utility.yul\":7518:7533   */\n  mstore\n    /* \"#utility.yul\":7552:7556   */\n  0x24\n    /* \"#utility.yul\":7549:7550   */\n  0x00\n    /* \"#utility.yul\":7542:7557   */\n  revert\n    /* \"#utility.yul\":7569:7754   */\ntag_22:\n    /* \"#utility.yul\":7609:7610   */\n  0x00\n    /* \"#utility.yul\":7626:7646   */\n  tag_178\n    /* \"#utility.yul\":7644:7645   */\n  dup3\n    /* \"#utility.yul\":7626:7646   */\n  tag_69\n  jump\t// in\ntag_178:\n    /* \"#utility.yul\":7621:7646   */\n  swap2\n  pop\n    /* \"#utility.yul\":7660:7680   */\n  tag_179\n    /* \"#utility.yul\":7678:7679   */\n  dup4\n    /* \"#utility.yul\":7660:7680   */\n  tag_69\n  jump\t// in\ntag_179:\n    /* \"#utility.yul\":7655:7680   */\n  swap3\n  pop\n    /* \"#utility.yul\":7699:7700   */\n  dup3\n    /* \"#utility.yul\":7689:7724   */\n  tag_180\n  jumpi\n    /* \"#utility.yul\":7704:7722   */\n  tag_181\n  tag_83\n  jump\t// in\ntag_181:\n    /* \"#utility.yul\":7689:7724   */\ntag_180:\n    /* \"#utility.yul\":7746:7747   */\n  dup3\n    /* \"#utility.yul\":7743:7744   */\n  dup3\n    /* \"#utility.yul\":7739:7748   */\n  div\n    /* \"#utility.yul\":7734:7748   */\n  swap1\n  pop\n    /* \"#utility.yul\":7569:7754   */\n  swap3\n  swap2\n  pop\n  pop\n  jump\t// out\n    /* \"#utility.yul\":7760:7951   */\ntag_31:\n    /* \"#utility.yul\":7800:7803   */\n  0x00\n    /* \"#utility.yul\":7819:7839   */\n  tag_183\n    /* \"#utility.yul\":7837:7838   */\n  dup3\n    /* \"#utility.yul\":7819:7839   */\n  tag_69\n  jump\t// in\ntag_183:\n    /* \"#utility.yul\":7814:7839   */\n  swap2\n  pop\n    /* \"#utility.yul\":7853:7873   */\n  tag_184\n    /* \"#utility.yul\":7871:7872   */\n  dup4\n    /* \"#utility.yul\":7853:7873   */\n  tag_69\n  jump\t// in\ntag_184:\n    /* \"#utility.yul\":7848:7873   */\n  swap3\n  pop\n    /* \"#utility.yul\":7896:7897   */\n  dup3\n    /* \"#utility.yul\":7893:7894   */\n  dup3\n    /* \"#utility.yul\":7889:7898   */\n  add\n    /* \"#utility.yul\":7882:7898   */\n  swap1\n  pop\n    /* \"#utility.yul\":7917:7920   */\n  dup1\n    /* \"#utility.yul\":7914:7915   */\n  dup3\n    /* \"#utility.yul\":7911:7921   */\n  gt\n    /* \"#utility.yul\":7908:7944   */\n  iszero\n  tag_185\n  jumpi\n    /* \"#utility.yul\":7924:7942   */\n  tag_186\n  tag_82\n  jump\t// in\ntag_186:\n    /* \"#utility.yul\":7908:7944   */\ntag_185:\n    /* \"#utility.yul\":7760:7951   */\n  swap3\n  swap2\n  pop\n  pop\n  jump\t// out\n    /* \"#utility.yul\":7957:8126   */\ntag_84:\n    /* \"#utility.yul\":8041:8052   */\n  0x00\n    /* \"#utility.yul\":8075:8081   */\n  dup3\n    /* \"#utility.yul\":8070:8073   */\n  dup3\n    /* \"#utility.yul\":8063:8082   */\n  mstore\n    /* \"#utility.yul\":8115:8119   */\n  0x20\n    /* \"#utility.yul\":8110:8113   */\n  dup3\n    /* \"#utility.yul\":8106:8120   */\n  add\n    /* \"#utility.yul\":8091:8120   */\n  swap1\n  pop\n    /* \"#utility.yul\":7957:8126   */\n  swap3\n  swap2\n  pop\n  pop\n  jump\t// out\n    /* \"#utility.yul\":8132:8308   */\ntag_85:\n    /* \"#utility.yul\":8272:8300   */\n  0x4d696e74696e672065786365656473206d617820737570706c79000000000000\n    /* \"#utility.yul\":8268:8269   */\n  0x00\n    /* \"#utility.yul\":8260:8266   */\n  dup3\n    /* \"#utility.yul\":8256:8270   */\n  add\n    /* \"#utility.yul\":8249:8301   */\n  mstore\n    /* \"#utility.yul\":8132:8308   */\n  pop\n  jump\t// out\n    /* \"#utility.yul\":8314:8680   */\ntag_86:\n    /* \"#utility.yul\":8456:8459   */\n  0x00\n    /* \"#utility.yul\":8477:8544   */\n  tag_190\n    /* \"#utility.yul\":8541:8543   */\n  0x1a\n    /* \"#utility.yul\":8536:8539   */\n  dup4\n    /* \"#utility.yul\":8477:8544   */\n  tag_84\n  jump\t// in\ntag_190:\n    /* \"#utility.yul\":8470:8544   */\n  swap2\n  pop\n    /* \"#utility.yul\":8553:8646   */\n  tag_191\n    /* \"#utility.yul\":8642:8645   */\n  dup3\n    /* \"#utility.yul\":8553:8646   */\n  tag_85\n  jump\t// in\ntag_191:\n    /* \"#utility.yul\":8671:8673   */\n  0x20\n    /* \"#utility.yul\":8666:8669   */\n  dup3\n    /* \"#utility.yul\":8662:8674   */\n  add\n    /* \"#utility.yul\":8655:8674   */\n  swap1\n  pop\n    /* \"#utility.yul\":8314:8680   */\n  swap2\n  swap1\n  pop\n  jump\t// out\n    /* \"#utility.yul\":8686:9105   */\ntag_34:\n    /* \"#utility.yul\":8852:8856   */\n  0x00\n    /* \"#utility.yul\":8890:8892   */\n  0x20\n    /* \"#utility.yul\":8879:8888   */\n  dup3\n    /* \"#utility.yul\":8875:8893   */\n  add\n    /* \"#utility.yul\":8867:8893   */\n  swap1\n  pop\n    /* \"#utility.yul\":8939:8948   */\n  dup2\n    /* \"#utility.yul\":8933:8937   */\n  dup2\n    /* \"#utility.yul\":8929:8949   */\n  sub\n    /* \"#utility.yul\":8925:8926   */\n  0x00\n    /* \"#utility.yul\":8914:8923   */\n  dup4\n    /* \"#utility.yul\":8910:8927   */\n  add\n    /* \"#utility.yul\":8903:8950   */\n  mstore\n    /* \"#utility.yul\":8967:9098   */\n  tag_193\n    /* \"#utility.yul\":9093:9097   */\n  dup2\n    /* \"#utility.yul\":8967:9098   */\n  tag_86\n  jump\t// in\ntag_193:\n    /* \"#utility.yul\":8959:9098   */\n  swap1\n  pop\n    /* \"#utility.yul\":8686:9105   */\n  swap2\n  swap1\n  pop\n  jump\t// out\n    /* \"#utility.yul\":9111:9229   */\ntag_87:\n    /* \"#utility.yul\":9198:9222   */\n  tag_195\n    /* \"#utility.yul\":9216:9221   */\n  dup2\n    /* \"#utility.yul\":9198:9222   */\n  tag_69\n  jump\t// in\ntag_195:\n    /* \"#utility.yul\":9193:9196   */\n  dup3\n    /* \"#utility.yul\":9186:9223   */\n  mstore\n    /* \"#utility.yul\":9111:9229   */\n  pop\n  pop\n  jump\t// out\n    /* \"#utility.yul\":9235:9677   */\ntag_49:\n    /* \"#utility.yul\":9384:9388   */\n  0x00\n    /* \"#utility.yul\":9422:9424   */\n  0x60\n    /* \"#utility.yul\":9411:9420   */\n  dup3\n    /* \"#utility.yul\":9407:9425   */\n  add\n    /* \"#utility.yul\":9399:9425   */\n  swap1\n  pop\n    /* \"#utility.yul\":9435:9506   */\n  tag_197\n    /* \"#utility.yul\":9503:9504   */\n  0x00\n    /* \"#utility.yul\":9492:9501   */\n  dup4\n    /* \"#utility.yul\":9488:9505   */\n  add\n    /* \"#utility.yul\":9479:9485   */\n  dup7\n    /* \"#utility.yul\":9435:9506   */\n  tag_81\n  jump\t// in\ntag_197:\n    /* \"#utility.yul\":9516:9588   */\n  tag_198\n    /* \"#utility.yul\":9584:9586   */\n  0x20\n    /* \"#utility.yul\":9573:9582   */\n  dup4\n    /* \"#utility.yul\":9569:9587   */\n  add\n    /* \"#utility.yul\":9560:9566   */\n  dup6\n    /* \"#utility.yul\":9516:9588   */\n  tag_87\n  jump\t// in\ntag_198:\n    /* \"#utility.yul\":9598:9670   */\n  tag_199\n    /* \"#utility.yul\":9666:9668   */\n  0x40\n    /* \"#utility.yul\":9655:9664   */\n  dup4\n    /* \"#utility.yul\":9651:9669   */\n  add\n    /* \"#utility.yul\":9642:9648   */\n  dup5\n    /* \"#utility.yul\":9598:9670   */\n  tag_87\n  jump\t// in\ntag_199:\n    /* \"#utility.yul\":9235:9677   */\n  swap5\n  swap4\n  pop\n  pop\n  pop\n  pop\n  jump\t// out\n    /* \"#utility.yul\":9683:9905   */\ntag_53:\n    /* \"#utility.yul\":9776:9780   */\n  0x00\n    /* \"#utility.yul\":9814:9816   */\n  0x20\n    /* \"#utility.yul\":9803:9812   */\n  dup3\n    /* \"#utility.yul\":9799:9817   */\n  add\n    /* \"#utility.yul\":9791:9817   */\n  swap1\n  pop\n    /* \"#utility.yul\":9827:9898   */\n  tag_201\n    /* \"#utility.yul\":9895:9896   */\n  0x00\n    /* \"#utility.yul\":9884:9893   */\n  dup4\n    /* \"#utility.yul\":9880:9897   */\n  add\n    /* \"#utility.yul\":9871:9877   */\n  dup5\n    /* \"#utility.yul\":9827:9898   */\n  tag_87\n  jump\t// in\ntag_201:\n    /* \"#utility.yul\":9683:9905   */\n  swap3\n  swap2\n  pop\n  pop\n  jump\t// out\n    /* \"contracts/regalium.sol\":250:4894  contract RegaliumToken is ERC20, ERC20Burnable, Ownable {... */\ntag_25:\n  dataSize(sub_0)\n  dup1\n  dataOffset(sub_0)\n  0x00\n  codecopy\n  0x00\n  return\nstop\n\nsub_0: assembly {\n        /* \"contracts/regalium.sol\":250:4894  contract RegaliumToken is ERC20, ERC20Burnable, Ownable {... */\n      mstore(0x40, 0x80)\n      callvalue\n      dup1\n      iszero\n      tag_1\n      jumpi\n      0x00\n      dup1\n      revert\n    tag_1:\n      pop\n      jumpi(tag_2, lt(calldatasize, 0x04))\n      shr(0xe0, calldataload(0x00))\n      dup1\n      0x602512e1\n      gt\n      tag_40\n      jumpi\n      dup1\n      0x8da5cb5b\n      gt\n      tag_41\n      jumpi\n      dup1\n      0xa9059cbb\n      gt\n      tag_42\n      jumpi\n      dup1\n      0xa9059cbb\n      eq\n      tag_35\n      jumpi\n      dup1\n      0xc7b8981c\n      eq\n      tag_36\n      jumpi\n      dup1\n      0xd82e3962\n      eq\n      tag_37\n      jumpi\n      dup1\n      0xdd62ed3e\n      eq\n      tag_38\n      jumpi\n      dup1\n      0xf2fde38b\n      eq\n      tag_39\n      jumpi\n      jump(tag_2)\n    tag_42:\n      dup1\n      0x8da5cb5b\n      eq\n      tag_30\n      jumpi\n      dup1\n      0x95d89b41\n      eq\n      tag_31\n      jumpi\n      dup1\n      0x9e447fc6\n      eq\n      tag_32\n      jumpi\n      dup1\n      0xa694fc3a\n      eq\n      tag_33\n      jumpi\n      dup1\n      0xa6f9dae1\n      eq\n      tag_34\n      jumpi\n      jump(tag_2)\n    tag_41:\n      dup1\n      0x715018a6\n      gt\n      tag_43\n      jumpi\n      dup1\n      0x715018a6\n      eq\n      tag_25\n      jumpi\n      dup1\n      0x79cc6790\n      eq\n      tag_26\n      jumpi\n      dup1\n      0x7b0a47ee\n      eq\n      tag_27\n      jumpi\n      dup1\n      0x7bb1ca19\n      eq\n      tag_28\n      jumpi\n      dup1\n      0x817b1cd2\n      eq\n      tag_29\n      jumpi\n      jump(tag_2)\n    tag_43:\n      dup1\n      0x602512e1\n      eq\n      tag_21\n      jumpi\n      dup1\n      0x6e99d52f\n      eq\n      tag_22\n      jumpi\n      dup1\n      0x70480275\n      eq\n      tag_23\n      jumpi\n      dup1\n      0x70a08231\n      eq\n      tag_24\n      jumpi\n      jump(tag_2)\n    tag_40:\n      dup1\n      0x24d7806c\n      gt\n      tag_44\n      jumpi\n      dup1\n      0x32cb6b0c\n      gt\n      tag_45\n      jumpi\n      dup1\n      0x32cb6b0c\n      eq\n      tag_16\n      jumpi\n      dup1\n      0x331e03a8\n      eq\n      tag_17\n      jumpi\n      dup1\n      0x42966c68\n      eq\n      tag_18\n      jumpi\n      dup1\n      0x4d474898\n      eq\n      tag_19\n      jumpi\n      dup1\n      0x5556db65\n      eq\n      tag_20\n      jumpi\n      jump(tag_2)\n    tag_45:\n      dup1\n      0x24d7806c\n      eq\n      tag_12\n      jumpi\n      dup1\n      0x2e17de78\n      eq\n      tag_13\n      jumpi\n      dup1\n      0x313ce567\n      eq\n      tag_14\n      jumpi\n      dup1\n      0x31ae450b\n      eq\n      tag_15\n      jumpi\n      jump(tag_2)\n    tag_44:\n      dup1\n      0x16934fc4\n      gt\n      tag_46\n      jumpi\n      dup1\n      0x16934fc4\n      eq\n      tag_7\n      jumpi\n      dup1\n      0x1785f53c\n      eq\n      tag_8\n      jumpi\n      dup1\n      0x18160ddd\n      eq\n      tag_9\n      jumpi\n      dup1\n      0x19cae462\n      eq\n      tag_10\n      jumpi\n      dup1\n      0x23b872dd\n      eq\n      tag_11\n      jumpi\n      jump(tag_2)\n    tag_46:\n      dup1\n      0x06fdde03\n      eq\n      tag_3\n      jumpi\n      dup1\n      0x0700037d\n      eq\n      tag_4\n      jumpi\n      dup1\n      0x095ea7b3\n      eq\n      tag_5\n      jumpi\n      dup1\n      0x14bfd6d0\n      eq\n      tag_6\n      jumpi\n    tag_2:\n      0x00\n      dup1\n      revert\n        /* \"@openzeppelin/contracts/token/ERC20/ERC20.sol\":2074:2163  function name() public view virtual returns (string memory) {... */\n    tag_3:\n      tag_47\n      tag_48\n      jump\t// in\n    tag_47:\n      mload(0x40)\n      tag_49\n      swap2\n      swap1\n      tag_50\n      jump\t// in\n    tag_49:\n      mload(0x40)\n      dup1\n      swap2\n      sub\n      swap1\n      return\n        /* \"contracts/regalium.sol\":499:541  mapping(address => uint256) public rewards */\n    tag_4:\n      tag_51\n      0x04\n      dup1\n      calldatasize\n      sub\n      dup2\n      add\n      swap1\n      tag_52\n      swap2\n      swap1\n      tag_53\n      jump\t// in\n    tag_52:\n      tag_54\n      jump\t// in\n    tag_51:\n      mload(0x40)\n      tag_55\n      swap2\n      swap1\n      tag_56\n      jump\t// in\n    tag_55:\n      mload(0x40)\n      dup1\n      swap2\n      sub\n      swap1\n      return\n        /* \"@openzeppelin/contracts/token/ERC20/ERC20.sol\":4293:4479  function approve(address spender, uint256 value) public virtual returns (bool) {... */\n    tag_5:\n      tag_57\n      0x04\n      dup1\n      calldatasize\n      sub\n      dup2\n      add\n      swap1\n      tag_58\n      swap2\n      swap1\n      tag_59\n      jump\t// in\n    tag_58:\n      tag_60\n      jump\t// in\n    tag_57:\n      mload(0x40)\n      tag_61\n      swap2\n      swap1\n      tag_62\n      jump\t// in\n    tag_61:\n      mload(0x40)\n      dup1\n      swap2\n      sub\n      swap1\n      return\n        /* \"contracts/regalium.sol\":790:813  address[] public admins */\n    tag_6:\n      tag_63\n      0x04\n      dup1\n      calldatasize\n      sub\n      dup2\n      add\n      swap1\n      tag_64\n      swap2\n      swap1\n      tag_65\n      jump\t// in\n    tag_64:\n      tag_66\n      jump\t// in\n    tag_63:\n      mload(0x40)\n      tag_67\n      swap2\n      swap1\n      tag_68\n      jump\t// in\n    tag_67:\n      mload(0x40)\n      dup1\n      swap2\n      sub\n      swap1\n      return\n        /* \"contracts/regalium.sol\":451:492  mapping(address => uint256) public stakes */\n    tag_7:\n      tag_69\n      0x04\n      dup1\n      calldatasize\n      sub\n      dup2\n      add\n      swap1\n      tag_70\n      swap2\n      swap1\n      tag_53\n      jump\t// in\n    tag_70:\n      tag_71\n      jump\t// in\n    tag_69:\n      mload(0x40)\n      tag_72\n      swap2\n      swap1\n      tag_56\n      jump\t// in\n    tag_72:\n      mload(0x40)\n      dup1\n      swap2\n      sub\n      swap1\n      return\n        /* \"contracts/regalium.sol\":3915:4393  function removeAdmin(address adminToRemove) public onlyOwner {... */\n    tag_8:\n      tag_73\n      0x04\n      dup1\n      calldatasize\n      sub\n      dup2\n      add\n      swap1\n      tag_74\n      swap2\n      swap1\n      tag_53\n      jump\t// in\n    tag_74:\n      tag_75\n      jump\t// in\n    tag_73:\n      stop\n        /* \"@openzeppelin/contracts/token/ERC20/ERC20.sol\":3144:3241  function totalSupply() public view virtual returns (uint256) {... */\n    tag_9:\n      tag_76\n      tag_77\n      jump\t// in\n    tag_76:\n      mload(0x40)\n      tag_78\n      swap2\n      swap1\n      tag_56\n      jump\t// in\n    tag_78:\n      mload(0x40)\n      dup1\n      swap2\n      sub\n      swap1\n      return\n        /* \"contracts/regalium.sol\":408:442  uint256 public difficulty = 10**10 */\n    tag_10:\n      tag_79\n      tag_80\n      jump\t// in\n    tag_79:\n      mload(0x40)\n      tag_81\n      swap2\n      swap1\n      tag_56\n      jump\t// in\n    tag_81:\n      mload(0x40)\n      dup1\n      swap2\n      sub\n      swap1\n      return\n        /* \"@openzeppelin/contracts/token/ERC20/ERC20.sol\":5039:5283  function transferFrom(address from, address to, uint256 value) public virtual returns (bool) {... */\n    tag_11:\n      tag_82\n      0x04\n      dup1\n      calldatasize\n      sub\n      dup2\n      add\n      swap1\n      tag_83\n      swap2\n      swap1\n      tag_84\n      jump\t// in\n    tag_83:\n      tag_85\n      jump\t// in\n    tag_82:\n      mload(0x40)\n      tag_86\n      swap2\n      swap1\n      tag_62\n      jump\t// in\n    tag_86:\n      mload(0x40)\n      dup1\n      swap2\n      sub\n      swap1\n      return\n        /* \"contracts/regalium.sol\":820:859  mapping(address => bool) public isAdmin */\n    tag_12:\n      tag_87\n      0x04\n      dup1\n      calldatasize\n      sub\n      dup2\n      add\n      swap1\n      tag_88\n      swap2\n      swap1\n      tag_53\n      jump\t// in\n    tag_88:\n      tag_89\n      jump\t// in\n    tag_87:\n      mload(0x40)\n      tag_90\n      swap2\n      swap1\n      tag_62\n      jump\t// in\n    tag_90:\n      mload(0x40)\n      dup1\n      swap2\n      sub\n      swap1\n      return\n        /* \"contracts/regalium.sol\":2430:2844  function unstake(uint256 amount) public {... */\n    tag_13:\n      tag_91\n      0x04\n      dup1\n      calldatasize\n      sub\n      dup2\n      add\n      swap1\n      tag_92\n      swap2\n      swap1\n      tag_65\n      jump\t// in\n    tag_92:\n      tag_93\n      jump\t// in\n    tag_91:\n      stop\n        /* \"@openzeppelin/contracts/token/ERC20/ERC20.sol\":3002:3084  function decimals() public view virtual returns (uint8) {... */\n    tag_14:\n      tag_94\n      tag_95\n      jump\t// in\n    tag_94:\n      mload(0x40)\n      tag_96\n      swap2\n      swap1\n      tag_97\n      jump\t// in\n    tag_96:\n      mload(0x40)\n      dup1\n      swap2\n      sub\n      swap1\n      return\n        /* \"contracts/regalium.sol\":4799:4891  function getAdmins() public view returns (address[] memory) {... */\n    tag_15:\n      tag_98\n      tag_99\n      jump\t// in\n    tag_98:\n      mload(0x40)\n      tag_100\n      swap2\n      swap1\n      tag_101\n      jump\t// in\n    tag_100:\n      mload(0x40)\n      dup1\n      swap2\n      sub\n      swap1\n      return\n        /* \"contracts/regalium.sol\":315:369  uint256 public constant MAX_SUPPLY = 50000000 * 10**18 */\n    tag_16:\n      tag_102\n      tag_103\n      jump\t// in\n    tag_102:\n      mload(0x40)\n      tag_104\n      swap2\n      swap1\n      tag_56\n      jump\t// in\n    tag_104:\n      mload(0x40)\n      dup1\n      swap2\n      sub\n      swap1\n      return\n        /* \"contracts/regalium.sol\":603:653  mapping(address => uint256) public lastUnstakeTime */\n    tag_17:\n      tag_105\n      0x04\n      dup1\n      calldatasize\n      sub\n      dup2\n      add\n      swap1\n      tag_106\n      swap2\n      swap1\n      tag_53\n      jump\t// in\n    tag_106:\n      tag_107\n      jump\t// in\n    tag_105:\n      mload(0x40)\n      tag_108\n      swap2\n      swap1\n      tag_56\n      jump\t// in\n    tag_108:\n      mload(0x40)\n      dup1\n      swap2\n      sub\n      swap1\n      return\n        /* \"@openzeppelin/contracts/token/ERC20/extensions/ERC20Burnable.sol\":618:705  function burn(uint256 value) public virtual {... */\n    tag_18:\n      tag_109\n      0x04\n      dup1\n      calldatasize\n      sub\n      dup2\n      add\n      swap1\n      tag_110\n      swap2\n      swap1\n      tag_65\n      jump\t// in\n    tag_110:\n      tag_111\n      jump\t// in\n    tag_109:\n      stop\n        /* \"contracts/regalium.sol\":1555:1963  function mine(uint256 nonce) public {... */\n    tag_19:\n      tag_112\n      0x04\n      dup1\n      calldatasize\n      sub\n      dup2\n      add\n      swap1\n      tag_113\n      swap2\n      swap1\n      tag_65\n      jump\t// in\n    tag_113:\n      tag_114\n      jump\t// in\n    tag_112:\n      stop\n        /* \"contracts/regalium.sol\":376:401  uint256 public totalMined */\n    tag_20:\n      tag_115\n      tag_116\n      jump\t// in\n    tag_115:\n      mload(0x40)\n      tag_117\n      swap2\n      swap1\n      tag_56\n      jump\t// in\n    tag_117:\n      mload(0x40)\n      dup1\n      swap2\n      sub\n      swap1\n      return\n        /* \"contracts/regalium.sol\":4401:4505  function setDifficulty(uint256 _difficulty) public onlyAdmin {... */\n    tag_21:\n      tag_118\n      0x04\n      dup1\n      calldatasize\n      sub\n      dup2\n      add\n      swap1\n      tag_119\n      swap2\n      swap1\n      tag_65\n      jump\t// in\n    tag_119:\n      tag_120\n      jump\t// in\n    tag_118:\n      stop\n        /* \"contracts/regalium.sol\":733:781  uint256 public constant COOLDOWN_PERIOD = 1 days */\n    tag_22:\n      tag_121\n      tag_122\n      jump\t// in\n    tag_121:\n      mload(0x40)\n      tag_123\n      swap2\n      swap1\n      tag_56\n      jump\t// in\n    tag_123:\n      mload(0x40)\n      dup1\n      swap2\n      sub\n      swap1\n      return\n        /* \"contracts/regalium.sol\":3721:3907  function addAdmin(address newAdmin) public onlyOwner {... */\n    tag_23:\n      tag_124\n      0x04\n      dup1\n      calldatasize\n      sub\n      dup2\n      add\n      swap1\n      tag_125\n      swap2\n      swap1\n      tag_53\n      jump\t// in\n    tag_125:\n      tag_126\n      jump\t// in\n    tag_124:\n      stop\n        /* \"@openzeppelin/contracts/token/ERC20/ERC20.sol\":3299:3415  function balanceOf(address account) public view virtual returns (uint256) {... */\n    tag_24:\n      tag_127\n      0x04\n      dup1\n      calldatasize\n      sub\n      dup2\n      add\n      swap1\n      tag_128\n      swap2\n      swap1\n      tag_53\n      jump\t// in\n    tag_128:\n      tag_129\n      jump\t// in\n    tag_127:\n      mload(0x40)\n      tag_130\n      swap2\n      swap1\n      tag_56\n      jump\t// in\n    tag_130:\n      mload(0x40)\n      dup1\n      swap2\n      sub\n      swap1\n      return\n        /* \"@openzeppelin/contracts/access/Ownable.sol\":2293:2394  function renounceOwnership() public virtual onlyOwner {... */\n    tag_25:\n      tag_131\n      tag_132\n      jump\t// in\n    tag_131:\n      stop\n        /* \"@openzeppelin/contracts/token/ERC20/extensions/ERC20Burnable.sol\":1021:1179  function burnFrom(address account, uint256 value) public virtual {... */\n    tag_26:\n      tag_133\n      0x04\n      dup1\n      calldatasize\n      sub\n      dup2\n      add\n      swap1\n      tag_134\n      swap2\n      swap1\n      tag_59\n      jump\t// in\n    tag_134:\n      tag_135\n      jump\t// in\n    tag_133:\n      stop\n        /* \"contracts/regalium.sol\":693:724  uint256 public rewardRate = 100 */\n    tag_27:\n      tag_136\n      tag_137\n      jump\t// in\n    tag_136:\n      mload(0x40)\n      tag_138\n      swap2\n      swap1\n      tag_56\n      jump\t// in\n    tag_138:\n      mload(0x40)\n      dup1\n      swap2\n      sub\n      swap1\n      return\n        /* \"contracts/regalium.sol\":548:596  mapping(address => uint256) public lastStakeTime */\n    tag_28:\n      tag_139\n      0x04\n      dup1\n      calldatasize\n      sub\n      dup2\n      add\n      swap1\n      tag_140\n      swap2\n      swap1\n      tag_53\n      jump\t// in\n    tag_140:\n      tag_141\n      jump\t// in\n    tag_139:\n      mload(0x40)\n      tag_142\n      swap2\n      swap1\n      tag_56\n      jump\t// in\n    tag_142:\n      mload(0x40)\n      dup1\n      swap2\n      sub\n      swap1\n      return\n        /* \"contracts/regalium.sol\":660:686  uint256 public totalStaked */\n    tag_29:\n      tag_143\n      tag_144\n      jump\t// in\n    tag_143:\n      mload(0x40)\n      tag_145\n      swap2\n      swap1\n      tag_56\n      jump\t// in\n    tag_145:\n      mload(0x40)\n      dup1\n      swap2\n      sub\n      swap1\n      return\n        /* \"@openzeppelin/contracts/access/Ownable.sol\":1638:1723  function owner() public view virtual returns (address) {... */\n    tag_30:\n      tag_146\n      tag_147\n      jump\t// in\n    tag_146:\n      mload(0x40)\n      tag_148\n      swap2\n      swap1\n      tag_68\n      jump\t// in\n    tag_148:\n      mload(0x40)\n      dup1\n      swap2\n      sub\n      swap1\n      return\n        /* \"@openzeppelin/contracts/token/ERC20/ERC20.sol\":2276:2369  function symbol() public view virtual returns (string memory) {... */\n    tag_31:\n      tag_149\n      tag_150\n      jump\t// in\n    tag_149:\n      mload(0x40)\n      tag_151\n      swap2\n      swap1\n      tag_50\n      jump\t// in\n    tag_151:\n      mload(0x40)\n      dup1\n      swap2\n      sub\n      swap1\n      return\n        /* \"contracts/regalium.sol\":4513:4617  function setRewardRate(uint256 _rewardRate) public onlyAdmin {... */\n    tag_32:\n      tag_152\n      0x04\n      dup1\n      calldatasize\n      sub\n      dup2\n      add\n      swap1\n      tag_153\n      swap2\n      swap1\n      tag_65\n      jump\t// in\n    tag_153:\n      tag_154\n      jump\t// in\n    tag_152:\n      stop\n        /* \"contracts/regalium.sol\":2002:2389  function stake(uint256 amount) public {... */\n    tag_33:\n      tag_155\n      0x04\n      dup1\n      calldatasize\n      sub\n      dup2\n      add\n      swap1\n      tag_156\n      swap2\n      swap1\n      tag_65\n      jump\t// in\n    tag_156:\n      tag_157\n      jump\t// in\n    tag_155:\n      stop\n        /* \"contracts/regalium.sol\":4625:4791  function changeOwner(address newOwner) public onlyOwner {... */\n    tag_34:\n      tag_158\n      0x04\n      dup1\n      calldatasize\n      sub\n      dup2\n      add\n      swap1\n      tag_159\n      swap2\n      swap1\n      tag_53\n      jump\t// in\n    tag_159:\n      tag_160\n      jump\t// in\n    tag_158:\n      stop\n        /* \"@openzeppelin/contracts/token/ERC20/ERC20.sol\":3610:3788  function transfer(address to, uint256 value) public virtual returns (bool) {... */\n    tag_35:\n      tag_161\n      0x04\n      dup1\n      calldatasize\n      sub\n      dup2\n      add\n      swap1\n      tag_162\n      swap2\n      swap1\n      tag_59\n      jump\t// in\n    tag_162:\n      tag_163\n      jump\t// in\n    tag_161:\n      mload(0x40)\n      tag_164\n      swap2\n      swap1\n      tag_62\n      jump\t// in\n    tag_164:\n      mload(0x40)\n      dup1\n      swap2\n      sub\n      swap1\n      return\n        /* \"contracts/regalium.sol\":2892:3115  function withdrawRewards() public {... */\n    tag_36:\n      tag_165\n      tag_166\n      jump\t// in\n    tag_165:\n      stop\n        /* \"contracts/regalium.sol\":3161:3689  function calculateReward(address staker) public view returns (uint256) {... */\n    tag_37:\n      tag_167\n      0x04\n      dup1\n      calldatasize\n      sub\n      dup2\n      add\n      swap1\n      tag_168\n      swap2\n      swap1\n      tag_53\n      jump\t// in\n    tag_168:\n      tag_169\n      jump\t// in\n    tag_167:\n      mload(0x40)\n      tag_170\n      swap2\n      swap1\n      tag_56\n      jump\t// in\n    tag_170:\n      mload(0x40)\n      dup1\n      swap2\n      sub\n      swap1\n      return\n        /* \"@openzeppelin/contracts/token/ERC20/ERC20.sol\":3846:3986  function allowance(address owner, address spender) public view virtual returns (uint256) {... */\n    tag_38:\n      tag_171\n      0x04\n      dup1\n      calldatasize\n      sub\n      dup2\n      add\n      swap1\n      tag_172\n      swap2\n      swap1\n      tag_173\n      jump\t// in\n    tag_172:\n      tag_174\n      jump\t// in\n    tag_171:\n      mload(0x40)\n      tag_175\n      swap2\n      swap1\n      tag_56\n      jump\t// in\n    tag_175:\n      mload(0x40)\n      dup1\n      swap2\n      sub\n      swap1\n      return\n        /* \"@openzeppelin/contracts/access/Ownable.sol\":2543:2758  function transferOwnership(address newOwner) public virtual onlyOwner {... */\n    tag_39:\n      tag_176\n      0x04\n      dup1\n      calldatasize\n      sub\n      dup2\n      add\n      swap1\n      tag_177\n      swap2\n      swap1\n      tag_53\n      jump\t// in\n    tag_177:\n      tag_178\n      jump\t// in\n    tag_176:\n      stop\n        /* \"@openzeppelin/contracts/token/ERC20/ERC20.sol\":2074:2163  function name() public view virtual returns (string memory) {... */\n    tag_48:\n        /* \"@openzeppelin/contracts/token/ERC20/ERC20.sol\":2119:2132  string memory */\n      0x60\n        /* \"@openzeppelin/contracts/token/ERC20/ERC20.sol\":2151:2156  _name */\n      0x03\n        /* \"@openzeppelin/contracts/token/ERC20/ERC20.sol\":2144:2156  return _name */\n      dup1\n      sload\n      tag_180\n      swap1\n      tag_181\n      jump\t// in\n    tag_180:\n      dup1\n      0x1f\n      add\n      0x20\n      dup1\n      swap2\n      div\n      mul\n      0x20\n      add\n      mload(0x40)\n      swap1\n      dup2\n      add\n      0x40\n      mstore\n      dup1\n      swap3\n      swap2\n      swap1\n      dup2\n      dup2\n      mstore\n      0x20\n      add\n      dup3\n      dup1\n      sload\n      tag_182\n      swap1\n      tag_181\n      jump\t// in\n    tag_182:\n      dup1\n      iszero\n      tag_183\n      jumpi\n      dup1\n      0x1f\n      lt\n      tag_184\n      jumpi\n      0x0100\n      dup1\n      dup4\n      sload\n      div\n      mul\n      dup4\n      mstore\n      swap2\n      0x20\n      add\n      swap2\n      jump(tag_183)\n    tag_184:\n      dup3\n      add\n      swap2\n      swap1\n      0x00\n      mstore\n      keccak256(0x00, 0x20)\n      swap1\n    tag_185:\n      dup2\n      sload\n      dup2\n      mstore\n      swap1\n      0x01\n      add\n      swap1\n      0x20\n      add\n      dup1\n      dup4\n      gt\n      tag_185\n      jumpi\n      dup3\n      swap1\n      sub\n      0x1f\n      and\n      dup3\n      add\n      swap2\n    tag_183:\n      pop\n      pop\n      pop\n      pop\n      pop\n      swap1\n      pop\n        /* \"@openzeppelin/contracts/token/ERC20/ERC20.sol\":2074:2163  function name() public view virtual returns (string memory) {... */\n      swap1\n      jump\t// out\n        /* \"contracts/regalium.sol\":499:541  mapping(address => uint256) public rewards */\n    tag_54:\n      mstore(0x20, 0x09)\n      dup1\n      0x00\n      mstore\n      keccak256(0x00, 0x40)\n      0x00\n      swap2\n      pop\n      swap1\n      pop\n      sload\n      dup2\n      jump\t// out\n        /* \"@openzeppelin/contracts/token/ERC20/ERC20.sol\":4293:4479  function approve(address spender, uint256 value) public virtual returns (bool) {... */\n    tag_60:\n        /* \"@openzeppelin/contracts/token/ERC20/ERC20.sol\":4366:4370  bool */\n      0x00\n        /* \"@openzeppelin/contracts/token/ERC20/ERC20.sol\":4382:4395  address owner */\n      dup1\n        /* \"@openzeppelin/contracts/token/ERC20/ERC20.sol\":4398:4410  _msgSender() */\n      tag_187\n        /* \"@openzeppelin/contracts/token/ERC20/ERC20.sol\":4398:4408  _msgSender */\n      tag_188\n        /* \"@openzeppelin/contracts/token/ERC20/ERC20.sol\":4398:4410  _msgSender() */\n      jump\t// in\n    tag_187:\n        /* \"@openzeppelin/contracts/token/ERC20/ERC20.sol\":4382:4410  address owner = _msgSender() */\n      swap1\n      pop\n        /* \"@openzeppelin/contracts/token/ERC20/ERC20.sol\":4420:4451  _approve(owner, spender, value) */\n      tag_189\n        /* \"@openzeppelin/contracts/token/ERC20/ERC20.sol\":4429:4434  owner */\n      dup2\n        /* \"@openzeppelin/contracts/token/ERC20/ERC20.sol\":4436:4443  spender */\n      dup6\n        /* \"@openzeppelin/contracts/token/ERC20/ERC20.sol\":4445:4450  value */\n      dup6\n        /* \"@openzeppelin/contracts/token/ERC20/ERC20.sol\":4420:4428  _approve */\n      tag_190\n        /* \"@openzeppelin/contracts/token/ERC20/ERC20.sol\":4420:4451  _approve(owner, spender, value) */\n      jump\t// in\n    tag_189:\n        /* \"@openzeppelin/contracts/token/ERC20/ERC20.sol\":4468:4472  true */\n      0x01\n        /* \"@openzeppelin/contracts/token/ERC20/ERC20.sol\":4461:4472  return true */\n      swap2\n      pop\n      pop\n        /* \"@openzeppelin/contracts/token/ERC20/ERC20.sol\":4293:4479  function approve(address spender, uint256 value) public virtual returns (bool) {... */\n      swap3\n      swap2\n      pop\n      pop\n      jump\t// out\n        /* \"contracts/regalium.sol\":790:813  address[] public admins */\n    tag_66:\n      0x0e\n      dup2\n      dup2\n      sload\n      dup2\n      lt\n      tag_191\n      jumpi\n      0x00\n      dup1\n      revert\n    tag_191:\n      swap1\n      0x00\n      mstore\n      keccak256(0x00, 0x20)\n      add\n      0x00\n      swap2\n      pop\n      sload\n      swap1\n      0x0100\n      exp\n      swap1\n      div\n      0xffffffffffffffffffffffffffffffffffffffff\n      and\n      dup2\n      jump\t// out\n        /* \"contracts/regalium.sol\":451:492  mapping(address => uint256) public stakes */\n    tag_71:\n      mstore(0x20, 0x08)\n      dup1\n      0x00\n      mstore\n      keccak256(0x00, 0x40)\n      0x00\n      swap2\n      pop\n      swap1\n      pop\n      sload\n      dup2\n      jump\t// out\n        /* \"contracts/regalium.sol\":3915:4393  function removeAdmin(address adminToRemove) public onlyOwner {... */\n    tag_75:\n        /* \"@openzeppelin/contracts/access/Ownable.sol\":1531:1544  _checkOwner() */\n      tag_194\n        /* \"@openzeppelin/contracts/access/Ownable.sol\":1531:1542  _checkOwner */\n      tag_195\n        /* \"@openzeppelin/contracts/access/Ownable.sol\":1531:1544  _checkOwner() */\n      jump\t// in\n    tag_194:\n        /* \"contracts/regalium.sol\":3995:4002  isAdmin */\n      0x0f\n        /* \"contracts/regalium.sol\":3995:4017  isAdmin[adminToRemove] */\n      0x00\n        /* \"contracts/regalium.sol\":4003:4016  adminToRemove */\n      dup3\n        /* \"contracts/regalium.sol\":3995:4017  isAdmin[adminToRemove] */\n      0xffffffffffffffffffffffffffffffffffffffff\n      and\n      0xffffffffffffffffffffffffffffffffffffffff\n      and\n      dup2\n      mstore\n      0x20\n      add\n      swap1\n      dup2\n      mstore\n      0x20\n      add\n      0x00\n      keccak256\n      0x00\n      swap1\n      sload\n      swap1\n      0x0100\n      exp\n      swap1\n      div\n      0xff\n      and\n        /* \"contracts/regalium.sol\":3987:4034  require(isAdmin[adminToRemove], \"Not an admin\") */\n      tag_197\n      jumpi\n      mload(0x40)\n      0x08c379a000000000000000000000000000000000000000000000000000000000\n      dup2\n      mstore\n      0x04\n      add\n      tag_198\n      swap1\n      tag_199\n      jump\t// in\n    tag_198:\n      mload(0x40)\n      dup1\n      swap2\n      sub\n      swap1\n      revert\n    tag_197:\n        /* \"contracts/regalium.sol\":4069:4070  1 */\n      0x01\n        /* \"contracts/regalium.sol\":4053:4059  admins */\n      0x0e\n        /* \"contracts/regalium.sol\":4053:4066  admins.length */\n      dup1\n      sload\n      swap1\n      pop\n        /* \"contracts/regalium.sol\":4053:4070  admins.length > 1 */\n      gt\n        /* \"contracts/regalium.sol\":4045:4103  require(admins.length > 1, \"Cannot remove the last admin\") */\n      tag_200\n      jumpi\n      mload(0x40)\n      0x08c379a000000000000000000000000000000000000000000000000000000000\n      dup2\n      mstore\n      0x04\n      add\n      tag_201\n      swap1\n      tag_202\n      jump\t// in\n    tag_201:\n      mload(0x40)\n      dup1\n      swap2\n      sub\n      swap1\n      revert\n    tag_200:\n        /* \"contracts/regalium.sol\":4141:4146  false */\n      0x00\n        /* \"contracts/regalium.sol\":4116:4123  isAdmin */\n      0x0f\n        /* \"contracts/regalium.sol\":4116:4138  isAdmin[adminToRemove] */\n      0x00\n        /* \"contracts/regalium.sol\":4124:4137  adminToRemove */\n      dup4\n        /* \"contracts/regalium.sol\":4116:4138  isAdmin[adminToRemove] */\n      0xffffffffffffffffffffffffffffffffffffffff\n      and\n      0xffffffffffffffffffffffffffffffffffffffff\n      and\n      dup2\n      mstore\n      0x20\n      add\n      swap1\n      dup2\n      mstore\n      0x20\n      add\n      0x00\n      keccak256\n      0x00\n        /* \"contracts/regalium.sol\":4116:4146  isAdmin[adminToRemove] = false */\n      0x0100\n      exp\n      dup2\n      sload\n      dup2\n      0xff\n      mul\n      not\n      and\n      swap1\n      dup4\n      iszero\n      iszero\n      mul\n      or\n      swap1\n      sstore\n      pop\n        /* \"contracts/regalium.sol\":4162:4171  uint256 i */\n      0x00\n        /* \"contracts/regalium.sol\":4157:4386  for (uint256 i = 0; i < admins.length; i++) {... */\n    tag_203:\n        /* \"contracts/regalium.sol\":4181:4187  admins */\n      0x0e\n        /* \"contracts/regalium.sol\":4181:4194  admins.length */\n      dup1\n      sload\n      swap1\n      pop\n        /* \"contracts/regalium.sol\":4177:4178  i */\n      dup2\n        /* \"contracts/regalium.sol\":4177:4194  i < admins.length */\n      lt\n        /* \"contracts/regalium.sol\":4157:4386  for (uint256 i = 0; i < admins.length; i++) {... */\n      iszero\n      tag_204\n      jumpi\n        /* \"contracts/regalium.sol\":4233:4246  adminToRemove */\n      dup2\n        /* \"contracts/regalium.sol\":4220:4246  admins[i] == adminToRemove */\n      0xffffffffffffffffffffffffffffffffffffffff\n      and\n        /* \"contracts/regalium.sol\":4220:4226  admins */\n      0x0e\n        /* \"contracts/regalium.sol\":4227:4228  i */\n      dup3\n        /* \"contracts/regalium.sol\":4220:4229  admins[i] */\n      dup2\n      sload\n      dup2\n      lt\n      tag_206\n      jumpi\n      tag_207\n      tag_208\n      jump\t// in\n    tag_207:\n    tag_206:\n      swap1\n      0x00\n      mstore\n      keccak256(0x00, 0x20)\n      add\n      0x00\n      swap1\n      sload\n      swap1\n      0x0100\n      exp\n      swap1\n      div\n      0xffffffffffffffffffffffffffffffffffffffff\n      and\n        /* \"contracts/regalium.sol\":4220:4246  admins[i] == adminToRemove */\n      0xffffffffffffffffffffffffffffffffffffffff\n      and\n      sub\n        /* \"contracts/regalium.sol\":4216:4375  if (admins[i] == adminToRemove) {... */\n      tag_210\n      jumpi\n        /* \"contracts/regalium.sol\":4279:4285  admins */\n      0x0e\n        /* \"contracts/regalium.sol\":4302:4303  1 */\n      0x01\n        /* \"contracts/regalium.sol\":4286:4292  admins */\n      0x0e\n        /* \"contracts/regalium.sol\":4286:4299  admins.length */\n      dup1\n      sload\n      swap1\n      pop\n        /* \"contracts/regalium.sol\":4286:4303  admins.length - 1 */\n      tag_211\n      swap2\n      swap1\n      tag_212\n      jump\t// in\n    tag_211:\n        /* \"contracts/regalium.sol\":4279:4304  admins[admins.length - 1] */\n      dup2\n      sload\n      dup2\n      lt\n      tag_213\n      jumpi\n      tag_214\n      tag_208\n      jump\t// in\n    tag_214:\n    tag_213:\n      swap1\n      0x00\n      mstore\n      keccak256(0x00, 0x20)\n      add\n      0x00\n      swap1\n      sload\n      swap1\n      0x0100\n      exp\n      swap1\n      div\n      0xffffffffffffffffffffffffffffffffffffffff\n      and\n        /* \"contracts/regalium.sol\":4267:4273  admins */\n      0x0e\n        /* \"contracts/regalium.sol\":4274:4275  i */\n      dup3\n        /* \"contracts/regalium.sol\":4267:4276  admins[i] */\n      dup2\n      sload\n      dup2\n      lt\n      tag_216\n      jumpi\n      tag_217\n      tag_208\n      jump\t// in\n    tag_217:\n    tag_216:\n      swap1\n      0x00\n      mstore\n      keccak256(0x00, 0x20)\n      add\n      0x00\n        /* \"contracts/regalium.sol\":4267:4304  admins[i] = admins[admins.length - 1] */\n      0x0100\n      exp\n      dup2\n      sload\n      dup2\n      0xffffffffffffffffffffffffffffffffffffffff\n      mul\n      not\n      and\n      swap1\n      dup4\n      0xffffffffffffffffffffffffffffffffffffffff\n      and\n      mul\n      or\n      swap1\n      sstore\n      pop\n        /* \"contracts/regalium.sol\":4323:4329  admins */\n      0x0e\n        /* \"contracts/regalium.sol\":4323:4335  admins.pop() */\n      dup1\n      sload\n      dup1\n      tag_219\n      jumpi\n      tag_220\n      tag_221\n      jump\t// in\n    tag_220:\n    tag_219:\n      0x01\n      swap1\n      sub\n      dup2\n      dup2\n      swap1\n      0x00\n      mstore\n      keccak256(0x00, 0x20)\n      add\n      exp(0x0100, 0x00)\n      dup2\n      sload\n      swap1\n      0xffffffffffffffffffffffffffffffffffffffff\n      mul\n      not\n      and\n      swap1\n      sstore\n      swap1\n      sstore\n        /* \"contracts/regalium.sol\":4354:4359  break */\n      jump(tag_204)\n        /* \"contracts/regalium.sol\":4216:4375  if (admins[i] == adminToRemove) {... */\n    tag_210:\n        /* \"contracts/regalium.sol\":4196:4199  i++ */\n      dup1\n      dup1\n      0x01\n      add\n      swap2\n      pop\n      pop\n        /* \"contracts/regalium.sol\":4157:4386  for (uint256 i = 0; i < admins.length; i++) {... */\n      jump(tag_203)\n    tag_204:\n      pop\n        /* \"contracts/regalium.sol\":3915:4393  function removeAdmin(address adminToRemove) public onlyOwner {... */\n      pop\n      jump\t// out\n        /* \"@openzeppelin/contracts/token/ERC20/ERC20.sol\":3144:3241  function totalSupply() public view virtual returns (uint256) {... */\n    tag_77:\n        /* \"@openzeppelin/contracts/token/ERC20/ERC20.sol\":3196:3203  uint256 */\n      0x00\n        /* \"@openzeppelin/contracts/token/ERC20/ERC20.sol\":3222:3234  _totalSupply */\n      sload(0x02)\n        /* \"@openzeppelin/contracts/token/ERC20/ERC20.sol\":3215:3234  return _totalSupply */\n      swap1\n      pop\n        /* \"@openzeppelin/contracts/token/ERC20/ERC20.sol\":3144:3241  function totalSupply() public view virtual returns (uint256) {... */\n      swap1\n      jump\t// out\n        /* \"contracts/regalium.sol\":408:442  uint256 public difficulty = 10**10 */\n    tag_80:\n      sload(0x07)\n      dup2\n      jump\t// out\n        /* \"@openzeppelin/contracts/token/ERC20/ERC20.sol\":5039:5283  function transferFrom(address from, address to, uint256 value) public virtual returns (bool) {... */\n    tag_85:\n        /* \"@openzeppelin/contracts/token/ERC20/ERC20.sol\":5126:5130  bool */\n      0x00\n        /* \"@openzeppelin/contracts/token/ERC20/ERC20.sol\":5142:5157  address spender */\n      dup1\n        /* \"@openzeppelin/contracts/token/ERC20/ERC20.sol\":5160:5172  _msgSender() */\n      tag_225\n        /* \"@openzeppelin/contracts/token/ERC20/ERC20.sol\":5160:5170  _msgSender */\n      tag_188\n        /* \"@openzeppelin/contracts/token/ERC20/ERC20.sol\":5160:5172  _msgSender() */\n      jump\t// in\n    tag_225:\n        /* \"@openzeppelin/contracts/token/ERC20/ERC20.sol\":5142:5172  address spender = _msgSender() */\n      swap1\n      pop\n        /* \"@openzeppelin/contracts/token/ERC20/ERC20.sol\":5182:5219  _spendAllowance(from, spender, value) */\n      tag_226\n        /* \"@openzeppelin/contracts/token/ERC20/ERC20.sol\":5198:5202  from */\n      dup6\n        /* \"@openzeppelin/contracts/token/ERC20/ERC20.sol\":5204:5211  spender */\n      dup3\n        /* \"@openzeppelin/contracts/token/ERC20/ERC20.sol\":5213:5218  value */\n      dup6\n        /* \"@openzeppelin/contracts/token/ERC20/ERC20.sol\":5182:5197  _spendAllowance */\n      tag_227\n        /* \"@openzeppelin/contracts/token/ERC20/ERC20.sol\":5182:5219  _spendAllowance(from, spender, value) */\n      jump\t// in\n    tag_226:\n        /* \"@openzeppelin/contracts/token/ERC20/ERC20.sol\":5229:5255  _transfer(from, to, value) */\n      tag_228\n        /* \"@openzeppelin/contracts/token/ERC20/ERC20.sol\":5239:5243  from */\n      dup6\n        /* \"@openzeppelin/contracts/token/ERC20/ERC20.sol\":5245:5247  to */\n      dup6\n        /* \"@openzeppelin/contracts/token/ERC20/ERC20.sol\":5249:5254  value */\n      dup6\n        /* \"@openzeppelin/contracts/token/ERC20/ERC20.sol\":5229:5238  _transfer */\n      tag_229\n        /* \"@openzeppelin/contracts/token/ERC20/ERC20.sol\":5229:5255  _transfer(from, to, value) */\n      jump\t// in\n    tag_228:\n        /* \"@openzeppelin/contracts/token/ERC20/ERC20.sol\":5272:5276  true */\n      0x01\n        /* \"@openzeppelin/contracts/token/ERC20/ERC20.sol\":5265:5276  return true */\n      swap2\n      pop\n      pop\n        /* \"@openzeppelin/contracts/token/ERC20/ERC20.sol\":5039:5283  function transferFrom(address from, address to, uint256 value) public virtual returns (bool) {... */\n      swap4\n      swap3\n      pop\n      pop\n      pop\n      jump\t// out\n        /* \"contracts/regalium.sol\":820:859  mapping(address => bool) public isAdmin */\n    tag_89:\n      mstore(0x20, 0x0f)\n      dup1\n      0x00\n      mstore\n      keccak256(0x00, 0x40)\n      0x00\n      swap2\n      pop\n      sload\n      swap1\n      0x0100\n      exp\n      swap1\n      div\n      0xff\n      and\n      dup2\n      jump\t// out\n        /* \"contracts/regalium.sol\":2430:2844  function unstake(uint256 amount) public {... */\n    tag_93:\n        /* \"contracts/regalium.sol\":2511:2517  amount */\n      dup1\n        /* \"contracts/regalium.sol\":2489:2495  stakes */\n      0x08\n        /* \"contracts/regalium.sol\":2489:2507  stakes[msg.sender] */\n      0x00\n        /* \"contracts/regalium.sol\":2496:2506  msg.sender */\n      caller\n        /* \"contracts/regalium.sol\":2489:2507  stakes[msg.sender] */\n      0xffffffffffffffffffffffffffffffffffffffff\n      and\n      0xffffffffffffffffffffffffffffffffffffffff\n      and\n      dup2\n      mstore\n      0x20\n      add\n      swap1\n      dup2\n      mstore\n      0x20\n      add\n      0x00\n      keccak256\n      sload\n        /* \"contracts/regalium.sol\":2489:2517  stakes[msg.sender] >= amount */\n      lt\n      iszero\n        /* \"contracts/regalium.sol\":2481:2548  require(stakes[msg.sender] >= amount, \"Insufficient stake balance\") */\n      tag_231\n      jumpi\n      mload(0x40)\n      0x08c379a000000000000000000000000000000000000000000000000000000000\n      dup2\n      mstore\n      0x04\n      add\n      tag_232\n      swap1\n      tag_233\n      jump\t// in\n    tag_232:\n      mload(0x40)\n      dup1\n      swap2\n      sub\n      swap1\n      revert\n    tag_231:\n        /* \"contracts/regalium.sol\":775:781  1 days */\n      0x015180\n        /* \"contracts/regalium.sol\":2586:2599  lastStakeTime */\n      0x0a\n        /* \"contracts/regalium.sol\":2586:2611  lastStakeTime[msg.sender] */\n      0x00\n        /* \"contracts/regalium.sol\":2600:2610  msg.sender */\n      caller\n        /* \"contracts/regalium.sol\":2586:2611  lastStakeTime[msg.sender] */\n      0xffffffffffffffffffffffffffffffffffffffff\n      and\n      0xffffffffffffffffffffffffffffffffffffffff\n      and\n      dup2\n      mstore\n      0x20\n      add\n      swap1\n      dup2\n      mstore\n      0x20\n      add\n      0x00\n      keccak256\n      sload\n        /* \"contracts/regalium.sol\":2586:2629  lastStakeTime[msg.sender] + COOLDOWN_PERIOD */\n      tag_234\n      swap2\n      swap1\n      tag_235\n      jump\t// in\n    tag_234:\n        /* \"contracts/regalium.sol\":2567:2582  block.timestamp */\n      timestamp\n        /* \"contracts/regalium.sol\":2567:2629  block.timestamp >= lastStakeTime[msg.sender] + COOLDOWN_PERIOD */\n      lt\n      iszero\n        /* \"contracts/regalium.sol\":2559:2671  require(block.timestamp >= lastStakeTime[msg.sender] + COOLDOWN_PERIOD, \"Cooldown period not met for unstaking\") */\n      tag_236\n      jumpi\n      mload(0x40)\n      0x08c379a000000000000000000000000000000000000000000000000000000000\n      dup2\n      mstore\n      0x04\n      add\n      tag_237\n      swap1\n      tag_238\n      jump\t// in\n    tag_237:\n      mload(0x40)\n      dup1\n      swap2\n      sub\n      swap1\n      revert\n    tag_236:\n        /* \"contracts/regalium.sol\":2706:2712  amount */\n      dup1\n        /* \"contracts/regalium.sol\":2684:2690  stakes */\n      0x08\n        /* \"contracts/regalium.sol\":2684:2702  stakes[msg.sender] */\n      0x00\n        /* \"contracts/regalium.sol\":2691:2701  msg.sender */\n      caller\n        /* \"contracts/regalium.sol\":2684:2702  stakes[msg.sender] */\n      0xffffffffffffffffffffffffffffffffffffffff\n      and\n      0xffffffffffffffffffffffffffffffffffffffff\n      and\n      dup2\n      mstore\n      0x20\n      add\n      swap1\n      dup2\n      mstore\n      0x20\n      add\n      0x00\n      keccak256\n      0x00\n        /* \"contracts/regalium.sol\":2684:2712  stakes[msg.sender] -= amount */\n      dup3\n      dup3\n      sload\n      tag_239\n      swap2\n      swap1\n      tag_212\n      jump\t// in\n    tag_239:\n      swap3\n      pop\n      pop\n      dup2\n      swap1\n      sstore\n      pop\n        /* \"contracts/regalium.sol\":2738:2744  amount */\n      dup1\n        /* \"contracts/regalium.sol\":2723:2734  totalStaked */\n      0x0c\n      0x00\n        /* \"contracts/regalium.sol\":2723:2744  totalStaked -= amount */\n      dup3\n      dup3\n      sload\n      tag_240\n      swap2\n      swap1\n      tag_212\n      jump\t// in\n    tag_240:\n      swap3\n      pop\n      pop\n      dup2\n      swap1\n      sstore\n      pop\n        /* \"contracts/regalium.sol\":2755:2780  _mint(msg.sender, amount) */\n      tag_241\n        /* \"contracts/regalium.sol\":2761:2771  msg.sender */\n      caller\n        /* \"contracts/regalium.sol\":2773:2779  amount */\n      dup3\n        /* \"contracts/regalium.sol\":2755:2760  _mint */\n      tag_242\n        /* \"contracts/regalium.sol\":2755:2780  _mint(msg.sender, amount) */\n      jump\t// in\n    tag_241:\n        /* \"contracts/regalium.sol\":2821:2836  block.timestamp */\n      timestamp\n        /* \"contracts/regalium.sol\":2791:2806  lastUnstakeTime */\n      0x0b\n        /* \"contracts/regalium.sol\":2791:2818  lastUnstakeTime[msg.sender] */\n      0x00\n        /* \"contracts/regalium.sol\":2807:2817  msg.sender */\n      caller\n        /* \"contracts/regalium.sol\":2791:2818  lastUnstakeTime[msg.sender] */\n      0xffffffffffffffffffffffffffffffffffffffff\n      and\n      0xffffffffffffffffffffffffffffffffffffffff\n      and\n      dup2\n      mstore\n      0x20\n      add\n      swap1\n      dup2\n      mstore\n      0x20\n      add\n      0x00\n      keccak256\n        /* \"contracts/regalium.sol\":2791:2836  lastUnstakeTime[msg.sender] = block.timestamp */\n      dup2\n      swap1\n      sstore\n      pop\n        /* \"contracts/regalium.sol\":2430:2844  function unstake(uint256 amount) public {... */\n      pop\n      jump\t// out\n        /* \"@openzeppelin/contracts/token/ERC20/ERC20.sol\":3002:3084  function decimals() public view virtual returns (uint8) {... */\n    tag_95:\n        /* \"@openzeppelin/contracts/token/ERC20/ERC20.sol\":3051:3056  uint8 */\n      0x00\n        /* \"@openzeppelin/contracts/token/ERC20/ERC20.sol\":3075:3077  18 */\n      0x12\n        /* \"@openzeppelin/contracts/token/ERC20/ERC20.sol\":3068:3077  return 18 */\n      swap1\n      pop\n        /* \"@openzeppelin/contracts/token/ERC20/ERC20.sol\":3002:3084  function decimals() public view virtual returns (uint8) {... */\n      swap1\n      jump\t// out\n        /* \"contracts/regalium.sol\":4799:4891  function getAdmins() public view returns (address[] memory) {... */\n    tag_99:\n        /* \"contracts/regalium.sol\":4841:4857  address[] memory */\n      0x60\n        /* \"contracts/regalium.sol\":4877:4883  admins */\n      0x0e\n        /* \"contracts/regalium.sol\":4870:4883  return admins */\n      dup1\n      sload\n      dup1\n      0x20\n      mul\n      0x20\n      add\n      mload(0x40)\n      swap1\n      dup2\n      add\n      0x40\n      mstore\n      dup1\n      swap3\n      swap2\n      swap1\n      dup2\n      dup2\n      mstore\n      0x20\n      add\n      dup3\n      dup1\n      sload\n      dup1\n      iszero\n      tag_245\n      jumpi\n      0x20\n      mul\n      dup3\n      add\n      swap2\n      swap1\n      0x00\n      mstore\n      keccak256(0x00, 0x20)\n      swap1\n    tag_246:\n      dup2\n      0x00\n      swap1\n      sload\n      swap1\n      0x0100\n      exp\n      swap1\n      div\n      0xffffffffffffffffffffffffffffffffffffffff\n      and\n      0xffffffffffffffffffffffffffffffffffffffff\n      and\n      dup2\n      mstore\n      0x20\n      add\n      swap1\n      0x01\n      add\n      swap1\n      dup1\n      dup4\n      gt\n      tag_246\n      jumpi\n    tag_245:\n      pop\n      pop\n      pop\n      pop\n      pop\n      swap1\n      pop\n        /* \"contracts/regalium.sol\":4799:4891  function getAdmins() public view returns (address[] memory) {... */\n      swap1\n      jump\t// out\n        /* \"contracts/regalium.sol\":315:369  uint256 public constant MAX_SUPPLY = 50000000 * 10**18 */\n    tag_103:\n        /* \"contracts/regalium.sol\":352:369  50000000 * 10**18 */\n      0x295be96e64066972000000\n        /* \"contracts/regalium.sol\":315:369  uint256 public constant MAX_SUPPLY = 50000000 * 10**18 */\n      dup2\n      jump\t// out\n        /* \"contracts/regalium.sol\":603:653  mapping(address => uint256) public lastUnstakeTime */\n    tag_107:\n      mstore(0x20, 0x0b)\n      dup1\n      0x00\n      mstore\n      keccak256(0x00, 0x40)\n      0x00\n      swap2\n      pop\n      swap1\n      pop\n      sload\n      dup2\n      jump\t// out\n        /* \"@openzeppelin/contracts/token/ERC20/extensions/ERC20Burnable.sol\":618:705  function burn(uint256 value) public virtual {... */\n    tag_111:\n        /* \"@openzeppelin/contracts/token/ERC20/extensions/ERC20Burnable.sol\":672:698  _burn(_msgSender(), value) */\n      tag_248\n        /* \"@openzeppelin/contracts/token/ERC20/extensions/ERC20Burnable.sol\":678:690  _msgSender() */\n      tag_249\n        /* \"@openzeppelin/contracts/token/ERC20/extensions/ERC20Burnable.sol\":678:688  _msgSender */\n      tag_188\n        /* \"@openzeppelin/contracts/token/ERC20/extensions/ERC20Burnable.sol\":678:690  _msgSender() */\n      jump\t// in\n    tag_249:\n        /* \"@openzeppelin/contracts/token/ERC20/extensions/ERC20Burnable.sol\":692:697  value */\n      dup3\n        /* \"@openzeppelin/contracts/token/ERC20/extensions/ERC20Burnable.sol\":672:677  _burn */\n      tag_250\n        /* \"@openzeppelin/contracts/token/ERC20/extensions/ERC20Burnable.sol\":672:698  _burn(_msgSender(), value) */\n      jump\t// in\n    tag_248:\n        /* \"@openzeppelin/contracts/token/ERC20/extensions/ERC20Burnable.sol\":618:705  function burn(uint256 value) public virtual {... */\n      pop\n      jump\t// out\n        /* \"contracts/regalium.sol\":1555:1963  function mine(uint256 nonce) public {... */\n    tag_114:\n        /* \"contracts/regalium.sol\":1641:1644  100 */\n      0x64\n        /* \"contracts/regalium.sol\":1636:1638  80 */\n      0x50\n        /* \"contracts/regalium.sol\":352:369  50000000 * 10**18 */\n      0x295be96e64066972000000\n        /* \"contracts/regalium.sol\":1623:1638  MAX_SUPPLY * 80 */\n      tag_252\n      swap2\n      swap1\n      tag_253\n      jump\t// in\n    tag_252:\n        /* \"contracts/regalium.sol\":1623:1644  MAX_SUPPLY * 80 / 100 */\n      tag_254\n      swap2\n      swap1\n      tag_255\n      jump\t// in\n    tag_254:\n        /* \"contracts/regalium.sol\":1610:1620  totalMined */\n      sload(0x06)\n        /* \"contracts/regalium.sol\":1610:1644  totalMined < MAX_SUPPLY * 80 / 100 */\n      lt\n        /* \"contracts/regalium.sol\":1602:1665  require(totalMined < MAX_SUPPLY * 80 / 100, \"All tokens mined\") */\n      tag_256\n      jumpi\n      mload(0x40)\n      0x08c379a000000000000000000000000000000000000000000000000000000000\n      dup2\n      mstore\n      0x04\n      add\n      tag_257\n      swap1\n      tag_258\n      jump\t// in\n    tag_257:\n      mload(0x40)\n      dup1\n      swap2\n      sub\n      swap1\n      revert\n    tag_256:\n        /* \"contracts/regalium.sol\":1678:1690  bytes32 hash */\n      0x00\n        /* \"contracts/regalium.sol\":1720:1730  msg.sender */\n      caller\n        /* \"contracts/regalium.sol\":1732:1737  nonce */\n      dup3\n        /* \"contracts/regalium.sol\":1703:1738  abi.encodePacked(msg.sender, nonce) */\n      add(0x20, mload(0x40))\n      tag_259\n      swap3\n      swap2\n      swap1\n      tag_260\n      jump\t// in\n    tag_259:\n      mload(0x40)\n      0x20\n      dup2\n      dup4\n      sub\n      sub\n      dup2\n      mstore\n      swap1\n      0x40\n      mstore\n        /* \"contracts/regalium.sol\":1693:1739  keccak256(abi.encodePacked(msg.sender, nonce)) */\n      dup1\n      mload\n      swap1\n      0x20\n      add\n      keccak256\n        /* \"contracts/regalium.sol\":1678:1739  bytes32 hash = keccak256(abi.encodePacked(msg.sender, nonce)) */\n      swap1\n      pop\n        /* \"contracts/regalium.sol\":1774:1784  difficulty */\n      sload(0x07)\n        /* \"contracts/regalium.sol\":1766:1770  hash */\n      dup2\n        /* \"contracts/regalium.sol\":1758:1771  uint256(hash) */\n      0x00\n      shr\n        /* \"contracts/regalium.sol\":1758:1784  uint256(hash) < difficulty */\n      lt\n        /* \"contracts/regalium.sol\":1750:1814  require(uint256(hash) < difficulty, \"Mining difficulty not met\") */\n      tag_261\n      jumpi\n      mload(0x40)\n      0x08c379a000000000000000000000000000000000000000000000000000000000\n      dup2\n      mstore\n      0x04\n      add\n      tag_262\n      swap1\n      tag_263\n      jump\t// in\n    tag_262:\n      mload(0x40)\n      dup1\n      swap2\n      sub\n      swap1\n      revert\n    tag_261:\n        /* \"contracts/regalium.sol\":1827:1841  uint256 reward */\n      0x00\n        /* \"contracts/regalium.sol\":1844:1855  50 * 10**18 */\n      0x02b5e3af16b1880000\n        /* \"contracts/regalium.sol\":1827:1855  uint256 reward = 50 * 10**18 */\n      swap1\n      pop\n        /* \"contracts/regalium.sol\":1887:1924  _mintWithCapCheck(msg.sender, reward) */\n      tag_264\n        /* \"contracts/regalium.sol\":1905:1915  msg.sender */\n      caller\n        /* \"contracts/regalium.sol\":1917:1923  reward */\n      dup3\n        /* \"contracts/regalium.sol\":1887:1904  _mintWithCapCheck */\n      tag_265\n        /* \"contracts/regalium.sol\":1887:1924  _mintWithCapCheck(msg.sender, reward) */\n      jump\t// in\n    tag_264:\n        /* \"contracts/regalium.sol\":1949:1955  reward */\n      dup1\n        /* \"contracts/regalium.sol\":1935:1945  totalMined */\n      0x06\n      0x00\n        /* \"contracts/regalium.sol\":1935:1955  totalMined += reward */\n      dup3\n      dup3\n      sload\n      tag_266\n      swap2\n      swap1\n      tag_235\n      jump\t// in\n    tag_266:\n      swap3\n      pop\n      pop\n      dup2\n      swap1\n      sstore\n      pop\n        /* \"contracts/regalium.sol\":1591:1963  {... */\n      pop\n      pop\n        /* \"contracts/regalium.sol\":1555:1963  function mine(uint256 nonce) public {... */\n      pop\n      jump\t// out\n        /* \"contracts/regalium.sol\":376:401  uint256 public totalMined */\n    tag_116:\n      sload(0x06)\n      dup2\n      jump\t// out\n        /* \"contracts/regalium.sol\":4401:4505  function setDifficulty(uint256 _difficulty) public onlyAdmin {... */\n    tag_120:\n        /* \"contracts/regalium.sol\":908:915  isAdmin */\n      0x0f\n        /* \"contracts/regalium.sol\":908:927  isAdmin[msg.sender] */\n      0x00\n        /* \"contracts/regalium.sol\":916:926  msg.sender */\n      caller\n        /* \"contracts/regalium.sol\":908:927  isAdmin[msg.sender] */\n      0xffffffffffffffffffffffffffffffffffffffff\n      and\n      0xffffffffffffffffffffffffffffffffffffffff\n      and\n      dup2\n      mstore\n      0x20\n      add\n      swap1\n      dup2\n      mstore\n      0x20\n      add\n      0x00\n      keccak256\n      0x00\n      swap1\n      sload\n      swap1\n      0x0100\n      exp\n      swap1\n      div\n      0xff\n      and\n        /* \"contracts/regalium.sol\":900:944  require(isAdmin[msg.sender], \"Not an admin\") */\n      tag_268\n      jumpi\n      mload(0x40)\n      0x08c379a000000000000000000000000000000000000000000000000000000000\n      dup2\n      mstore\n      0x04\n      add\n      tag_269\n      swap1\n      tag_199\n      jump\t// in\n    tag_269:\n      mload(0x40)\n      dup1\n      swap2\n      sub\n      swap1\n      revert\n    tag_268:\n        /* \"contracts/regalium.sol\":4486:4497  _difficulty */\n      dup1\n        /* \"contracts/regalium.sol\":4473:4483  difficulty */\n      0x07\n        /* \"contracts/regalium.sol\":4473:4497  difficulty = _difficulty */\n      dup2\n      swap1\n      sstore\n      pop\n        /* \"contracts/regalium.sol\":4401:4505  function setDifficulty(uint256 _difficulty) public onlyAdmin {... */\n      pop\n      jump\t// out\n        /* \"contracts/regalium.sol\":733:781  uint256 public constant COOLDOWN_PERIOD = 1 days */\n    tag_122:\n        /* \"contracts/regalium.sol\":775:781  1 days */\n      0x015180\n        /* \"contracts/regalium.sol\":733:781  uint256 public constant COOLDOWN_PERIOD = 1 days */\n      dup2\n      jump\t// out\n        /* \"contracts/regalium.sol\":3721:3907  function addAdmin(address newAdmin) public onlyOwner {... */\n    tag_126:\n        /* \"@openzeppelin/contracts/access/Ownable.sol\":1531:1544  _checkOwner() */\n      tag_272\n        /* \"@openzeppelin/contracts/access/Ownable.sol\":1531:1542  _checkOwner */\n      tag_195\n        /* \"@openzeppelin/contracts/access/Ownable.sol\":1531:1544  _checkOwner() */\n      jump\t// in\n    tag_272:\n        /* \"contracts/regalium.sol\":3794:3801  isAdmin */\n      0x0f\n        /* \"contracts/regalium.sol\":3794:3811  isAdmin[newAdmin] */\n      0x00\n        /* \"contracts/regalium.sol\":3802:3810  newAdmin */\n      dup3\n        /* \"contracts/regalium.sol\":3794:3811  isAdmin[newAdmin] */\n      0xffffffffffffffffffffffffffffffffffffffff\n      and\n      0xffffffffffffffffffffffffffffffffffffffff\n      and\n      dup2\n      mstore\n      0x20\n      add\n      swap1\n      dup2\n      mstore\n      0x20\n      add\n      0x00\n      keccak256\n      0x00\n      swap1\n      sload\n      swap1\n      0x0100\n      exp\n      swap1\n      div\n      0xff\n      and\n        /* \"contracts/regalium.sol\":3793:3811  !isAdmin[newAdmin] */\n      iszero\n        /* \"contracts/regalium.sol\":3785:3832  require(!isAdmin[newAdmin], \"Already an admin\") */\n      tag_274\n      jumpi\n      mload(0x40)\n      0x08c379a000000000000000000000000000000000000000000000000000000000\n      dup2\n      mstore\n      0x04\n      add\n      tag_275\n      swap1\n      tag_276\n      jump\t// in\n    tag_275:\n      mload(0x40)\n      dup1\n      swap2\n      sub\n      swap1\n      revert\n    tag_274:\n        /* \"contracts/regalium.sol\":3863:3867  true */\n      0x01\n        /* \"contracts/regalium.sol\":3843:3850  isAdmin */\n      0x0f\n        /* \"contracts/regalium.sol\":3843:3860  isAdmin[newAdmin] */\n      0x00\n        /* \"contracts/regalium.sol\":3851:3859  newAdmin */\n      dup4\n        /* \"contracts/regalium.sol\":3843:3860  isAdmin[newAdmin] */\n      0xffffffffffffffffffffffffffffffffffffffff\n      and\n      0xffffffffffffffffffffffffffffffffffffffff\n      and\n      dup2\n      mstore\n      0x20\n      add\n      swap1\n      dup2\n      mstore\n      0x20\n      add\n      0x00\n      keccak256\n      0x00\n        /* \"contracts/regalium.sol\":3843:3867  isAdmin[newAdmin] = true */\n      0x0100\n      exp\n      dup2\n      sload\n      dup2\n      0xff\n      mul\n      not\n      and\n      swap1\n      dup4\n      iszero\n      iszero\n      mul\n      or\n      swap1\n      sstore\n      pop\n        /* \"contracts/regalium.sol\":3878:3884  admins */\n      0x0e\n        /* \"contracts/regalium.sol\":3890:3898  newAdmin */\n      dup2\n        /* \"contracts/regalium.sol\":3878:3899  admins.push(newAdmin) */\n      swap1\n      dup1\n      0x01\n      dup2\n      sload\n      add\n      dup1\n      dup3\n      sstore\n      dup1\n      swap2\n      pop\n      pop\n      0x01\n      swap1\n      sub\n      swap1\n      0x00\n      mstore\n      keccak256(0x00, 0x20)\n      add\n      0x00\n      swap1\n      swap2\n      swap1\n      swap2\n      swap1\n      swap2\n      0x0100\n      exp\n      dup2\n      sload\n      dup2\n      0xffffffffffffffffffffffffffffffffffffffff\n      mul\n      not\n      and\n      swap1\n      dup4\n      0xffffffffffffffffffffffffffffffffffffffff\n      and\n      mul\n      or\n      swap1\n      sstore\n      pop\n        /* \"contracts/regalium.sol\":3721:3907  function addAdmin(address newAdmin) public onlyOwner {... */\n      pop\n      jump\t// out\n        /* \"@openzeppelin/contracts/token/ERC20/ERC20.sol\":3299:3415  function balanceOf(address account) public view virtual returns (uint256) {... */\n    tag_129:\n        /* \"@openzeppelin/contracts/token/ERC20/ERC20.sol\":3364:3371  uint256 */\n      0x00\n        /* \"@openzeppelin/contracts/token/ERC20/ERC20.sol\":3390:3399  _balances */\n      dup1\n        /* \"@openzeppelin/contracts/token/ERC20/ERC20.sol\":3390:3408  _balances[account] */\n      0x00\n        /* \"@openzeppelin/contracts/token/ERC20/ERC20.sol\":3400:3407  account */\n      dup4\n        /* \"@openzeppelin/contracts/token/ERC20/ERC20.sol\":3390:3408  _balances[account] */\n      0xffffffffffffffffffffffffffffffffffffffff\n      and\n      0xffffffffffffffffffffffffffffffffffffffff\n      and\n      dup2\n      mstore\n      0x20\n      add\n      swap1\n      dup2\n      mstore\n      0x20\n      add\n      0x00\n      keccak256\n      sload\n        /* \"@openzeppelin/contracts/token/ERC20/ERC20.sol\":3383:3408  return _balances[account] */\n      swap1\n      pop\n        /* \"@openzeppelin/contracts/token/ERC20/ERC20.sol\":3299:3415  function balanceOf(address account) public view virtual returns (uint256) {... */\n      swap2\n      swap1\n      pop\n      jump\t// out\n        /* \"@openzeppelin/contracts/access/Ownable.sol\":2293:2394  function renounceOwnership() public virtual onlyOwner {... */\n    tag_132:\n        /* \"@openzeppelin/contracts/access/Ownable.sol\":1531:1544  _checkOwner() */\n      tag_280\n        /* \"@openzeppelin/contracts/access/Ownable.sol\":1531:1542  _checkOwner */\n      tag_195\n        /* \"@openzeppelin/contracts/access/Ownable.sol\":1531:1544  _checkOwner() */\n      jump\t// in\n    tag_280:\n        /* \"@openzeppelin/contracts/access/Ownable.sol\":2357:2387  _transferOwnership(address(0)) */\n      tag_282\n        /* \"@openzeppelin/contracts/access/Ownable.sol\":2384:2385  0 */\n      0x00\n        /* \"@openzeppelin/contracts/access/Ownable.sol\":2357:2375  _transferOwnership */\n      tag_283\n        /* \"@openzeppelin/contracts/access/Ownable.sol\":2357:2387  _transferOwnership(address(0)) */\n      jump\t// in\n    tag_282:\n        /* \"@openzeppelin/contracts/access/Ownable.sol\":2293:2394  function renounceOwnership() public virtual onlyOwner {... */\n      jump\t// out\n        /* \"@openzeppelin/contracts/token/ERC20/extensions/ERC20Burnable.sol\":1021:1179  function burnFrom(address account, uint256 value) public virtual {... */\n    tag_135:\n        /* \"@openzeppelin/contracts/token/ERC20/extensions/ERC20Burnable.sol\":1096:1141  _spendAllowance(account, _msgSender(), value) */\n      tag_285\n        /* \"@openzeppelin/contracts/token/ERC20/extensions/ERC20Burnable.sol\":1112:1119  account */\n      dup3\n        /* \"@openzeppelin/contracts/token/ERC20/extensions/ERC20Burnable.sol\":1121:1133  _msgSender() */\n      tag_286\n        /* \"@openzeppelin/contracts/token/ERC20/extensions/ERC20Burnable.sol\":1121:1131  _msgSender */\n      tag_188\n        /* \"@openzeppelin/contracts/token/ERC20/extensions/ERC20Burnable.sol\":1121:1133  _msgSender() */\n      jump\t// in\n    tag_286:\n        /* \"@openzeppelin/contracts/token/ERC20/extensions/ERC20Burnable.sol\":1135:1140  value */\n      dup4\n        /* \"@openzeppelin/contracts/token/ERC20/extensions/ERC20Burnable.sol\":1096:1111  _spendAllowance */\n      tag_227\n        /* \"@openzeppelin/contracts/token/ERC20/extensions/ERC20Burnable.sol\":1096:1141  _spendAllowance(account, _msgSender(), value) */\n      jump\t// in\n    tag_285:\n        /* \"@openzeppelin/contracts/token/ERC20/extensions/ERC20Burnable.sol\":1151:1172  _burn(account, value) */\n      tag_287\n        /* \"@openzeppelin/contracts/token/ERC20/extensions/ERC20Burnable.sol\":1157:1164  account */\n      dup3\n        /* \"@openzeppelin/contracts/token/ERC20/extensions/ERC20Burnable.sol\":1166:1171  value */\n      dup3\n        /* \"@openzeppelin/contracts/token/ERC20/extensions/ERC20Burnable.sol\":1151:1156  _burn */\n      tag_250\n        /* \"@openzeppelin/contracts/token/ERC20/extensions/ERC20Burnable.sol\":1151:1172  _burn(account, value) */\n      jump\t// in\n    tag_287:\n        /* \"@openzeppelin/contracts/token/ERC20/extensions/ERC20Burnable.sol\":1021:1179  function burnFrom(address account, uint256 value) public virtual {... */\n      pop\n      pop\n      jump\t// out\n        /* \"contracts/regalium.sol\":693:724  uint256 public rewardRate = 100 */\n    tag_137:\n      sload(0x0d)\n      dup2\n      jump\t// out\n        /* \"contracts/regalium.sol\":548:596  mapping(address => uint256) public lastStakeTime */\n    tag_141:\n      mstore(0x20, 0x0a)\n      dup1\n      0x00\n      mstore\n      keccak256(0x00, 0x40)\n      0x00\n      swap2\n      pop\n      swap1\n      pop\n      sload\n      dup2\n      jump\t// out\n        /* \"contracts/regalium.sol\":660:686  uint256 public totalStaked */\n    tag_144:\n      sload(0x0c)\n      dup2\n      jump\t// out\n        /* \"@openzeppelin/contracts/access/Ownable.sol\":1638:1723  function owner() public view virtual returns (address) {... */\n    tag_147:\n        /* \"@openzeppelin/contracts/access/Ownable.sol\":1684:1691  address */\n      0x00\n        /* \"@openzeppelin/contracts/access/Ownable.sol\":1710:1716  _owner */\n      0x05\n      0x00\n      swap1\n      sload\n      swap1\n      0x0100\n      exp\n      swap1\n      div\n      0xffffffffffffffffffffffffffffffffffffffff\n      and\n        /* \"@openzeppelin/contracts/access/Ownable.sol\":1703:1716  return _owner */\n      swap1\n      pop\n        /* \"@openzeppelin/contracts/access/Ownable.sol\":1638:1723  function owner() public view virtual returns (address) {... */\n      swap1\n      jump\t// out\n        /* \"@openzeppelin/contracts/token/ERC20/ERC20.sol\":2276:2369  function symbol() public view virtual returns (string memory) {... */\n    tag_150:\n        /* \"@openzeppelin/contracts/token/ERC20/ERC20.sol\":2323:2336  string memory */\n      0x60\n        /* \"@openzeppelin/contracts/token/ERC20/ERC20.sol\":2355:2362  _symbol */\n      0x04\n        /* \"@openzeppelin/contracts/token/ERC20/ERC20.sol\":2348:2362  return _symbol */\n      dup1\n      sload\n      tag_290\n      swap1\n      tag_181\n      jump\t// in\n    tag_290:\n      dup1\n      0x1f\n      add\n      0x20\n      dup1\n      swap2\n      div\n      mul\n      0x20\n      add\n      mload(0x40)\n      swap1\n      dup2\n      add\n      0x40\n      mstore\n      dup1\n      swap3\n      swap2\n      swap1\n      dup2\n      dup2\n      mstore\n      0x20\n      add\n      dup3\n      dup1\n      sload\n      tag_291\n      swap1\n      tag_181\n      jump\t// in\n    tag_291:\n      dup1\n      iszero\n      tag_292\n      jumpi\n      dup1\n      0x1f\n      lt\n      tag_293\n      jumpi\n      0x0100\n      dup1\n      dup4\n      sload\n      div\n      mul\n      dup4\n      mstore\n      swap2\n      0x20\n      add\n      swap2\n      jump(tag_292)\n    tag_293:\n      dup3\n      add\n      swap2\n      swap1\n      0x00\n      mstore\n      keccak256(0x00, 0x20)\n      swap1\n    tag_294:\n      dup2\n      sload\n      dup2\n      mstore\n      swap1\n      0x01\n      add\n      swap1\n      0x20\n      add\n      dup1\n      dup4\n      gt\n      tag_294\n      jumpi\n      dup3\n      swap1\n      sub\n      0x1f\n      and\n      dup3\n      add\n      swap2\n    tag_292:\n      pop\n      pop\n      pop\n      pop\n      pop\n      swap1\n      pop\n        /* \"@openzeppelin/contracts/token/ERC20/ERC20.sol\":2276:2369  function symbol() public view virtual returns (string memory) {... */\n      swap1\n      jump\t// out\n        /* \"contracts/regalium.sol\":4513:4617  function setRewardRate(uint256 _rewardRate) public onlyAdmin {... */\n    tag_154:\n        /* \"contracts/regalium.sol\":908:915  isAdmin */\n      0x0f\n        /* \"contracts/regalium.sol\":908:927  isAdmin[msg.sender] */\n      0x00\n        /* \"contracts/regalium.sol\":916:926  msg.sender */\n      caller\n        /* \"contracts/regalium.sol\":908:927  isAdmin[msg.sender] */\n      0xffffffffffffffffffffffffffffffffffffffff\n      and\n      0xffffffffffffffffffffffffffffffffffffffff\n      and\n      dup2\n      mstore\n      0x20\n      add\n      swap1\n      dup2\n      mstore\n      0x20\n      add\n      0x00\n      keccak256\n      0x00\n      swap1\n      sload\n      swap1\n      0x0100\n      exp\n      swap1\n      div\n      0xff\n      and\n        /* \"contracts/regalium.sol\":900:944  require(isAdmin[msg.sender], \"Not an admin\") */\n      tag_296\n      jumpi\n      mload(0x40)\n      0x08c379a000000000000000000000000000000000000000000000000000000000\n      dup2\n      mstore\n      0x04\n      add\n      tag_297\n      swap1\n      tag_199\n      jump\t// in\n    tag_297:\n      mload(0x40)\n      dup1\n      swap2\n      sub\n      swap1\n      revert\n    tag_296:\n        /* \"contracts/regalium.sol\":4598:4609  _rewardRate */\n      dup1\n        /* \"contracts/regalium.sol\":4585:4595  rewardRate */\n      0x0d\n        /* \"contracts/regalium.sol\":4585:4609  rewardRate = _rewardRate */\n      dup2\n      swap1\n      sstore\n      pop\n        /* \"contracts/regalium.sol\":4513:4617  function setRewardRate(uint256 _rewardRate) public onlyAdmin {... */\n      pop\n      jump\t// out\n        /* \"contracts/regalium.sol\":2002:2389  function stake(uint256 amount) public {... */\n    tag_157:\n        /* \"contracts/regalium.sol\":2068:2069  0 */\n      0x00\n        /* \"contracts/regalium.sol\":2059:2065  amount */\n      dup2\n        /* \"contracts/regalium.sol\":2059:2069  amount > 0 */\n      gt\n        /* \"contracts/regalium.sol\":2051:2095  require(amount > 0, \"Cannot stake 0 tokens\") */\n      tag_300\n      jumpi\n      mload(0x40)\n      0x08c379a000000000000000000000000000000000000000000000000000000000\n      dup2\n      mstore\n      0x04\n      add\n      tag_301\n      swap1\n      tag_302\n      jump\t// in\n    tag_301:\n      mload(0x40)\n      dup1\n      swap2\n      sub\n      swap1\n      revert\n    tag_300:\n        /* \"contracts/regalium.sol\":775:781  1 days */\n      0x015180\n        /* \"contracts/regalium.sol\":2133:2148  lastUnstakeTime */\n      0x0b\n        /* \"contracts/regalium.sol\":2133:2160  lastUnstakeTime[msg.sender] */\n      0x00\n        /* \"contracts/regalium.sol\":2149:2159  msg.sender */\n      caller\n        /* \"contracts/regalium.sol\":2133:2160  lastUnstakeTime[msg.sender] */\n      0xffffffffffffffffffffffffffffffffffffffff\n      and\n      0xffffffffffffffffffffffffffffffffffffffff\n      and\n      dup2\n      mstore\n      0x20\n      add\n      swap1\n      dup2\n      mstore\n      0x20\n      add\n      0x00\n      keccak256\n      sload\n        /* \"contracts/regalium.sol\":2133:2178  lastUnstakeTime[msg.sender] + COOLDOWN_PERIOD */\n      tag_303\n      swap2\n      swap1\n      tag_235\n      jump\t// in\n    tag_303:\n        /* \"contracts/regalium.sol\":2114:2129  block.timestamp */\n      timestamp\n        /* \"contracts/regalium.sol\":2114:2178  block.timestamp >= lastUnstakeTime[msg.sender] + COOLDOWN_PERIOD */\n      lt\n      iszero\n        /* \"contracts/regalium.sol\":2106:2218  require(block.timestamp >= lastUnstakeTime[msg.sender] + COOLDOWN_PERIOD, \"Cooldown period not met for staking\") */\n      tag_304\n      jumpi\n      mload(0x40)\n      0x08c379a000000000000000000000000000000000000000000000000000000000\n      dup2\n      mstore\n      0x04\n      add\n      tag_305\n      swap1\n      tag_306\n      jump\t// in\n    tag_305:\n      mload(0x40)\n      dup1\n      swap2\n      sub\n      swap1\n      revert\n    tag_304:\n        /* \"contracts/regalium.sol\":2231:2256  _burn(msg.sender, amount) */\n      tag_307\n        /* \"contracts/regalium.sol\":2237:2247  msg.sender */\n      caller\n        /* \"contracts/regalium.sol\":2249:2255  amount */\n      dup3\n        /* \"contracts/regalium.sol\":2231:2236  _burn */\n      tag_250\n        /* \"contracts/regalium.sol\":2231:2256  _burn(msg.sender, amount) */\n      jump\t// in\n    tag_307:\n        /* \"contracts/regalium.sol\":2289:2295  amount */\n      dup1\n        /* \"contracts/regalium.sol\":2267:2273  stakes */\n      0x08\n        /* \"contracts/regalium.sol\":2267:2285  stakes[msg.sender] */\n      0x00\n        /* \"contracts/regalium.sol\":2274:2284  msg.sender */\n      caller\n        /* \"contracts/regalium.sol\":2267:2285  stakes[msg.sender] */\n      0xffffffffffffffffffffffffffffffffffffffff\n      and\n      0xffffffffffffffffffffffffffffffffffffffff\n      and\n      dup2\n      mstore\n      0x20\n      add\n      swap1\n      dup2\n      mstore\n      0x20\n      add\n      0x00\n      keccak256\n      0x00\n        /* \"contracts/regalium.sol\":2267:2295  stakes[msg.sender] += amount */\n      dup3\n      dup3\n      sload\n      tag_308\n      swap2\n      swap1\n      tag_235\n      jump\t// in\n    tag_308:\n      swap3\n      pop\n      pop\n      dup2\n      swap1\n      sstore\n      pop\n        /* \"contracts/regalium.sol\":2321:2327  amount */\n      dup1\n        /* \"contracts/regalium.sol\":2306:2317  totalStaked */\n      0x0c\n      0x00\n        /* \"contracts/regalium.sol\":2306:2327  totalStaked += amount */\n      dup3\n      dup3\n      sload\n      tag_309\n      swap2\n      swap1\n      tag_235\n      jump\t// in\n    tag_309:\n      swap3\n      pop\n      pop\n      dup2\n      swap1\n      sstore\n      pop\n        /* \"contracts/regalium.sol\":2366:2381  block.timestamp */\n      timestamp\n        /* \"contracts/regalium.sol\":2338:2351  lastStakeTime */\n      0x0a\n        /* \"contracts/regalium.sol\":2338:2363  lastStakeTime[msg.sender] */\n      0x00\n        /* \"contracts/regalium.sol\":2352:2362  msg.sender */\n      caller\n        /* \"contracts/regalium.sol\":2338:2363  lastStakeTime[msg.sender] */\n      0xffffffffffffffffffffffffffffffffffffffff\n      and\n      0xffffffffffffffffffffffffffffffffffffffff\n      and\n      dup2\n      mstore\n      0x20\n      add\n      swap1\n      dup2\n      mstore\n      0x20\n      add\n      0x00\n      keccak256\n        /* \"contracts/regalium.sol\":2338:2381  lastStakeTime[msg.sender] = block.timestamp */\n      dup2\n      swap1\n      sstore\n      pop\n        /* \"contracts/regalium.sol\":2002:2389  function stake(uint256 amount) public {... */\n      pop\n      jump\t// out\n        /* \"contracts/regalium.sol\":4625:4791  function changeOwner(address newOwner) public onlyOwner {... */\n    tag_160:\n        /* \"@openzeppelin/contracts/access/Ownable.sol\":1531:1544  _checkOwner() */\n      tag_311\n        /* \"@openzeppelin/contracts/access/Ownable.sol\":1531:1542  _checkOwner */\n      tag_195\n        /* \"@openzeppelin/contracts/access/Ownable.sol\":1531:1544  _checkOwner() */\n      jump\t// in\n    tag_311:\n        /* \"contracts/regalium.sol\":4720:4721  0 */\n      0x00\n        /* \"contracts/regalium.sol\":4700:4722  newOwner != address(0) */\n      0xffffffffffffffffffffffffffffffffffffffff\n      and\n        /* \"contracts/regalium.sol\":4700:4708  newOwner */\n      dup2\n        /* \"contracts/regalium.sol\":4700:4722  newOwner != address(0) */\n      0xffffffffffffffffffffffffffffffffffffffff\n      and\n      sub\n        /* \"contracts/regalium.sol\":4692:4744  require(newOwner != address(0), \"Invalid new owner\") */\n      tag_313\n      jumpi\n      mload(0x40)\n      0x08c379a000000000000000000000000000000000000000000000000000000000\n      dup2\n      mstore\n      0x04\n      add\n      tag_314\n      swap1\n      tag_315\n      jump\t// in\n    tag_314:\n      mload(0x40)\n      dup1\n      swap2\n      sub\n      swap1\n      revert\n    tag_313:\n        /* \"contracts/regalium.sol\":4755:4783  _transferOwnership(newOwner) */\n      tag_316\n        /* \"contracts/regalium.sol\":4774:4782  newOwner */\n      dup2\n        /* \"contracts/regalium.sol\":4755:4773  _transferOwnership */\n      tag_283\n        /* \"contracts/regalium.sol\":4755:4783  _transferOwnership(newOwner) */\n      jump\t// in\n    tag_316:\n        /* \"contracts/regalium.sol\":4625:4791  function changeOwner(address newOwner) public onlyOwner {... */\n      pop\n      jump\t// out\n        /* \"@openzeppelin/contracts/token/ERC20/ERC20.sol\":3610:3788  function transfer(address to, uint256 value) public virtual returns (bool) {... */\n    tag_163:\n        /* \"@openzeppelin/contracts/token/ERC20/ERC20.sol\":3679:3683  bool */\n      0x00\n        /* \"@openzeppelin/contracts/token/ERC20/ERC20.sol\":3695:3708  address owner */\n      dup1\n        /* \"@openzeppelin/contracts/token/ERC20/ERC20.sol\":3711:3723  _msgSender() */\n      tag_318\n        /* \"@openzeppelin/contracts/token/ERC20/ERC20.sol\":3711:3721  _msgSender */\n      tag_188\n        /* \"@openzeppelin/contracts/token/ERC20/ERC20.sol\":3711:3723  _msgSender() */\n      jump\t// in\n    tag_318:\n        /* \"@openzeppelin/contracts/token/ERC20/ERC20.sol\":3695:3723  address owner = _msgSender() */\n      swap1\n      pop\n        /* \"@openzeppelin/contracts/token/ERC20/ERC20.sol\":3733:3760  _transfer(owner, to, value) */\n      tag_319\n        /* \"@openzeppelin/contracts/token/ERC20/ERC20.sol\":3743:3748  owner */\n      dup2\n        /* \"@openzeppelin/contracts/token/ERC20/ERC20.sol\":3750:3752  to */\n      dup6\n        /* \"@openzeppelin/contracts/token/ERC20/ERC20.sol\":3754:3759  value */\n      dup6\n        /* \"@openzeppelin/contracts/token/ERC20/ERC20.sol\":3733:3742  _transfer */\n      tag_229\n        /* \"@openzeppelin/contracts/token/ERC20/ERC20.sol\":3733:3760  _transfer(owner, to, value) */\n      jump\t// in\n    tag_319:\n        /* \"@openzeppelin/contracts/token/ERC20/ERC20.sol\":3777:3781  true */\n      0x01\n        /* \"@openzeppelin/contracts/token/ERC20/ERC20.sol\":3770:3781  return true */\n      swap2\n      pop\n      pop\n        /* \"@openzeppelin/contracts/token/ERC20/ERC20.sol\":3610:3788  function transfer(address to, uint256 value) public virtual returns (bool) {... */\n      swap3\n      swap2\n      pop\n      pop\n      jump\t// out\n        /* \"contracts/regalium.sol\":2892:3115  function withdrawRewards() public {... */\n    tag_166:\n        /* \"contracts/regalium.sol\":2937:2951  uint256 reward */\n      0x00\n        /* \"contracts/regalium.sol\":2954:2981  calculateReward(msg.sender) */\n      tag_321\n        /* \"contracts/regalium.sol\":2970:2980  msg.sender */\n      caller\n        /* \"contracts/regalium.sol\":2954:2969  calculateReward */\n      tag_169\n        /* \"contracts/regalium.sol\":2954:2981  calculateReward(msg.sender) */\n      jump\t// in\n    tag_321:\n        /* \"contracts/regalium.sol\":2937:2981  uint256 reward = calculateReward(msg.sender) */\n      swap1\n      pop\n        /* \"contracts/regalium.sol\":3009:3010  0 */\n      0x00\n        /* \"contracts/regalium.sol\":3000:3006  reward */\n      dup2\n        /* \"contracts/regalium.sol\":3000:3010  reward > 0 */\n      gt\n        /* \"contracts/regalium.sol\":2992:3037  require(reward > 0, \"No rewards to withdraw\") */\n      tag_322\n      jumpi\n      mload(0x40)\n      0x08c379a000000000000000000000000000000000000000000000000000000000\n      dup2\n      mstore\n      0x04\n      add\n      tag_323\n      swap1\n      tag_324\n      jump\t// in\n    tag_323:\n      mload(0x40)\n      dup1\n      swap2\n      sub\n      swap1\n      revert\n    tag_322:\n        /* \"contracts/regalium.sol\":3070:3071  0 */\n      0x00\n        /* \"contracts/regalium.sol\":3048:3055  rewards */\n      0x09\n        /* \"contracts/regalium.sol\":3048:3067  rewards[msg.sender] */\n      0x00\n        /* \"contracts/regalium.sol\":3056:3066  msg.sender */\n      caller\n        /* \"contracts/regalium.sol\":3048:3067  rewards[msg.sender] */\n      0xffffffffffffffffffffffffffffffffffffffff\n      and\n      0xffffffffffffffffffffffffffffffffffffffff\n      and\n      dup2\n      mstore\n      0x20\n      add\n      swap1\n      dup2\n      mstore\n      0x20\n      add\n      0x00\n      keccak256\n        /* \"contracts/regalium.sol\":3048:3071  rewards[msg.sender] = 0 */\n      dup2\n      swap1\n      sstore\n      pop\n        /* \"contracts/regalium.sol\":3082:3107  _mint(msg.sender, reward) */\n      tag_325\n        /* \"contracts/regalium.sol\":3088:3098  msg.sender */\n      caller\n        /* \"contracts/regalium.sol\":3100:3106  reward */\n      dup3\n        /* \"contracts/regalium.sol\":3082:3087  _mint */\n      tag_242\n        /* \"contracts/regalium.sol\":3082:3107  _mint(msg.sender, reward) */\n      jump\t// in\n    tag_325:\n        /* \"contracts/regalium.sol\":2926:3115  {... */\n      pop\n        /* \"contracts/regalium.sol\":2892:3115  function withdrawRewards() public {... */\n      jump\t// out\n        /* \"contracts/regalium.sol\":3161:3689  function calculateReward(address staker) public view returns (uint256) {... */\n    tag_169:\n        /* \"contracts/regalium.sol\":3223:3230  uint256 */\n      0x00\n        /* \"contracts/regalium.sol\":3243:3268  uint256 accumulatedReward */\n      dup1\n        /* \"contracts/regalium.sol\":3301:3306  10000 */\n      0x2710\n        /* \"contracts/regalium.sol\":3288:3298  rewardRate */\n      sload(0x0d)\n        /* \"contracts/regalium.sol\":3271:3277  stakes */\n      0x08\n        /* \"contracts/regalium.sol\":3271:3285  stakes[staker] */\n      0x00\n        /* \"contracts/regalium.sol\":3278:3284  staker */\n      dup7\n        /* \"contracts/regalium.sol\":3271:3285  stakes[staker] */\n      0xffffffffffffffffffffffffffffffffffffffff\n      and\n      0xffffffffffffffffffffffffffffffffffffffff\n      and\n      dup2\n      mstore\n      0x20\n      add\n      swap1\n      dup2\n      mstore\n      0x20\n      add\n      0x00\n      keccak256\n      sload\n        /* \"contracts/regalium.sol\":3271:3298  stakes[staker] * rewardRate */\n      tag_327\n      swap2\n      swap1\n      tag_253\n      jump\t// in\n    tag_327:\n        /* \"contracts/regalium.sol\":3271:3306  stakes[staker] * rewardRate / 10000 */\n      tag_328\n      swap2\n      swap1\n      tag_255\n      jump\t// in\n    tag_328:\n        /* \"contracts/regalium.sol\":3243:3306  uint256 accumulatedReward = stakes[staker] * rewardRate / 10000 */\n      swap1\n      pop\n        /* \"contracts/regalium.sol\":3391:3407  uint256 lastTime */\n      0x00\n        /* \"contracts/regalium.sol\":3410:3423  lastStakeTime */\n      0x0a\n        /* \"contracts/regalium.sol\":3410:3431  lastStakeTime[staker] */\n      0x00\n        /* \"contracts/regalium.sol\":3424:3430  staker */\n      dup6\n        /* \"contracts/regalium.sol\":3410:3431  lastStakeTime[staker] */\n      0xffffffffffffffffffffffffffffffffffffffff\n      and\n      0xffffffffffffffffffffffffffffffffffffffff\n      and\n      dup2\n      mstore\n      0x20\n      add\n      swap1\n      dup2\n      mstore\n      0x20\n      add\n      0x00\n      keccak256\n      sload\n        /* \"contracts/regalium.sol\":3391:3431  uint256 lastTime = lastStakeTime[staker] */\n      swap1\n      pop\n        /* \"contracts/regalium.sol\":3457:3458  0 */\n      0x00\n        /* \"contracts/regalium.sol\":3446:3454  lastTime */\n      dup2\n        /* \"contracts/regalium.sol\":3446:3458  lastTime > 0 */\n      gt\n        /* \"contracts/regalium.sol\":3442:3627  if (lastTime > 0) {... */\n      iszero\n      tag_329\n      jumpi\n        /* \"contracts/regalium.sol\":3475:3491  uint256 timeDiff */\n      0x00\n        /* \"contracts/regalium.sol\":3512:3520  lastTime */\n      dup2\n        /* \"contracts/regalium.sol\":3494:3509  block.timestamp */\n      timestamp\n        /* \"contracts/regalium.sol\":3494:3520  block.timestamp - lastTime */\n      tag_330\n      swap2\n      swap1\n      tag_212\n      jump\t// in\n    tag_330:\n        /* \"contracts/regalium.sol\":3475:3520  uint256 timeDiff = block.timestamp - lastTime */\n      swap1\n      pop\n        /* \"contracts/regalium.sol\":3598:3614  10000 * 365 days */\n      0x496cebb800\n        /* \"contracts/regalium.sol\":3586:3594  timeDiff */\n      dup2\n        /* \"contracts/regalium.sol\":3573:3583  rewardRate */\n      sload(0x0d)\n        /* \"contracts/regalium.sol\":3556:3562  stakes */\n      0x08\n        /* \"contracts/regalium.sol\":3556:3570  stakes[staker] */\n      0x00\n        /* \"contracts/regalium.sol\":3563:3569  staker */\n      dup10\n        /* \"contracts/regalium.sol\":3556:3570  stakes[staker] */\n      0xffffffffffffffffffffffffffffffffffffffff\n      and\n      0xffffffffffffffffffffffffffffffffffffffff\n      and\n      dup2\n      mstore\n      0x20\n      add\n      swap1\n      dup2\n      mstore\n      0x20\n      add\n      0x00\n      keccak256\n      sload\n        /* \"contracts/regalium.sol\":3556:3583  stakes[staker] * rewardRate */\n      tag_331\n      swap2\n      swap1\n      tag_253\n      jump\t// in\n    tag_331:\n        /* \"contracts/regalium.sol\":3556:3594  stakes[staker] * rewardRate * timeDiff */\n      tag_332\n      swap2\n      swap1\n      tag_253\n      jump\t// in\n    tag_332:\n        /* \"contracts/regalium.sol\":3556:3615  stakes[staker] * rewardRate * timeDiff / (10000 * 365 days) */\n      tag_333\n      swap2\n      swap1\n      tag_255\n      jump\t// in\n    tag_333:\n        /* \"contracts/regalium.sol\":3535:3615  accumulatedReward += stakes[staker] * rewardRate * timeDiff / (10000 * 365 days) */\n      dup4\n      tag_334\n      swap2\n      swap1\n      tag_235\n      jump\t// in\n    tag_334:\n      swap3\n      pop\n        /* \"contracts/regalium.sol\":3460:3627  {... */\n      pop\n        /* \"contracts/regalium.sol\":3442:3627  if (lastTime > 0) {... */\n    tag_329:\n        /* \"contracts/regalium.sol\":3666:3673  rewards */\n      0x09\n        /* \"contracts/regalium.sol\":3666:3681  rewards[staker] */\n      0x00\n        /* \"contracts/regalium.sol\":3674:3680  staker */\n      dup6\n        /* \"contracts/regalium.sol\":3666:3681  rewards[staker] */\n      0xffffffffffffffffffffffffffffffffffffffff\n      and\n      0xffffffffffffffffffffffffffffffffffffffff\n      and\n      dup2\n      mstore\n      0x20\n      add\n      swap1\n      dup2\n      mstore\n      0x20\n      add\n      0x00\n      keccak256\n      sload\n        /* \"contracts/regalium.sol\":3646:3663  accumulatedReward */\n      dup3\n        /* \"contracts/regalium.sol\":3646:3681  accumulatedReward + rewards[staker] */\n      tag_335\n      swap2\n      swap1\n      tag_235\n      jump\t// in\n    tag_335:\n        /* \"contracts/regalium.sol\":3639:3681  return accumulatedReward + rewards[staker] */\n      swap3\n      pop\n      pop\n      pop\n        /* \"contracts/regalium.sol\":3161:3689  function calculateReward(address staker) public view returns (uint256) {... */\n      swap2\n      swap1\n      pop\n      jump\t// out\n        /* \"@openzeppelin/contracts/token/ERC20/ERC20.sol\":3846:3986  function allowance(address owner, address spender) public view virtual returns (uint256) {... */\n    tag_174:\n        /* \"@openzeppelin/contracts/token/ERC20/ERC20.sol\":3926:3933  uint256 */\n      0x00\n        /* \"@openzeppelin/contracts/token/ERC20/ERC20.sol\":3952:3963  _allowances */\n      0x01\n        /* \"@openzeppelin/contracts/token/ERC20/ERC20.sol\":3952:3970  _allowances[owner] */\n      0x00\n        /* \"@openzeppelin/contracts/token/ERC20/ERC20.sol\":3964:3969  owner */\n      dup5\n        /* \"@openzeppelin/contracts/token/ERC20/ERC20.sol\":3952:3970  _allowances[owner] */\n      0xffffffffffffffffffffffffffffffffffffffff\n      and\n      0xffffffffffffffffffffffffffffffffffffffff\n      and\n      dup2\n      mstore\n      0x20\n      add\n      swap1\n      dup2\n      mstore\n      0x20\n      add\n      0x00\n      keccak256\n        /* \"@openzeppelin/contracts/token/ERC20/ERC20.sol\":3952:3979  _allowances[owner][spender] */\n      0x00\n        /* \"@openzeppelin/contracts/token/ERC20/ERC20.sol\":3971:3978  spender */\n      dup4\n        /* \"@openzeppelin/contracts/token/ERC20/ERC20.sol\":3952:3979  _allowances[owner][spender] */\n      0xffffffffffffffffffffffffffffffffffffffff\n      and\n      0xffffffffffffffffffffffffffffffffffffffff\n      and\n      dup2\n      mstore\n      0x20\n      add\n      swap1\n      dup2\n      mstore\n      0x20\n      add\n      0x00\n      keccak256\n      sload\n        /* \"@openzeppelin/contracts/token/ERC20/ERC20.sol\":3945:3979  return _allowances[owner][spender] */\n      swap1\n      pop\n        /* \"@openzeppelin/contracts/token/ERC20/ERC20.sol\":3846:3986  function allowance(address owner, address spender) public view virtual returns (uint256) {... */\n      swap3\n      swap2\n      pop\n      pop\n      jump\t// out\n        /* \"@openzeppelin/contracts/access/Ownable.sol\":2543:2758  function transferOwnership(address newOwner) public virtual onlyOwner {... */\n    tag_178:\n        /* \"@openzeppelin/contracts/access/Ownable.sol\":1531:1544  _checkOwner() */\n      tag_338\n        /* \"@openzeppelin/contracts/access/Ownable.sol\":1531:1542  _checkOwner */\n      tag_195\n        /* \"@openzeppelin/contracts/access/Ownable.sol\":1531:1544  _checkOwner() */\n      jump\t// in\n    tag_338:\n        /* \"@openzeppelin/contracts/access/Ownable.sol\":2647:2648  0 */\n      0x00\n        /* \"@openzeppelin/contracts/access/Ownable.sol\":2627:2649  newOwner == address(0) */\n      0xffffffffffffffffffffffffffffffffffffffff\n      and\n        /* \"@openzeppelin/contracts/access/Ownable.sol\":2627:2635  newOwner */\n      dup2\n        /* \"@openzeppelin/contracts/access/Ownable.sol\":2627:2649  newOwner == address(0) */\n      0xffffffffffffffffffffffffffffffffffffffff\n      and\n      sub\n        /* \"@openzeppelin/contracts/access/Ownable.sol\":2623:2714  if (newOwner == address(0)) {... */\n      tag_340\n      jumpi\n        /* \"@openzeppelin/contracts/access/Ownable.sol\":2700:2701  0 */\n      0x00\n        /* \"@openzeppelin/contracts/access/Ownable.sol\":2672:2703  OwnableInvalidOwner(address(0)) */\n      mload(0x40)\n      0x1e4fbdf700000000000000000000000000000000000000000000000000000000\n      dup2\n      mstore\n      0x04\n      add\n      tag_341\n      swap2\n      swap1\n      tag_68\n      jump\t// in\n    tag_341:\n      mload(0x40)\n      dup1\n      swap2\n      sub\n      swap1\n      revert\n        /* \"@openzeppelin/contracts/access/Ownable.sol\":2623:2714  if (newOwner == address(0)) {... */\n    tag_340:\n        /* \"@openzeppelin/contracts/access/Ownable.sol\":2723:2751  _transferOwnership(newOwner) */\n      tag_342\n        /* \"@openzeppelin/contracts/access/Ownable.sol\":2742:2750  newOwner */\n      dup2\n        /* \"@openzeppelin/contracts/access/Ownable.sol\":2723:2741  _transferOwnership */\n      tag_283\n        /* \"@openzeppelin/contracts/access/Ownable.sol\":2723:2751  _transferOwnership(newOwner) */\n      jump\t// in\n    tag_342:\n        /* \"@openzeppelin/contracts/access/Ownable.sol\":2543:2758  function transferOwnership(address newOwner) public virtual onlyOwner {... */\n      pop\n      jump\t// out\n        /* \"@openzeppelin/contracts/utils/Context.sol\":656:752  function _msgSender() internal view virtual returns (address) {... */\n    tag_188:\n        /* \"@openzeppelin/contracts/utils/Context.sol\":709:716  address */\n      0x00\n        /* \"@openzeppelin/contracts/utils/Context.sol\":735:745  msg.sender */\n      caller\n        /* \"@openzeppelin/contracts/utils/Context.sol\":728:745  return msg.sender */\n      swap1\n      pop\n        /* \"@openzeppelin/contracts/utils/Context.sol\":656:752  function _msgSender() internal view virtual returns (address) {... */\n      swap1\n      jump\t// out\n        /* \"@openzeppelin/contracts/token/ERC20/ERC20.sol\":8989:9117  function _approve(address owner, address spender, uint256 value) internal {... */\n    tag_190:\n        /* \"@openzeppelin/contracts/token/ERC20/ERC20.sol\":9073:9110  _approve(owner, spender, value, true) */\n      tag_345\n        /* \"@openzeppelin/contracts/token/ERC20/ERC20.sol\":9082:9087  owner */\n      dup4\n        /* \"@openzeppelin/contracts/token/ERC20/ERC20.sol\":9089:9096  spender */\n      dup4\n        /* \"@openzeppelin/contracts/token/ERC20/ERC20.sol\":9098:9103  value */\n      dup4\n        /* \"@openzeppelin/contracts/token/ERC20/ERC20.sol\":9105:9109  true */\n      0x01\n        /* \"@openzeppelin/contracts/token/ERC20/ERC20.sol\":9073:9081  _approve */\n      tag_346\n        /* \"@openzeppelin/contracts/token/ERC20/ERC20.sol\":9073:9110  _approve(owner, spender, value, true) */\n      jump\t// in\n    tag_345:\n        /* \"@openzeppelin/contracts/token/ERC20/ERC20.sol\":8989:9117  function _approve(address owner, address spender, uint256 value) internal {... */\n      pop\n      pop\n      pop\n      jump\t// out\n        /* \"@openzeppelin/contracts/access/Ownable.sol\":1796:1958  function _checkOwner() internal view virtual {... */\n    tag_195:\n        /* \"@openzeppelin/contracts/access/Ownable.sol\":1866:1878  _msgSender() */\n      tag_348\n        /* \"@openzeppelin/contracts/access/Ownable.sol\":1866:1876  _msgSender */\n      tag_188\n        /* \"@openzeppelin/contracts/access/Ownable.sol\":1866:1878  _msgSender() */\n      jump\t// in\n    tag_348:\n        /* \"@openzeppelin/contracts/access/Ownable.sol\":1855:1878  owner() != _msgSender() */\n      0xffffffffffffffffffffffffffffffffffffffff\n      and\n        /* \"@openzeppelin/contracts/access/Ownable.sol\":1855:1862  owner() */\n      tag_349\n        /* \"@openzeppelin/contracts/access/Ownable.sol\":1855:1860  owner */\n      tag_147\n        /* \"@openzeppelin/contracts/access/Ownable.sol\":1855:1862  owner() */\n      jump\t// in\n    tag_349:\n        /* \"@openzeppelin/contracts/access/Ownable.sol\":1855:1878  owner() != _msgSender() */\n      0xffffffffffffffffffffffffffffffffffffffff\n      and\n      eq\n        /* \"@openzeppelin/contracts/access/Ownable.sol\":1851:1952  if (owner() != _msgSender()) {... */\n      tag_350\n      jumpi\n        /* \"@openzeppelin/contracts/access/Ownable.sol\":1928:1940  _msgSender() */\n      tag_351\n        /* \"@openzeppelin/contracts/access/Ownable.sol\":1928:1938  _msgSender */\n      tag_188\n        /* \"@openzeppelin/contracts/access/Ownable.sol\":1928:1940  _msgSender() */\n      jump\t// in\n    tag_351:\n        /* \"@openzeppelin/contracts/access/Ownable.sol\":1901:1941  OwnableUnauthorizedAccount(_msgSender()) */\n      mload(0x40)\n      0x118cdaa700000000000000000000000000000000000000000000000000000000\n      dup2\n      mstore\n      0x04\n      add\n      tag_352\n      swap2\n      swap1\n      tag_68\n      jump\t// in\n    tag_352:\n      mload(0x40)\n      dup1\n      swap2\n      sub\n      swap1\n      revert\n        /* \"@openzeppelin/contracts/access/Ownable.sol\":1851:1952  if (owner() != _msgSender()) {... */\n    tag_350:\n        /* \"@openzeppelin/contracts/access/Ownable.sol\":1796:1958  function _checkOwner() internal view virtual {... */\n      jump\t// out\n        /* \"@openzeppelin/contracts/token/ERC20/ERC20.sol\":10663:11140  function _spendAllowance(address owner, address spender, uint256 value) internal virtual {... */\n    tag_227:\n        /* \"@openzeppelin/contracts/token/ERC20/ERC20.sol\":10762:10786  uint256 currentAllowance */\n      0x00\n        /* \"@openzeppelin/contracts/token/ERC20/ERC20.sol\":10789:10814  allowance(owner, spender) */\n      tag_354\n        /* \"@openzeppelin/contracts/token/ERC20/ERC20.sol\":10799:10804  owner */\n      dup5\n        /* \"@openzeppelin/contracts/token/ERC20/ERC20.sol\":10806:10813  spender */\n      dup5\n        /* \"@openzeppelin/contracts/token/ERC20/ERC20.sol\":10789:10798  allowance */\n      tag_174\n        /* \"@openzeppelin/contracts/token/ERC20/ERC20.sol\":10789:10814  allowance(owner, spender) */\n      jump\t// in\n    tag_354:\n        /* \"@openzeppelin/contracts/token/ERC20/ERC20.sol\":10762:10814  uint256 currentAllowance = allowance(owner, spender) */\n      swap1\n      pop\n        /* \"@openzeppelin/contracts/token/ERC20/ERC20.sol\":10848:10865  type(uint256).max */\n      0xffffffffffffffffffffffffffffffffffffffffffffffffffffffffffffffff\n        /* \"@openzeppelin/contracts/token/ERC20/ERC20.sol\":10828:10844  currentAllowance */\n      dup2\n        /* \"@openzeppelin/contracts/token/ERC20/ERC20.sol\":10828:10865  currentAllowance != type(uint256).max */\n      eq\n        /* \"@openzeppelin/contracts/token/ERC20/ERC20.sol\":10824:11134  if (currentAllowance != type(uint256).max) {... */\n      tag_355\n      jumpi\n        /* \"@openzeppelin/contracts/token/ERC20/ERC20.sol\":10904:10909  value */\n      dup2\n        /* \"@openzeppelin/contracts/token/ERC20/ERC20.sol\":10885:10901  currentAllowance */\n      dup2\n        /* \"@openzeppelin/contracts/token/ERC20/ERC20.sol\":10885:10909  currentAllowance < value */\n      lt\n        /* \"@openzeppelin/contracts/token/ERC20/ERC20.sol\":10881:11011  if (currentAllowance < value) {... */\n      iszero\n      tag_356\n      jumpi\n        /* \"@openzeppelin/contracts/token/ERC20/ERC20.sol\":10963:10970  spender */\n      dup3\n        /* \"@openzeppelin/contracts/token/ERC20/ERC20.sol\":10972:10988  currentAllowance */\n      dup2\n        /* \"@openzeppelin/contracts/token/ERC20/ERC20.sol\":10990:10995  value */\n      dup4\n        /* \"@openzeppelin/contracts/token/ERC20/ERC20.sol\":10936:10996  ERC20InsufficientAllowance(spender, currentAllowance, value) */\n      mload(0x40)\n      0xfb8f41b200000000000000000000000000000000000000000000000000000000\n      dup2\n      mstore\n      0x04\n      add\n      tag_357\n      swap4\n      swap3\n      swap2\n      swap1\n      tag_358\n      jump\t// in\n    tag_357:\n      mload(0x40)\n      dup1\n      swap2\n      sub\n      swap1\n      revert\n        /* \"@openzeppelin/contracts/token/ERC20/ERC20.sol\":10881:11011  if (currentAllowance < value) {... */\n    tag_356:\n        /* \"@openzeppelin/contracts/token/ERC20/ERC20.sol\":11052:11109  _approve(owner, spender, currentAllowance - value, false) */\n      tag_359\n        /* \"@openzeppelin/contracts/token/ERC20/ERC20.sol\":11061:11066  owner */\n      dup5\n        /* \"@openzeppelin/contracts/token/ERC20/ERC20.sol\":11068:11075  spender */\n      dup5\n        /* \"@openzeppelin/contracts/token/ERC20/ERC20.sol\":11096:11101  value */\n      dup5\n        /* \"@openzeppelin/contracts/token/ERC20/ERC20.sol\":11077:11093  currentAllowance */\n      dup5\n        /* \"@openzeppelin/contracts/token/ERC20/ERC20.sol\":11077:11101  currentAllowance - value */\n      sub\n        /* \"@openzeppelin/contracts/token/ERC20/ERC20.sol\":11103:11108  false */\n      0x00\n        /* \"@openzeppelin/contracts/token/ERC20/ERC20.sol\":11052:11060  _approve */\n      tag_346\n        /* \"@openzeppelin/contracts/token/ERC20/ERC20.sol\":11052:11109  _approve(owner, spender, currentAllowance - value, false) */\n      jump\t// in\n    tag_359:\n        /* \"@openzeppelin/contracts/token/ERC20/ERC20.sol\":10824:11134  if (currentAllowance != type(uint256).max) {... */\n    tag_355:\n        /* \"@openzeppelin/contracts/token/ERC20/ERC20.sol\":10752:11140  {... */\n      pop\n        /* \"@openzeppelin/contracts/token/ERC20/ERC20.sol\":10663:11140  function _spendAllowance(address owner, address spender, uint256 value) internal virtual {... */\n      pop\n      pop\n      pop\n      jump\t// out\n        /* \"@openzeppelin/contracts/token/ERC20/ERC20.sol\":5656:5956  function _transfer(address from, address to, uint256 value) internal {... */\n    tag_229:\n        /* \"@openzeppelin/contracts/token/ERC20/ERC20.sol\":5755:5756  0 */\n      0x00\n        /* \"@openzeppelin/contracts/token/ERC20/ERC20.sol\":5739:5757  from == address(0) */\n      0xffffffffffffffffffffffffffffffffffffffff\n      and\n        /* \"@openzeppelin/contracts/token/ERC20/ERC20.sol\":5739:5743  from */\n      dup4\n        /* \"@openzeppelin/contracts/token/ERC20/ERC20.sol\":5739:5757  from == address(0) */\n      0xffffffffffffffffffffffffffffffffffffffff\n      and\n      sub\n        /* \"@openzeppelin/contracts/token/ERC20/ERC20.sol\":5735:5821  if (from == address(0)) {... */\n      tag_361\n      jumpi\n        /* \"@openzeppelin/contracts/token/ERC20/ERC20.sol\":5807:5808  0 */\n      0x00\n        /* \"@openzeppelin/contracts/token/ERC20/ERC20.sol\":5780:5810  ERC20InvalidSender(address(0)) */\n      mload(0x40)\n      0x96c6fd1e00000000000000000000000000000000000000000000000000000000\n      dup2\n      mstore\n      0x04\n      add\n      tag_362\n      swap2\n      swap1\n      tag_68\n      jump\t// in\n    tag_362:\n      mload(0x40)\n      dup1\n      swap2\n      sub\n      swap1\n      revert\n        /* \"@openzeppelin/contracts/token/ERC20/ERC20.sol\":5735:5821  if (from == address(0)) {... */\n    tag_361:\n        /* \"@openzeppelin/contracts/token/ERC20/ERC20.sol\":5848:5849  0 */\n      0x00\n        /* \"@openzeppelin/contracts/token/ERC20/ERC20.sol\":5834:5850  to == address(0) */\n      0xffffffffffffffffffffffffffffffffffffffff\n      and\n        /* \"@openzeppelin/contracts/token/ERC20/ERC20.sol\":5834:5836  to */\n      dup3\n        /* \"@openzeppelin/contracts/token/ERC20/ERC20.sol\":5834:5850  to == address(0) */\n      0xffffffffffffffffffffffffffffffffffffffff\n      and\n      sub\n        /* \"@openzeppelin/contracts/token/ERC20/ERC20.sol\":5830:5916  if (to == address(0)) {... */\n      tag_363\n      jumpi\n        /* \"@openzeppelin/contracts/token/ERC20/ERC20.sol\":5902:5903  0 */\n      0x00\n        /* \"@openzeppelin/contracts/token/ERC20/ERC20.sol\":5873:5905  ERC20InvalidReceiver(address(0)) */\n      mload(0x40)\n      0xec442f0500000000000000000000000000000000000000000000000000000000\n      dup2\n      mstore\n      0x04\n      add\n      tag_364\n      swap2\n      swap1\n      tag_68\n      jump\t// in\n    tag_364:\n      mload(0x40)\n      dup1\n      swap2\n      sub\n      swap1\n      revert\n        /* \"@openzeppelin/contracts/token/ERC20/ERC20.sol\":5830:5916  if (to == address(0)) {... */\n    tag_363:\n        /* \"@openzeppelin/contracts/token/ERC20/ERC20.sol\":5925:5949  _update(from, to, value) */\n      tag_365\n        /* \"@openzeppelin/contracts/token/ERC20/ERC20.sol\":5933:5937  from */\n      dup4\n        /* \"@openzeppelin/contracts/token/ERC20/ERC20.sol\":5939:5941  to */\n      dup4\n        /* \"@openzeppelin/contracts/token/ERC20/ERC20.sol\":5943:5948  value */\n      dup4\n        /* \"@openzeppelin/contracts/token/ERC20/ERC20.sol\":5925:5932  _update */\n      tag_366\n        /* \"@openzeppelin/contracts/token/ERC20/ERC20.sol\":5925:5949  _update(from, to, value) */\n      jump\t// in\n    tag_365:\n        /* \"@openzeppelin/contracts/token/ERC20/ERC20.sol\":5656:5956  function _transfer(address from, address to, uint256 value) internal {... */\n      pop\n      pop\n      pop\n      jump\t// out\n        /* \"@openzeppelin/contracts/token/ERC20/ERC20.sol\":7721:7929  function _mint(address account, uint256 value) internal {... */\n    tag_242:\n        /* \"@openzeppelin/contracts/token/ERC20/ERC20.sol\":7810:7811  0 */\n      0x00\n        /* \"@openzeppelin/contracts/token/ERC20/ERC20.sol\":7791:7812  account == address(0) */\n      0xffffffffffffffffffffffffffffffffffffffff\n      and\n        /* \"@openzeppelin/contracts/token/ERC20/ERC20.sol\":7791:7798  account */\n      dup3\n        /* \"@openzeppelin/contracts/token/ERC20/ERC20.sol\":7791:7812  account == address(0) */\n      0xffffffffffffffffffffffffffffffffffffffff\n      and\n      sub\n        /* \"@openzeppelin/contracts/token/ERC20/ERC20.sol\":7787:7878  if (account == address(0)) {... */\n      tag_368\n      jumpi\n        /* \"@openzeppelin/contracts/token/ERC20/ERC20.sol\":7864:7865  0 */\n      0x00\n        /* \"@openzeppelin/contracts/token/ERC20/ERC20.sol\":7835:7867  ERC20InvalidReceiver(address(0)) */\n      mload(0x40)\n      0xec442f0500000000000000000000000000000000000000000000000000000000\n      dup2\n      mstore\n      0x04\n      add\n      tag_369\n      swap2\n      swap1\n      tag_68\n      jump\t// in\n    tag_369:\n      mload(0x40)\n      dup1\n      swap2\n      sub\n      swap1\n      revert\n        /* \"@openzeppelin/contracts/token/ERC20/ERC20.sol\":7787:7878  if (account == address(0)) {... */\n    tag_368:\n        /* \"@openzeppelin/contracts/token/ERC20/ERC20.sol\":7887:7922  _update(address(0), account, value) */\n      tag_370\n        /* \"@openzeppelin/contracts/token/ERC20/ERC20.sol\":7903:7904  0 */\n      0x00\n        /* \"@openzeppelin/contracts/token/ERC20/ERC20.sol\":7907:7914  account */\n      dup4\n        /* \"@openzeppelin/contracts/token/ERC20/ERC20.sol\":7916:7921  value */\n      dup4\n        /* \"@openzeppelin/contracts/token/ERC20/ERC20.sol\":7887:7894  _update */\n      tag_366\n        /* \"@openzeppelin/contracts/token/ERC20/ERC20.sol\":7887:7922  _update(address(0), account, value) */\n      jump\t// in\n    tag_370:\n        /* \"@openzeppelin/contracts/token/ERC20/ERC20.sol\":7721:7929  function _mint(address account, uint256 value) internal {... */\n      pop\n      pop\n      jump\t// out\n        /* \"@openzeppelin/contracts/token/ERC20/ERC20.sol\":8247:8453  function _burn(address account, uint256 value) internal {... */\n    tag_250:\n        /* \"@openzeppelin/contracts/token/ERC20/ERC20.sol\":8336:8337  0 */\n      0x00\n        /* \"@openzeppelin/contracts/token/ERC20/ERC20.sol\":8317:8338  account == address(0) */\n      0xffffffffffffffffffffffffffffffffffffffff\n      and\n        /* \"@openzeppelin/contracts/token/ERC20/ERC20.sol\":8317:8324  account */\n      dup3\n        /* \"@openzeppelin/contracts/token/ERC20/ERC20.sol\":8317:8338  account == address(0) */\n      0xffffffffffffffffffffffffffffffffffffffff\n      and\n      sub\n        /* \"@openzeppelin/contracts/token/ERC20/ERC20.sol\":8313:8402  if (account == address(0)) {... */\n      tag_372\n      jumpi\n        /* \"@openzeppelin/contracts/token/ERC20/ERC20.sol\":8388:8389  0 */\n      0x00\n        /* \"@openzeppelin/contracts/token/ERC20/ERC20.sol\":8361:8391  ERC20InvalidSender(address(0)) */\n      mload(0x40)\n      0x96c6fd1e00000000000000000000000000000000000000000000000000000000\n      dup2\n      mstore\n      0x04\n      add\n      tag_373\n      swap2\n      swap1\n      tag_68\n      jump\t// in\n    tag_373:\n      mload(0x40)\n      dup1\n      swap2\n      sub\n      swap1\n      revert\n        /* \"@openzeppelin/contracts/token/ERC20/ERC20.sol\":8313:8402  if (account == address(0)) {... */\n    tag_372:\n        /* \"@openzeppelin/contracts/token/ERC20/ERC20.sol\":8411:8446  _update(account, address(0), value) */\n      tag_374\n        /* \"@openzeppelin/contracts/token/ERC20/ERC20.sol\":8419:8426  account */\n      dup3\n        /* \"@openzeppelin/contracts/token/ERC20/ERC20.sol\":8436:8437  0 */\n      0x00\n        /* \"@openzeppelin/contracts/token/ERC20/ERC20.sol\":8440:8445  value */\n      dup4\n        /* \"@openzeppelin/contracts/token/ERC20/ERC20.sol\":8411:8418  _update */\n      tag_366\n        /* \"@openzeppelin/contracts/token/ERC20/ERC20.sol\":8411:8446  _update(account, address(0), value) */\n      jump\t// in\n    tag_374:\n        /* \"@openzeppelin/contracts/token/ERC20/ERC20.sol\":8247:8453  function _burn(address account, uint256 value) internal {... */\n      pop\n      pop\n      jump\t// out\n        /* \"contracts/regalium.sol\":1323:1519  function _mintWithCapCheck(address account, uint256 amount) internal {... */\n    tag_265:\n        /* \"contracts/regalium.sol\":352:369  50000000 * 10**18 */\n      0x295be96e64066972000000\n        /* \"contracts/regalium.sol\":1427:1433  amount */\n      dup2\n        /* \"contracts/regalium.sol\":1411:1424  totalSupply() */\n      tag_376\n        /* \"contracts/regalium.sol\":1411:1422  totalSupply */\n      tag_77\n        /* \"contracts/regalium.sol\":1411:1424  totalSupply() */\n      jump\t// in\n    tag_376:\n        /* \"contracts/regalium.sol\":1411:1433  totalSupply() + amount */\n      tag_377\n      swap2\n      swap1\n      tag_235\n      jump\t// in\n    tag_377:\n        /* \"contracts/regalium.sol\":1411:1447  totalSupply() + amount <= MAX_SUPPLY */\n      gt\n      iszero\n        /* \"contracts/regalium.sol\":1403:1478  require(totalSupply() + amount <= MAX_SUPPLY, \"Minting exceeds max supply\") */\n      tag_378\n      jumpi\n      mload(0x40)\n      0x08c379a000000000000000000000000000000000000000000000000000000000\n      dup2\n      mstore\n      0x04\n      add\n      tag_379\n      swap1\n      tag_380\n      jump\t// in\n    tag_379:\n      mload(0x40)\n      dup1\n      swap2\n      sub\n      swap1\n      revert\n    tag_378:\n        /* \"contracts/regalium.sol\":1489:1511  _mint(account, amount) */\n      tag_381\n        /* \"contracts/regalium.sol\":1495:1502  account */\n      dup3\n        /* \"contracts/regalium.sol\":1504:1510  amount */\n      dup3\n        /* \"contracts/regalium.sol\":1489:1494  _mint */\n      tag_242\n        /* \"contracts/regalium.sol\":1489:1511  _mint(account, amount) */\n      jump\t// in\n    tag_381:\n        /* \"contracts/regalium.sol\":1323:1519  function _mintWithCapCheck(address account, uint256 amount) internal {... */\n      pop\n      pop\n      jump\t// out\n        /* \"@openzeppelin/contracts/access/Ownable.sol\":2912:3099  function _transferOwnership(address newOwner) internal virtual {... */\n    tag_283:\n        /* \"@openzeppelin/contracts/access/Ownable.sol\":2985:3001  address oldOwner */\n      0x00\n        /* \"@openzeppelin/contracts/access/Ownable.sol\":3004:3010  _owner */\n      0x05\n      0x00\n      swap1\n      sload\n      swap1\n      0x0100\n      exp\n      swap1\n      div\n      0xffffffffffffffffffffffffffffffffffffffff\n      and\n        /* \"@openzeppelin/contracts/access/Ownable.sol\":2985:3010  address oldOwner = _owner */\n      swap1\n      pop\n        /* \"@openzeppelin/contracts/access/Ownable.sol\":3029:3037  newOwner */\n      dup2\n        /* \"@openzeppelin/contracts/access/Ownable.sol\":3020:3026  _owner */\n      0x05\n      0x00\n        /* \"@openzeppelin/contracts/access/Ownable.sol\":3020:3037  _owner = newOwner */\n      0x0100\n      exp\n      dup2\n      sload\n      dup2\n      0xffffffffffffffffffffffffffffffffffffffff\n      mul\n      not\n      and\n      swap1\n      dup4\n      0xffffffffffffffffffffffffffffffffffffffff\n      and\n      mul\n      or\n      swap1\n      sstore\n      pop\n        /* \"@openzeppelin/contracts/access/Ownable.sol\":3083:3091  newOwner */\n      dup2\n        /* \"@openzeppelin/contracts/access/Ownable.sol\":3052:3092  OwnershipTransferred(oldOwner, newOwner) */\n      0xffffffffffffffffffffffffffffffffffffffff\n      and\n        /* \"@openzeppelin/contracts/access/Ownable.sol\":3073:3081  oldOwner */\n      dup2\n        /* \"@openzeppelin/contracts/access/Ownable.sol\":3052:3092  OwnershipTransferred(oldOwner, newOwner) */\n      0xffffffffffffffffffffffffffffffffffffffff\n      and\n      0x8be0079c531659141344cd1fd0a4f28419497f9722a3daafe3b4186f6b6457e0\n      mload(0x40)\n      mload(0x40)\n      dup1\n      swap2\n      sub\n      swap1\n      log3\n        /* \"@openzeppelin/contracts/access/Ownable.sol\":2975:3099  {... */\n      pop\n        /* \"@openzeppelin/contracts/access/Ownable.sol\":2912:3099  function _transferOwnership(address newOwner) internal virtual {... */\n      pop\n      jump\t// out\n        /* \"@openzeppelin/contracts/token/ERC20/ERC20.sol\":9949:10381  function _approve(address owner, address spender, uint256 value, bool emitEvent) internal virtual {... */\n    tag_346:\n        /* \"@openzeppelin/contracts/token/ERC20/ERC20.sol\":10078:10079  0 */\n      0x00\n        /* \"@openzeppelin/contracts/token/ERC20/ERC20.sol\":10061:10080  owner == address(0) */\n      0xffffffffffffffffffffffffffffffffffffffff\n      and\n        /* \"@openzeppelin/contracts/token/ERC20/ERC20.sol\":10061:10066  owner */\n      dup5\n        /* \"@openzeppelin/contracts/token/ERC20/ERC20.sol\":10061:10080  owner == address(0) */\n      0xffffffffffffffffffffffffffffffffffffffff\n      and\n      sub\n        /* \"@openzeppelin/contracts/token/ERC20/ERC20.sol\":10057:10146  if (owner == address(0)) {... */\n      tag_384\n      jumpi\n        /* \"@openzeppelin/contracts/token/ERC20/ERC20.sol\":10132:10133  0 */\n      0x00\n        /* \"@openzeppelin/contracts/token/ERC20/ERC20.sol\":10103:10135  ERC20InvalidApprover(address(0)) */\n      mload(0x40)\n      0xe602df0500000000000000000000000000000000000000000000000000000000\n      dup2\n      mstore\n      0x04\n      add\n      tag_385\n      swap2\n      swap1\n      tag_68\n      jump\t// in\n    tag_385:\n      mload(0x40)\n      dup1\n      swap2\n      sub\n      swap1\n      revert\n        /* \"@openzeppelin/contracts/token/ERC20/ERC20.sol\":10057:10146  if (owner == address(0)) {... */\n    tag_384:\n        /* \"@openzeppelin/contracts/token/ERC20/ERC20.sol\":10178:10179  0 */\n      0x00\n        /* \"@openzeppelin/contracts/token/ERC20/ERC20.sol\":10159:10180  spender == address(0) */\n      0xffffffffffffffffffffffffffffffffffffffff\n      and\n        /* \"@openzeppelin/contracts/token/ERC20/ERC20.sol\":10159:10166  spender */\n      dup4\n        /* \"@openzeppelin/contracts/token/ERC20/ERC20.sol\":10159:10180  spender == address(0) */\n      0xffffffffffffffffffffffffffffffffffffffff\n      and\n      sub\n        /* \"@openzeppelin/contracts/token/ERC20/ERC20.sol\":10155:10245  if (spender == address(0)) {... */\n      tag_386\n      jumpi\n        /* \"@openzeppelin/contracts/token/ERC20/ERC20.sol\":10231:10232  0 */\n      0x00\n        /* \"@openzeppelin/contracts/token/ERC20/ERC20.sol\":10203:10234  ERC20InvalidSpender(address(0)) */\n      mload(0x40)\n      0x94280d6200000000000000000000000000000000000000000000000000000000\n      dup2\n      mstore\n      0x04\n      add\n      tag_387\n      swap2\n      swap1\n      tag_68\n      jump\t// in\n    tag_387:\n      mload(0x40)\n      dup1\n      swap2\n      sub\n      swap1\n      revert\n        /* \"@openzeppelin/contracts/token/ERC20/ERC20.sol\":10155:10245  if (spender == address(0)) {... */\n    tag_386:\n        /* \"@openzeppelin/contracts/token/ERC20/ERC20.sol\":10284:10289  value */\n      dup2\n        /* \"@openzeppelin/contracts/token/ERC20/ERC20.sol\":10254:10265  _allowances */\n      0x01\n        /* \"@openzeppelin/contracts/token/ERC20/ERC20.sol\":10254:10272  _allowances[owner] */\n      0x00\n        /* \"@openzeppelin/contracts/token/ERC20/ERC20.sol\":10266:10271  owner */\n      dup7\n        /* \"@openzeppelin/contracts/token/ERC20/ERC20.sol\":10254:10272  _allowances[owner] */\n      0xffffffffffffffffffffffffffffffffffffffff\n      and\n      0xffffffffffffffffffffffffffffffffffffffff\n      and\n      dup2\n      mstore\n      0x20\n      add\n      swap1\n      dup2\n      mstore\n      0x20\n      add\n      0x00\n      keccak256\n        /* \"@openzeppelin/contracts/token/ERC20/ERC20.sol\":10254:10281  _allowances[owner][spender] */\n      0x00\n        /* \"@openzeppelin/contracts/token/ERC20/ERC20.sol\":10273:10280  spender */\n      dup6\n        /* \"@openzeppelin/contracts/token/ERC20/ERC20.sol\":10254:10281  _allowances[owner][spender] */\n      0xffffffffffffffffffffffffffffffffffffffff\n      and\n      0xffffffffffffffffffffffffffffffffffffffff\n      and\n      dup2\n      mstore\n      0x20\n      add\n      swap1\n      dup2\n      mstore\n      0x20\n      add\n      0x00\n      keccak256\n        /* \"@openzeppelin/contracts/token/ERC20/ERC20.sol\":10254:10289  _allowances[owner][spender] = value */\n      dup2\n      swap1\n      sstore\n      pop\n        /* \"@openzeppelin/contracts/token/ERC20/ERC20.sol\":10303:10312  emitEvent */\n      dup1\n        /* \"@openzeppelin/contracts/token/ERC20/ERC20.sol\":10299:10375  if (emitEvent) {... */\n      iszero\n      tag_388\n      jumpi\n        /* \"@openzeppelin/contracts/token/ERC20/ERC20.sol\":10349:10356  spender */\n      dup3\n        /* \"@openzeppelin/contracts/token/ERC20/ERC20.sol\":10333:10364  Approval(owner, spender, value) */\n      0xffffffffffffffffffffffffffffffffffffffff\n      and\n        /* \"@openzeppelin/contracts/token/ERC20/ERC20.sol\":10342:10347  owner */\n      dup5\n        /* \"@openzeppelin/contracts/token/ERC20/ERC20.sol\":10333:10364  Approval(owner, spender, value) */\n      0xffffffffffffffffffffffffffffffffffffffff\n      and\n      0x8c5be1e5ebec7d5bd14f71427d1e84f3dd0314c0f7b2291e5b200ac8c7c3b925\n        /* \"@openzeppelin/contracts/token/ERC20/ERC20.sol\":10358:10363  value */\n      dup5\n        /* \"@openzeppelin/contracts/token/ERC20/ERC20.sol\":10333:10364  Approval(owner, spender, value) */\n      mload(0x40)\n      tag_389\n      swap2\n      swap1\n      tag_56\n      jump\t// in\n    tag_389:\n      mload(0x40)\n      dup1\n      swap2\n      sub\n      swap1\n      log3\n        /* \"@openzeppelin/contracts/token/ERC20/ERC20.sol\":10299:10375  if (emitEvent) {... */\n    tag_388:\n        /* \"@openzeppelin/contracts/token/ERC20/ERC20.sol\":9949:10381  function _approve(address owner, address spender, uint256 value, bool emitEvent) internal virtual {... */\n      pop\n      pop\n      pop\n      pop\n      jump\t// out\n        /* \"@openzeppelin/contracts/token/ERC20/ERC20.sol\":6271:7378  function _update(address from, address to, uint256 value) internal virtual {... */\n    tag_366:\n        /* \"@openzeppelin/contracts/token/ERC20/ERC20.sol\":6376:6377  0 */\n      0x00\n        /* \"@openzeppelin/contracts/token/ERC20/ERC20.sol\":6360:6378  from == address(0) */\n      0xffffffffffffffffffffffffffffffffffffffff\n      and\n        /* \"@openzeppelin/contracts/token/ERC20/ERC20.sol\":6360:6364  from */\n      dup4\n        /* \"@openzeppelin/contracts/token/ERC20/ERC20.sol\":6360:6378  from == address(0) */\n      0xffffffffffffffffffffffffffffffffffffffff\n      and\n      sub\n        /* \"@openzeppelin/contracts/token/ERC20/ERC20.sol\":6356:6896  if (from == address(0)) {... */\n      tag_391\n      jumpi\n        /* \"@openzeppelin/contracts/token/ERC20/ERC20.sol\":6512:6517  value */\n      dup1\n        /* \"@openzeppelin/contracts/token/ERC20/ERC20.sol\":6496:6508  _totalSupply */\n      0x02\n      0x00\n        /* \"@openzeppelin/contracts/token/ERC20/ERC20.sol\":6496:6517  _totalSupply += value */\n      dup3\n      dup3\n      sload\n      tag_392\n      swap2\n      swap1\n      tag_235\n      jump\t// in\n    tag_392:\n      swap3\n      pop\n      pop\n      dup2\n      swap1\n      sstore\n      pop\n        /* \"@openzeppelin/contracts/token/ERC20/ERC20.sol\":6356:6896  if (from == address(0)) {... */\n      jump(tag_393)\n    tag_391:\n        /* \"@openzeppelin/contracts/token/ERC20/ERC20.sol\":6548:6567  uint256 fromBalance */\n      0x00\n        /* \"@openzeppelin/contracts/token/ERC20/ERC20.sol\":6570:6579  _balances */\n      dup1\n        /* \"@openzeppelin/contracts/token/ERC20/ERC20.sol\":6570:6585  _balances[from] */\n      0x00\n        /* \"@openzeppelin/contracts/token/ERC20/ERC20.sol\":6580:6584  from */\n      dup6\n        /* \"@openzeppelin/contracts/token/ERC20/ERC20.sol\":6570:6585  _balances[from] */\n      0xffffffffffffffffffffffffffffffffffffffff\n      and\n      0xffffffffffffffffffffffffffffffffffffffff\n      and\n      dup2\n      mstore\n      0x20\n      add\n      swap1\n      dup2\n      mstore\n      0x20\n      add\n      0x00\n      keccak256\n      sload\n        /* \"@openzeppelin/contracts/token/ERC20/ERC20.sol\":6548:6585  uint256 fromBalance = _balances[from] */\n      swap1\n      pop\n        /* \"@openzeppelin/contracts/token/ERC20/ERC20.sol\":6617:6622  value */\n      dup2\n        /* \"@openzeppelin/contracts/token/ERC20/ERC20.sol\":6603:6614  fromBalance */\n      dup2\n        /* \"@openzeppelin/contracts/token/ERC20/ERC20.sol\":6603:6622  fromBalance < value */\n      lt\n        /* \"@openzeppelin/contracts/token/ERC20/ERC20.sol\":6599:6714  if (fromBalance < value) {... */\n      iszero\n      tag_394\n      jumpi\n        /* \"@openzeppelin/contracts/token/ERC20/ERC20.sol\":6674:6678  from */\n      dup4\n        /* \"@openzeppelin/contracts/token/ERC20/ERC20.sol\":6680:6691  fromBalance */\n      dup2\n        /* \"@openzeppelin/contracts/token/ERC20/ERC20.sol\":6693:6698  value */\n      dup4\n        /* \"@openzeppelin/contracts/token/ERC20/ERC20.sol\":6649:6699  ERC20InsufficientBalance(from, fromBalance, value) */\n      mload(0x40)\n      0xe450d38c00000000000000000000000000000000000000000000000000000000\n      dup2\n      mstore\n      0x04\n      add\n      tag_395\n      swap4\n      swap3\n      swap2\n      swap1\n      tag_358\n      jump\t// in\n    tag_395:\n      mload(0x40)\n      dup1\n      swap2\n      sub\n      swap1\n      revert\n        /* \"@openzeppelin/contracts/token/ERC20/ERC20.sol\":6599:6714  if (fromBalance < value) {... */\n    tag_394:\n        /* \"@openzeppelin/contracts/token/ERC20/ERC20.sol\":6866:6871  value */\n      dup2\n        /* \"@openzeppelin/contracts/token/ERC20/ERC20.sol\":6852:6863  fromBalance */\n      dup2\n        /* \"@openzeppelin/contracts/token/ERC20/ERC20.sol\":6852:6871  fromBalance - value */\n      sub\n        /* \"@openzeppelin/contracts/token/ERC20/ERC20.sol\":6834:6843  _balances */\n      0x00\n        /* \"@openzeppelin/contracts/token/ERC20/ERC20.sol\":6834:6849  _balances[from] */\n      dup1\n        /* \"@openzeppelin/contracts/token/ERC20/ERC20.sol\":6844:6848  from */\n      dup7\n        /* \"@openzeppelin/contracts/token/ERC20/ERC20.sol\":6834:6849  _balances[from] */\n      0xffffffffffffffffffffffffffffffffffffffff\n      and\n      0xffffffffffffffffffffffffffffffffffffffff\n      and\n      dup2\n      mstore\n      0x20\n      add\n      swap1\n      dup2\n      mstore\n      0x20\n      add\n      0x00\n      keccak256\n        /* \"@openzeppelin/contracts/token/ERC20/ERC20.sol\":6834:6871  _balances[from] = fromBalance - value */\n      dup2\n      swap1\n      sstore\n      pop\n        /* \"@openzeppelin/contracts/token/ERC20/ERC20.sol\":6534:6896  {... */\n      pop\n        /* \"@openzeppelin/contracts/token/ERC20/ERC20.sol\":6356:6896  if (from == address(0)) {... */\n    tag_393:\n        /* \"@openzeppelin/contracts/token/ERC20/ERC20.sol\":6924:6925  0 */\n      0x00\n        /* \"@openzeppelin/contracts/token/ERC20/ERC20.sol\":6910:6926  to == address(0) */\n      0xffffffffffffffffffffffffffffffffffffffff\n      and\n        /* \"@openzeppelin/contracts/token/ERC20/ERC20.sol\":6910:6912  to */\n      dup3\n        /* \"@openzeppelin/contracts/token/ERC20/ERC20.sol\":6910:6926  to == address(0) */\n      0xffffffffffffffffffffffffffffffffffffffff\n      and\n      sub\n        /* \"@openzeppelin/contracts/token/ERC20/ERC20.sol\":6906:7331  if (to == address(0)) {... */\n      tag_396\n      jumpi\n        /* \"@openzeppelin/contracts/token/ERC20/ERC20.sol\":7089:7094  value */\n      dup1\n        /* \"@openzeppelin/contracts/token/ERC20/ERC20.sol\":7073:7085  _totalSupply */\n      0x02\n      0x00\n        /* \"@openzeppelin/contracts/token/ERC20/ERC20.sol\":7073:7094  _totalSupply -= value */\n      dup3\n      dup3\n      sload\n      sub\n      swap3\n      pop\n      pop\n      dup2\n      swap1\n      sstore\n      pop\n        /* \"@openzeppelin/contracts/token/ERC20/ERC20.sol\":6906:7331  if (to == address(0)) {... */\n      jump(tag_397)\n    tag_396:\n        /* \"@openzeppelin/contracts/token/ERC20/ERC20.sol\":7301:7306  value */\n      dup1\n        /* \"@openzeppelin/contracts/token/ERC20/ERC20.sol\":7284:7293  _balances */\n      0x00\n        /* \"@openzeppelin/contracts/token/ERC20/ERC20.sol\":7284:7297  _balances[to] */\n      dup1\n        /* \"@openzeppelin/contracts/token/ERC20/ERC20.sol\":7294:7296  to */\n      dup5\n        /* \"@openzeppelin/contracts/token/ERC20/ERC20.sol\":7284:7297  _balances[to] */\n      0xffffffffffffffffffffffffffffffffffffffff\n      and\n      0xffffffffffffffffffffffffffffffffffffffff\n      and\n      dup2\n      mstore\n      0x20\n      add\n      swap1\n      dup2\n      mstore\n      0x20\n      add\n      0x00\n      keccak256\n      0x00\n        /* \"@openzeppelin/contracts/token/ERC20/ERC20.sol\":7284:7306  _balances[to] += value */\n      dup3\n      dup3\n      sload\n      add\n      swap3\n      pop\n      pop\n      dup2\n      swap1\n      sstore\n      pop\n        /* \"@openzeppelin/contracts/token/ERC20/ERC20.sol\":6906:7331  if (to == address(0)) {... */\n    tag_397:\n        /* \"@openzeppelin/contracts/token/ERC20/ERC20.sol\":7361:7363  to */\n      dup2\n        /* \"@openzeppelin/contracts/token/ERC20/ERC20.sol\":7346:7371  Transfer(from, to, value) */\n      0xffffffffffffffffffffffffffffffffffffffff\n      and\n        /* \"@openzeppelin/contracts/token/ERC20/ERC20.sol\":7355:7359  from */\n      dup4\n        /* \"@openzeppelin/contracts/token/ERC20/ERC20.sol\":7346:7371  Transfer(from, to, value) */\n      0xffffffffffffffffffffffffffffffffffffffff\n      and\n      0xddf252ad1be2c89b69c2b068fc378daa952ba7f163c4a11628f55a4df523b3ef\n        /* \"@openzeppelin/contracts/token/ERC20/ERC20.sol\":7365:7370  value */\n      dup4\n        /* \"@openzeppelin/contracts/token/ERC20/ERC20.sol\":7346:7371  Transfer(from, to, value) */\n      mload(0x40)\n      tag_398\n      swap2\n      swap1\n      tag_56\n      jump\t// in\n    tag_398:\n      mload(0x40)\n      dup1\n      swap2\n      sub\n      swap1\n      log3\n        /* \"@openzeppelin/contracts/token/ERC20/ERC20.sol\":6271:7378  function _update(address from, address to, uint256 value) internal virtual {... */\n      pop\n      pop\n      pop\n      jump\t// out\n        /* \"#utility.yul\":7:106   */\n    tag_399:\n        /* \"#utility.yul\":59:65   */\n      0x00\n        /* \"#utility.yul\":93:98   */\n      dup2\n        /* \"#utility.yul\":87:99   */\n      mload\n        /* \"#utility.yul\":77:99   */\n      swap1\n      pop\n        /* \"#utility.yul\":7:106   */\n      swap2\n      swap1\n      pop\n      jump\t// out\n        /* \"#utility.yul\":112:281   */\n    tag_400:\n        /* \"#utility.yul\":196:207   */\n      0x00\n        /* \"#utility.yul\":230:236   */\n      dup3\n        /* \"#utility.yul\":225:228   */\n      dup3\n        /* \"#utility.yul\":218:237   */\n      mstore\n        /* \"#utility.yul\":270:274   */\n      0x20\n        /* \"#utility.yul\":265:268   */\n      dup3\n        /* \"#utility.yul\":261:275   */\n      add\n        /* \"#utility.yul\":246:275   */\n      swap1\n      pop\n        /* \"#utility.yul\":112:281   */\n      swap3\n      swap2\n      pop\n      pop\n      jump\t// out\n        /* \"#utility.yul\":287:426   */\n    tag_401:\n        /* \"#utility.yul\":376:382   */\n      dup3\n        /* \"#utility.yul\":371:374   */\n      dup2\n        /* \"#utility.yul\":366:369   */\n      dup4\n        /* \"#utility.yul\":360:383   */\n      mcopy\n        /* \"#utility.yul\":417:418   */\n      0x00\n        /* \"#utility.yul\":408:414   */\n      dup4\n        /* \"#utility.yul\":403:406   */\n      dup4\n        /* \"#utility.yul\":399:415   */\n      add\n        /* \"#utility.yul\":392:419   */\n      mstore\n        /* \"#utility.yul\":287:426   */\n      pop\n      pop\n      pop\n      jump\t// out\n        /* \"#utility.yul\":432:534   */\n    tag_402:\n        /* \"#utility.yul\":473:479   */\n      0x00\n        /* \"#utility.yul\":524:526   */\n      0x1f\n        /* \"#utility.yul\":520:527   */\n      not\n        /* \"#utility.yul\":515:517   */\n      0x1f\n        /* \"#utility.yul\":508:513   */\n      dup4\n        /* \"#utility.yul\":504:518   */\n      add\n        /* \"#utility.yul\":500:528   */\n      and\n        /* \"#utility.yul\":490:528   */\n      swap1\n      pop\n        /* \"#utility.yul\":432:534   */\n      swap2\n      swap1\n      pop\n      jump\t// out\n        /* \"#utility.yul\":540:917   */\n    tag_403:\n        /* \"#utility.yul\":628:631   */\n      0x00\n        /* \"#utility.yul\":656:695   */\n      tag_466\n        /* \"#utility.yul\":689:694   */\n      dup3\n        /* \"#utility.yul\":656:695   */\n      tag_399\n      jump\t// in\n    tag_466:\n        /* \"#utility.yul\":711:782   */\n      tag_467\n        /* \"#utility.yul\":775:781   */\n      dup2\n        /* \"#utility.yul\":770:773   */\n      dup6\n        /* \"#utility.yul\":711:782   */\n      tag_400\n      jump\t// in\n    tag_467:\n        /* \"#utility.yul\":704:782   */\n      swap4\n      pop\n        /* \"#utility.yul\":791:856   */\n      tag_468\n        /* \"#utility.yul\":849:855   */\n      dup2\n        /* \"#utility.yul\":844:847   */\n      dup6\n        /* \"#utility.yul\":837:841   */\n      0x20\n        /* \"#utility.yul\":830:835   */\n      dup7\n        /* \"#utility.yul\":826:842   */\n      add\n        /* \"#utility.yul\":791:856   */\n      tag_401\n      jump\t// in\n    tag_468:\n        /* \"#utility.yul\":881:910   */\n      tag_469\n        /* \"#utility.yul\":903:909   */\n      dup2\n        /* \"#utility.yul\":881:910   */\n      tag_402\n      jump\t// in\n    tag_469:\n        /* \"#utility.yul\":876:879   */\n      dup5\n        /* \"#utility.yul\":872:911   */\n      add\n        /* \"#utility.yul\":865:911   */\n      swap2\n      pop\n        /* \"#utility.yul\":632:917   */\n      pop\n        /* \"#utility.yul\":540:917   */\n      swap3\n      swap2\n      pop\n      pop\n      jump\t// out\n        /* \"#utility.yul\":923:1236   */\n    tag_50:\n        /* \"#utility.yul\":1036:1040   */\n      0x00\n        /* \"#utility.yul\":1074:1076   */\n      0x20\n        /* \"#utility.yul\":1063:1072   */\n      dup3\n        /* \"#utility.yul\":1059:1077   */\n      add\n        /* \"#utility.yul\":1051:1077   */\n      swap1\n      pop\n        /* \"#utility.yul\":1123:1132   */\n      dup2\n        /* \"#utility.yul\":1117:1121   */\n      dup2\n        /* \"#utility.yul\":1113:1133   */\n      sub\n        /* \"#utility.yul\":1109:1110   */\n      0x00\n        /* \"#utility.yul\":1098:1107   */\n      dup4\n        /* \"#utility.yul\":1094:1111   */\n      add\n        /* \"#utility.yul\":1087:1134   */\n      mstore\n        /* \"#utility.yul\":1151:1229   */\n      tag_471\n        /* \"#utility.yul\":1224:1228   */\n      dup2\n        /* \"#utility.yul\":1215:1221   */\n      dup5\n        /* \"#utility.yul\":1151:1229   */\n      tag_403\n      jump\t// in\n    tag_471:\n        /* \"#utility.yul\":1143:1229   */\n      swap1\n      pop\n        /* \"#utility.yul\":923:1236   */\n      swap3\n      swap2\n      pop\n      pop\n      jump\t// out\n        /* \"#utility.yul\":1323:1440   */\n    tag_405:\n        /* \"#utility.yul\":1432:1433   */\n      0x00\n        /* \"#utility.yul\":1429:1430   */\n      dup1\n        /* \"#utility.yul\":1422:1434   */\n      revert\n        /* \"#utility.yul\":1569:1695   */\n    tag_407:\n        /* \"#utility.yul\":1606:1613   */\n      0x00\n        /* \"#utility.yul\":1646:1688   */\n      0xffffffffffffffffffffffffffffffffffffffff\n        /* \"#utility.yul\":1639:1644   */\n      dup3\n        /* \"#utility.yul\":1635:1689   */\n      and\n        /* \"#utility.yul\":1624:1689   */\n      swap1\n      pop\n        /* \"#utility.yul\":1569:1695   */\n      swap2\n      swap1\n      pop\n      jump\t// out\n        /* \"#utility.yul\":1701:1797   */\n    tag_408:\n        /* \"#utility.yul\":1738:1745   */\n      0x00\n        /* \"#utility.yul\":1767:1791   */\n      tag_477\n        /* \"#utility.yul\":1785:1790   */\n      dup3\n        /* \"#utility.yul\":1767:1791   */\n      tag_407\n      jump\t// in\n    tag_477:\n        /* \"#utility.yul\":1756:1791   */\n      swap1\n      pop\n        /* \"#utility.yul\":1701:1797   */\n      swap2\n      swap1\n      pop\n      jump\t// out\n        /* \"#utility.yul\":1803:1925   */\n    tag_409:\n        /* \"#utility.yul\":1876:1900   */\n      tag_479\n        /* \"#utility.yul\":1894:1899   */\n      dup2\n        /* \"#utility.yul\":1876:1900   */\n      tag_408\n      jump\t// in\n    tag_479:\n        /* \"#utility.yul\":1869:1874   */\n      dup2\n        /* \"#utility.yul\":1866:1901   */\n      eq\n        /* \"#utility.yul\":1856:1919   */\n      tag_480\n      jumpi\n        /* \"#utility.yul\":1915:1916   */\n      0x00\n        /* \"#utility.yul\":1912:1913   */\n      dup1\n        /* \"#utility.yul\":1905:1917   */\n      revert\n        /* \"#utility.yul\":1856:1919   */\n    tag_480:\n        /* \"#utility.yul\":1803:1925   */\n      pop\n      jump\t// out\n        /* \"#utility.yul\":1931:2070   */\n    tag_410:\n        /* \"#utility.yul\":1977:1982   */\n      0x00\n        /* \"#utility.yul\":2015:2021   */\n      dup2\n        /* \"#utility.yul\":2002:2022   */\n      calldataload\n        /* \"#utility.yul\":1993:2022   */\n      swap1\n      pop\n        /* \"#utility.yul\":2031:2064   */\n      tag_482\n        /* \"#utility.yul\":2058:2063   */\n      dup2\n        /* \"#utility.yul\":2031:2064   */\n      tag_409\n      jump\t// in\n    tag_482:\n        /* \"#utility.yul\":1931:2070   */\n      swap3\n      swap2\n      pop\n      pop\n      jump\t// out\n        /* \"#utility.yul\":2076:2405   */\n    tag_53:\n        /* \"#utility.yul\":2135:2141   */\n      0x00\n        /* \"#utility.yul\":2184:2186   */\n      0x20\n        /* \"#utility.yul\":2172:2181   */\n      dup3\n        /* \"#utility.yul\":2163:2170   */\n      dup5\n        /* \"#utility.yul\":2159:2182   */\n      sub\n        /* \"#utility.yul\":2155:2187   */\n      slt\n        /* \"#utility.yul\":2152:2271   */\n      iszero\n      tag_484\n      jumpi\n        /* \"#utility.yul\":2190:2269   */\n      tag_485\n      tag_405\n      jump\t// in\n    tag_485:\n        /* \"#utility.yul\":2152:2271   */\n    tag_484:\n        /* \"#utility.yul\":2310:2311   */\n      0x00\n        /* \"#utility.yul\":2335:2388   */\n      tag_486\n        /* \"#utility.yul\":2380:2387   */\n      dup5\n        /* \"#utility.yul\":2371:2377   */\n      dup3\n        /* \"#utility.yul\":2360:2369   */\n      dup6\n        /* \"#utility.yul\":2356:2378   */\n      add\n        /* \"#utility.yul\":2335:2388   */\n      tag_410\n      jump\t// in\n    tag_486:\n        /* \"#utility.yul\":2325:2388   */\n      swap2\n      pop\n        /* \"#utility.yul\":2281:2398   */\n      pop\n        /* \"#utility.yul\":2076:2405   */\n      swap3\n      swap2\n      pop\n      pop\n      jump\t// out\n        /* \"#utility.yul\":2411:2488   */\n    tag_411:\n        /* \"#utility.yul\":2448:2455   */\n      0x00\n        /* \"#utility.yul\":2477:2482   */\n      dup2\n        /* \"#utility.yul\":2466:2482   */\n      swap1\n      pop\n        /* \"#utility.yul\":2411:2488   */\n      swap2\n      swap1\n      pop\n      jump\t// out\n        /* \"#utility.yul\":2494:2612   */\n    tag_412:\n        /* \"#utility.yul\":2581:2605   */\n      tag_489\n        /* \"#utility.yul\":2599:2604   */\n      dup2\n        /* \"#utility.yul\":2581:2605   */\n      tag_411\n      jump\t// in\n    tag_489:\n        /* \"#utility.yul\":2576:2579   */\n      dup3\n        /* \"#utility.yul\":2569:2606   */\n      mstore\n        /* \"#utility.yul\":2494:2612   */\n      pop\n      pop\n      jump\t// out\n        /* \"#utility.yul\":2618:2840   */\n    tag_56:\n        /* \"#utility.yul\":2711:2715   */\n      0x00\n        /* \"#utility.yul\":2749:2751   */\n      0x20\n        /* \"#utility.yul\":2738:2747   */\n      dup3\n        /* \"#utility.yul\":2734:2752   */\n      add\n        /* \"#utility.yul\":2726:2752   */\n      swap1\n      pop\n        /* \"#utility.yul\":2762:2833   */\n      tag_491\n        /* \"#utility.yul\":2830:2831   */\n      0x00\n        /* \"#utility.yul\":2819:2828   */\n      dup4\n        /* \"#utility.yul\":2815:2832   */\n      add\n        /* \"#utility.yul\":2806:2812   */\n      dup5\n        /* \"#utility.yul\":2762:2833   */\n      tag_412\n      jump\t// in\n    tag_491:\n        /* \"#utility.yul\":2618:2840   */\n      swap3\n      swap2\n      pop\n      pop\n      jump\t// out\n        /* \"#utility.yul\":2846:2968   */\n    tag_413:\n        /* \"#utility.yul\":2919:2943   */\n      tag_493\n        /* \"#utility.yul\":2937:2942   */\n      dup2\n        /* \"#utility.yul\":2919:2943   */\n      tag_411\n      jump\t// in\n    tag_493:\n        /* \"#utility.yul\":2912:2917   */\n      dup2\n        /* \"#utility.yul\":2909:2944   */\n      eq\n        /* \"#utility.yul\":2899:2962   */\n      tag_494\n      jumpi\n        /* \"#utility.yul\":2958:2959   */\n      0x00\n        /* \"#utility.yul\":2955:2956   */\n      dup1\n        /* \"#utility.yul\":2948:2960   */\n      revert\n        /* \"#utility.yul\":2899:2962   */\n    tag_494:\n        /* \"#utility.yul\":2846:2968   */\n      pop\n      jump\t// out\n        /* \"#utility.yul\":2974:3113   */\n    tag_414:\n        /* \"#utility.yul\":3020:3025   */\n      0x00\n        /* \"#utility.yul\":3058:3064   */\n      dup2\n        /* \"#utility.yul\":3045:3065   */\n      calldataload\n        /* \"#utility.yul\":3036:3065   */\n      swap1\n      pop\n        /* \"#utility.yul\":3074:3107   */\n      tag_496\n        /* \"#utility.yul\":3101:3106   */\n      dup2\n        /* \"#utility.yul\":3074:3107   */\n      tag_413\n      jump\t// in\n    tag_496:\n        /* \"#utility.yul\":2974:3113   */\n      swap3\n      swap2\n      pop\n      pop\n      jump\t// out\n        /* \"#utility.yul\":3119:3593   */\n    tag_59:\n        /* \"#utility.yul\":3187:3193   */\n      0x00\n        /* \"#utility.yul\":3195:3201   */\n      dup1\n        /* \"#utility.yul\":3244:3246   */\n      0x40\n        /* \"#utility.yul\":3232:3241   */\n      dup4\n        /* \"#utility.yul\":3223:3230   */\n      dup6\n        /* \"#utility.yul\":3219:3242   */\n      sub\n        /* \"#utility.yul\":3215:3247   */\n      slt\n        /* \"#utility.yul\":3212:3331   */\n      iszero\n      tag_498\n      jumpi\n        /* \"#utility.yul\":3250:3329   */\n      tag_499\n      tag_405\n      jump\t// in\n    tag_499:\n        /* \"#utility.yul\":3212:3331   */\n    tag_498:\n        /* \"#utility.yul\":3370:3371   */\n      0x00\n        /* \"#utility.yul\":3395:3448   */\n      tag_500\n        /* \"#utility.yul\":3440:3447   */\n      dup6\n        /* \"#utility.yul\":3431:3437   */\n      dup3\n        /* \"#utility.yul\":3420:3429   */\n      dup7\n        /* \"#utility.yul\":3416:3438   */\n      add\n        /* \"#utility.yul\":3395:3448   */\n      tag_410\n      jump\t// in\n    tag_500:\n        /* \"#utility.yul\":3385:3448   */\n      swap3\n      pop\n        /* \"#utility.yul\":3341:3458   */\n      pop\n        /* \"#utility.yul\":3497:3499   */\n      0x20\n        /* \"#utility.yul\":3523:3576   */\n      tag_501\n        /* \"#utility.yul\":3568:3575   */\n      dup6\n        /* \"#utility.yul\":3559:3565   */\n      dup3\n        /* \"#utility.yul\":3548:3557   */\n      dup7\n        /* \"#utility.yul\":3544:3566   */\n      add\n        /* \"#utility.yul\":3523:3576   */\n      tag_414\n      jump\t// in\n    tag_501:\n        /* \"#utility.yul\":3513:3576   */\n      swap2\n      pop\n        /* \"#utility.yul\":3468:3586   */\n      pop\n        /* \"#utility.yul\":3119:3593   */\n      swap3\n      pop\n      swap3\n      swap1\n      pop\n      jump\t// out\n        /* \"#utility.yul\":3599:3689   */\n    tag_415:\n        /* \"#utility.yul\":3633:3640   */\n      0x00\n        /* \"#utility.yul\":3676:3681   */\n      dup2\n        /* \"#utility.yul\":3669:3682   */\n      iszero\n        /* \"#utility.yul\":3662:3683   */\n      iszero\n        /* \"#utility.yul\":3651:3683   */\n      swap1\n      pop\n        /* \"#utility.yul\":3599:3689   */\n      swap2\n      swap1\n      pop\n      jump\t// out\n        /* \"#utility.yul\":3695:3804   */\n    tag_416:\n        /* \"#utility.yul\":3776:3797   */\n      tag_504\n        /* \"#utility.yul\":3791:3796   */\n      dup2\n        /* \"#utility.yul\":3776:3797   */\n      tag_415\n      jump\t// in\n    tag_504:\n        /* \"#utility.yul\":3771:3774   */\n      dup3\n        /* \"#utility.yul\":3764:3798   */\n      mstore\n        /* \"#utility.yul\":3695:3804   */\n      pop\n      pop\n      jump\t// out\n        /* \"#utility.yul\":3810:4020   */\n    tag_62:\n        /* \"#utility.yul\":3897:3901   */\n      0x00\n        /* \"#utility.yul\":3935:3937   */\n      0x20\n        /* \"#utility.yul\":3924:3933   */\n      dup3\n        /* \"#utility.yul\":3920:3938   */\n      add\n        /* \"#utility.yul\":3912:3938   */\n      swap1\n      pop\n        /* \"#utility.yul\":3948:4013   */\n      tag_506\n        /* \"#utility.yul\":4010:4011   */\n      0x00\n        /* \"#utility.yul\":3999:4008   */\n      dup4\n        /* \"#utility.yul\":3995:4012   */\n      add\n        /* \"#utility.yul\":3986:3992   */\n      dup5\n        /* \"#utility.yul\":3948:4013   */\n      tag_416\n      jump\t// in\n    tag_506:\n        /* \"#utility.yul\":3810:4020   */\n      swap3\n      swap2\n      pop\n      pop\n      jump\t// out\n        /* \"#utility.yul\":4026:4355   */\n    tag_65:\n        /* \"#utility.yul\":4085:4091   */\n      0x00\n        /* \"#utility.yul\":4134:4136   */\n      0x20\n        /* \"#utility.yul\":4122:4131   */\n      dup3\n        /* \"#utility.yul\":4113:4120   */\n      dup5\n        /* \"#utility.yul\":4109:4132   */\n      sub\n        /* \"#utility.yul\":4105:4137   */\n      slt\n        /* \"#utility.yul\":4102:4221   */\n      iszero\n      tag_508\n      jumpi\n        /* \"#utility.yul\":4140:4219   */\n      tag_509\n      tag_405\n      jump\t// in\n    tag_509:\n        /* \"#utility.yul\":4102:4221   */\n    tag_508:\n        /* \"#utility.yul\":4260:4261   */\n      0x00\n        /* \"#utility.yul\":4285:4338   */\n      tag_510\n        /* \"#utility.yul\":4330:4337   */\n      dup5\n        /* \"#utility.yul\":4321:4327   */\n      dup3\n        /* \"#utility.yul\":4310:4319   */\n      dup6\n        /* \"#utility.yul\":4306:4328   */\n      add\n        /* \"#utility.yul\":4285:4338   */\n      tag_414\n      jump\t// in\n    tag_510:\n        /* \"#utility.yul\":4275:4338   */\n      swap2\n      pop\n        /* \"#utility.yul\":4231:4348   */\n      pop\n        /* \"#utility.yul\":4026:4355   */\n      swap3\n      swap2\n      pop\n      pop\n      jump\t// out\n        /* \"#utility.yul\":4361:4479   */\n    tag_417:\n        /* \"#utility.yul\":4448:4472   */\n      tag_512\n        /* \"#utility.yul\":4466:4471   */\n      dup2\n        /* \"#utility.yul\":4448:4472   */\n      tag_408\n      jump\t// in\n    tag_512:\n        /* \"#utility.yul\":4443:4446   */\n      dup3\n        /* \"#utility.yul\":4436:4473   */\n      mstore\n        /* \"#utility.yul\":4361:4479   */\n      pop\n      pop\n      jump\t// out\n        /* \"#utility.yul\":4485:4707   */\n    tag_68:\n        /* \"#utility.yul\":4578:4582   */\n      0x00\n        /* \"#utility.yul\":4616:4618   */\n      0x20\n        /* \"#utility.yul\":4605:4614   */\n      dup3\n        /* \"#utility.yul\":4601:4619   */\n      add\n        /* \"#utility.yul\":4593:4619   */\n      swap1\n      pop\n        /* \"#utility.yul\":4629:4700   */\n      tag_514\n        /* \"#utility.yul\":4697:4698   */\n      0x00\n        /* \"#utility.yul\":4686:4695   */\n      dup4\n        /* \"#utility.yul\":4682:4699   */\n      add\n        /* \"#utility.yul\":4673:4679   */\n      dup5\n        /* \"#utility.yul\":4629:4700   */\n      tag_417\n      jump\t// in\n    tag_514:\n        /* \"#utility.yul\":4485:4707   */\n      swap3\n      swap2\n      pop\n      pop\n      jump\t// out\n        /* \"#utility.yul\":4713:5332   */\n    tag_84:\n        /* \"#utility.yul\":4790:4796   */\n      0x00\n        /* \"#utility.yul\":4798:4804   */\n      dup1\n        /* \"#utility.yul\":4806:4812   */\n      0x00\n        /* \"#utility.yul\":4855:4857   */\n      0x60\n        /* \"#utility.yul\":4843:4852   */\n      dup5\n        /* \"#utility.yul\":4834:4841   */\n      dup7\n        /* \"#utility.yul\":4830:4853   */\n      sub\n        /* \"#utility.yul\":4826:4858   */\n      slt\n        /* \"#utility.yul\":4823:4942   */\n      iszero\n      tag_516\n      jumpi\n        /* \"#utility.yul\":4861:4940   */\n      tag_517\n      tag_405\n      jump\t// in\n    tag_517:\n        /* \"#utility.yul\":4823:4942   */\n    tag_516:\n        /* \"#utility.yul\":4981:4982   */\n      0x00\n        /* \"#utility.yul\":5006:5059   */\n      tag_518\n        /* \"#utility.yul\":5051:5058   */\n      dup7\n        /* \"#utility.yul\":5042:5048   */\n      dup3\n        /* \"#utility.yul\":5031:5040   */\n      dup8\n        /* \"#utility.yul\":5027:5049   */\n      add\n        /* \"#utility.yul\":5006:5059   */\n      tag_410\n      jump\t// in\n    tag_518:\n        /* \"#utility.yul\":4996:5059   */\n      swap4\n      pop\n        /* \"#utility.yul\":4952:5069   */\n      pop\n        /* \"#utility.yul\":5108:5110   */\n      0x20\n        /* \"#utility.yul\":5134:5187   */\n      tag_519\n        /* \"#utility.yul\":5179:5186   */\n      dup7\n        /* \"#utility.yul\":5170:5176   */\n      dup3\n        /* \"#utility.yul\":5159:5168   */\n      dup8\n        /* \"#utility.yul\":5155:5177   */\n      add\n        /* \"#utility.yul\":5134:5187   */\n      tag_410\n      jump\t// in\n    tag_519:\n        /* \"#utility.yul\":5124:5187   */\n      swap3\n      pop\n        /* \"#utility.yul\":5079:5197   */\n      pop\n        /* \"#utility.yul\":5236:5238   */\n      0x40\n        /* \"#utility.yul\":5262:5315   */\n      tag_520\n        /* \"#utility.yul\":5307:5314   */\n      dup7\n        /* \"#utility.yul\":5298:5304   */\n      dup3\n        /* \"#utility.yul\":5287:5296   */\n      dup8\n        /* \"#utility.yul\":5283:5305   */\n      add\n        /* \"#utility.yul\":5262:5315   */\n      tag_414\n      jump\t// in\n    tag_520:\n        /* \"#utility.yul\":5252:5315   */\n      swap2\n      pop\n        /* \"#utility.yul\":5207:5325   */\n      pop\n        /* \"#utility.yul\":4713:5332   */\n      swap3\n      pop\n      swap3\n      pop\n      swap3\n      jump\t// out\n        /* \"#utility.yul\":5338:5424   */\n    tag_418:\n        /* \"#utility.yul\":5373:5380   */\n      0x00\n        /* \"#utility.yul\":5413:5417   */\n      0xff\n        /* \"#utility.yul\":5406:5411   */\n      dup3\n        /* \"#utility.yul\":5402:5418   */\n      and\n        /* \"#utility.yul\":5391:5418   */\n      swap1\n      pop\n        /* \"#utility.yul\":5338:5424   */\n      swap2\n      swap1\n      pop\n      jump\t// out\n        /* \"#utility.yul\":5430:5542   */\n    tag_419:\n        /* \"#utility.yul\":5513:5535   */\n      tag_523\n        /* \"#utility.yul\":5529:5534   */\n      dup2\n        /* \"#utility.yul\":5513:5535   */\n      tag_418\n      jump\t// in\n    tag_523:\n        /* \"#utility.yul\":5508:5511   */\n      dup3\n        /* \"#utility.yul\":5501:5536   */\n      mstore\n        /* \"#utility.yul\":5430:5542   */\n      pop\n      pop\n      jump\t// out\n        /* \"#utility.yul\":5548:5762   */\n    tag_97:\n        /* \"#utility.yul\":5637:5641   */\n      0x00\n        /* \"#utility.yul\":5675:5677   */\n      0x20\n        /* \"#utility.yul\":5664:5673   */\n      dup3\n        /* \"#utility.yul\":5660:5678   */\n      add\n        /* \"#utility.yul\":5652:5678   */\n      swap1\n      pop\n        /* \"#utility.yul\":5688:5755   */\n      tag_525\n        /* \"#utility.yul\":5752:5753   */\n      0x00\n        /* \"#utility.yul\":5741:5750   */\n      dup4\n        /* \"#utility.yul\":5737:5754   */\n      add\n        /* \"#utility.yul\":5728:5734   */\n      dup5\n        /* \"#utility.yul\":5688:5755   */\n      tag_419\n      jump\t// in\n    tag_525:\n        /* \"#utility.yul\":5548:5762   */\n      swap3\n      swap2\n      pop\n      pop\n      jump\t// out\n        /* \"#utility.yul\":5768:5882   */\n    tag_420:\n        /* \"#utility.yul\":5835:5841   */\n      0x00\n        /* \"#utility.yul\":5869:5874   */\n      dup2\n        /* \"#utility.yul\":5863:5875   */\n      mload\n        /* \"#utility.yul\":5853:5875   */\n      swap1\n      pop\n        /* \"#utility.yul\":5768:5882   */\n      swap2\n      swap1\n      pop\n      jump\t// out\n        /* \"#utility.yul\":5888:6072   */\n    tag_421:\n        /* \"#utility.yul\":5987:5998   */\n      0x00\n        /* \"#utility.yul\":6021:6027   */\n      dup3\n        /* \"#utility.yul\":6016:6019   */\n      dup3\n        /* \"#utility.yul\":6009:6028   */\n      mstore\n        /* \"#utility.yul\":6061:6065   */\n      0x20\n        /* \"#utility.yul\":6056:6059   */\n      dup3\n        /* \"#utility.yul\":6052:6066   */\n      add\n        /* \"#utility.yul\":6037:6066   */\n      swap1\n      pop\n        /* \"#utility.yul\":5888:6072   */\n      swap3\n      swap2\n      pop\n      pop\n      jump\t// out\n        /* \"#utility.yul\":6078:6210   */\n    tag_422:\n        /* \"#utility.yul\":6145:6149   */\n      0x00\n        /* \"#utility.yul\":6168:6171   */\n      dup2\n        /* \"#utility.yul\":6160:6171   */\n      swap1\n      pop\n        /* \"#utility.yul\":6198:6202   */\n      0x20\n        /* \"#utility.yul\":6193:6196   */\n      dup3\n        /* \"#utility.yul\":6189:6203   */\n      add\n        /* \"#utility.yul\":6181:6203   */\n      swap1\n      pop\n        /* \"#utility.yul\":6078:6210   */\n      swap2\n      swap1\n      pop\n      jump\t// out\n        /* \"#utility.yul\":6216:6324   */\n    tag_423:\n        /* \"#utility.yul\":6293:6317   */\n      tag_530\n        /* \"#utility.yul\":6311:6316   */\n      dup2\n        /* \"#utility.yul\":6293:6317   */\n      tag_408\n      jump\t// in\n    tag_530:\n        /* \"#utility.yul\":6288:6291   */\n      dup3\n        /* \"#utility.yul\":6281:6318   */\n      mstore\n        /* \"#utility.yul\":6216:6324   */\n      pop\n      pop\n      jump\t// out\n        /* \"#utility.yul\":6330:6509   */\n    tag_424:\n        /* \"#utility.yul\":6399:6409   */\n      0x00\n        /* \"#utility.yul\":6420:6466   */\n      tag_532\n        /* \"#utility.yul\":6462:6465   */\n      dup4\n        /* \"#utility.yul\":6454:6460   */\n      dup4\n        /* \"#utility.yul\":6420:6466   */\n      tag_423\n      jump\t// in\n    tag_532:\n        /* \"#utility.yul\":6498:6502   */\n      0x20\n        /* \"#utility.yul\":6493:6496   */\n      dup4\n        /* \"#utility.yul\":6489:6503   */\n      add\n        /* \"#utility.yul\":6475:6503   */\n      swap1\n      pop\n        /* \"#utility.yul\":6330:6509   */\n      swap3\n      swap2\n      pop\n      pop\n      jump\t// out\n        /* \"#utility.yul\":6515:6628   */\n    tag_425:\n        /* \"#utility.yul\":6585:6589   */\n      0x00\n        /* \"#utility.yul\":6617:6621   */\n      0x20\n        /* \"#utility.yul\":6612:6615   */\n      dup3\n        /* \"#utility.yul\":6608:6622   */\n      add\n        /* \"#utility.yul\":6600:6622   */\n      swap1\n      pop\n        /* \"#utility.yul\":6515:6628   */\n      swap2\n      swap1\n      pop\n      jump\t// out\n        /* \"#utility.yul\":6664:7396   */\n    tag_426:\n        /* \"#utility.yul\":6783:6786   */\n      0x00\n        /* \"#utility.yul\":6812:6866   */\n      tag_535\n        /* \"#utility.yul\":6860:6865   */\n      dup3\n        /* \"#utility.yul\":6812:6866   */\n      tag_420\n      jump\t// in\n    tag_535:\n        /* \"#utility.yul\":6882:6968   */\n      tag_536\n        /* \"#utility.yul\":6961:6967   */\n      dup2\n        /* \"#utility.yul\":6956:6959   */\n      dup6\n        /* \"#utility.yul\":6882:6968   */\n      tag_421\n      jump\t// in\n    tag_536:\n        /* \"#utility.yul\":6875:6968   */\n      swap4\n      pop\n        /* \"#utility.yul\":6992:7048   */\n      tag_537\n        /* \"#utility.yul\":7042:7047   */\n      dup4\n        /* \"#utility.yul\":6992:7048   */\n      tag_422\n      jump\t// in\n    tag_537:\n        /* \"#utility.yul\":7071:7078   */\n      dup1\n        /* \"#utility.yul\":7102:7103   */\n      0x00\n        /* \"#utility.yul\":7087:7371   */\n    tag_538:\n        /* \"#utility.yul\":7112:7118   */\n      dup4\n        /* \"#utility.yul\":7109:7110   */\n      dup2\n        /* \"#utility.yul\":7106:7119   */\n      lt\n        /* \"#utility.yul\":7087:7371   */\n      iszero\n      tag_540\n      jumpi\n        /* \"#utility.yul\":7188:7194   */\n      dup2\n        /* \"#utility.yul\":7182:7195   */\n      mload\n        /* \"#utility.yul\":7215:7278   */\n      tag_541\n        /* \"#utility.yul\":7274:7277   */\n      dup9\n        /* \"#utility.yul\":7259:7272   */\n      dup3\n        /* \"#utility.yul\":7215:7278   */\n      tag_424\n      jump\t// in\n    tag_541:\n        /* \"#utility.yul\":7208:7278   */\n      swap8\n      pop\n        /* \"#utility.yul\":7301:7361   */\n      tag_542\n        /* \"#utility.yul\":7354:7360   */\n      dup4\n        /* \"#utility.yul\":7301:7361   */\n      tag_425\n      jump\t// in\n    tag_542:\n        /* \"#utility.yul\":7291:7361   */\n      swap3\n      pop\n        /* \"#utility.yul\":7147:7371   */\n      pop\n        /* \"#utility.yul\":7134:7135   */\n      0x01\n        /* \"#utility.yul\":7131:7132   */\n      dup2\n        /* \"#utility.yul\":7127:7136   */\n      add\n        /* \"#utility.yul\":7122:7136   */\n      swap1\n      pop\n        /* \"#utility.yul\":7087:7371   */\n      jump(tag_538)\n    tag_540:\n        /* \"#utility.yul\":7091:7105   */\n      pop\n        /* \"#utility.yul\":7387:7390   */\n      dup6\n        /* \"#utility.yul\":7380:7390   */\n      swap4\n      pop\n        /* \"#utility.yul\":6788:7396   */\n      pop\n      pop\n      pop\n        /* \"#utility.yul\":6664:7396   */\n      swap3\n      swap2\n      pop\n      pop\n      jump\t// out\n        /* \"#utility.yul\":7402:7775   */\n    tag_101:\n        /* \"#utility.yul\":7545:7549   */\n      0x00\n        /* \"#utility.yul\":7583:7585   */\n      0x20\n        /* \"#utility.yul\":7572:7581   */\n      dup3\n        /* \"#utility.yul\":7568:7586   */\n      add\n        /* \"#utility.yul\":7560:7586   */\n      swap1\n      pop\n        /* \"#utility.yul\":7632:7641   */\n      dup2\n        /* \"#utility.yul\":7626:7630   */\n      dup2\n        /* \"#utility.yul\":7622:7642   */\n      sub\n        /* \"#utility.yul\":7618:7619   */\n      0x00\n        /* \"#utility.yul\":7607:7616   */\n      dup4\n        /* \"#utility.yul\":7603:7620   */\n      add\n        /* \"#utility.yul\":7596:7643   */\n      mstore\n        /* \"#utility.yul\":7660:7768   */\n      tag_544\n        /* \"#utility.yul\":7763:7767   */\n      dup2\n        /* \"#utility.yul\":7754:7760   */\n      dup5\n        /* \"#utility.yul\":7660:7768   */\n      tag_426\n      jump\t// in\n    tag_544:\n        /* \"#utility.yul\":7652:7768   */\n      swap1\n      pop\n        /* \"#utility.yul\":7402:7775   */\n      swap3\n      swap2\n      pop\n      pop\n      jump\t// out\n        /* \"#utility.yul\":7781:8255   */\n    tag_173:\n        /* \"#utility.yul\":7849:7855   */\n      0x00\n        /* \"#utility.yul\":7857:7863   */\n      dup1\n        /* \"#utility.yul\":7906:7908   */\n      0x40\n        /* \"#utility.yul\":7894:7903   */\n      dup4\n        /* \"#utility.yul\":7885:7892   */\n      dup6\n        /* \"#utility.yul\":7881:7904   */\n      sub\n        /* \"#utility.yul\":7877:7909   */\n      slt\n        /* \"#utility.yul\":7874:7993   */\n      iszero\n      tag_546\n      jumpi\n        /* \"#utility.yul\":7912:7991   */\n      tag_547\n      tag_405\n      jump\t// in\n    tag_547:\n        /* \"#utility.yul\":7874:7993   */\n    tag_546:\n        /* \"#utility.yul\":8032:8033   */\n      0x00\n        /* \"#utility.yul\":8057:8110   */\n      tag_548\n        /* \"#utility.yul\":8102:8109   */\n      dup6\n        /* \"#utility.yul\":8093:8099   */\n      dup3\n        /* \"#utility.yul\":8082:8091   */\n      dup7\n        /* \"#utility.yul\":8078:8100   */\n      add\n        /* \"#utility.yul\":8057:8110   */\n      tag_410\n      jump\t// in\n    tag_548:\n        /* \"#utility.yul\":8047:8110   */\n      swap3\n      pop\n        /* \"#utility.yul\":8003:8120   */\n      pop\n        /* \"#utility.yul\":8159:8161   */\n      0x20\n        /* \"#utility.yul\":8185:8238   */\n      tag_549\n        /* \"#utility.yul\":8230:8237   */\n      dup6\n        /* \"#utility.yul\":8221:8227   */\n      dup3\n        /* \"#utility.yul\":8210:8219   */\n      dup7\n        /* \"#utility.yul\":8206:8228   */\n      add\n        /* \"#utility.yul\":8185:8238   */\n      tag_410\n      jump\t// in\n    tag_549:\n        /* \"#utility.yul\":8175:8238   */\n      swap2\n      pop\n        /* \"#utility.yul\":8130:8248   */\n      pop\n        /* \"#utility.yul\":7781:8255   */\n      swap3\n      pop\n      swap3\n      swap1\n      pop\n      jump\t// out\n        /* \"#utility.yul\":8261:8441   */\n    tag_427:\n        /* \"#utility.yul\":8309:8386   */\n      0x4e487b7100000000000000000000000000000000000000000000000000000000\n        /* \"#utility.yul\":8306:8307   */\n      0x00\n        /* \"#utility.yul\":8299:8387   */\n      mstore\n        /* \"#utility.yul\":8406:8410   */\n      0x22\n        /* \"#utility.yul\":8403:8404   */\n      0x04\n        /* \"#utility.yul\":8396:8411   */\n      mstore\n        /* \"#utility.yul\":8430:8434   */\n      0x24\n        /* \"#utility.yul\":8427:8428   */\n      0x00\n        /* \"#utility.yul\":8420:8435   */\n      revert\n        /* \"#utility.yul\":8447:8767   */\n    tag_181:\n        /* \"#utility.yul\":8491:8497   */\n      0x00\n        /* \"#utility.yul\":8528:8529   */\n      0x02\n        /* \"#utility.yul\":8522:8526   */\n      dup3\n        /* \"#utility.yul\":8518:8530   */\n      div\n        /* \"#utility.yul\":8508:8530   */\n      swap1\n      pop\n        /* \"#utility.yul\":8575:8576   */\n      0x01\n        /* \"#utility.yul\":8569:8573   */\n      dup3\n        /* \"#utility.yul\":8565:8577   */\n      and\n        /* \"#utility.yul\":8596:8614   */\n      dup1\n        /* \"#utility.yul\":8586:8667   */\n      tag_552\n      jumpi\n        /* \"#utility.yul\":8652:8656   */\n      0x7f\n        /* \"#utility.yul\":8644:8650   */\n      dup3\n        /* \"#utility.yul\":8640:8657   */\n      and\n        /* \"#utility.yul\":8630:8657   */\n      swap2\n      pop\n        /* \"#utility.yul\":8586:8667   */\n    tag_552:\n        /* \"#utility.yul\":8714:8716   */\n      0x20\n        /* \"#utility.yul\":8706:8712   */\n      dup3\n        /* \"#utility.yul\":8703:8717   */\n      lt\n        /* \"#utility.yul\":8683:8701   */\n      dup2\n        /* \"#utility.yul\":8680:8718   */\n      sub\n        /* \"#utility.yul\":8677:8761   */\n      tag_553\n      jumpi\n        /* \"#utility.yul\":8733:8751   */\n      tag_554\n      tag_427\n      jump\t// in\n    tag_554:\n        /* \"#utility.yul\":8677:8761   */\n    tag_553:\n        /* \"#utility.yul\":8498:8767   */\n      pop\n        /* \"#utility.yul\":8447:8767   */\n      swap2\n      swap1\n      pop\n      jump\t// out\n        /* \"#utility.yul\":8773:8935   */\n    tag_428:\n        /* \"#utility.yul\":8913:8927   */\n      0x4e6f7420616e2061646d696e0000000000000000000000000000000000000000\n        /* \"#utility.yul\":8909:8910   */\n      0x00\n        /* \"#utility.yul\":8901:8907   */\n      dup3\n        /* \"#utility.yul\":8897:8911   */\n      add\n        /* \"#utility.yul\":8890:8928   */\n      mstore\n        /* \"#utility.yul\":8773:8935   */\n      pop\n      jump\t// out\n        /* \"#utility.yul\":8941:9307   */\n    tag_429:\n        /* \"#utility.yul\":9083:9086   */\n      0x00\n        /* \"#utility.yul\":9104:9171   */\n      tag_557\n        /* \"#utility.yul\":9168:9170   */\n      0x0c\n        /* \"#utility.yul\":9163:9166   */\n      dup4\n        /* \"#utility.yul\":9104:9171   */\n      tag_400\n      jump\t// in\n    tag_557:\n        /* \"#utility.yul\":9097:9171   */\n      swap2\n      pop\n        /* \"#utility.yul\":9180:9273   */\n      tag_558\n        /* \"#utility.yul\":9269:9272   */\n      dup3\n        /* \"#utility.yul\":9180:9273   */\n      tag_428\n      jump\t// in\n    tag_558:\n        /* \"#utility.yul\":9298:9300   */\n      0x20\n        /* \"#utility.yul\":9293:9296   */\n      dup3\n        /* \"#utility.yul\":9289:9301   */\n      add\n        /* \"#utility.yul\":9282:9301   */\n      swap1\n      pop\n        /* \"#utility.yul\":8941:9307   */\n      swap2\n      swap1\n      pop\n      jump\t// out\n        /* \"#utility.yul\":9313:9732   */\n    tag_199:\n        /* \"#utility.yul\":9479:9483   */\n      0x00\n        /* \"#utility.yul\":9517:9519   */\n      0x20\n        /* \"#utility.yul\":9506:9515   */\n      dup3\n        /* \"#utility.yul\":9502:9520   */\n      add\n        /* \"#utility.yul\":9494:9520   */\n      swap1\n      pop\n        /* \"#utility.yul\":9566:9575   */\n      dup2\n        /* \"#utility.yul\":9560:9564   */\n      dup2\n        /* \"#utility.yul\":9556:9576   */\n      sub\n        /* \"#utility.yul\":9552:9553   */\n      0x00\n        /* \"#utility.yul\":9541:9550   */\n      dup4\n        /* \"#utility.yul\":9537:9554   */\n      add\n        /* \"#utility.yul\":9530:9577   */\n      mstore\n        /* \"#utility.yul\":9594:9725   */\n      tag_560\n        /* \"#utility.yul\":9720:9724   */\n      dup2\n        /* \"#utility.yul\":9594:9725   */\n      tag_429\n      jump\t// in\n    tag_560:\n        /* \"#utility.yul\":9586:9725   */\n      swap1\n      pop\n        /* \"#utility.yul\":9313:9732   */\n      swap2\n      swap1\n      pop\n      jump\t// out\n        /* \"#utility.yul\":9738:9916   */\n    tag_430:\n        /* \"#utility.yul\":9878:9908   */\n      0x43616e6e6f742072656d6f766520746865206c6173742061646d696e00000000\n        /* \"#utility.yul\":9874:9875   */\n      0x00\n        /* \"#utility.yul\":9866:9872   */\n      dup3\n        /* \"#utility.yul\":9862:9876   */\n      add\n        /* \"#utility.yul\":9855:9909   */\n      mstore\n        /* \"#utility.yul\":9738:9916   */\n      pop\n      jump\t// out\n        /* \"#utility.yul\":9922:10288   */\n    tag_431:\n        /* \"#utility.yul\":10064:10067   */\n      0x00\n        /* \"#utility.yul\":10085:10152   */\n      tag_563\n        /* \"#utility.yul\":10149:10151   */\n      0x1c\n        /* \"#utility.yul\":10144:10147   */\n      dup4\n        /* \"#utility.yul\":10085:10152   */\n      tag_400\n      jump\t// in\n    tag_563:\n        /* \"#utility.yul\":10078:10152   */\n      swap2\n      pop\n        /* \"#utility.yul\":10161:10254   */\n      tag_564\n        /* \"#utility.yul\":10250:10253   */\n      dup3\n        /* \"#utility.yul\":10161:10254   */\n      tag_430\n      jump\t// in\n    tag_564:\n        /* \"#utility.yul\":10279:10281   */\n      0x20\n        /* \"#utility.yul\":10274:10277   */\n      dup3\n        /* \"#utility.yul\":10270:10282   */\n      add\n        /* \"#utility.yul\":10263:10282   */\n      swap1\n      pop\n        /* \"#utility.yul\":9922:10288   */\n      swap2\n      swap1\n      pop\n      jump\t// out\n        /* \"#utility.yul\":10294:10713   */\n    tag_202:\n        /* \"#utility.yul\":10460:10464   */\n      0x00\n        /* \"#utility.yul\":10498:10500   */\n      0x20\n        /* \"#utility.yul\":10487:10496   */\n      dup3\n        /* \"#utility.yul\":10483:10501   */\n      add\n        /* \"#utility.yul\":10475:10501   */\n      swap1\n      pop\n        /* \"#utility.yul\":10547:10556   */\n      dup2\n        /* \"#utility.yul\":10541:10545   */\n      dup2\n        /* \"#utility.yul\":10537:10557   */\n      sub\n        /* \"#utility.yul\":10533:10534   */\n      0x00\n        /* \"#utility.yul\":10522:10531   */\n      dup4\n        /* \"#utility.yul\":10518:10535   */\n      add\n        /* \"#utility.yul\":10511:10558   */\n      mstore\n        /* \"#utility.yul\":10575:10706   */\n      tag_566\n        /* \"#utility.yul\":10701:10705   */\n      dup2\n        /* \"#utility.yul\":10575:10706   */\n      tag_431\n      jump\t// in\n    tag_566:\n        /* \"#utility.yul\":10567:10706   */\n      swap1\n      pop\n        /* \"#utility.yul\":10294:10713   */\n      swap2\n      swap1\n      pop\n      jump\t// out\n        /* \"#utility.yul\":10719:10899   */\n    tag_208:\n        /* \"#utility.yul\":10767:10844   */\n      0x4e487b7100000000000000000000000000000000000000000000000000000000\n        /* \"#utility.yul\":10764:10765   */\n      0x00\n        /* \"#utility.yul\":10757:10845   */\n      mstore\n        /* \"#utility.yul\":10864:10868   */\n      0x32\n        /* \"#utility.yul\":10861:10862   */\n      0x04\n        /* \"#utility.yul\":10854:10869   */\n      mstore\n        /* \"#utility.yul\":10888:10892   */\n      0x24\n        /* \"#utility.yul\":10885:10886   */\n      0x00\n        /* \"#utility.yul\":10878:10893   */\n      revert\n        /* \"#utility.yul\":10905:11085   */\n    tag_432:\n        /* \"#utility.yul\":10953:11030   */\n      0x4e487b7100000000000000000000000000000000000000000000000000000000\n        /* \"#utility.yul\":10950:10951   */\n      0x00\n        /* \"#utility.yul\":10943:11031   */\n      mstore\n        /* \"#utility.yul\":11050:11054   */\n      0x11\n        /* \"#utility.yul\":11047:11048   */\n      0x04\n        /* \"#utility.yul\":11040:11055   */\n      mstore\n        /* \"#utility.yul\":11074:11078   */\n      0x24\n        /* \"#utility.yul\":11071:11072   */\n      0x00\n        /* \"#utility.yul\":11064:11079   */\n      revert\n        /* \"#utility.yul\":11091:11285   */\n    tag_212:\n        /* \"#utility.yul\":11131:11135   */\n      0x00\n        /* \"#utility.yul\":11151:11171   */\n      tag_570\n        /* \"#utility.yul\":11169:11170   */\n      dup3\n        /* \"#utility.yul\":11151:11171   */\n      tag_411\n      jump\t// in\n    tag_570:\n        /* \"#utility.yul\":11146:11171   */\n      swap2\n      pop\n        /* \"#utility.yul\":11185:11205   */\n      tag_571\n        /* \"#utility.yul\":11203:11204   */\n      dup4\n        /* \"#utility.yul\":11185:11205   */\n      tag_411\n      jump\t// in\n    tag_571:\n        /* \"#utility.yul\":11180:11205   */\n      swap3\n      pop\n        /* \"#utility.yul\":11229:11230   */\n      dup3\n        /* \"#utility.yul\":11226:11227   */\n      dup3\n        /* \"#utility.yul\":11222:11231   */\n      sub\n        /* \"#utility.yul\":11214:11231   */\n      swap1\n      pop\n        /* \"#utility.yul\":11253:11254   */\n      dup2\n        /* \"#utility.yul\":11247:11251   */\n      dup2\n        /* \"#utility.yul\":11244:11255   */\n      gt\n        /* \"#utility.yul\":11241:11278   */\n      iszero\n      tag_572\n      jumpi\n        /* \"#utility.yul\":11258:11276   */\n      tag_573\n      tag_432\n      jump\t// in\n    tag_573:\n        /* \"#utility.yul\":11241:11278   */\n    tag_572:\n        /* \"#utility.yul\":11091:11285   */\n      swap3\n      swap2\n      pop\n      pop\n      jump\t// out\n        /* \"#utility.yul\":11291:11471   */\n    tag_221:\n        /* \"#utility.yul\":11339:11416   */\n      0x4e487b7100000000000000000000000000000000000000000000000000000000\n        /* \"#utility.yul\":11336:11337   */\n      0x00\n        /* \"#utility.yul\":11329:11417   */\n      mstore\n        /* \"#utility.yul\":11436:11440   */\n      0x31\n        /* \"#utility.yul\":11433:11434   */\n      0x04\n        /* \"#utility.yul\":11426:11441   */\n      mstore\n        /* \"#utility.yul\":11460:11464   */\n      0x24\n        /* \"#utility.yul\":11457:11458   */\n      0x00\n        /* \"#utility.yul\":11450:11465   */\n      revert\n        /* \"#utility.yul\":11477:11653   */\n    tag_433:\n        /* \"#utility.yul\":11617:11645   */\n      0x496e73756666696369656e74207374616b652062616c616e6365000000000000\n        /* \"#utility.yul\":11613:11614   */\n      0x00\n        /* \"#utility.yul\":11605:11611   */\n      dup3\n        /* \"#utility.yul\":11601:11615   */\n      add\n        /* \"#utility.yul\":11594:11646   */\n      mstore\n        /* \"#utility.yul\":11477:11653   */\n      pop\n      jump\t// out\n        /* \"#utility.yul\":11659:12025   */\n    tag_434:\n        /* \"#utility.yul\":11801:11804   */\n      0x00\n        /* \"#utility.yul\":11822:11889   */\n      tag_577\n        /* \"#utility.yul\":11886:11888   */\n      0x1a\n        /* \"#utility.yul\":11881:11884   */\n      dup4\n        /* \"#utility.yul\":11822:11889   */\n      tag_400\n      jump\t// in\n    tag_577:\n        /* \"#utility.yul\":11815:11889   */\n      swap2\n      pop\n        /* \"#utility.yul\":11898:11991   */\n      tag_578\n        /* \"#utility.yul\":11987:11990   */\n      dup3\n        /* \"#utility.yul\":11898:11991   */\n      tag_433\n      jump\t// in\n    tag_578:\n        /* \"#utility.yul\":12016:12018   */\n      0x20\n        /* \"#utility.yul\":12011:12014   */\n      dup3\n        /* \"#utility.yul\":12007:12019   */\n      add\n        /* \"#utility.yul\":12000:12019   */\n      swap1\n      pop\n        /* \"#utility.yul\":11659:12025   */\n      swap2\n      swap1\n      pop\n      jump\t// out\n        /* \"#utility.yul\":12031:12450   */\n    tag_233:\n        /* \"#utility.yul\":12197:12201   */\n      0x00\n        /* \"#utility.yul\":12235:12237   */\n      0x20\n        /* \"#utility.yul\":12224:12233   */\n      dup3\n        /* \"#utility.yul\":12220:12238   */\n      add\n        /* \"#utility.yul\":12212:12238   */\n      swap1\n      pop\n        /* \"#utility.yul\":12284:12293   */\n      dup2\n        /* \"#utility.yul\":12278:12282   */\n      dup2\n        /* \"#utility.yul\":12274:12294   */\n      sub\n        /* \"#utility.yul\":12270:12271   */\n      0x00\n        /* \"#utility.yul\":12259:12268   */\n      dup4\n        /* \"#utility.yul\":12255:12272   */\n      add\n        /* \"#utility.yul\":12248:12295   */\n      mstore\n        /* \"#utility.yul\":12312:12443   */\n      tag_580\n        /* \"#utility.yul\":12438:12442   */\n      dup2\n        /* \"#utility.yul\":12312:12443   */\n      tag_434\n      jump\t// in\n    tag_580:\n        /* \"#utility.yul\":12304:12443   */\n      swap1\n      pop\n        /* \"#utility.yul\":12031:12450   */\n      swap2\n      swap1\n      pop\n      jump\t// out\n        /* \"#utility.yul\":12456:12647   */\n    tag_235:\n        /* \"#utility.yul\":12496:12499   */\n      0x00\n        /* \"#utility.yul\":12515:12535   */\n      tag_582\n        /* \"#utility.yul\":12533:12534   */\n      dup3\n        /* \"#utility.yul\":12515:12535   */\n      tag_411\n      jump\t// in\n    tag_582:\n        /* \"#utility.yul\":12510:12535   */\n      swap2\n      pop\n        /* \"#utility.yul\":12549:12569   */\n      tag_583\n        /* \"#utility.yul\":12567:12568   */\n      dup4\n        /* \"#utility.yul\":12549:12569   */\n      tag_411\n      jump\t// in\n    tag_583:\n        /* \"#utility.yul\":12544:12569   */\n      swap3\n      pop\n        /* \"#utility.yul\":12592:12593   */\n      dup3\n        /* \"#utility.yul\":12589:12590   */\n      dup3\n        /* \"#utility.yul\":12585:12594   */\n      add\n        /* \"#utility.yul\":12578:12594   */\n      swap1\n      pop\n        /* \"#utility.yul\":12613:12616   */\n      dup1\n        /* \"#utility.yul\":12610:12611   */\n      dup3\n        /* \"#utility.yul\":12607:12617   */\n      gt\n        /* \"#utility.yul\":12604:12640   */\n      iszero\n      tag_584\n      jumpi\n        /* \"#utility.yul\":12620:12638   */\n      tag_585\n      tag_432\n      jump\t// in\n    tag_585:\n        /* \"#utility.yul\":12604:12640   */\n    tag_584:\n        /* \"#utility.yul\":12456:12647   */\n      swap3\n      swap2\n      pop\n      pop\n      jump\t// out\n        /* \"#utility.yul\":12653:12877   */\n    tag_435:\n        /* \"#utility.yul\":12793:12827   */\n      0x436f6f6c646f776e20706572696f64206e6f74206d657420666f7220756e7374\n        /* \"#utility.yul\":12789:12790   */\n      0x00\n        /* \"#utility.yul\":12781:12787   */\n      dup3\n        /* \"#utility.yul\":12777:12791   */\n      add\n        /* \"#utility.yul\":12770:12828   */\n      mstore\n        /* \"#utility.yul\":12862:12869   */\n      0x616b696e67000000000000000000000000000000000000000000000000000000\n        /* \"#utility.yul\":12857:12859   */\n      0x20\n        /* \"#utility.yul\":12849:12855   */\n      dup3\n        /* \"#utility.yul\":12845:12860   */\n      add\n        /* \"#utility.yul\":12838:12870   */\n      mstore\n        /* \"#utility.yul\":12653:12877   */\n      pop\n      jump\t// out\n        /* \"#utility.yul\":12883:13249   */\n    tag_436:\n        /* \"#utility.yul\":13025:13028   */\n      0x00\n        /* \"#utility.yul\":13046:13113   */\n      tag_588\n        /* \"#utility.yul\":13110:13112   */\n      0x25\n        /* \"#utility.yul\":13105:13108   */\n      dup4\n        /* \"#utility.yul\":13046:13113   */\n      tag_400\n      jump\t// in\n    tag_588:\n        /* \"#utility.yul\":13039:13113   */\n      swap2\n      pop\n        /* \"#utility.yul\":13122:13215   */\n      tag_589\n        /* \"#utility.yul\":13211:13214   */\n      dup3\n        /* \"#utility.yul\":13122:13215   */\n      tag_435\n      jump\t// in\n    tag_589:\n        /* \"#utility.yul\":13240:13242   */\n      0x40\n        /* \"#utility.yul\":13235:13238   */\n      dup3\n        /* \"#utility.yul\":13231:13243   */\n      add\n        /* \"#utility.yul\":13224:13243   */\n      swap1\n      pop\n        /* \"#utility.yul\":12883:13249   */\n      swap2\n      swap1\n      pop\n      jump\t// out\n        /* \"#utility.yul\":13255:13674   */\n    tag_238:\n        /* \"#utility.yul\":13421:13425   */\n      0x00\n        /* \"#utility.yul\":13459:13461   */\n      0x20\n        /* \"#utility.yul\":13448:13457   */\n      dup3\n        /* \"#utility.yul\":13444:13462   */\n      add\n        /* \"#utility.yul\":13436:13462   */\n      swap1\n      pop\n        /* \"#utility.yul\":13508:13517   */\n      dup2\n        /* \"#utility.yul\":13502:13506   */\n      dup2\n        /* \"#utility.yul\":13498:13518   */\n      sub\n        /* \"#utility.yul\":13494:13495   */\n      0x00\n        /* \"#utility.yul\":13483:13492   */\n      dup4\n        /* \"#utility.yul\":13479:13496   */\n      add\n        /* \"#utility.yul\":13472:13519   */\n      mstore\n        /* \"#utility.yul\":13536:13667   */\n      tag_591\n        /* \"#utility.yul\":13662:13666   */\n      dup2\n        /* \"#utility.yul\":13536:13667   */\n      tag_436\n      jump\t// in\n    tag_591:\n        /* \"#utility.yul\":13528:13667   */\n      swap1\n      pop\n        /* \"#utility.yul\":13255:13674   */\n      swap2\n      swap1\n      pop\n      jump\t// out\n        /* \"#utility.yul\":13680:14090   */\n    tag_253:\n        /* \"#utility.yul\":13720:13727   */\n      0x00\n        /* \"#utility.yul\":13743:13763   */\n      tag_593\n        /* \"#utility.yul\":13761:13762   */\n      dup3\n        /* \"#utility.yul\":13743:13763   */\n      tag_411\n      jump\t// in\n    tag_593:\n        /* \"#utility.yul\":13738:13763   */\n      swap2\n      pop\n        /* \"#utility.yul\":13777:13797   */\n      tag_594\n        /* \"#utility.yul\":13795:13796   */\n      dup4\n        /* \"#utility.yul\":13777:13797   */\n      tag_411\n      jump\t// in\n    tag_594:\n        /* \"#utility.yul\":13772:13797   */\n      swap3\n      pop\n        /* \"#utility.yul\":13832:13833   */\n      dup3\n        /* \"#utility.yul\":13829:13830   */\n      dup3\n        /* \"#utility.yul\":13825:13834   */\n      mul\n        /* \"#utility.yul\":13854:13884   */\n      tag_595\n        /* \"#utility.yul\":13872:13883   */\n      dup2\n        /* \"#utility.yul\":13854:13884   */\n      tag_411\n      jump\t// in\n    tag_595:\n        /* \"#utility.yul\":13843:13884   */\n      swap2\n      pop\n        /* \"#utility.yul\":14033:14034   */\n      dup3\n        /* \"#utility.yul\":14024:14031   */\n      dup3\n        /* \"#utility.yul\":14020:14035   */\n      div\n        /* \"#utility.yul\":14017:14018   */\n      dup5\n        /* \"#utility.yul\":14014:14036   */\n      eq\n        /* \"#utility.yul\":13994:13995   */\n      dup4\n        /* \"#utility.yul\":13987:13996   */\n      iszero\n        /* \"#utility.yul\":13967:14050   */\n      or\n        /* \"#utility.yul\":13944:14083   */\n      tag_596\n      jumpi\n        /* \"#utility.yul\":14063:14081   */\n      tag_597\n      tag_432\n      jump\t// in\n    tag_597:\n        /* \"#utility.yul\":13944:14083   */\n    tag_596:\n        /* \"#utility.yul\":13728:14090   */\n      pop\n        /* \"#utility.yul\":13680:14090   */\n      swap3\n      swap2\n      pop\n      pop\n      jump\t// out\n        /* \"#utility.yul\":14096:14276   */\n    tag_437:\n        /* \"#utility.yul\":14144:14221   */\n      0x4e487b7100000000000000000000000000000000000000000000000000000000\n        /* \"#utility.yul\":14141:14142   */\n      0x00\n        /* \"#utility.yul\":14134:14222   */\n      mstore\n        /* \"#utility.yul\":14241:14245   */\n      0x12\n        /* \"#utility.yul\":14238:14239   */\n      0x04\n        /* \"#utility.yul\":14231:14246   */\n      mstore\n        /* \"#utility.yul\":14265:14269   */\n      0x24\n        /* \"#utility.yul\":14262:14263   */\n      0x00\n        /* \"#utility.yul\":14255:14270   */\n      revert\n        /* \"#utility.yul\":14282:14467   */\n    tag_255:\n        /* \"#utility.yul\":14322:14323   */\n      0x00\n        /* \"#utility.yul\":14339:14359   */\n      tag_600\n        /* \"#utility.yul\":14357:14358   */\n      dup3\n        /* \"#utility.yul\":14339:14359   */\n      tag_411\n      jump\t// in\n    tag_600:\n        /* \"#utility.yul\":14334:14359   */\n      swap2\n      pop\n        /* \"#utility.yul\":14373:14393   */\n      tag_601\n        /* \"#utility.yul\":14391:14392   */\n      dup4\n        /* \"#utility.yul\":14373:14393   */\n      tag_411\n      jump\t// in\n    tag_601:\n        /* \"#utility.yul\":14368:14393   */\n      swap3\n      pop\n        /* \"#utility.yul\":14412:14413   */\n      dup3\n        /* \"#utility.yul\":14402:14437   */\n      tag_602\n      jumpi\n        /* \"#utility.yul\":14417:14435   */\n      tag_603\n      tag_437\n      jump\t// in\n    tag_603:\n        /* \"#utility.yul\":14402:14437   */\n    tag_602:\n        /* \"#utility.yul\":14459:14460   */\n      dup3\n        /* \"#utility.yul\":14456:14457   */\n      dup3\n        /* \"#utility.yul\":14452:14461   */\n      div\n        /* \"#utility.yul\":14447:14461   */\n      swap1\n      pop\n        /* \"#utility.yul\":14282:14467   */\n      swap3\n      swap2\n      pop\n      pop\n      jump\t// out\n        /* \"#utility.yul\":14473:14639   */\n    tag_438:\n        /* \"#utility.yul\":14613:14631   */\n      0x416c6c20746f6b656e73206d696e656400000000000000000000000000000000\n        /* \"#utility.yul\":14609:14610   */\n      0x00\n        /* \"#utility.yul\":14601:14607   */\n      dup3\n        /* \"#utility.yul\":14597:14611   */\n      add\n        /* \"#utility.yul\":14590:14632   */\n      mstore\n        /* \"#utility.yul\":14473:14639   */\n      pop\n      jump\t// out\n        /* \"#utility.yul\":14645:15011   */\n    tag_439:\n        /* \"#utility.yul\":14787:14790   */\n      0x00\n        /* \"#utility.yul\":14808:14875   */\n      tag_606\n        /* \"#utility.yul\":14872:14874   */\n      0x10\n        /* \"#utility.yul\":14867:14870   */\n      dup4\n        /* \"#utility.yul\":14808:14875   */\n      tag_400\n      jump\t// in\n    tag_606:\n        /* \"#utility.yul\":14801:14875   */\n      swap2\n      pop\n        /* \"#utility.yul\":14884:14977   */\n      tag_607\n        /* \"#utility.yul\":14973:14976   */\n      dup3\n        /* \"#utility.yul\":14884:14977   */\n      tag_438\n      jump\t// in\n    tag_607:\n        /* \"#utility.yul\":15002:15004   */\n      0x20\n        /* \"#utility.yul\":14997:15000   */\n      dup3\n        /* \"#utility.yul\":14993:15005   */\n      add\n        /* \"#utility.yul\":14986:15005   */\n      swap1\n      pop\n        /* \"#utility.yul\":14645:15011   */\n      swap2\n      swap1\n      pop\n      jump\t// out\n        /* \"#utility.yul\":15017:15436   */\n    tag_258:\n        /* \"#utility.yul\":15183:15187   */\n      0x00\n        /* \"#utility.yul\":15221:15223   */\n      0x20\n        /* \"#utility.yul\":15210:15219   */\n      dup3\n        /* \"#utility.yul\":15206:15224   */\n      add\n        /* \"#utility.yul\":15198:15224   */\n      swap1\n      pop\n        /* \"#utility.yul\":15270:15279   */\n      dup2\n        /* \"#utility.yul\":15264:15268   */\n      dup2\n        /* \"#utility.yul\":15260:15280   */\n      sub\n        /* \"#utility.yul\":15256:15257   */\n      0x00\n        /* \"#utility.yul\":15245:15254   */\n      dup4\n        /* \"#utility.yul\":15241:15258   */\n      add\n        /* \"#utility.yul\":15234:15281   */\n      mstore\n        /* \"#utility.yul\":15298:15429   */\n      tag_609\n        /* \"#utility.yul\":15424:15428   */\n      dup2\n        /* \"#utility.yul\":15298:15429   */\n      tag_439\n      jump\t// in\n    tag_609:\n        /* \"#utility.yul\":15290:15429   */\n      swap1\n      pop\n        /* \"#utility.yul\":15017:15436   */\n      swap2\n      swap1\n      pop\n      jump\t// out\n        /* \"#utility.yul\":15442:15536   */\n    tag_440:\n        /* \"#utility.yul\":15475:15483   */\n      0x00\n        /* \"#utility.yul\":15523:15528   */\n      dup2\n        /* \"#utility.yul\":15519:15521   */\n      0x60\n        /* \"#utility.yul\":15515:15529   */\n      shl\n        /* \"#utility.yul\":15494:15529   */\n      swap1\n      pop\n        /* \"#utility.yul\":15442:15536   */\n      swap2\n      swap1\n      pop\n      jump\t// out\n        /* \"#utility.yul\":15542:15636   */\n    tag_441:\n        /* \"#utility.yul\":15581:15588   */\n      0x00\n        /* \"#utility.yul\":15610:15630   */\n      tag_612\n        /* \"#utility.yul\":15624:15629   */\n      dup3\n        /* \"#utility.yul\":15610:15630   */\n      tag_440\n      jump\t// in\n    tag_612:\n        /* \"#utility.yul\":15599:15630   */\n      swap1\n      pop\n        /* \"#utility.yul\":15542:15636   */\n      swap2\n      swap1\n      pop\n      jump\t// out\n        /* \"#utility.yul\":15642:15742   */\n    tag_442:\n        /* \"#utility.yul\":15681:15688   */\n      0x00\n        /* \"#utility.yul\":15710:15736   */\n      tag_614\n        /* \"#utility.yul\":15730:15735   */\n      dup3\n        /* \"#utility.yul\":15710:15736   */\n      tag_441\n      jump\t// in\n    tag_614:\n        /* \"#utility.yul\":15699:15736   */\n      swap1\n      pop\n        /* \"#utility.yul\":15642:15742   */\n      swap2\n      swap1\n      pop\n      jump\t// out\n        /* \"#utility.yul\":15748:15905   */\n    tag_443:\n        /* \"#utility.yul\":15853:15898   */\n      tag_616\n        /* \"#utility.yul\":15873:15897   */\n      tag_617\n        /* \"#utility.yul\":15891:15896   */\n      dup3\n        /* \"#utility.yul\":15873:15897   */\n      tag_408\n      jump\t// in\n    tag_617:\n        /* \"#utility.yul\":15853:15898   */\n      tag_442\n      jump\t// in\n    tag_616:\n        /* \"#utility.yul\":15848:15851   */\n      dup3\n        /* \"#utility.yul\":15841:15899   */\n      mstore\n        /* \"#utility.yul\":15748:15905   */\n      pop\n      pop\n      jump\t// out\n        /* \"#utility.yul\":15911:15990   */\n    tag_444:\n        /* \"#utility.yul\":15950:15957   */\n      0x00\n        /* \"#utility.yul\":15979:15984   */\n      dup2\n        /* \"#utility.yul\":15968:15984   */\n      swap1\n      pop\n        /* \"#utility.yul\":15911:15990   */\n      swap2\n      swap1\n      pop\n      jump\t// out\n        /* \"#utility.yul\":15996:16153   */\n    tag_445:\n        /* \"#utility.yul\":16101:16146   */\n      tag_620\n        /* \"#utility.yul\":16121:16145   */\n      tag_621\n        /* \"#utility.yul\":16139:16144   */\n      dup3\n        /* \"#utility.yul\":16121:16145   */\n      tag_411\n      jump\t// in\n    tag_621:\n        /* \"#utility.yul\":16101:16146   */\n      tag_444\n      jump\t// in\n    tag_620:\n        /* \"#utility.yul\":16096:16099   */\n      dup3\n        /* \"#utility.yul\":16089:16147   */\n      mstore\n        /* \"#utility.yul\":15996:16153   */\n      pop\n      pop\n      jump\t// out\n        /* \"#utility.yul\":16159:16556   */\n    tag_260:\n        /* \"#utility.yul\":16299:16302   */\n      0x00\n        /* \"#utility.yul\":16314:16389   */\n      tag_623\n        /* \"#utility.yul\":16385:16388   */\n      dup3\n        /* \"#utility.yul\":16376:16382   */\n      dup6\n        /* \"#utility.yul\":16314:16389   */\n      tag_443\n      jump\t// in\n    tag_623:\n        /* \"#utility.yul\":16414:16416   */\n      0x14\n        /* \"#utility.yul\":16409:16412   */\n      dup3\n        /* \"#utility.yul\":16405:16417   */\n      add\n        /* \"#utility.yul\":16398:16417   */\n      swap2\n      pop\n        /* \"#utility.yul\":16427:16502   */\n      tag_624\n        /* \"#utility.yul\":16498:16501   */\n      dup3\n        /* \"#utility.yul\":16489:16495   */\n      dup5\n        /* \"#utility.yul\":16427:16502   */\n      tag_445\n      jump\t// in\n    tag_624:\n        /* \"#utility.yul\":16527:16529   */\n      0x20\n        /* \"#utility.yul\":16522:16525   */\n      dup3\n        /* \"#utility.yul\":16518:16530   */\n      add\n        /* \"#utility.yul\":16511:16530   */\n      swap2\n      pop\n        /* \"#utility.yul\":16547:16550   */\n      dup2\n        /* \"#utility.yul\":16540:16550   */\n      swap1\n      pop\n        /* \"#utility.yul\":16159:16556   */\n      swap4\n      swap3\n      pop\n      pop\n      pop\n      jump\t// out\n        /* \"#utility.yul\":16562:16737   */\n    tag_446:\n        /* \"#utility.yul\":16702:16729   */\n      0x4d696e696e6720646966666963756c7479206e6f74206d657400000000000000\n        /* \"#utility.yul\":16698:16699   */\n      0x00\n        /* \"#utility.yul\":16690:16696   */\n      dup3\n        /* \"#utility.yul\":16686:16700   */\n      add\n        /* \"#utility.yul\":16679:16730   */\n      mstore\n        /* \"#utility.yul\":16562:16737   */\n      pop\n      jump\t// out\n        /* \"#utility.yul\":16743:17109   */\n    tag_447:\n        /* \"#utility.yul\":16885:16888   */\n      0x00\n        /* \"#utility.yul\":16906:16973   */\n      tag_627\n        /* \"#utility.yul\":16970:16972   */\n      0x19\n        /* \"#utility.yul\":16965:16968   */\n      dup4\n        /* \"#utility.yul\":16906:16973   */\n      tag_400\n      jump\t// in\n    tag_627:\n        /* \"#utility.yul\":16899:16973   */\n      swap2\n      pop\n        /* \"#utility.yul\":16982:17075   */\n      tag_628\n        /* \"#utility.yul\":17071:17074   */\n      dup3\n        /* \"#utility.yul\":16982:17075   */\n      tag_446\n      jump\t// in\n    tag_628:\n        /* \"#utility.yul\":17100:17102   */\n      0x20\n        /* \"#utility.yul\":17095:17098   */\n      dup3\n        /* \"#utility.yul\":17091:17103   */\n      add\n        /* \"#utility.yul\":17084:17103   */\n      swap1\n      pop\n        /* \"#utility.yul\":16743:17109   */\n      swap2\n      swap1\n      pop\n      jump\t// out\n        /* \"#utility.yul\":17115:17534   */\n    tag_263:\n        /* \"#utility.yul\":17281:17285   */\n      0x00\n        /* \"#utility.yul\":17319:17321   */\n      0x20\n        /* \"#utility.yul\":17308:17317   */\n      dup3\n        /* \"#utility.yul\":17304:17322   */\n      add\n        /* \"#utility.yul\":17296:17322   */\n      swap1\n      pop\n        /* \"#utility.yul\":17368:17377   */\n      dup2\n        /* \"#utility.yul\":17362:17366   */\n      dup2\n        /* \"#utility.yul\":17358:17378   */\n      sub\n        /* \"#utility.yul\":17354:17355   */\n      0x00\n        /* \"#utility.yul\":17343:17352   */\n      dup4\n        /* \"#utility.yul\":17339:17356   */\n      add\n        /* \"#utility.yul\":17332:17379   */\n      mstore\n        /* \"#utility.yul\":17396:17527   */\n      tag_630\n        /* \"#utility.yul\":17522:17526   */\n      dup2\n        /* \"#utility.yul\":17396:17527   */\n      tag_447\n      jump\t// in\n    tag_630:\n        /* \"#utility.yul\":17388:17527   */\n      swap1\n      pop\n        /* \"#utility.yul\":17115:17534   */\n      swap2\n      swap1\n      pop\n      jump\t// out\n        /* \"#utility.yul\":17540:17706   */\n    tag_448:\n        /* \"#utility.yul\":17680:17698   */\n      0x416c726561647920616e2061646d696e00000000000000000000000000000000\n        /* \"#utility.yul\":17676:17677   */\n      0x00\n        /* \"#utility.yul\":17668:17674   */\n      dup3\n        /* \"#utility.yul\":17664:17678   */\n      add\n        /* \"#utility.yul\":17657:17699   */\n      mstore\n        /* \"#utility.yul\":17540:17706   */\n      pop\n      jump\t// out\n        /* \"#utility.yul\":17712:18078   */\n    tag_449:\n        /* \"#utility.yul\":17854:17857   */\n      0x00\n        /* \"#utility.yul\":17875:17942   */\n      tag_633\n        /* \"#utility.yul\":17939:17941   */\n      0x10\n        /* \"#utility.yul\":17934:17937   */\n      dup4\n        /* \"#utility.yul\":17875:17942   */\n      tag_400\n      jump\t// in\n    tag_633:\n        /* \"#utility.yul\":17868:17942   */\n      swap2\n      pop\n        /* \"#utility.yul\":17951:18044   */\n      tag_634\n        /* \"#utility.yul\":18040:18043   */\n      dup3\n        /* \"#utility.yul\":17951:18044   */\n      tag_448\n      jump\t// in\n    tag_634:\n        /* \"#utility.yul\":18069:18071   */\n      0x20\n        /* \"#utility.yul\":18064:18067   */\n      dup3\n        /* \"#utility.yul\":18060:18072   */\n      add\n        /* \"#utility.yul\":18053:18072   */\n      swap1\n      pop\n        /* \"#utility.yul\":17712:18078   */\n      swap2\n      swap1\n      pop\n      jump\t// out\n        /* \"#utility.yul\":18084:18503   */\n    tag_276:\n        /* \"#utility.yul\":18250:18254   */\n      0x00\n        /* \"#utility.yul\":18288:18290   */\n      0x20\n        /* \"#utility.yul\":18277:18286   */\n      dup3\n        /* \"#utility.yul\":18273:18291   */\n      add\n        /* \"#utility.yul\":18265:18291   */\n      swap1\n      pop\n        /* \"#utility.yul\":18337:18346   */\n      dup2\n        /* \"#utility.yul\":18331:18335   */\n      dup2\n        /* \"#utility.yul\":18327:18347   */\n      sub\n        /* \"#utility.yul\":18323:18324   */\n      0x00\n        /* \"#utility.yul\":18312:18321   */\n      dup4\n        /* \"#utility.yul\":18308:18325   */\n      add\n        /* \"#utility.yul\":18301:18348   */\n      mstore\n        /* \"#utility.yul\":18365:18496   */\n      tag_636\n        /* \"#utility.yul\":18491:18495   */\n      dup2\n        /* \"#utility.yul\":18365:18496   */\n      tag_449\n      jump\t// in\n    tag_636:\n        /* \"#utility.yul\":18357:18496   */\n      swap1\n      pop\n        /* \"#utility.yul\":18084:18503   */\n      swap2\n      swap1\n      pop\n      jump\t// out\n        /* \"#utility.yul\":18509:18680   */\n    tag_450:\n        /* \"#utility.yul\":18649:18672   */\n      0x43616e6e6f74207374616b65203020746f6b656e730000000000000000000000\n        /* \"#utility.yul\":18645:18646   */\n      0x00\n        /* \"#utility.yul\":18637:18643   */\n      dup3\n        /* \"#utility.yul\":18633:18647   */\n      add\n        /* \"#utility.yul\":18626:18673   */\n      mstore\n        /* \"#utility.yul\":18509:18680   */\n      pop\n      jump\t// out\n        /* \"#utility.yul\":18686:19052   */\n    tag_451:\n        /* \"#utility.yul\":18828:18831   */\n      0x00\n        /* \"#utility.yul\":18849:18916   */\n      tag_639\n        /* \"#utility.yul\":18913:18915   */\n      0x15\n        /* \"#utility.yul\":18908:18911   */\n      dup4\n        /* \"#utility.yul\":18849:18916   */\n      tag_400\n      jump\t// in\n    tag_639:\n        /* \"#utility.yul\":18842:18916   */\n      swap2\n      pop\n        /* \"#utility.yul\":18925:19018   */\n      tag_640\n        /* \"#utility.yul\":19014:19017   */\n      dup3\n        /* \"#utility.yul\":18925:19018   */\n      tag_450\n      jump\t// in\n    tag_640:\n        /* \"#utility.yul\":19043:19045   */\n      0x20\n        /* \"#utility.yul\":19038:19041   */\n      dup3\n        /* \"#utility.yul\":19034:19046   */\n      add\n        /* \"#utility.yul\":19027:19046   */\n      swap1\n      pop\n        /* \"#utility.yul\":18686:19052   */\n      swap2\n      swap1\n      pop\n      jump\t// out\n        /* \"#utility.yul\":19058:19477   */\n    tag_302:\n        /* \"#utility.yul\":19224:19228   */\n      0x00\n        /* \"#utility.yul\":19262:19264   */\n      0x20\n        /* \"#utility.yul\":19251:19260   */\n      dup3\n        /* \"#utility.yul\":19247:19265   */\n      add\n        /* \"#utility.yul\":19239:19265   */\n      swap1\n      pop\n        /* \"#utility.yul\":19311:19320   */\n      dup2\n        /* \"#utility.yul\":19305:19309   */\n      dup2\n        /* \"#utility.yul\":19301:19321   */\n      sub\n        /* \"#utility.yul\":19297:19298   */\n      0x00\n        /* \"#utility.yul\":19286:19295   */\n      dup4\n        /* \"#utility.yul\":19282:19299   */\n      add\n        /* \"#utility.yul\":19275:19322   */\n      mstore\n        /* \"#utility.yul\":19339:19470   */\n      tag_642\n        /* \"#utility.yul\":19465:19469   */\n      dup2\n        /* \"#utility.yul\":19339:19470   */\n      tag_451\n      jump\t// in\n    tag_642:\n        /* \"#utility.yul\":19331:19470   */\n      swap1\n      pop\n        /* \"#utility.yul\":19058:19477   */\n      swap2\n      swap1\n      pop\n      jump\t// out\n        /* \"#utility.yul\":19483:19705   */\n    tag_452:\n        /* \"#utility.yul\":19623:19657   */\n      0x436f6f6c646f776e20706572696f64206e6f74206d657420666f72207374616b\n        /* \"#utility.yul\":19619:19620   */\n      0x00\n        /* \"#utility.yul\":19611:19617   */\n      dup3\n        /* \"#utility.yul\":19607:19621   */\n      add\n        /* \"#utility.yul\":19600:19658   */\n      mstore\n        /* \"#utility.yul\":19692:19697   */\n      0x696e670000000000000000000000000000000000000000000000000000000000\n        /* \"#utility.yul\":19687:19689   */\n      0x20\n        /* \"#utility.yul\":19679:19685   */\n      dup3\n        /* \"#utility.yul\":19675:19690   */\n      add\n        /* \"#utility.yul\":19668:19698   */\n      mstore\n        /* \"#utility.yul\":19483:19705   */\n      pop\n      jump\t// out\n        /* \"#utility.yul\":19711:20077   */\n    tag_453:\n        /* \"#utility.yul\":19853:19856   */\n      0x00\n        /* \"#utility.yul\":19874:19941   */\n      tag_645\n        /* \"#utility.yul\":19938:19940   */\n      0x23\n        /* \"#utility.yul\":19933:19936   */\n      dup4\n        /* \"#utility.yul\":19874:19941   */\n      tag_400\n      jump\t// in\n    tag_645:\n        /* \"#utility.yul\":19867:19941   */\n      swap2\n      pop\n        /* \"#utility.yul\":19950:20043   */\n      tag_646\n        /* \"#utility.yul\":20039:20042   */\n      dup3\n        /* \"#utility.yul\":19950:20043   */\n      tag_452\n      jump\t// in\n    tag_646:\n        /* \"#utility.yul\":20068:20070   */\n      0x40\n        /* \"#utility.yul\":20063:20066   */\n      dup3\n        /* \"#utility.yul\":20059:20071   */\n      add\n        /* \"#utility.yul\":20052:20071   */\n      swap1\n      pop\n        /* \"#utility.yul\":19711:20077   */\n      swap2\n      swap1\n      pop\n      jump\t// out\n        /* \"#utility.yul\":20083:20502   */\n    tag_306:\n        /* \"#utility.yul\":20249:20253   */\n      0x00\n        /* \"#utility.yul\":20287:20289   */\n      0x20\n        /* \"#utility.yul\":20276:20285   */\n      dup3\n        /* \"#utility.yul\":20272:20290   */\n      add\n        /* \"#utility.yul\":20264:20290   */\n      swap1\n      pop\n        /* \"#utility.yul\":20336:20345   */\n      dup2\n        /* \"#utility.yul\":20330:20334   */\n      dup2\n        /* \"#utility.yul\":20326:20346   */\n      sub\n        /* \"#utility.yul\":20322:20323   */\n      0x00\n        /* \"#utility.yul\":20311:20320   */\n      dup4\n        /* \"#utility.yul\":20307:20324   */\n      add\n        /* \"#utility.yul\":20300:20347   */\n      mstore\n        /* \"#utility.yul\":20364:20495   */\n      tag_648\n        /* \"#utility.yul\":20490:20494   */\n      dup2\n        /* \"#utility.yul\":20364:20495   */\n      tag_453\n      jump\t// in\n    tag_648:\n        /* \"#utility.yul\":20356:20495   */\n      swap1\n      pop\n        /* \"#utility.yul\":20083:20502   */\n      swap2\n      swap1\n      pop\n      jump\t// out\n        /* \"#utility.yul\":20508:20675   */\n    tag_454:\n        /* \"#utility.yul\":20648:20667   */\n      0x496e76616c6964206e6577206f776e6572000000000000000000000000000000\n        /* \"#utility.yul\":20644:20645   */\n      0x00\n        /* \"#utility.yul\":20636:20642   */\n      dup3\n        /* \"#utility.yul\":20632:20646   */\n      add\n        /* \"#utility.yul\":20625:20668   */\n      mstore\n        /* \"#utility.yul\":20508:20675   */\n      pop\n      jump\t// out\n        /* \"#utility.yul\":20681:21047   */\n    tag_455:\n        /* \"#utility.yul\":20823:20826   */\n      0x00\n        /* \"#utility.yul\":20844:20911   */\n      tag_651\n        /* \"#utility.yul\":20908:20910   */\n      0x11\n        /* \"#utility.yul\":20903:20906   */\n      dup4\n        /* \"#utility.yul\":20844:20911   */\n      tag_400\n      jump\t// in\n    tag_651:\n        /* \"#utility.yul\":20837:20911   */\n      swap2\n      pop\n        /* \"#utility.yul\":20920:21013   */\n      tag_652\n        /* \"#utility.yul\":21009:21012   */\n      dup3\n        /* \"#utility.yul\":20920:21013   */\n      tag_454\n      jump\t// in\n    tag_652:\n        /* \"#utility.yul\":21038:21040   */\n      0x20\n        /* \"#utility.yul\":21033:21036   */\n      dup3\n        /* \"#utility.yul\":21029:21041   */\n      add\n        /* \"#utility.yul\":21022:21041   */\n      swap1\n      pop\n        /* \"#utility.yul\":20681:21047   */\n      swap2\n      swap1\n      pop\n      jump\t// out\n        /* \"#utility.yul\":21053:21472   */\n    tag_315:\n        /* \"#utility.yul\":21219:21223   */\n      0x00\n        /* \"#utility.yul\":21257:21259   */\n      0x20\n        /* \"#utility.yul\":21246:21255   */\n      dup3\n        /* \"#utility.yul\":21242:21260   */\n      add\n        /* \"#utility.yul\":21234:21260   */\n      swap1\n      pop\n        /* \"#utility.yul\":21306:21315   */\n      dup2\n        /* \"#utility.yul\":21300:21304   */\n      dup2\n        /* \"#utility.yul\":21296:21316   */\n      sub\n        /* \"#utility.yul\":21292:21293   */\n      0x00\n        /* \"#utility.yul\":21281:21290   */\n      dup4\n        /* \"#utility.yul\":21277:21294   */\n      add\n        /* \"#utility.yul\":21270:21317   */\n      mstore\n        /* \"#utility.yul\":21334:21465   */\n      tag_654\n        /* \"#utility.yul\":21460:21464   */\n      dup2\n        /* \"#utility.yul\":21334:21465   */\n      tag_455\n      jump\t// in\n    tag_654:\n        /* \"#utility.yul\":21326:21465   */\n      swap1\n      pop\n        /* \"#utility.yul\":21053:21472   */\n      swap2\n      swap1\n      pop\n      jump\t// out\n        /* \"#utility.yul\":21478:21650   */\n    tag_456:\n        /* \"#utility.yul\":21618:21642   */\n      0x4e6f207265776172647320746f20776974686472617700000000000000000000\n        /* \"#utility.yul\":21614:21615   */\n      0x00\n        /* \"#utility.yul\":21606:21612   */\n      dup3\n        /* \"#utility.yul\":21602:21616   */\n      add\n        /* \"#utility.yul\":21595:21643   */\n      mstore\n        /* \"#utility.yul\":21478:21650   */\n      pop\n      jump\t// out\n        /* \"#utility.yul\":21656:22022   */\n    tag_457:\n        /* \"#utility.yul\":21798:21801   */\n      0x00\n        /* \"#utility.yul\":21819:21886   */\n      tag_657\n        /* \"#utility.yul\":21883:21885   */\n      0x16\n        /* \"#utility.yul\":21878:21881   */\n      dup4\n        /* \"#utility.yul\":21819:21886   */\n      tag_400\n      jump\t// in\n    tag_657:\n        /* \"#utility.yul\":21812:21886   */\n      swap2\n      pop\n        /* \"#utility.yul\":21895:21988   */\n      tag_658\n        /* \"#utility.yul\":21984:21987   */\n      dup3\n        /* \"#utility.yul\":21895:21988   */\n      tag_456\n      jump\t// in\n    tag_658:\n        /* \"#utility.yul\":22013:22015   */\n      0x20\n        /* \"#utility.yul\":22008:22011   */\n      dup3\n        /* \"#utility.yul\":22004:22016   */\n      add\n        /* \"#utility.yul\":21997:22016   */\n      swap1\n      pop\n        /* \"#utility.yul\":21656:22022   */\n      swap2\n      swap1\n      pop\n      jump\t// out\n        /* \"#utility.yul\":22028:22447   */\n    tag_324:\n        /* \"#utility.yul\":22194:22198   */\n      0x00\n        /* \"#utility.yul\":22232:22234   */\n      0x20\n        /* \"#utility.yul\":22221:22230   */\n      dup3\n        /* \"#utility.yul\":22217:22235   */\n      add\n        /* \"#utility.yul\":22209:22235   */\n      swap1\n      pop\n        /* \"#utility.yul\":22281:22290   */\n      dup2\n        /* \"#utility.yul\":22275:22279   */\n      dup2\n        /* \"#utility.yul\":22271:22291   */\n      sub\n        /* \"#utility.yul\":22267:22268   */\n      0x00\n        /* \"#utility.yul\":22256:22265   */\n      dup4\n        /* \"#utility.yul\":22252:22269   */\n      add\n        /* \"#utility.yul\":22245:22292   */\n      mstore\n        /* \"#utility.yul\":22309:22440   */\n      tag_660\n        /* \"#utility.yul\":22435:22439   */\n      dup2\n        /* \"#utility.yul\":22309:22440   */\n      tag_457\n      jump\t// in\n    tag_660:\n        /* \"#utility.yul\":22301:22440   */\n      swap1\n      pop\n        /* \"#utility.yul\":22028:22447   */\n      swap2\n      swap1\n      pop\n      jump\t// out\n        /* \"#utility.yul\":22453:22895   */\n    tag_358:\n        /* \"#utility.yul\":22602:22606   */\n      0x00\n        /* \"#utility.yul\":22640:22642   */\n      0x60\n        /* \"#utility.yul\":22629:22638   */\n      dup3\n        /* \"#utility.yul\":22625:22643   */\n      add\n        /* \"#utility.yul\":22617:22643   */\n      swap1\n      pop\n        /* \"#utility.yul\":22653:22724   */\n      tag_662\n        /* \"#utility.yul\":22721:22722   */\n      0x00\n        /* \"#utility.yul\":22710:22719   */\n      dup4\n        /* \"#utility.yul\":22706:22723   */\n      add\n        /* \"#utility.yul\":22697:22703   */\n      dup7\n        /* \"#utility.yul\":22653:22724   */\n      tag_417\n      jump\t// in\n    tag_662:\n        /* \"#utility.yul\":22734:22806   */\n      tag_663\n        /* \"#utility.yul\":22802:22804   */\n      0x20\n        /* \"#utility.yul\":22791:22800   */\n      dup4\n        /* \"#utility.yul\":22787:22805   */\n      add\n        /* \"#utility.yul\":22778:22784   */\n      dup6\n        /* \"#utility.yul\":22734:22806   */\n      tag_412\n      jump\t// in\n    tag_663:\n        /* \"#utility.yul\":22816:22888   */\n      tag_664\n        /* \"#utility.yul\":22884:22886   */\n      0x40\n        /* \"#utility.yul\":22873:22882   */\n      dup4\n        /* \"#utility.yul\":22869:22887   */\n      add\n        /* \"#utility.yul\":22860:22866   */\n      dup5\n        /* \"#utility.yul\":22816:22888   */\n      tag_412\n      jump\t// in\n    tag_664:\n        /* \"#utility.yul\":22453:22895   */\n      swap5\n      swap4\n      pop\n      pop\n      pop\n      pop\n      jump\t// out\n        /* \"#utility.yul\":22901:23077   */\n    tag_458:\n        /* \"#utility.yul\":23041:23069   */\n      0x4d696e74696e672065786365656473206d617820737570706c79000000000000\n        /* \"#utility.yul\":23037:23038   */\n      0x00\n        /* \"#utility.yul\":23029:23035   */\n      dup3\n        /* \"#utility.yul\":23025:23039   */\n      add\n        /* \"#utility.yul\":23018:23070   */\n      mstore\n        /* \"#utility.yul\":22901:23077   */\n      pop\n      jump\t// out\n        /* \"#utility.yul\":23083:23449   */\n    tag_459:\n        /* \"#utility.yul\":23225:23228   */\n      0x00\n        /* \"#utility.yul\":23246:23313   */\n      tag_667\n        /* \"#utility.yul\":23310:23312   */\n      0x1a\n        /* \"#utility.yul\":23305:23308   */\n      dup4\n        /* \"#utility.yul\":23246:23313   */\n      tag_400\n      jump\t// in\n    tag_667:\n        /* \"#utility.yul\":23239:23313   */\n      swap2\n      pop\n        /* \"#utility.yul\":23322:23415   */\n      tag_668\n        /* \"#utility.yul\":23411:23414   */\n      dup3\n        /* \"#utility.yul\":23322:23415   */\n      tag_458\n      jump\t// in\n    tag_668:\n        /* \"#utility.yul\":23440:23442   */\n      0x20\n        /* \"#utility.yul\":23435:23438   */\n      dup3\n        /* \"#utility.yul\":23431:23443   */\n      add\n        /* \"#utility.yul\":23424:23443   */\n      swap1\n      pop\n        /* \"#utility.yul\":23083:23449   */\n      swap2\n      swap1\n      pop\n      jump\t// out\n        /* \"#utility.yul\":23455:23874   */\n    tag_380:\n        /* \"#utility.yul\":23621:23625   */\n      0x00\n        /* \"#utility.yul\":23659:23661   */\n      0x20\n        /* \"#utility.yul\":23648:23657   */\n      dup3\n        /* \"#utility.yul\":23644:23662   */\n      add\n        /* \"#utility.yul\":23636:23662   */\n      swap1\n      pop\n        /* \"#utility.yul\":23708:23717   */\n      dup2\n        /* \"#utility.yul\":23702:23706   */\n      dup2\n        /* \"#utility.yul\":23698:23718   */\n      sub\n        /* \"#utility.yul\":23694:23695   */\n      0x00\n        /* \"#utility.yul\":23683:23692   */\n      dup4\n        /* \"#utility.yul\":23679:23696   */\n      add\n        /* \"#utility.yul\":23672:23719   */\n      mstore\n        /* \"#utility.yul\":23736:23867   */\n      tag_670\n        /* \"#utility.yul\":23862:23866   */\n      dup2\n        /* \"#utility.yul\":23736:23867   */\n      tag_459\n      jump\t// in\n    tag_670:\n        /* \"#utility.yul\":23728:23867   */\n      swap1\n      pop\n        /* \"#utility.yul\":23455:23874   */\n      swap2\n      swap1\n      pop\n      jump\t// out\n\n    auxdata: 0xa2646970667358221220c45a95eeaa528f9b74e29ce055f60c1132fb7d1de34ee80423786713a28ead6064736f6c634300081a0033\n}\n",
				"bytecode": {
					"linkReferences": {},
					"object": "60806040526402540be4006007556064600d5534801561001d575f80fd5b506040516137c13803806137c1833981810160405281019061003f919061067e565b806040518060400160405280600e81526020017f526567616c69756d20546f6b656e0000000000000000000000000000000000008152506040518060400160405280600481526020017f52474c4d0000000000000000000000000000000000000000000000000000000081525081600390816100bb91906108e3565b5080600490816100cb91906108e3565b5050505f73ffffffffffffffffffffffffffffffffffffffff168173ffffffffffffffffffffffffffffffffffffffff160361013e575f6040517f1e4fbdf700000000000000000000000000000000000000000000000000000000815260040161013591906109c1565b60405180910390fd5b61014d8161023c60201b60201c565b5061018181606460146a295be96e6406697200000061016c9190610a07565b6101769190610a75565b6102ff60201b60201c565b600e81908060018154018082558091505060019003905f5260205f20015f9091909190916101000a81548173ffffffffffffffffffffffffffffffffffffffff021916908373ffffffffffffffffffffffffffffffffffffffff1602179055506001600f5f8373ffffffffffffffffffffffffffffffffffffffff1673ffffffffffffffffffffffffffffffffffffffff1681526020019081526020015f205f6101000a81548160ff02191690831515021790555050610bad565b5f60055f9054906101000a900473ffffffffffffffffffffffffffffffffffffffff1690508160055f6101000a81548173ffffffffffffffffffffffffffffffffffffffff021916908373ffffffffffffffffffffffffffffffffffffffff1602179055508173ffffffffffffffffffffffffffffffffffffffff168173ffffffffffffffffffffffffffffffffffffffff167f8be0079c531659141344cd1fd0a4f28419497f9722a3daafe3b4186f6b6457e060405160405180910390a35050565b6a295be96e640669720000008161031a61037960201b60201c565b6103249190610aa5565b1115610365576040517f08c379a000000000000000000000000000000000000000000000000000000000815260040161035c90610b32565b60405180910390fd5b610375828261038260201b60201c565b5050565b5f600254905090565b5f73ffffffffffffffffffffffffffffffffffffffff168273ffffffffffffffffffffffffffffffffffffffff16036103f2575f6040517fec442f050000000000000000000000000000000000000000000000000000000081526004016103e991906109c1565b60405180910390fd5b6104035f838361040760201b60201c565b5050565b5f73ffffffffffffffffffffffffffffffffffffffff168373ffffffffffffffffffffffffffffffffffffffff1603610457578060025f82825461044b9190610aa5565b92505081905550610525565b5f805f8573ffffffffffffffffffffffffffffffffffffffff1673ffffffffffffffffffffffffffffffffffffffff1681526020019081526020015f20549050818110156104e0578381836040517fe450d38c0000000000000000000000000000000000000000000000000000000081526004016104d793929190610b5f565b60405180910390fd5b8181035f808673ffffffffffffffffffffffffffffffffffffffff1673ffffffffffffffffffffffffffffffffffffffff1681526020019081526020015f2081905550505b5f73ffffffffffffffffffffffffffffffffffffffff168273ffffffffffffffffffffffffffffffffffffffff160361056c578060025f82825403925050819055506105b6565b805f808473ffffffffffffffffffffffffffffffffffffffff1673ffffffffffffffffffffffffffffffffffffffff1681526020019081526020015f205f82825401925050819055505b8173ffffffffffffffffffffffffffffffffffffffff168373ffffffffffffffffffffffffffffffffffffffff167fddf252ad1be2c89b69c2b068fc378daa952ba7f163c4a11628f55a4df523b3ef836040516106139190610b94565b60405180910390a3505050565b5f80fd5b5f73ffffffffffffffffffffffffffffffffffffffff82169050919050565b5f61064d82610624565b9050919050565b61065d81610643565b8114610667575f80fd5b50565b5f8151905061067881610654565b92915050565b5f6020828403121561069357610692610620565b5b5f6106a08482850161066a565b91505092915050565b5f81519050919050565b7f4e487b71000000000000000000000000000000000000000000000000000000005f52604160045260245ffd5b7f4e487b71000000000000000000000000000000000000000000000000000000005f52602260045260245ffd5b5f600282049050600182168061072457607f821691505b602082108103610737576107366106e0565b5b50919050565b5f819050815f5260205f209050919050565b5f6020601f8301049050919050565b5f82821b905092915050565b5f600883026107997fffffffffffffffffffffffffffffffffffffffffffffffffffffffffffffffff8261075e565b6107a3868361075e565b95508019841693508086168417925050509392505050565b5f819050919050565b5f819050919050565b5f6107e76107e26107dd846107bb565b6107c4565b6107bb565b9050919050565b5f819050919050565b610800836107cd565b61081461080c826107ee565b84845461076a565b825550505050565b5f90565b61082861081c565b6108338184846107f7565b505050565b5b818110156108565761084b5f82610820565b600181019050610839565b5050565b601f82111561089b5761086c8161073d565b6108758461074f565b81016020851015610884578190505b6108986108908561074f565b830182610838565b50505b505050565b5f82821c905092915050565b5f6108bb5f19846008026108a0565b1980831691505092915050565b5f6108d383836108ac565b9150826002028217905092915050565b6108ec826106a9565b67ffffffffffffffff811115610905576109046106b3565b5b61090f825461070d565b61091a82828561085a565b5f60209050601f83116001811461094b575f8415610939578287015190505b61094385826108c8565b8655506109aa565b601f1984166109598661073d565b5f5b828110156109805784890151825560018201915060208501945060208101905061095b565b8683101561099d5784890151610999601f8916826108ac565b8355505b6001600288020188555050505b505050505050565b6109bb81610643565b82525050565b5f6020820190506109d45f8301846109b2565b92915050565b7f4e487b71000000000000000000000000000000000000000000000000000000005f52601160045260245ffd5b5f610a11826107bb565b9150610a1c836107bb565b9250828202610a2a816107bb565b91508282048414831517610a4157610a406109da565b5b5092915050565b7f4e487b71000000000000000000000000000000000000000000000000000000005f52601260045260245ffd5b5f610a7f826107bb565b9150610a8a836107bb565b925082610a9a57610a99610a48565b5b828204905092915050565b5f610aaf826107bb565b9150610aba836107bb565b9250828201905080821115610ad257610ad16109da565b5b92915050565b5f82825260208201905092915050565b7f4d696e74696e672065786365656473206d617820737570706c790000000000005f82015250565b5f610b1c601a83610ad8565b9150610b2782610ae8565b602082019050919050565b5f6020820190508181035f830152610b4981610b10565b9050919050565b610b59816107bb565b82525050565b5f606082019050610b725f8301866109b2565b610b7f6020830185610b50565b610b8c6040830184610b50565b949350505050565b5f602082019050610ba75f830184610b50565b92915050565b612c0780610bba5f395ff3fe608060405234801561000f575f80fd5b5060043610610225575f3560e01c8063602512e11161012e5780638da5cb5b116100b6578063a9059cbb1161007a578063a9059cbb14610663578063c7b8981c14610693578063d82e39621461069d578063dd62ed3e146106cd578063f2fde38b146106fd57610225565b80638da5cb5b146105d357806395d89b41146105f15780639e447fc61461060f578063a694fc3a1461062b578063a6f9dae11461064757610225565b8063715018a6116100fd578063715018a61461054157806379cc67901461054b5780637b0a47ee146105675780637bb1ca1914610585578063817b1cd2146105b557610225565b8063602512e1146104bb5780636e99d52f146104d757806370480275146104f557806370a082311461051157610225565b806324d7806c116101b157806332cb6b0c1161018057806332cb6b0c14610417578063331e03a81461043557806342966c68146104655780634d474898146104815780635556db651461049d57610225565b806324d7806c1461038f5780632e17de78146103bf578063313ce567146103db57806331ae450b146103f957610225565b806316934fc4116101f857806316934fc4146102d75780631785f53c1461030757806318160ddd1461032357806319cae4621461034157806323b872dd1461035f57610225565b806306fdde03146102295780630700037d14610247578063095ea7b31461027757806314bfd6d0146102a7575b5f80fd5b610231610719565b60405161023e9190612097565b60405180910390f35b610261600480360381019061025c9190612115565b6107a9565b60405161026e9190612158565b60405180910390f35b610291600480360381019061028c919061219b565b6107be565b60405161029e91906121f3565b60405180910390f35b6102c160048036038101906102bc919061220c565b6107e0565b6040516102ce9190612246565b60405180910390f35b6102f160048036038101906102ec9190612115565b61081b565b6040516102fe9190612158565b60405180910390f35b610321600480360381019061031c9190612115565b610830565b005b61032b610ada565b6040516103389190612158565b60405180910390f35b610349610ae3565b6040516103569190612158565b60405180910390f35b6103796004803603810190610374919061225f565b610ae9565b60405161038691906121f3565b60405180910390f35b6103a960048036038101906103a49190612115565b610b17565b6040516103b691906121f3565b60405180910390f35b6103d960048036038101906103d4919061220c565b610b34565b005b6103e3610cfc565b6040516103f091906122ca565b60405180910390f35b610401610d04565b60405161040e919061239a565b60405180910390f35b61041f610d8f565b60405161042c9190612158565b60405180910390f35b61044f600480360381019061044a9190612115565b610d9e565b60405161045c9190612158565b60405180910390f35b61047f600480360381019061047a919061220c565b610db3565b005b61049b6004803603810190610496919061220c565b610dc7565b005b6104a5610ed4565b6040516104b29190612158565b60405180910390f35b6104d560048036038101906104d0919061220c565b610eda565b005b6104df610f6d565b6040516104ec9190612158565b60405180910390f35b61050f600480360381019061050a9190612115565b610f74565b005b61052b60048036038101906105269190612115565b6110be565b6040516105389190612158565b60405180910390f35b610549611103565b005b6105656004803603810190610560919061219b565b611116565b005b61056f611136565b60405161057c9190612158565b60405180910390f35b61059f600480360381019061059a9190612115565b61113c565b6040516105ac9190612158565b60405180910390f35b6105bd611151565b6040516105ca9190612158565b60405180910390f35b6105db611157565b6040516105e89190612246565b60405180910390f35b6105f961117f565b6040516106069190612097565b60405180910390f35b6106296004803603810190610624919061220c565b61120f565b005b6106456004803603810190610640919061220c565b6112a2565b005b610661600480360381019061065c9190612115565b61142c565b005b61067d6004803603810190610678919061219b565b6114ae565b60405161068a91906121f3565b60405180910390f35b61069b6114d0565b005b6106b760048036038101906106b29190612115565b61156d565b6040516106c49190612158565b60405180910390f35b6106e760048036038101906106e291906123ba565b6116e8565b6040516106f49190612158565b60405180910390f35b61071760048036038101906107129190612115565b61176a565b005b60606003805461072890612425565b80601f016020809104026020016040519081016040528092919081815260200182805461075490612425565b801561079f5780601f106107765761010080835404028352916020019161079f565b820191905f5260205f20905b81548152906001019060200180831161078257829003601f168201915b5050505050905090565b6009602052805f5260405f205f915090505481565b5f806107c86117ee565b90506107d58185856117f5565b600191505092915050565b600e81815481106107ef575f80fd5b905f5260205f20015f915054906101000a900473ffffffffffffffffffffffffffffffffffffffff1681565b6008602052805f5260405f205f915090505481565b610838611807565b600f5f8273ffffffffffffffffffffffffffffffffffffffff1673ffffffffffffffffffffffffffffffffffffffff1681526020019081526020015f205f9054906101000a900460ff166108c1576040517f08c379a00000000000000000000000000000000000000000000000000000000081526004016108b89061249f565b60405180910390fd5b6001600e8054905011610909576040517f08c379a000000000000000000000000000000000000000000000000000000000815260040161090090612507565b60405180910390fd5b5f600f5f8373ffffffffffffffffffffffffffffffffffffffff1673ffffffffffffffffffffffffffffffffffffffff1681526020019081526020015f205f6101000a81548160ff0219169083151502179055505f5b600e80549050811015610ad6578173ffffffffffffffffffffffffffffffffffffffff16600e828154811061099757610996612525565b5b905f5260205f20015f9054906101000a900473ffffffffffffffffffffffffffffffffffffffff1673ffffffffffffffffffffffffffffffffffffffff1603610ac957600e6001600e805490506109ee919061257f565b815481106109ff576109fe612525565b5b905f5260205f20015f9054906101000a900473ffffffffffffffffffffffffffffffffffffffff16600e8281548110610a3b57610a3a612525565b5b905f5260205f20015f6101000a81548173ffffffffffffffffffffffffffffffffffffffff021916908373ffffffffffffffffffffffffffffffffffffffff160217905550600e805480610a9257610a916125b2565b5b600190038181905f5260205f20015f6101000a81549073ffffffffffffffffffffffffffffffffffffffff02191690559055610ad6565b808060010191505061095f565b5050565b5f600254905090565b60075481565b5f80610af36117ee565b9050610b0085828561188e565b610b0b858585611920565b60019150509392505050565b600f602052805f5260405f205f915054906101000a900460ff1681565b8060085f3373ffffffffffffffffffffffffffffffffffffffff1673ffffffffffffffffffffffffffffffffffffffff1681526020019081526020015f20541015610bb4576040517f08c379a0000000000000000000000000000000000000000000000000000000008152600401610bab90612629565b60405180910390fd5b62015180600a5f3373ffffffffffffffffffffffffffffffffffffffff1673ffffffffffffffffffffffffffffffffffffffff1681526020019081526020015f2054610c009190612647565b421015610c42576040517f08c379a0000000000000000000000000000000000000000000000000000000008152600401610c39906126ea565b60405180910390fd5b8060085f3373ffffffffffffffffffffffffffffffffffffffff1673ffffffffffffffffffffffffffffffffffffffff1681526020019081526020015f205f828254610c8e919061257f565b9250508190555080600c5f828254610ca6919061257f565b92505081905550610cb73382611a10565b42600b5f3373ffffffffffffffffffffffffffffffffffffffff1673ffffffffffffffffffffffffffffffffffffffff1681526020019081526020015f208190555050565b5f6012905090565b6060600e805480602002602001604051908101604052809291908181526020018280548015610d8557602002820191905f5260205f20905b815f9054906101000a900473ffffffffffffffffffffffffffffffffffffffff1673ffffffffffffffffffffffffffffffffffffffff1681526020019060010190808311610d3c575b5050505050905090565b6a295be96e6406697200000081565b600b602052805f5260405f205f915090505481565b610dc4610dbe6117ee565b82611a8f565b50565b606460506a295be96e64066972000000610de19190612708565b610deb9190612776565b60065410610e2e576040517f08c379a0000000000000000000000000000000000000000000000000000000008152600401610e25906127f0565b60405180910390fd5b5f3382604051602001610e42929190612873565b604051602081830303815290604052805190602001209050600754815f1c10610ea0576040517f08c379a0000000000000000000000000000000000000000000000000000000008152600401610e97906128e8565b60405180910390fd5b5f6802b5e3af16b18800009050610eb73382611b0e565b8060065f828254610ec89190612647565b92505081905550505050565b60065481565b600f5f3373ffffffffffffffffffffffffffffffffffffffff1673ffffffffffffffffffffffffffffffffffffffff1681526020019081526020015f205f9054906101000a900460ff16610f63576040517f08c379a0000000000000000000000000000000000000000000000000000000008152600401610f5a9061249f565b60405180910390fd5b8060078190555050565b6201518081565b610f7c611807565b600f5f8273ffffffffffffffffffffffffffffffffffffffff1673ffffffffffffffffffffffffffffffffffffffff1681526020019081526020015f205f9054906101000a900460ff1615611006576040517f08c379a0000000000000000000000000000000000000000000000000000000008152600401610ffd90612950565b60405180910390fd5b6001600f5f8373ffffffffffffffffffffffffffffffffffffffff1673ffffffffffffffffffffffffffffffffffffffff1681526020019081526020015f205f6101000a81548160ff021916908315150217905550600e81908060018154018082558091505060019003905f5260205f20015f9091909190916101000a81548173ffffffffffffffffffffffffffffffffffffffff021916908373ffffffffffffffffffffffffffffffffffffffff16021790555050565b5f805f8373ffffffffffffffffffffffffffffffffffffffff1673ffffffffffffffffffffffffffffffffffffffff1681526020019081526020015f20549050919050565b61110b611807565b6111145f611b7c565b565b611128826111226117ee565b8361188e565b6111328282611a8f565b5050565b600d5481565b600a602052805f5260405f205f915090505481565b600c5481565b5f60055f9054906101000a900473ffffffffffffffffffffffffffffffffffffffff16905090565b60606004805461118e90612425565b80601f01602080910402602001604051908101604052809291908181526020018280546111ba90612425565b80156112055780601f106111dc57610100808354040283529160200191611205565b820191905f5260205f20905b8154815290600101906020018083116111e857829003601f168201915b5050505050905090565b600f5f3373ffffffffffffffffffffffffffffffffffffffff1673ffffffffffffffffffffffffffffffffffffffff1681526020019081526020015f205f9054906101000a900460ff16611298576040517f08c379a000000000000000000000000000000000000000000000000000000000815260040161128f9061249f565b60405180910390fd5b80600d8190555050565b5f81116112e4576040517f08c379a00000000000000000000000000000000000000000000000000000000081526004016112db906129b8565b60405180910390fd5b62015180600b5f3373ffffffffffffffffffffffffffffffffffffffff1673ffffffffffffffffffffffffffffffffffffffff1681526020019081526020015f20546113309190612647565b421015611372576040517f08c379a000000000000000000000000000000000000000000000000000000000815260040161136990612a46565b60405180910390fd5b61137c3382611a8f565b8060085f3373ffffffffffffffffffffffffffffffffffffffff1673ffffffffffffffffffffffffffffffffffffffff1681526020019081526020015f205f8282546113c89190612647565b9250508190555080600c5f8282546113e09190612647565b9250508190555042600a5f3373ffffffffffffffffffffffffffffffffffffffff1673ffffffffffffffffffffffffffffffffffffffff1681526020019081526020015f208190555050565b611434611807565b5f73ffffffffffffffffffffffffffffffffffffffff168173ffffffffffffffffffffffffffffffffffffffff16036114a2576040517f08c379a000000000000000000000000000000000000000000000000000000000815260040161149990612aae565b60405180910390fd5b6114ab81611b7c565b50565b5f806114b86117ee565b90506114c5818585611920565b600191505092915050565b5f6114da3361156d565b90505f811161151e576040517f08c379a000000000000000000000000000000000000000000000000000000000815260040161151590612b16565b60405180910390fd5b5f60095f3373ffffffffffffffffffffffffffffffffffffffff1673ffffffffffffffffffffffffffffffffffffffff1681526020019081526020015f208190555061156a3382611a10565b50565b5f80612710600d5460085f8673ffffffffffffffffffffffffffffffffffffffff1673ffffffffffffffffffffffffffffffffffffffff1681526020019081526020015f20546115bd9190612708565b6115c79190612776565b90505f600a5f8573ffffffffffffffffffffffffffffffffffffffff1673ffffffffffffffffffffffffffffffffffffffff1681526020019081526020015f205490505f811115611696575f814261161f919061257f565b905064496cebb80081600d5460085f8973ffffffffffffffffffffffffffffffffffffffff1673ffffffffffffffffffffffffffffffffffffffff1681526020019081526020015f20546116739190612708565b61167d9190612708565b6116879190612776565b836116929190612647565b9250505b60095f8573ffffffffffffffffffffffffffffffffffffffff1673ffffffffffffffffffffffffffffffffffffffff1681526020019081526020015f2054826116df9190612647565b92505050919050565b5f60015f8473ffffffffffffffffffffffffffffffffffffffff1673ffffffffffffffffffffffffffffffffffffffff1681526020019081526020015f205f8373ffffffffffffffffffffffffffffffffffffffff1673ffffffffffffffffffffffffffffffffffffffff1681526020019081526020015f2054905092915050565b611772611807565b5f73ffffffffffffffffffffffffffffffffffffffff168173ffffffffffffffffffffffffffffffffffffffff16036117e2575f6040517f1e4fbdf70000000000000000000000000000000000000000000000000000000081526004016117d99190612246565b60405180910390fd5b6117eb81611b7c565b50565b5f33905090565b6118028383836001611c3f565b505050565b61180f6117ee565b73ffffffffffffffffffffffffffffffffffffffff1661182d611157565b73ffffffffffffffffffffffffffffffffffffffff161461188c576118506117ee565b6040517f118cdaa70000000000000000000000000000000000000000000000000000000081526004016118839190612246565b60405180910390fd5b565b5f61189984846116e8565b90507fffffffffffffffffffffffffffffffffffffffffffffffffffffffffffffffff811461191a578181101561190b578281836040517ffb8f41b200000000000000000000000000000000000000000000000000000000815260040161190293929190612b34565b60405180910390fd5b61191984848484035f611c3f565b5b50505050565b5f73ffffffffffffffffffffffffffffffffffffffff168373ffffffffffffffffffffffffffffffffffffffff1603611990575f6040517f96c6fd1e0000000000000000000000000000000000000000000000000000000081526004016119879190612246565b60405180910390fd5b5f73ffffffffffffffffffffffffffffffffffffffff168273ffffffffffffffffffffffffffffffffffffffff1603611a00575f6040517fec442f050000000000000000000000000000000000000000000000000000000081526004016119f79190612246565b60405180910390fd5b611a0b838383611e0e565b505050565b5f73ffffffffffffffffffffffffffffffffffffffff168273ffffffffffffffffffffffffffffffffffffffff1603611a80575f6040517fec442f05000000000000000000000000000000000000000000000000000000008152600401611a779190612246565b60405180910390fd5b611a8b5f8383611e0e565b5050565b5f73ffffffffffffffffffffffffffffffffffffffff168273ffffffffffffffffffffffffffffffffffffffff1603611aff575f6040517f96c6fd1e000000000000000000000000000000000000000000000000000000008152600401611af69190612246565b60405180910390fd5b611b0a825f83611e0e565b5050565b6a295be96e6406697200000081611b23610ada565b611b2d9190612647565b1115611b6e576040517f08c379a0000000000000000000000000000000000000000000000000000000008152600401611b6590612bb3565b60405180910390fd5b611b788282611a10565b5050565b5f60055f9054906101000a900473ffffffffffffffffffffffffffffffffffffffff1690508160055f6101000a81548173ffffffffffffffffffffffffffffffffffffffff021916908373ffffffffffffffffffffffffffffffffffffffff1602179055508173ffffffffffffffffffffffffffffffffffffffff168173ffffffffffffffffffffffffffffffffffffffff167f8be0079c531659141344cd1fd0a4f28419497f9722a3daafe3b4186f6b6457e060405160405180910390a35050565b5f73ffffffffffffffffffffffffffffffffffffffff168473ffffffffffffffffffffffffffffffffffffffff1603611caf575f6040517fe602df05000000000000000000000000000000000000000000000000000000008152600401611ca69190612246565b60405180910390fd5b5f73ffffffffffffffffffffffffffffffffffffffff168373ffffffffffffffffffffffffffffffffffffffff1603611d1f575f6040517f94280d62000000000000000000000000000000000000000000000000000000008152600401611d169190612246565b60405180910390fd5b8160015f8673ffffffffffffffffffffffffffffffffffffffff1673ffffffffffffffffffffffffffffffffffffffff1681526020019081526020015f205f8573ffffffffffffffffffffffffffffffffffffffff1673ffffffffffffffffffffffffffffffffffffffff1681526020019081526020015f20819055508015611e08578273ffffffffffffffffffffffffffffffffffffffff168473ffffffffffffffffffffffffffffffffffffffff167f8c5be1e5ebec7d5bd14f71427d1e84f3dd0314c0f7b2291e5b200ac8c7c3b92584604051611dff9190612158565b60405180910390a35b50505050565b5f73ffffffffffffffffffffffffffffffffffffffff168373ffffffffffffffffffffffffffffffffffffffff1603611e5e578060025f828254611e529190612647565b92505081905550611f2c565b5f805f8573ffffffffffffffffffffffffffffffffffffffff1673ffffffffffffffffffffffffffffffffffffffff1681526020019081526020015f2054905081811015611ee7578381836040517fe450d38c000000000000000000000000000000000000000000000000000000008152600401611ede93929190612b34565b60405180910390fd5b8181035f808673ffffffffffffffffffffffffffffffffffffffff1673ffffffffffffffffffffffffffffffffffffffff1681526020019081526020015f2081905550505b5f73ffffffffffffffffffffffffffffffffffffffff168273ffffffffffffffffffffffffffffffffffffffff1603611f73578060025f8282540392505081905550611fbd565b805f808473ffffffffffffffffffffffffffffffffffffffff1673ffffffffffffffffffffffffffffffffffffffff1681526020019081526020015f205f82825401925050819055505b8173ffffffffffffffffffffffffffffffffffffffff168373ffffffffffffffffffffffffffffffffffffffff167fddf252ad1be2c89b69c2b068fc378daa952ba7f163c4a11628f55a4df523b3ef8360405161201a9190612158565b60405180910390a3505050565b5f81519050919050565b5f82825260208201905092915050565b8281835e5f83830152505050565b5f601f19601f8301169050919050565b5f61206982612027565b6120738185612031565b9350612083818560208601612041565b61208c8161204f565b840191505092915050565b5f6020820190508181035f8301526120af818461205f565b905092915050565b5f80fd5b5f73ffffffffffffffffffffffffffffffffffffffff82169050919050565b5f6120e4826120bb565b9050919050565b6120f4816120da565b81146120fe575f80fd5b50565b5f8135905061210f816120eb565b92915050565b5f6020828403121561212a576121296120b7565b5b5f61213784828501612101565b91505092915050565b5f819050919050565b61215281612140565b82525050565b5f60208201905061216b5f830184612149565b92915050565b61217a81612140565b8114612184575f80fd5b50565b5f8135905061219581612171565b92915050565b5f80604083850312156121b1576121b06120b7565b5b5f6121be85828601612101565b92505060206121cf85828601612187565b9150509250929050565b5f8115159050919050565b6121ed816121d9565b82525050565b5f6020820190506122065f8301846121e4565b92915050565b5f60208284031215612221576122206120b7565b5b5f61222e84828501612187565b91505092915050565b612240816120da565b82525050565b5f6020820190506122595f830184612237565b92915050565b5f805f60608486031215612276576122756120b7565b5b5f61228386828701612101565b935050602061229486828701612101565b92505060406122a586828701612187565b9150509250925092565b5f60ff82169050919050565b6122c4816122af565b82525050565b5f6020820190506122dd5f8301846122bb565b92915050565b5f81519050919050565b5f82825260208201905092915050565b5f819050602082019050919050565b612315816120da565b82525050565b5f612326838361230c565b60208301905092915050565b5f602082019050919050565b5f612348826122e3565b61235281856122ed565b935061235d836122fd565b805f5b8381101561238d578151612374888261231b565b975061237f83612332565b925050600181019050612360565b5085935050505092915050565b5f6020820190508181035f8301526123b2818461233e565b905092915050565b5f80604083850312156123d0576123cf6120b7565b5b5f6123dd85828601612101565b92505060206123ee85828601612101565b9150509250929050565b7f4e487b71000000000000000000000000000000000000000000000000000000005f52602260045260245ffd5b5f600282049050600182168061243c57607f821691505b60208210810361244f5761244e6123f8565b5b50919050565b7f4e6f7420616e2061646d696e00000000000000000000000000000000000000005f82015250565b5f612489600c83612031565b915061249482612455565b602082019050919050565b5f6020820190508181035f8301526124b68161247d565b9050919050565b7f43616e6e6f742072656d6f766520746865206c6173742061646d696e000000005f82015250565b5f6124f1601c83612031565b91506124fc826124bd565b602082019050919050565b5f6020820190508181035f83015261251e816124e5565b9050919050565b7f4e487b71000000000000000000000000000000000000000000000000000000005f52603260045260245ffd5b7f4e487b71000000000000000000000000000000000000000000000000000000005f52601160045260245ffd5b5f61258982612140565b915061259483612140565b92508282039050818111156125ac576125ab612552565b5b92915050565b7f4e487b71000000000000000000000000000000000000000000000000000000005f52603160045260245ffd5b7f496e73756666696369656e74207374616b652062616c616e63650000000000005f82015250565b5f612613601a83612031565b915061261e826125df565b602082019050919050565b5f6020820190508181035f83015261264081612607565b9050919050565b5f61265182612140565b915061265c83612140565b925082820190508082111561267457612673612552565b5b92915050565b7f436f6f6c646f776e20706572696f64206e6f74206d657420666f7220756e73745f8201527f616b696e67000000000000000000000000000000000000000000000000000000602082015250565b5f6126d4602583612031565b91506126df8261267a565b604082019050919050565b5f6020820190508181035f830152612701816126c8565b9050919050565b5f61271282612140565b915061271d83612140565b925082820261272b81612140565b9150828204841483151761274257612741612552565b5b5092915050565b7f4e487b71000000000000000000000000000000000000000000000000000000005f52601260045260245ffd5b5f61278082612140565b915061278b83612140565b92508261279b5761279a612749565b5b828204905092915050565b7f416c6c20746f6b656e73206d696e6564000000000000000000000000000000005f82015250565b5f6127da601083612031565b91506127e5826127a6565b602082019050919050565b5f6020820190508181035f830152612807816127ce565b9050919050565b5f8160601b9050919050565b5f6128248261280e565b9050919050565b5f6128358261281a565b9050919050565b61284d612848826120da565b61282b565b82525050565b5f819050919050565b61286d61286882612140565b612853565b82525050565b5f61287e828561283c565b60148201915061288e828461285c565b6020820191508190509392505050565b7f4d696e696e6720646966666963756c7479206e6f74206d6574000000000000005f82015250565b5f6128d2601983612031565b91506128dd8261289e565b602082019050919050565b5f6020820190508181035f8301526128ff816128c6565b9050919050565b7f416c726561647920616e2061646d696e000000000000000000000000000000005f82015250565b5f61293a601083612031565b915061294582612906565b602082019050919050565b5f6020820190508181035f8301526129678161292e565b9050919050565b7f43616e6e6f74207374616b65203020746f6b656e7300000000000000000000005f82015250565b5f6129a2601583612031565b91506129ad8261296e565b602082019050919050565b5f6020820190508181035f8301526129cf81612996565b9050919050565b7f436f6f6c646f776e20706572696f64206e6f74206d657420666f72207374616b5f8201527f696e670000000000000000000000000000000000000000000000000000000000602082015250565b5f612a30602383612031565b9150612a3b826129d6565b604082019050919050565b5f6020820190508181035f830152612a5d81612a24565b9050919050565b7f496e76616c6964206e6577206f776e65720000000000000000000000000000005f82015250565b5f612a98601183612031565b9150612aa382612a64565b602082019050919050565b5f6020820190508181035f830152612ac581612a8c565b9050919050565b7f4e6f207265776172647320746f207769746864726177000000000000000000005f82015250565b5f612b00601683612031565b9150612b0b82612acc565b602082019050919050565b5f6020820190508181035f830152612b2d81612af4565b9050919050565b5f606082019050612b475f830186612237565b612b546020830185612149565b612b616040830184612149565b949350505050565b7f4d696e74696e672065786365656473206d617820737570706c790000000000005f82015250565b5f612b9d601a83612031565b9150612ba882612b69565b602082019050919050565b5f6020820190508181035f830152612bca81612b91565b905091905056fea2646970667358221220c45a95eeaa528f9b74e29ce055f60c1132fb7d1de34ee80423786713a28ead6064736f6c634300081a0033",
					"opcodes": "PUSH1 0x80 PUSH1 0x40 MSTORE PUSH5 0x2540BE400 PUSH1 0x7 SSTORE PUSH1 0x64 PUSH1 0xD SSTORE CALLVALUE DUP1 ISZERO PUSH2 0x1D JUMPI PUSH0 DUP1 REVERT JUMPDEST POP PUSH1 0x40 MLOAD PUSH2 0x37C1 CODESIZE SUB DUP1 PUSH2 0x37C1 DUP4 CODECOPY DUP2 DUP2 ADD PUSH1 0x40 MSTORE DUP2 ADD SWAP1 PUSH2 0x3F SWAP2 SWAP1 PUSH2 0x67E JUMP JUMPDEST DUP1 PUSH1 0x40 MLOAD DUP1 PUSH1 0x40 ADD PUSH1 0x40 MSTORE DUP1 PUSH1 0xE DUP2 MSTORE PUSH1 0x20 ADD PUSH32 0x526567616C69756D20546F6B656E000000000000000000000000000000000000 DUP2 MSTORE POP PUSH1 0x40 MLOAD DUP1 PUSH1 0x40 ADD PUSH1 0x40 MSTORE DUP1 PUSH1 0x4 DUP2 MSTORE PUSH1 0x20 ADD PUSH32 0x52474C4D00000000000000000000000000000000000000000000000000000000 DUP2 MSTORE POP DUP2 PUSH1 0x3 SWAP1 DUP2 PUSH2 0xBB SWAP2 SWAP1 PUSH2 0x8E3 JUMP JUMPDEST POP DUP1 PUSH1 0x4 SWAP1 DUP2 PUSH2 0xCB SWAP2 SWAP1 PUSH2 0x8E3 JUMP JUMPDEST POP POP POP PUSH0 PUSH20 0xFFFFFFFFFFFFFFFFFFFFFFFFFFFFFFFFFFFFFFFF AND DUP2 PUSH20 0xFFFFFFFFFFFFFFFFFFFFFFFFFFFFFFFFFFFFFFFF AND SUB PUSH2 0x13E JUMPI PUSH0 PUSH1 0x40 MLOAD PUSH32 0x1E4FBDF700000000000000000000000000000000000000000000000000000000 DUP2 MSTORE PUSH1 0x4 ADD PUSH2 0x135 SWAP2 SWAP1 PUSH2 0x9C1 JUMP JUMPDEST PUSH1 0x40 MLOAD DUP1 SWAP2 SUB SWAP1 REVERT JUMPDEST PUSH2 0x14D DUP2 PUSH2 0x23C PUSH1 0x20 SHL PUSH1 0x20 SHR JUMP JUMPDEST POP PUSH2 0x181 DUP2 PUSH1 0x64 PUSH1 0x14 PUSH11 0x295BE96E64066972000000 PUSH2 0x16C SWAP2 SWAP1 PUSH2 0xA07 JUMP JUMPDEST PUSH2 0x176 SWAP2 SWAP1 PUSH2 0xA75 JUMP JUMPDEST PUSH2 0x2FF PUSH1 0x20 SHL PUSH1 0x20 SHR JUMP JUMPDEST PUSH1 0xE DUP2 SWAP1 DUP1 PUSH1 0x1 DUP2 SLOAD ADD DUP1 DUP3 SSTORE DUP1 SWAP2 POP POP PUSH1 0x1 SWAP1 SUB SWAP1 PUSH0 MSTORE PUSH1 0x20 PUSH0 KECCAK256 ADD PUSH0 SWAP1 SWAP2 SWAP1 SWAP2 SWAP1 SWAP2 PUSH2 0x100 EXP DUP2 SLOAD DUP2 PUSH20 0xFFFFFFFFFFFFFFFFFFFFFFFFFFFFFFFFFFFFFFFF MUL NOT AND SWAP1 DUP4 PUSH20 0xFFFFFFFFFFFFFFFFFFFFFFFFFFFFFFFFFFFFFFFF AND MUL OR SWAP1 SSTORE POP PUSH1 0x1 PUSH1 0xF PUSH0 DUP4 PUSH20 0xFFFFFFFFFFFFFFFFFFFFFFFFFFFFFFFFFFFFFFFF AND PUSH20 0xFFFFFFFFFFFFFFFFFFFFFFFFFFFFFFFFFFFFFFFF AND DUP2 MSTORE PUSH1 0x20 ADD SWAP1 DUP2 MSTORE PUSH1 0x20 ADD PUSH0 KECCAK256 PUSH0 PUSH2 0x100 EXP DUP2 SLOAD DUP2 PUSH1 0xFF MUL NOT AND SWAP1 DUP4 ISZERO ISZERO MUL OR SWAP1 SSTORE POP POP PUSH2 0xBAD JUMP JUMPDEST PUSH0 PUSH1 0x5 PUSH0 SWAP1 SLOAD SWAP1 PUSH2 0x100 EXP SWAP1 DIV PUSH20 0xFFFFFFFFFFFFFFFFFFFFFFFFFFFFFFFFFFFFFFFF AND SWAP1 POP DUP2 PUSH1 0x5 PUSH0 PUSH2 0x100 EXP DUP2 SLOAD DUP2 PUSH20 0xFFFFFFFFFFFFFFFFFFFFFFFFFFFFFFFFFFFFFFFF MUL NOT AND SWAP1 DUP4 PUSH20 0xFFFFFFFFFFFFFFFFFFFFFFFFFFFFFFFFFFFFFFFF AND MUL OR SWAP1 SSTORE POP DUP2 PUSH20 0xFFFFFFFFFFFFFFFFFFFFFFFFFFFFFFFFFFFFFFFF AND DUP2 PUSH20 0xFFFFFFFFFFFFFFFFFFFFFFFFFFFFFFFFFFFFFFFF AND PUSH32 0x8BE0079C531659141344CD1FD0A4F28419497F9722A3DAAFE3B4186F6B6457E0 PUSH1 0x40 MLOAD PUSH1 0x40 MLOAD DUP1 SWAP2 SUB SWAP1 LOG3 POP POP JUMP JUMPDEST PUSH11 0x295BE96E64066972000000 DUP2 PUSH2 0x31A PUSH2 0x379 PUSH1 0x20 SHL PUSH1 0x20 SHR JUMP JUMPDEST PUSH2 0x324 SWAP2 SWAP1 PUSH2 0xAA5 JUMP JUMPDEST GT ISZERO PUSH2 0x365 JUMPI PUSH1 0x40 MLOAD PUSH32 0x8C379A000000000000000000000000000000000000000000000000000000000 DUP2 MSTORE PUSH1 0x4 ADD PUSH2 0x35C SWAP1 PUSH2 0xB32 JUMP JUMPDEST PUSH1 0x40 MLOAD DUP1 SWAP2 SUB SWAP1 REVERT JUMPDEST PUSH2 0x375 DUP3 DUP3 PUSH2 0x382 PUSH1 0x20 SHL PUSH1 0x20 SHR JUMP JUMPDEST POP POP JUMP JUMPDEST PUSH0 PUSH1 0x2 SLOAD SWAP1 POP SWAP1 JUMP JUMPDEST PUSH0 PUSH20 0xFFFFFFFFFFFFFFFFFFFFFFFFFFFFFFFFFFFFFFFF AND DUP3 PUSH20 0xFFFFFFFFFFFFFFFFFFFFFFFFFFFFFFFFFFFFFFFF AND SUB PUSH2 0x3F2 JUMPI PUSH0 PUSH1 0x40 MLOAD PUSH32 0xEC442F0500000000000000000000000000000000000000000000000000000000 DUP2 MSTORE PUSH1 0x4 ADD PUSH2 0x3E9 SWAP2 SWAP1 PUSH2 0x9C1 JUMP JUMPDEST PUSH1 0x40 MLOAD DUP1 SWAP2 SUB SWAP1 REVERT JUMPDEST PUSH2 0x403 PUSH0 DUP4 DUP4 PUSH2 0x407 PUSH1 0x20 SHL PUSH1 0x20 SHR JUMP JUMPDEST POP POP JUMP JUMPDEST PUSH0 PUSH20 0xFFFFFFFFFFFFFFFFFFFFFFFFFFFFFFFFFFFFFFFF AND DUP4 PUSH20 0xFFFFFFFFFFFFFFFFFFFFFFFFFFFFFFFFFFFFFFFF AND SUB PUSH2 0x457 JUMPI DUP1 PUSH1 0x2 PUSH0 DUP3 DUP3 SLOAD PUSH2 0x44B SWAP2 SWAP1 PUSH2 0xAA5 JUMP JUMPDEST SWAP3 POP POP DUP2 SWAP1 SSTORE POP PUSH2 0x525 JUMP JUMPDEST PUSH0 DUP1 PUSH0 DUP6 PUSH20 0xFFFFFFFFFFFFFFFFFFFFFFFFFFFFFFFFFFFFFFFF AND PUSH20 0xFFFFFFFFFFFFFFFFFFFFFFFFFFFFFFFFFFFFFFFF AND DUP2 MSTORE PUSH1 0x20 ADD SWAP1 DUP2 MSTORE PUSH1 0x20 ADD PUSH0 KECCAK256 SLOAD SWAP1 POP DUP2 DUP2 LT ISZERO PUSH2 0x4E0 JUMPI DUP4 DUP2 DUP4 PUSH1 0x40 MLOAD PUSH32 0xE450D38C00000000000000000000000000000000000000000000000000000000 DUP2 MSTORE PUSH1 0x4 ADD PUSH2 0x4D7 SWAP4 SWAP3 SWAP2 SWAP1 PUSH2 0xB5F JUMP JUMPDEST PUSH1 0x40 MLOAD DUP1 SWAP2 SUB SWAP1 REVERT JUMPDEST DUP2 DUP2 SUB PUSH0 DUP1 DUP7 PUSH20 0xFFFFFFFFFFFFFFFFFFFFFFFFFFFFFFFFFFFFFFFF AND PUSH20 0xFFFFFFFFFFFFFFFFFFFFFFFFFFFFFFFFFFFFFFFF AND DUP2 MSTORE PUSH1 0x20 ADD SWAP1 DUP2 MSTORE PUSH1 0x20 ADD PUSH0 KECCAK256 DUP2 SWAP1 SSTORE POP POP JUMPDEST PUSH0 PUSH20 0xFFFFFFFFFFFFFFFFFFFFFFFFFFFFFFFFFFFFFFFF AND DUP3 PUSH20 0xFFFFFFFFFFFFFFFFFFFFFFFFFFFFFFFFFFFFFFFF AND SUB PUSH2 0x56C JUMPI DUP1 PUSH1 0x2 PUSH0 DUP3 DUP3 SLOAD SUB SWAP3 POP POP DUP2 SWAP1 SSTORE POP PUSH2 0x5B6 JUMP JUMPDEST DUP1 PUSH0 DUP1 DUP5 PUSH20 0xFFFFFFFFFFFFFFFFFFFFFFFFFFFFFFFFFFFFFFFF AND PUSH20 0xFFFFFFFFFFFFFFFFFFFFFFFFFFFFFFFFFFFFFFFF AND DUP2 MSTORE PUSH1 0x20 ADD SWAP1 DUP2 MSTORE PUSH1 0x20 ADD PUSH0 KECCAK256 PUSH0 DUP3 DUP3 SLOAD ADD SWAP3 POP POP DUP2 SWAP1 SSTORE POP JUMPDEST DUP2 PUSH20 0xFFFFFFFFFFFFFFFFFFFFFFFFFFFFFFFFFFFFFFFF AND DUP4 PUSH20 0xFFFFFFFFFFFFFFFFFFFFFFFFFFFFFFFFFFFFFFFF AND PUSH32 0xDDF252AD1BE2C89B69C2B068FC378DAA952BA7F163C4A11628F55A4DF523B3EF DUP4 PUSH1 0x40 MLOAD PUSH2 0x613 SWAP2 SWAP1 PUSH2 0xB94 JUMP JUMPDEST PUSH1 0x40 MLOAD DUP1 SWAP2 SUB SWAP1 LOG3 POP POP POP JUMP JUMPDEST PUSH0 DUP1 REVERT JUMPDEST PUSH0 PUSH20 0xFFFFFFFFFFFFFFFFFFFFFFFFFFFFFFFFFFFFFFFF DUP3 AND SWAP1 POP SWAP2 SWAP1 POP JUMP JUMPDEST PUSH0 PUSH2 0x64D DUP3 PUSH2 0x624 JUMP JUMPDEST SWAP1 POP SWAP2 SWAP1 POP JUMP JUMPDEST PUSH2 0x65D DUP2 PUSH2 0x643 JUMP JUMPDEST DUP2 EQ PUSH2 0x667 JUMPI PUSH0 DUP1 REVERT JUMPDEST POP JUMP JUMPDEST PUSH0 DUP2 MLOAD SWAP1 POP PUSH2 0x678 DUP2 PUSH2 0x654 JUMP JUMPDEST SWAP3 SWAP2 POP POP JUMP JUMPDEST PUSH0 PUSH1 0x20 DUP3 DUP5 SUB SLT ISZERO PUSH2 0x693 JUMPI PUSH2 0x692 PUSH2 0x620 JUMP JUMPDEST JUMPDEST PUSH0 PUSH2 0x6A0 DUP5 DUP3 DUP6 ADD PUSH2 0x66A JUMP JUMPDEST SWAP2 POP POP SWAP3 SWAP2 POP POP JUMP JUMPDEST PUSH0 DUP2 MLOAD SWAP1 POP SWAP2 SWAP1 POP JUMP JUMPDEST PUSH32 0x4E487B7100000000000000000000000000000000000000000000000000000000 PUSH0 MSTORE PUSH1 0x41 PUSH1 0x4 MSTORE PUSH1 0x24 PUSH0 REVERT JUMPDEST PUSH32 0x4E487B7100000000000000000000000000000000000000000000000000000000 PUSH0 MSTORE PUSH1 0x22 PUSH1 0x4 MSTORE PUSH1 0x24 PUSH0 REVERT JUMPDEST PUSH0 PUSH1 0x2 DUP3 DIV SWAP1 POP PUSH1 0x1 DUP3 AND DUP1 PUSH2 0x724 JUMPI PUSH1 0x7F DUP3 AND SWAP2 POP JUMPDEST PUSH1 0x20 DUP3 LT DUP2 SUB PUSH2 0x737 JUMPI PUSH2 0x736 PUSH2 0x6E0 JUMP JUMPDEST JUMPDEST POP SWAP2 SWAP1 POP JUMP JUMPDEST PUSH0 DUP2 SWAP1 POP DUP2 PUSH0 MSTORE PUSH1 0x20 PUSH0 KECCAK256 SWAP1 POP SWAP2 SWAP1 POP JUMP JUMPDEST PUSH0 PUSH1 0x20 PUSH1 0x1F DUP4 ADD DIV SWAP1 POP SWAP2 SWAP1 POP JUMP JUMPDEST PUSH0 DUP3 DUP3 SHL SWAP1 POP SWAP3 SWAP2 POP POP JUMP JUMPDEST PUSH0 PUSH1 0x8 DUP4 MUL PUSH2 0x799 PUSH32 0xFFFFFFFFFFFFFFFFFFFFFFFFFFFFFFFFFFFFFFFFFFFFFFFFFFFFFFFFFFFFFFFF DUP3 PUSH2 0x75E JUMP JUMPDEST PUSH2 0x7A3 DUP7 DUP4 PUSH2 0x75E JUMP JUMPDEST SWAP6 POP DUP1 NOT DUP5 AND SWAP4 POP DUP1 DUP7 AND DUP5 OR SWAP3 POP POP POP SWAP4 SWAP3 POP POP POP JUMP JUMPDEST PUSH0 DUP2 SWAP1 POP SWAP2 SWAP1 POP JUMP JUMPDEST PUSH0 DUP2 SWAP1 POP SWAP2 SWAP1 POP JUMP JUMPDEST PUSH0 PUSH2 0x7E7 PUSH2 0x7E2 PUSH2 0x7DD DUP5 PUSH2 0x7BB JUMP JUMPDEST PUSH2 0x7C4 JUMP JUMPDEST PUSH2 0x7BB JUMP JUMPDEST SWAP1 POP SWAP2 SWAP1 POP JUMP JUMPDEST PUSH0 DUP2 SWAP1 POP SWAP2 SWAP1 POP JUMP JUMPDEST PUSH2 0x800 DUP4 PUSH2 0x7CD JUMP JUMPDEST PUSH2 0x814 PUSH2 0x80C DUP3 PUSH2 0x7EE JUMP JUMPDEST DUP5 DUP5 SLOAD PUSH2 0x76A JUMP JUMPDEST DUP3 SSTORE POP POP POP POP JUMP JUMPDEST PUSH0 SWAP1 JUMP JUMPDEST PUSH2 0x828 PUSH2 0x81C JUMP JUMPDEST PUSH2 0x833 DUP2 DUP5 DUP5 PUSH2 0x7F7 JUMP JUMPDEST POP POP POP JUMP JUMPDEST JUMPDEST DUP2 DUP2 LT ISZERO PUSH2 0x856 JUMPI PUSH2 0x84B PUSH0 DUP3 PUSH2 0x820 JUMP JUMPDEST PUSH1 0x1 DUP2 ADD SWAP1 POP PUSH2 0x839 JUMP JUMPDEST POP POP JUMP JUMPDEST PUSH1 0x1F DUP3 GT ISZERO PUSH2 0x89B JUMPI PUSH2 0x86C DUP2 PUSH2 0x73D JUMP JUMPDEST PUSH2 0x875 DUP5 PUSH2 0x74F JUMP JUMPDEST DUP2 ADD PUSH1 0x20 DUP6 LT ISZERO PUSH2 0x884 JUMPI DUP2 SWAP1 POP JUMPDEST PUSH2 0x898 PUSH2 0x890 DUP6 PUSH2 0x74F JUMP JUMPDEST DUP4 ADD DUP3 PUSH2 0x838 JUMP JUMPDEST POP POP JUMPDEST POP POP POP JUMP JUMPDEST PUSH0 DUP3 DUP3 SHR SWAP1 POP SWAP3 SWAP2 POP POP JUMP JUMPDEST PUSH0 PUSH2 0x8BB PUSH0 NOT DUP5 PUSH1 0x8 MUL PUSH2 0x8A0 JUMP JUMPDEST NOT DUP1 DUP4 AND SWAP2 POP POP SWAP3 SWAP2 POP POP JUMP JUMPDEST PUSH0 PUSH2 0x8D3 DUP4 DUP4 PUSH2 0x8AC JUMP JUMPDEST SWAP2 POP DUP3 PUSH1 0x2 MUL DUP3 OR SWAP1 POP SWAP3 SWAP2 POP POP JUMP JUMPDEST PUSH2 0x8EC DUP3 PUSH2 0x6A9 JUMP JUMPDEST PUSH8 0xFFFFFFFFFFFFFFFF DUP2 GT ISZERO PUSH2 0x905 JUMPI PUSH2 0x904 PUSH2 0x6B3 JUMP JUMPDEST JUMPDEST PUSH2 0x90F DUP3 SLOAD PUSH2 0x70D JUMP JUMPDEST PUSH2 0x91A DUP3 DUP3 DUP6 PUSH2 0x85A JUMP JUMPDEST PUSH0 PUSH1 0x20 SWAP1 POP PUSH1 0x1F DUP4 GT PUSH1 0x1 DUP2 EQ PUSH2 0x94B JUMPI PUSH0 DUP5 ISZERO PUSH2 0x939 JUMPI DUP3 DUP8 ADD MLOAD SWAP1 POP JUMPDEST PUSH2 0x943 DUP6 DUP3 PUSH2 0x8C8 JUMP JUMPDEST DUP7 SSTORE POP PUSH2 0x9AA JUMP JUMPDEST PUSH1 0x1F NOT DUP5 AND PUSH2 0x959 DUP7 PUSH2 0x73D JUMP JUMPDEST PUSH0 JUMPDEST DUP3 DUP2 LT ISZERO PUSH2 0x980 JUMPI DUP5 DUP10 ADD MLOAD DUP3 SSTORE PUSH1 0x1 DUP3 ADD SWAP2 POP PUSH1 0x20 DUP6 ADD SWAP5 POP PUSH1 0x20 DUP2 ADD SWAP1 POP PUSH2 0x95B JUMP JUMPDEST DUP7 DUP4 LT ISZERO PUSH2 0x99D JUMPI DUP5 DUP10 ADD MLOAD PUSH2 0x999 PUSH1 0x1F DUP10 AND DUP3 PUSH2 0x8AC JUMP JUMPDEST DUP4 SSTORE POP JUMPDEST PUSH1 0x1 PUSH1 0x2 DUP9 MUL ADD DUP9 SSTORE POP POP POP JUMPDEST POP POP POP POP POP POP JUMP JUMPDEST PUSH2 0x9BB DUP2 PUSH2 0x643 JUMP JUMPDEST DUP3 MSTORE POP POP JUMP JUMPDEST PUSH0 PUSH1 0x20 DUP3 ADD SWAP1 POP PUSH2 0x9D4 PUSH0 DUP4 ADD DUP5 PUSH2 0x9B2 JUMP JUMPDEST SWAP3 SWAP2 POP POP JUMP JUMPDEST PUSH32 0x4E487B7100000000000000000000000000000000000000000000000000000000 PUSH0 MSTORE PUSH1 0x11 PUSH1 0x4 MSTORE PUSH1 0x24 PUSH0 REVERT JUMPDEST PUSH0 PUSH2 0xA11 DUP3 PUSH2 0x7BB JUMP JUMPDEST SWAP2 POP PUSH2 0xA1C DUP4 PUSH2 0x7BB JUMP JUMPDEST SWAP3 POP DUP3 DUP3 MUL PUSH2 0xA2A DUP2 PUSH2 0x7BB JUMP JUMPDEST SWAP2 POP DUP3 DUP3 DIV DUP5 EQ DUP4 ISZERO OR PUSH2 0xA41 JUMPI PUSH2 0xA40 PUSH2 0x9DA JUMP JUMPDEST JUMPDEST POP SWAP3 SWAP2 POP POP JUMP JUMPDEST PUSH32 0x4E487B7100000000000000000000000000000000000000000000000000000000 PUSH0 MSTORE PUSH1 0x12 PUSH1 0x4 MSTORE PUSH1 0x24 PUSH0 REVERT JUMPDEST PUSH0 PUSH2 0xA7F DUP3 PUSH2 0x7BB JUMP JUMPDEST SWAP2 POP PUSH2 0xA8A DUP4 PUSH2 0x7BB JUMP JUMPDEST SWAP3 POP DUP3 PUSH2 0xA9A JUMPI PUSH2 0xA99 PUSH2 0xA48 JUMP JUMPDEST JUMPDEST DUP3 DUP3 DIV SWAP1 POP SWAP3 SWAP2 POP POP JUMP JUMPDEST PUSH0 PUSH2 0xAAF DUP3 PUSH2 0x7BB JUMP JUMPDEST SWAP2 POP PUSH2 0xABA DUP4 PUSH2 0x7BB JUMP JUMPDEST SWAP3 POP DUP3 DUP3 ADD SWAP1 POP DUP1 DUP3 GT ISZERO PUSH2 0xAD2 JUMPI PUSH2 0xAD1 PUSH2 0x9DA JUMP JUMPDEST JUMPDEST SWAP3 SWAP2 POP POP JUMP JUMPDEST PUSH0 DUP3 DUP3 MSTORE PUSH1 0x20 DUP3 ADD SWAP1 POP SWAP3 SWAP2 POP POP JUMP JUMPDEST PUSH32 0x4D696E74696E672065786365656473206D617820737570706C79000000000000 PUSH0 DUP3 ADD MSTORE POP JUMP JUMPDEST PUSH0 PUSH2 0xB1C PUSH1 0x1A DUP4 PUSH2 0xAD8 JUMP JUMPDEST SWAP2 POP PUSH2 0xB27 DUP3 PUSH2 0xAE8 JUMP JUMPDEST PUSH1 0x20 DUP3 ADD SWAP1 POP SWAP2 SWAP1 POP JUMP JUMPDEST PUSH0 PUSH1 0x20 DUP3 ADD SWAP1 POP DUP2 DUP2 SUB PUSH0 DUP4 ADD MSTORE PUSH2 0xB49 DUP2 PUSH2 0xB10 JUMP JUMPDEST SWAP1 POP SWAP2 SWAP1 POP JUMP JUMPDEST PUSH2 0xB59 DUP2 PUSH2 0x7BB JUMP JUMPDEST DUP3 MSTORE POP POP JUMP JUMPDEST PUSH0 PUSH1 0x60 DUP3 ADD SWAP1 POP PUSH2 0xB72 PUSH0 DUP4 ADD DUP7 PUSH2 0x9B2 JUMP JUMPDEST PUSH2 0xB7F PUSH1 0x20 DUP4 ADD DUP6 PUSH2 0xB50 JUMP JUMPDEST PUSH2 0xB8C PUSH1 0x40 DUP4 ADD DUP5 PUSH2 0xB50 JUMP JUMPDEST SWAP5 SWAP4 POP POP POP POP JUMP JUMPDEST PUSH0 PUSH1 0x20 DUP3 ADD SWAP1 POP PUSH2 0xBA7 PUSH0 DUP4 ADD DUP5 PUSH2 0xB50 JUMP JUMPDEST SWAP3 SWAP2 POP POP JUMP JUMPDEST PUSH2 0x2C07 DUP1 PUSH2 0xBBA PUSH0 CODECOPY PUSH0 RETURN INVALID PUSH1 0x80 PUSH1 0x40 MSTORE CALLVALUE DUP1 ISZERO PUSH2 0xF JUMPI PUSH0 DUP1 REVERT JUMPDEST POP PUSH1 0x4 CALLDATASIZE LT PUSH2 0x225 JUMPI PUSH0 CALLDATALOAD PUSH1 0xE0 SHR DUP1 PUSH4 0x602512E1 GT PUSH2 0x12E JUMPI DUP1 PUSH4 0x8DA5CB5B GT PUSH2 0xB6 JUMPI DUP1 PUSH4 0xA9059CBB GT PUSH2 0x7A JUMPI DUP1 PUSH4 0xA9059CBB EQ PUSH2 0x663 JUMPI DUP1 PUSH4 0xC7B8981C EQ PUSH2 0x693 JUMPI DUP1 PUSH4 0xD82E3962 EQ PUSH2 0x69D JUMPI DUP1 PUSH4 0xDD62ED3E EQ PUSH2 0x6CD JUMPI DUP1 PUSH4 0xF2FDE38B EQ PUSH2 0x6FD JUMPI PUSH2 0x225 JUMP JUMPDEST DUP1 PUSH4 0x8DA5CB5B EQ PUSH2 0x5D3 JUMPI DUP1 PUSH4 0x95D89B41 EQ PUSH2 0x5F1 JUMPI DUP1 PUSH4 0x9E447FC6 EQ PUSH2 0x60F JUMPI DUP1 PUSH4 0xA694FC3A EQ PUSH2 0x62B JUMPI DUP1 PUSH4 0xA6F9DAE1 EQ PUSH2 0x647 JUMPI PUSH2 0x225 JUMP JUMPDEST DUP1 PUSH4 0x715018A6 GT PUSH2 0xFD JUMPI DUP1 PUSH4 0x715018A6 EQ PUSH2 0x541 JUMPI DUP1 PUSH4 0x79CC6790 EQ PUSH2 0x54B JUMPI DUP1 PUSH4 0x7B0A47EE EQ PUSH2 0x567 JUMPI DUP1 PUSH4 0x7BB1CA19 EQ PUSH2 0x585 JUMPI DUP1 PUSH4 0x817B1CD2 EQ PUSH2 0x5B5 JUMPI PUSH2 0x225 JUMP JUMPDEST DUP1 PUSH4 0x602512E1 EQ PUSH2 0x4BB JUMPI DUP1 PUSH4 0x6E99D52F EQ PUSH2 0x4D7 JUMPI DUP1 PUSH4 0x70480275 EQ PUSH2 0x4F5 JUMPI DUP1 PUSH4 0x70A08231 EQ PUSH2 0x511 JUMPI PUSH2 0x225 JUMP JUMPDEST DUP1 PUSH4 0x24D7806C GT PUSH2 0x1B1 JUMPI DUP1 PUSH4 0x32CB6B0C GT PUSH2 0x180 JUMPI DUP1 PUSH4 0x32CB6B0C EQ PUSH2 0x417 JUMPI DUP1 PUSH4 0x331E03A8 EQ PUSH2 0x435 JUMPI DUP1 PUSH4 0x42966C68 EQ PUSH2 0x465 JUMPI DUP1 PUSH4 0x4D474898 EQ PUSH2 0x481 JUMPI DUP1 PUSH4 0x5556DB65 EQ PUSH2 0x49D JUMPI PUSH2 0x225 JUMP JUMPDEST DUP1 PUSH4 0x24D7806C EQ PUSH2 0x38F JUMPI DUP1 PUSH4 0x2E17DE78 EQ PUSH2 0x3BF JUMPI DUP1 PUSH4 0x313CE567 EQ PUSH2 0x3DB JUMPI DUP1 PUSH4 0x31AE450B EQ PUSH2 0x3F9 JUMPI PUSH2 0x225 JUMP JUMPDEST DUP1 PUSH4 0x16934FC4 GT PUSH2 0x1F8 JUMPI DUP1 PUSH4 0x16934FC4 EQ PUSH2 0x2D7 JUMPI DUP1 PUSH4 0x1785F53C EQ PUSH2 0x307 JUMPI DUP1 PUSH4 0x18160DDD EQ PUSH2 0x323 JUMPI DUP1 PUSH4 0x19CAE462 EQ PUSH2 0x341 JUMPI DUP1 PUSH4 0x23B872DD EQ PUSH2 0x35F JUMPI PUSH2 0x225 JUMP JUMPDEST DUP1 PUSH4 0x6FDDE03 EQ PUSH2 0x229 JUMPI DUP1 PUSH4 0x700037D EQ PUSH2 0x247 JUMPI DUP1 PUSH4 0x95EA7B3 EQ PUSH2 0x277 JUMPI DUP1 PUSH4 0x14BFD6D0 EQ PUSH2 0x2A7 JUMPI JUMPDEST PUSH0 DUP1 REVERT JUMPDEST PUSH2 0x231 PUSH2 0x719 JUMP JUMPDEST PUSH1 0x40 MLOAD PUSH2 0x23E SWAP2 SWAP1 PUSH2 0x2097 JUMP JUMPDEST PUSH1 0x40 MLOAD DUP1 SWAP2 SUB SWAP1 RETURN JUMPDEST PUSH2 0x261 PUSH1 0x4 DUP1 CALLDATASIZE SUB DUP2 ADD SWAP1 PUSH2 0x25C SWAP2 SWAP1 PUSH2 0x2115 JUMP JUMPDEST PUSH2 0x7A9 JUMP JUMPDEST PUSH1 0x40 MLOAD PUSH2 0x26E SWAP2 SWAP1 PUSH2 0x2158 JUMP JUMPDEST PUSH1 0x40 MLOAD DUP1 SWAP2 SUB SWAP1 RETURN JUMPDEST PUSH2 0x291 PUSH1 0x4 DUP1 CALLDATASIZE SUB DUP2 ADD SWAP1 PUSH2 0x28C SWAP2 SWAP1 PUSH2 0x219B JUMP JUMPDEST PUSH2 0x7BE JUMP JUMPDEST PUSH1 0x40 MLOAD PUSH2 0x29E SWAP2 SWAP1 PUSH2 0x21F3 JUMP JUMPDEST PUSH1 0x40 MLOAD DUP1 SWAP2 SUB SWAP1 RETURN JUMPDEST PUSH2 0x2C1 PUSH1 0x4 DUP1 CALLDATASIZE SUB DUP2 ADD SWAP1 PUSH2 0x2BC SWAP2 SWAP1 PUSH2 0x220C JUMP JUMPDEST PUSH2 0x7E0 JUMP JUMPDEST PUSH1 0x40 MLOAD PUSH2 0x2CE SWAP2 SWAP1 PUSH2 0x2246 JUMP JUMPDEST PUSH1 0x40 MLOAD DUP1 SWAP2 SUB SWAP1 RETURN JUMPDEST PUSH2 0x2F1 PUSH1 0x4 DUP1 CALLDATASIZE SUB DUP2 ADD SWAP1 PUSH2 0x2EC SWAP2 SWAP1 PUSH2 0x2115 JUMP JUMPDEST PUSH2 0x81B JUMP JUMPDEST PUSH1 0x40 MLOAD PUSH2 0x2FE SWAP2 SWAP1 PUSH2 0x2158 JUMP JUMPDEST PUSH1 0x40 MLOAD DUP1 SWAP2 SUB SWAP1 RETURN JUMPDEST PUSH2 0x321 PUSH1 0x4 DUP1 CALLDATASIZE SUB DUP2 ADD SWAP1 PUSH2 0x31C SWAP2 SWAP1 PUSH2 0x2115 JUMP JUMPDEST PUSH2 0x830 JUMP JUMPDEST STOP JUMPDEST PUSH2 0x32B PUSH2 0xADA JUMP JUMPDEST PUSH1 0x40 MLOAD PUSH2 0x338 SWAP2 SWAP1 PUSH2 0x2158 JUMP JUMPDEST PUSH1 0x40 MLOAD DUP1 SWAP2 SUB SWAP1 RETURN JUMPDEST PUSH2 0x349 PUSH2 0xAE3 JUMP JUMPDEST PUSH1 0x40 MLOAD PUSH2 0x356 SWAP2 SWAP1 PUSH2 0x2158 JUMP JUMPDEST PUSH1 0x40 MLOAD DUP1 SWAP2 SUB SWAP1 RETURN JUMPDEST PUSH2 0x379 PUSH1 0x4 DUP1 CALLDATASIZE SUB DUP2 ADD SWAP1 PUSH2 0x374 SWAP2 SWAP1 PUSH2 0x225F JUMP JUMPDEST PUSH2 0xAE9 JUMP JUMPDEST PUSH1 0x40 MLOAD PUSH2 0x386 SWAP2 SWAP1 PUSH2 0x21F3 JUMP JUMPDEST PUSH1 0x40 MLOAD DUP1 SWAP2 SUB SWAP1 RETURN JUMPDEST PUSH2 0x3A9 PUSH1 0x4 DUP1 CALLDATASIZE SUB DUP2 ADD SWAP1 PUSH2 0x3A4 SWAP2 SWAP1 PUSH2 0x2115 JUMP JUMPDEST PUSH2 0xB17 JUMP JUMPDEST PUSH1 0x40 MLOAD PUSH2 0x3B6 SWAP2 SWAP1 PUSH2 0x21F3 JUMP JUMPDEST PUSH1 0x40 MLOAD DUP1 SWAP2 SUB SWAP1 RETURN JUMPDEST PUSH2 0x3D9 PUSH1 0x4 DUP1 CALLDATASIZE SUB DUP2 ADD SWAP1 PUSH2 0x3D4 SWAP2 SWAP1 PUSH2 0x220C JUMP JUMPDEST PUSH2 0xB34 JUMP JUMPDEST STOP JUMPDEST PUSH2 0x3E3 PUSH2 0xCFC JUMP JUMPDEST PUSH1 0x40 MLOAD PUSH2 0x3F0 SWAP2 SWAP1 PUSH2 0x22CA JUMP JUMPDEST PUSH1 0x40 MLOAD DUP1 SWAP2 SUB SWAP1 RETURN JUMPDEST PUSH2 0x401 PUSH2 0xD04 JUMP JUMPDEST PUSH1 0x40 MLOAD PUSH2 0x40E SWAP2 SWAP1 PUSH2 0x239A JUMP JUMPDEST PUSH1 0x40 MLOAD DUP1 SWAP2 SUB SWAP1 RETURN JUMPDEST PUSH2 0x41F PUSH2 0xD8F JUMP JUMPDEST PUSH1 0x40 MLOAD PUSH2 0x42C SWAP2 SWAP1 PUSH2 0x2158 JUMP JUMPDEST PUSH1 0x40 MLOAD DUP1 SWAP2 SUB SWAP1 RETURN JUMPDEST PUSH2 0x44F PUSH1 0x4 DUP1 CALLDATASIZE SUB DUP2 ADD SWAP1 PUSH2 0x44A SWAP2 SWAP1 PUSH2 0x2115 JUMP JUMPDEST PUSH2 0xD9E JUMP JUMPDEST PUSH1 0x40 MLOAD PUSH2 0x45C SWAP2 SWAP1 PUSH2 0x2158 JUMP JUMPDEST PUSH1 0x40 MLOAD DUP1 SWAP2 SUB SWAP1 RETURN JUMPDEST PUSH2 0x47F PUSH1 0x4 DUP1 CALLDATASIZE SUB DUP2 ADD SWAP1 PUSH2 0x47A SWAP2 SWAP1 PUSH2 0x220C JUMP JUMPDEST PUSH2 0xDB3 JUMP JUMPDEST STOP JUMPDEST PUSH2 0x49B PUSH1 0x4 DUP1 CALLDATASIZE SUB DUP2 ADD SWAP1 PUSH2 0x496 SWAP2 SWAP1 PUSH2 0x220C JUMP JUMPDEST PUSH2 0xDC7 JUMP JUMPDEST STOP JUMPDEST PUSH2 0x4A5 PUSH2 0xED4 JUMP JUMPDEST PUSH1 0x40 MLOAD PUSH2 0x4B2 SWAP2 SWAP1 PUSH2 0x2158 JUMP JUMPDEST PUSH1 0x40 MLOAD DUP1 SWAP2 SUB SWAP1 RETURN JUMPDEST PUSH2 0x4D5 PUSH1 0x4 DUP1 CALLDATASIZE SUB DUP2 ADD SWAP1 PUSH2 0x4D0 SWAP2 SWAP1 PUSH2 0x220C JUMP JUMPDEST PUSH2 0xEDA JUMP JUMPDEST STOP JUMPDEST PUSH2 0x4DF PUSH2 0xF6D JUMP JUMPDEST PUSH1 0x40 MLOAD PUSH2 0x4EC SWAP2 SWAP1 PUSH2 0x2158 JUMP JUMPDEST PUSH1 0x40 MLOAD DUP1 SWAP2 SUB SWAP1 RETURN JUMPDEST PUSH2 0x50F PUSH1 0x4 DUP1 CALLDATASIZE SUB DUP2 ADD SWAP1 PUSH2 0x50A SWAP2 SWAP1 PUSH2 0x2115 JUMP JUMPDEST PUSH2 0xF74 JUMP JUMPDEST STOP JUMPDEST PUSH2 0x52B PUSH1 0x4 DUP1 CALLDATASIZE SUB DUP2 ADD SWAP1 PUSH2 0x526 SWAP2 SWAP1 PUSH2 0x2115 JUMP JUMPDEST PUSH2 0x10BE JUMP JUMPDEST PUSH1 0x40 MLOAD PUSH2 0x538 SWAP2 SWAP1 PUSH2 0x2158 JUMP JUMPDEST PUSH1 0x40 MLOAD DUP1 SWAP2 SUB SWAP1 RETURN JUMPDEST PUSH2 0x549 PUSH2 0x1103 JUMP JUMPDEST STOP JUMPDEST PUSH2 0x565 PUSH1 0x4 DUP1 CALLDATASIZE SUB DUP2 ADD SWAP1 PUSH2 0x560 SWAP2 SWAP1 PUSH2 0x219B JUMP JUMPDEST PUSH2 0x1116 JUMP JUMPDEST STOP JUMPDEST PUSH2 0x56F PUSH2 0x1136 JUMP JUMPDEST PUSH1 0x40 MLOAD PUSH2 0x57C SWAP2 SWAP1 PUSH2 0x2158 JUMP JUMPDEST PUSH1 0x40 MLOAD DUP1 SWAP2 SUB SWAP1 RETURN JUMPDEST PUSH2 0x59F PUSH1 0x4 DUP1 CALLDATASIZE SUB DUP2 ADD SWAP1 PUSH2 0x59A SWAP2 SWAP1 PUSH2 0x2115 JUMP JUMPDEST PUSH2 0x113C JUMP JUMPDEST PUSH1 0x40 MLOAD PUSH2 0x5AC SWAP2 SWAP1 PUSH2 0x2158 JUMP JUMPDEST PUSH1 0x40 MLOAD DUP1 SWAP2 SUB SWAP1 RETURN JUMPDEST PUSH2 0x5BD PUSH2 0x1151 JUMP JUMPDEST PUSH1 0x40 MLOAD PUSH2 0x5CA SWAP2 SWAP1 PUSH2 0x2158 JUMP JUMPDEST PUSH1 0x40 MLOAD DUP1 SWAP2 SUB SWAP1 RETURN JUMPDEST PUSH2 0x5DB PUSH2 0x1157 JUMP JUMPDEST PUSH1 0x40 MLOAD PUSH2 0x5E8 SWAP2 SWAP1 PUSH2 0x2246 JUMP JUMPDEST PUSH1 0x40 MLOAD DUP1 SWAP2 SUB SWAP1 RETURN JUMPDEST PUSH2 0x5F9 PUSH2 0x117F JUMP JUMPDEST PUSH1 0x40 MLOAD PUSH2 0x606 SWAP2 SWAP1 PUSH2 0x2097 JUMP JUMPDEST PUSH1 0x40 MLOAD DUP1 SWAP2 SUB SWAP1 RETURN JUMPDEST PUSH2 0x629 PUSH1 0x4 DUP1 CALLDATASIZE SUB DUP2 ADD SWAP1 PUSH2 0x624 SWAP2 SWAP1 PUSH2 0x220C JUMP JUMPDEST PUSH2 0x120F JUMP JUMPDEST STOP JUMPDEST PUSH2 0x645 PUSH1 0x4 DUP1 CALLDATASIZE SUB DUP2 ADD SWAP1 PUSH2 0x640 SWAP2 SWAP1 PUSH2 0x220C JUMP JUMPDEST PUSH2 0x12A2 JUMP JUMPDEST STOP JUMPDEST PUSH2 0x661 PUSH1 0x4 DUP1 CALLDATASIZE SUB DUP2 ADD SWAP1 PUSH2 0x65C SWAP2 SWAP1 PUSH2 0x2115 JUMP JUMPDEST PUSH2 0x142C JUMP JUMPDEST STOP JUMPDEST PUSH2 0x67D PUSH1 0x4 DUP1 CALLDATASIZE SUB DUP2 ADD SWAP1 PUSH2 0x678 SWAP2 SWAP1 PUSH2 0x219B JUMP JUMPDEST PUSH2 0x14AE JUMP JUMPDEST PUSH1 0x40 MLOAD PUSH2 0x68A SWAP2 SWAP1 PUSH2 0x21F3 JUMP JUMPDEST PUSH1 0x40 MLOAD DUP1 SWAP2 SUB SWAP1 RETURN JUMPDEST PUSH2 0x69B PUSH2 0x14D0 JUMP JUMPDEST STOP JUMPDEST PUSH2 0x6B7 PUSH1 0x4 DUP1 CALLDATASIZE SUB DUP2 ADD SWAP1 PUSH2 0x6B2 SWAP2 SWAP1 PUSH2 0x2115 JUMP JUMPDEST PUSH2 0x156D JUMP JUMPDEST PUSH1 0x40 MLOAD PUSH2 0x6C4 SWAP2 SWAP1 PUSH2 0x2158 JUMP JUMPDEST PUSH1 0x40 MLOAD DUP1 SWAP2 SUB SWAP1 RETURN JUMPDEST PUSH2 0x6E7 PUSH1 0x4 DUP1 CALLDATASIZE SUB DUP2 ADD SWAP1 PUSH2 0x6E2 SWAP2 SWAP1 PUSH2 0x23BA JUMP JUMPDEST PUSH2 0x16E8 JUMP JUMPDEST PUSH1 0x40 MLOAD PUSH2 0x6F4 SWAP2 SWAP1 PUSH2 0x2158 JUMP JUMPDEST PUSH1 0x40 MLOAD DUP1 SWAP2 SUB SWAP1 RETURN JUMPDEST PUSH2 0x717 PUSH1 0x4 DUP1 CALLDATASIZE SUB DUP2 ADD SWAP1 PUSH2 0x712 SWAP2 SWAP1 PUSH2 0x2115 JUMP JUMPDEST PUSH2 0x176A JUMP JUMPDEST STOP JUMPDEST PUSH1 0x60 PUSH1 0x3 DUP1 SLOAD PUSH2 0x728 SWAP1 PUSH2 0x2425 JUMP JUMPDEST DUP1 PUSH1 0x1F ADD PUSH1 0x20 DUP1 SWAP2 DIV MUL PUSH1 0x20 ADD PUSH1 0x40 MLOAD SWAP1 DUP2 ADD PUSH1 0x40 MSTORE DUP1 SWAP3 SWAP2 SWAP1 DUP2 DUP2 MSTORE PUSH1 0x20 ADD DUP3 DUP1 SLOAD PUSH2 0x754 SWAP1 PUSH2 0x2425 JUMP JUMPDEST DUP1 ISZERO PUSH2 0x79F JUMPI DUP1 PUSH1 0x1F LT PUSH2 0x776 JUMPI PUSH2 0x100 DUP1 DUP4 SLOAD DIV MUL DUP4 MSTORE SWAP2 PUSH1 0x20 ADD SWAP2 PUSH2 0x79F JUMP JUMPDEST DUP3 ADD SWAP2 SWAP1 PUSH0 MSTORE PUSH1 0x20 PUSH0 KECCAK256 SWAP1 JUMPDEST DUP2 SLOAD DUP2 MSTORE SWAP1 PUSH1 0x1 ADD SWAP1 PUSH1 0x20 ADD DUP1 DUP4 GT PUSH2 0x782 JUMPI DUP3 SWAP1 SUB PUSH1 0x1F AND DUP3 ADD SWAP2 JUMPDEST POP POP POP POP POP SWAP1 POP SWAP1 JUMP JUMPDEST PUSH1 0x9 PUSH1 0x20 MSTORE DUP1 PUSH0 MSTORE PUSH1 0x40 PUSH0 KECCAK256 PUSH0 SWAP2 POP SWAP1 POP SLOAD DUP2 JUMP JUMPDEST PUSH0 DUP1 PUSH2 0x7C8 PUSH2 0x17EE JUMP JUMPDEST SWAP1 POP PUSH2 0x7D5 DUP2 DUP6 DUP6 PUSH2 0x17F5 JUMP JUMPDEST PUSH1 0x1 SWAP2 POP POP SWAP3 SWAP2 POP POP JUMP JUMPDEST PUSH1 0xE DUP2 DUP2 SLOAD DUP2 LT PUSH2 0x7EF JUMPI PUSH0 DUP1 REVERT JUMPDEST SWAP1 PUSH0 MSTORE PUSH1 0x20 PUSH0 KECCAK256 ADD PUSH0 SWAP2 POP SLOAD SWAP1 PUSH2 0x100 EXP SWAP1 DIV PUSH20 0xFFFFFFFFFFFFFFFFFFFFFFFFFFFFFFFFFFFFFFFF AND DUP2 JUMP JUMPDEST PUSH1 0x8 PUSH1 0x20 MSTORE DUP1 PUSH0 MSTORE PUSH1 0x40 PUSH0 KECCAK256 PUSH0 SWAP2 POP SWAP1 POP SLOAD DUP2 JUMP JUMPDEST PUSH2 0x838 PUSH2 0x1807 JUMP JUMPDEST PUSH1 0xF PUSH0 DUP3 PUSH20 0xFFFFFFFFFFFFFFFFFFFFFFFFFFFFFFFFFFFFFFFF AND PUSH20 0xFFFFFFFFFFFFFFFFFFFFFFFFFFFFFFFFFFFFFFFF AND DUP2 MSTORE PUSH1 0x20 ADD SWAP1 DUP2 MSTORE PUSH1 0x20 ADD PUSH0 KECCAK256 PUSH0 SWAP1 SLOAD SWAP1 PUSH2 0x100 EXP SWAP1 DIV PUSH1 0xFF AND PUSH2 0x8C1 JUMPI PUSH1 0x40 MLOAD PUSH32 0x8C379A000000000000000000000000000000000000000000000000000000000 DUP2 MSTORE PUSH1 0x4 ADD PUSH2 0x8B8 SWAP1 PUSH2 0x249F JUMP JUMPDEST PUSH1 0x40 MLOAD DUP1 SWAP2 SUB SWAP1 REVERT JUMPDEST PUSH1 0x1 PUSH1 0xE DUP1 SLOAD SWAP1 POP GT PUSH2 0x909 JUMPI PUSH1 0x40 MLOAD PUSH32 0x8C379A000000000000000000000000000000000000000000000000000000000 DUP2 MSTORE PUSH1 0x4 ADD PUSH2 0x900 SWAP1 PUSH2 0x2507 JUMP JUMPDEST PUSH1 0x40 MLOAD DUP1 SWAP2 SUB SWAP1 REVERT JUMPDEST PUSH0 PUSH1 0xF PUSH0 DUP4 PUSH20 0xFFFFFFFFFFFFFFFFFFFFFFFFFFFFFFFFFFFFFFFF AND PUSH20 0xFFFFFFFFFFFFFFFFFFFFFFFFFFFFFFFFFFFFFFFF AND DUP2 MSTORE PUSH1 0x20 ADD SWAP1 DUP2 MSTORE PUSH1 0x20 ADD PUSH0 KECCAK256 PUSH0 PUSH2 0x100 EXP DUP2 SLOAD DUP2 PUSH1 0xFF MUL NOT AND SWAP1 DUP4 ISZERO ISZERO MUL OR SWAP1 SSTORE POP PUSH0 JUMPDEST PUSH1 0xE DUP1 SLOAD SWAP1 POP DUP2 LT ISZERO PUSH2 0xAD6 JUMPI DUP2 PUSH20 0xFFFFFFFFFFFFFFFFFFFFFFFFFFFFFFFFFFFFFFFF AND PUSH1 0xE DUP3 DUP2 SLOAD DUP2 LT PUSH2 0x997 JUMPI PUSH2 0x996 PUSH2 0x2525 JUMP JUMPDEST JUMPDEST SWAP1 PUSH0 MSTORE PUSH1 0x20 PUSH0 KECCAK256 ADD PUSH0 SWAP1 SLOAD SWAP1 PUSH2 0x100 EXP SWAP1 DIV PUSH20 0xFFFFFFFFFFFFFFFFFFFFFFFFFFFFFFFFFFFFFFFF AND PUSH20 0xFFFFFFFFFFFFFFFFFFFFFFFFFFFFFFFFFFFFFFFF AND SUB PUSH2 0xAC9 JUMPI PUSH1 0xE PUSH1 0x1 PUSH1 0xE DUP1 SLOAD SWAP1 POP PUSH2 0x9EE SWAP2 SWAP1 PUSH2 0x257F JUMP JUMPDEST DUP2 SLOAD DUP2 LT PUSH2 0x9FF JUMPI PUSH2 0x9FE PUSH2 0x2525 JUMP JUMPDEST JUMPDEST SWAP1 PUSH0 MSTORE PUSH1 0x20 PUSH0 KECCAK256 ADD PUSH0 SWAP1 SLOAD SWAP1 PUSH2 0x100 EXP SWAP1 DIV PUSH20 0xFFFFFFFFFFFFFFFFFFFFFFFFFFFFFFFFFFFFFFFF AND PUSH1 0xE DUP3 DUP2 SLOAD DUP2 LT PUSH2 0xA3B JUMPI PUSH2 0xA3A PUSH2 0x2525 JUMP JUMPDEST JUMPDEST SWAP1 PUSH0 MSTORE PUSH1 0x20 PUSH0 KECCAK256 ADD PUSH0 PUSH2 0x100 EXP DUP2 SLOAD DUP2 PUSH20 0xFFFFFFFFFFFFFFFFFFFFFFFFFFFFFFFFFFFFFFFF MUL NOT AND SWAP1 DUP4 PUSH20 0xFFFFFFFFFFFFFFFFFFFFFFFFFFFFFFFFFFFFFFFF AND MUL OR SWAP1 SSTORE POP PUSH1 0xE DUP1 SLOAD DUP1 PUSH2 0xA92 JUMPI PUSH2 0xA91 PUSH2 0x25B2 JUMP JUMPDEST JUMPDEST PUSH1 0x1 SWAP1 SUB DUP2 DUP2 SWAP1 PUSH0 MSTORE PUSH1 0x20 PUSH0 KECCAK256 ADD PUSH0 PUSH2 0x100 EXP DUP2 SLOAD SWAP1 PUSH20 0xFFFFFFFFFFFFFFFFFFFFFFFFFFFFFFFFFFFFFFFF MUL NOT AND SWAP1 SSTORE SWAP1 SSTORE PUSH2 0xAD6 JUMP JUMPDEST DUP1 DUP1 PUSH1 0x1 ADD SWAP2 POP POP PUSH2 0x95F JUMP JUMPDEST POP POP JUMP JUMPDEST PUSH0 PUSH1 0x2 SLOAD SWAP1 POP SWAP1 JUMP JUMPDEST PUSH1 0x7 SLOAD DUP2 JUMP JUMPDEST PUSH0 DUP1 PUSH2 0xAF3 PUSH2 0x17EE JUMP JUMPDEST SWAP1 POP PUSH2 0xB00 DUP6 DUP3 DUP6 PUSH2 0x188E JUMP JUMPDEST PUSH2 0xB0B DUP6 DUP6 DUP6 PUSH2 0x1920 JUMP JUMPDEST PUSH1 0x1 SWAP2 POP POP SWAP4 SWAP3 POP POP POP JUMP JUMPDEST PUSH1 0xF PUSH1 0x20 MSTORE DUP1 PUSH0 MSTORE PUSH1 0x40 PUSH0 KECCAK256 PUSH0 SWAP2 POP SLOAD SWAP1 PUSH2 0x100 EXP SWAP1 DIV PUSH1 0xFF AND DUP2 JUMP JUMPDEST DUP1 PUSH1 0x8 PUSH0 CALLER PUSH20 0xFFFFFFFFFFFFFFFFFFFFFFFFFFFFFFFFFFFFFFFF AND PUSH20 0xFFFFFFFFFFFFFFFFFFFFFFFFFFFFFFFFFFFFFFFF AND DUP2 MSTORE PUSH1 0x20 ADD SWAP1 DUP2 MSTORE PUSH1 0x20 ADD PUSH0 KECCAK256 SLOAD LT ISZERO PUSH2 0xBB4 JUMPI PUSH1 0x40 MLOAD PUSH32 0x8C379A000000000000000000000000000000000000000000000000000000000 DUP2 MSTORE PUSH1 0x4 ADD PUSH2 0xBAB SWAP1 PUSH2 0x2629 JUMP JUMPDEST PUSH1 0x40 MLOAD DUP1 SWAP2 SUB SWAP1 REVERT JUMPDEST PUSH3 0x15180 PUSH1 0xA PUSH0 CALLER PUSH20 0xFFFFFFFFFFFFFFFFFFFFFFFFFFFFFFFFFFFFFFFF AND PUSH20 0xFFFFFFFFFFFFFFFFFFFFFFFFFFFFFFFFFFFFFFFF AND DUP2 MSTORE PUSH1 0x20 ADD SWAP1 DUP2 MSTORE PUSH1 0x20 ADD PUSH0 KECCAK256 SLOAD PUSH2 0xC00 SWAP2 SWAP1 PUSH2 0x2647 JUMP JUMPDEST TIMESTAMP LT ISZERO PUSH2 0xC42 JUMPI PUSH1 0x40 MLOAD PUSH32 0x8C379A000000000000000000000000000000000000000000000000000000000 DUP2 MSTORE PUSH1 0x4 ADD PUSH2 0xC39 SWAP1 PUSH2 0x26EA JUMP JUMPDEST PUSH1 0x40 MLOAD DUP1 SWAP2 SUB SWAP1 REVERT JUMPDEST DUP1 PUSH1 0x8 PUSH0 CALLER PUSH20 0xFFFFFFFFFFFFFFFFFFFFFFFFFFFFFFFFFFFFFFFF AND PUSH20 0xFFFFFFFFFFFFFFFFFFFFFFFFFFFFFFFFFFFFFFFF AND DUP2 MSTORE PUSH1 0x20 ADD SWAP1 DUP2 MSTORE PUSH1 0x20 ADD PUSH0 KECCAK256 PUSH0 DUP3 DUP3 SLOAD PUSH2 0xC8E SWAP2 SWAP1 PUSH2 0x257F JUMP JUMPDEST SWAP3 POP POP DUP2 SWAP1 SSTORE POP DUP1 PUSH1 0xC PUSH0 DUP3 DUP3 SLOAD PUSH2 0xCA6 SWAP2 SWAP1 PUSH2 0x257F JUMP JUMPDEST SWAP3 POP POP DUP2 SWAP1 SSTORE POP PUSH2 0xCB7 CALLER DUP3 PUSH2 0x1A10 JUMP JUMPDEST TIMESTAMP PUSH1 0xB PUSH0 CALLER PUSH20 0xFFFFFFFFFFFFFFFFFFFFFFFFFFFFFFFFFFFFFFFF AND PUSH20 0xFFFFFFFFFFFFFFFFFFFFFFFFFFFFFFFFFFFFFFFF AND DUP2 MSTORE PUSH1 0x20 ADD SWAP1 DUP2 MSTORE PUSH1 0x20 ADD PUSH0 KECCAK256 DUP2 SWAP1 SSTORE POP POP JUMP JUMPDEST PUSH0 PUSH1 0x12 SWAP1 POP SWAP1 JUMP JUMPDEST PUSH1 0x60 PUSH1 0xE DUP1 SLOAD DUP1 PUSH1 0x20 MUL PUSH1 0x20 ADD PUSH1 0x40 MLOAD SWAP1 DUP2 ADD PUSH1 0x40 MSTORE DUP1 SWAP3 SWAP2 SWAP1 DUP2 DUP2 MSTORE PUSH1 0x20 ADD DUP3 DUP1 SLOAD DUP1 ISZERO PUSH2 0xD85 JUMPI PUSH1 0x20 MUL DUP3 ADD SWAP2 SWAP1 PUSH0 MSTORE PUSH1 0x20 PUSH0 KECCAK256 SWAP1 JUMPDEST DUP2 PUSH0 SWAP1 SLOAD SWAP1 PUSH2 0x100 EXP SWAP1 DIV PUSH20 0xFFFFFFFFFFFFFFFFFFFFFFFFFFFFFFFFFFFFFFFF AND PUSH20 0xFFFFFFFFFFFFFFFFFFFFFFFFFFFFFFFFFFFFFFFF AND DUP2 MSTORE PUSH1 0x20 ADD SWAP1 PUSH1 0x1 ADD SWAP1 DUP1 DUP4 GT PUSH2 0xD3C JUMPI JUMPDEST POP POP POP POP POP SWAP1 POP SWAP1 JUMP JUMPDEST PUSH11 0x295BE96E64066972000000 DUP2 JUMP JUMPDEST PUSH1 0xB PUSH1 0x20 MSTORE DUP1 PUSH0 MSTORE PUSH1 0x40 PUSH0 KECCAK256 PUSH0 SWAP2 POP SWAP1 POP SLOAD DUP2 JUMP JUMPDEST PUSH2 0xDC4 PUSH2 0xDBE PUSH2 0x17EE JUMP JUMPDEST DUP3 PUSH2 0x1A8F JUMP JUMPDEST POP JUMP JUMPDEST PUSH1 0x64 PUSH1 0x50 PUSH11 0x295BE96E64066972000000 PUSH2 0xDE1 SWAP2 SWAP1 PUSH2 0x2708 JUMP JUMPDEST PUSH2 0xDEB SWAP2 SWAP1 PUSH2 0x2776 JUMP JUMPDEST PUSH1 0x6 SLOAD LT PUSH2 0xE2E JUMPI PUSH1 0x40 MLOAD PUSH32 0x8C379A000000000000000000000000000000000000000000000000000000000 DUP2 MSTORE PUSH1 0x4 ADD PUSH2 0xE25 SWAP1 PUSH2 0x27F0 JUMP JUMPDEST PUSH1 0x40 MLOAD DUP1 SWAP2 SUB SWAP1 REVERT JUMPDEST PUSH0 CALLER DUP3 PUSH1 0x40 MLOAD PUSH1 0x20 ADD PUSH2 0xE42 SWAP3 SWAP2 SWAP1 PUSH2 0x2873 JUMP JUMPDEST PUSH1 0x40 MLOAD PUSH1 0x20 DUP2 DUP4 SUB SUB DUP2 MSTORE SWAP1 PUSH1 0x40 MSTORE DUP1 MLOAD SWAP1 PUSH1 0x20 ADD KECCAK256 SWAP1 POP PUSH1 0x7 SLOAD DUP2 PUSH0 SHR LT PUSH2 0xEA0 JUMPI PUSH1 0x40 MLOAD PUSH32 0x8C379A000000000000000000000000000000000000000000000000000000000 DUP2 MSTORE PUSH1 0x4 ADD PUSH2 0xE97 SWAP1 PUSH2 0x28E8 JUMP JUMPDEST PUSH1 0x40 MLOAD DUP1 SWAP2 SUB SWAP1 REVERT JUMPDEST PUSH0 PUSH9 0x2B5E3AF16B1880000 SWAP1 POP PUSH2 0xEB7 CALLER DUP3 PUSH2 0x1B0E JUMP JUMPDEST DUP1 PUSH1 0x6 PUSH0 DUP3 DUP3 SLOAD PUSH2 0xEC8 SWAP2 SWAP1 PUSH2 0x2647 JUMP JUMPDEST SWAP3 POP POP DUP2 SWAP1 SSTORE POP POP POP POP JUMP JUMPDEST PUSH1 0x6 SLOAD DUP2 JUMP JUMPDEST PUSH1 0xF PUSH0 CALLER PUSH20 0xFFFFFFFFFFFFFFFFFFFFFFFFFFFFFFFFFFFFFFFF AND PUSH20 0xFFFFFFFFFFFFFFFFFFFFFFFFFFFFFFFFFFFFFFFF AND DUP2 MSTORE PUSH1 0x20 ADD SWAP1 DUP2 MSTORE PUSH1 0x20 ADD PUSH0 KECCAK256 PUSH0 SWAP1 SLOAD SWAP1 PUSH2 0x100 EXP SWAP1 DIV PUSH1 0xFF AND PUSH2 0xF63 JUMPI PUSH1 0x40 MLOAD PUSH32 0x8C379A000000000000000000000000000000000000000000000000000000000 DUP2 MSTORE PUSH1 0x4 ADD PUSH2 0xF5A SWAP1 PUSH2 0x249F JUMP JUMPDEST PUSH1 0x40 MLOAD DUP1 SWAP2 SUB SWAP1 REVERT JUMPDEST DUP1 PUSH1 0x7 DUP2 SWAP1 SSTORE POP POP JUMP JUMPDEST PUSH3 0x15180 DUP2 JUMP JUMPDEST PUSH2 0xF7C PUSH2 0x1807 JUMP JUMPDEST PUSH1 0xF PUSH0 DUP3 PUSH20 0xFFFFFFFFFFFFFFFFFFFFFFFFFFFFFFFFFFFFFFFF AND PUSH20 0xFFFFFFFFFFFFFFFFFFFFFFFFFFFFFFFFFFFFFFFF AND DUP2 MSTORE PUSH1 0x20 ADD SWAP1 DUP2 MSTORE PUSH1 0x20 ADD PUSH0 KECCAK256 PUSH0 SWAP1 SLOAD SWAP1 PUSH2 0x100 EXP SWAP1 DIV PUSH1 0xFF AND ISZERO PUSH2 0x1006 JUMPI PUSH1 0x40 MLOAD PUSH32 0x8C379A000000000000000000000000000000000000000000000000000000000 DUP2 MSTORE PUSH1 0x4 ADD PUSH2 0xFFD SWAP1 PUSH2 0x2950 JUMP JUMPDEST PUSH1 0x40 MLOAD DUP1 SWAP2 SUB SWAP1 REVERT JUMPDEST PUSH1 0x1 PUSH1 0xF PUSH0 DUP4 PUSH20 0xFFFFFFFFFFFFFFFFFFFFFFFFFFFFFFFFFFFFFFFF AND PUSH20 0xFFFFFFFFFFFFFFFFFFFFFFFFFFFFFFFFFFFFFFFF AND DUP2 MSTORE PUSH1 0x20 ADD SWAP1 DUP2 MSTORE PUSH1 0x20 ADD PUSH0 KECCAK256 PUSH0 PUSH2 0x100 EXP DUP2 SLOAD DUP2 PUSH1 0xFF MUL NOT AND SWAP1 DUP4 ISZERO ISZERO MUL OR SWAP1 SSTORE POP PUSH1 0xE DUP2 SWAP1 DUP1 PUSH1 0x1 DUP2 SLOAD ADD DUP1 DUP3 SSTORE DUP1 SWAP2 POP POP PUSH1 0x1 SWAP1 SUB SWAP1 PUSH0 MSTORE PUSH1 0x20 PUSH0 KECCAK256 ADD PUSH0 SWAP1 SWAP2 SWAP1 SWAP2 SWAP1 SWAP2 PUSH2 0x100 EXP DUP2 SLOAD DUP2 PUSH20 0xFFFFFFFFFFFFFFFFFFFFFFFFFFFFFFFFFFFFFFFF MUL NOT AND SWAP1 DUP4 PUSH20 0xFFFFFFFFFFFFFFFFFFFFFFFFFFFFFFFFFFFFFFFF AND MUL OR SWAP1 SSTORE POP POP JUMP JUMPDEST PUSH0 DUP1 PUSH0 DUP4 PUSH20 0xFFFFFFFFFFFFFFFFFFFFFFFFFFFFFFFFFFFFFFFF AND PUSH20 0xFFFFFFFFFFFFFFFFFFFFFFFFFFFFFFFFFFFFFFFF AND DUP2 MSTORE PUSH1 0x20 ADD SWAP1 DUP2 MSTORE PUSH1 0x20 ADD PUSH0 KECCAK256 SLOAD SWAP1 POP SWAP2 SWAP1 POP JUMP JUMPDEST PUSH2 0x110B PUSH2 0x1807 JUMP JUMPDEST PUSH2 0x1114 PUSH0 PUSH2 0x1B7C JUMP JUMPDEST JUMP JUMPDEST PUSH2 0x1128 DUP3 PUSH2 0x1122 PUSH2 0x17EE JUMP JUMPDEST DUP4 PUSH2 0x188E JUMP JUMPDEST PUSH2 0x1132 DUP3 DUP3 PUSH2 0x1A8F JUMP JUMPDEST POP POP JUMP JUMPDEST PUSH1 0xD SLOAD DUP2 JUMP JUMPDEST PUSH1 0xA PUSH1 0x20 MSTORE DUP1 PUSH0 MSTORE PUSH1 0x40 PUSH0 KECCAK256 PUSH0 SWAP2 POP SWAP1 POP SLOAD DUP2 JUMP JUMPDEST PUSH1 0xC SLOAD DUP2 JUMP JUMPDEST PUSH0 PUSH1 0x5 PUSH0 SWAP1 SLOAD SWAP1 PUSH2 0x100 EXP SWAP1 DIV PUSH20 0xFFFFFFFFFFFFFFFFFFFFFFFFFFFFFFFFFFFFFFFF AND SWAP1 POP SWAP1 JUMP JUMPDEST PUSH1 0x60 PUSH1 0x4 DUP1 SLOAD PUSH2 0x118E SWAP1 PUSH2 0x2425 JUMP JUMPDEST DUP1 PUSH1 0x1F ADD PUSH1 0x20 DUP1 SWAP2 DIV MUL PUSH1 0x20 ADD PUSH1 0x40 MLOAD SWAP1 DUP2 ADD PUSH1 0x40 MSTORE DUP1 SWAP3 SWAP2 SWAP1 DUP2 DUP2 MSTORE PUSH1 0x20 ADD DUP3 DUP1 SLOAD PUSH2 0x11BA SWAP1 PUSH2 0x2425 JUMP JUMPDEST DUP1 ISZERO PUSH2 0x1205 JUMPI DUP1 PUSH1 0x1F LT PUSH2 0x11DC JUMPI PUSH2 0x100 DUP1 DUP4 SLOAD DIV MUL DUP4 MSTORE SWAP2 PUSH1 0x20 ADD SWAP2 PUSH2 0x1205 JUMP JUMPDEST DUP3 ADD SWAP2 SWAP1 PUSH0 MSTORE PUSH1 0x20 PUSH0 KECCAK256 SWAP1 JUMPDEST DUP2 SLOAD DUP2 MSTORE SWAP1 PUSH1 0x1 ADD SWAP1 PUSH1 0x20 ADD DUP1 DUP4 GT PUSH2 0x11E8 JUMPI DUP3 SWAP1 SUB PUSH1 0x1F AND DUP3 ADD SWAP2 JUMPDEST POP POP POP POP POP SWAP1 POP SWAP1 JUMP JUMPDEST PUSH1 0xF PUSH0 CALLER PUSH20 0xFFFFFFFFFFFFFFFFFFFFFFFFFFFFFFFFFFFFFFFF AND PUSH20 0xFFFFFFFFFFFFFFFFFFFFFFFFFFFFFFFFFFFFFFFF AND DUP2 MSTORE PUSH1 0x20 ADD SWAP1 DUP2 MSTORE PUSH1 0x20 ADD PUSH0 KECCAK256 PUSH0 SWAP1 SLOAD SWAP1 PUSH2 0x100 EXP SWAP1 DIV PUSH1 0xFF AND PUSH2 0x1298 JUMPI PUSH1 0x40 MLOAD PUSH32 0x8C379A000000000000000000000000000000000000000000000000000000000 DUP2 MSTORE PUSH1 0x4 ADD PUSH2 0x128F SWAP1 PUSH2 0x249F JUMP JUMPDEST PUSH1 0x40 MLOAD DUP1 SWAP2 SUB SWAP1 REVERT JUMPDEST DUP1 PUSH1 0xD DUP2 SWAP1 SSTORE POP POP JUMP JUMPDEST PUSH0 DUP2 GT PUSH2 0x12E4 JUMPI PUSH1 0x40 MLOAD PUSH32 0x8C379A000000000000000000000000000000000000000000000000000000000 DUP2 MSTORE PUSH1 0x4 ADD PUSH2 0x12DB SWAP1 PUSH2 0x29B8 JUMP JUMPDEST PUSH1 0x40 MLOAD DUP1 SWAP2 SUB SWAP1 REVERT JUMPDEST PUSH3 0x15180 PUSH1 0xB PUSH0 CALLER PUSH20 0xFFFFFFFFFFFFFFFFFFFFFFFFFFFFFFFFFFFFFFFF AND PUSH20 0xFFFFFFFFFFFFFFFFFFFFFFFFFFFFFFFFFFFFFFFF AND DUP2 MSTORE PUSH1 0x20 ADD SWAP1 DUP2 MSTORE PUSH1 0x20 ADD PUSH0 KECCAK256 SLOAD PUSH2 0x1330 SWAP2 SWAP1 PUSH2 0x2647 JUMP JUMPDEST TIMESTAMP LT ISZERO PUSH2 0x1372 JUMPI PUSH1 0x40 MLOAD PUSH32 0x8C379A000000000000000000000000000000000000000000000000000000000 DUP2 MSTORE PUSH1 0x4 ADD PUSH2 0x1369 SWAP1 PUSH2 0x2A46 JUMP JUMPDEST PUSH1 0x40 MLOAD DUP1 SWAP2 SUB SWAP1 REVERT JUMPDEST PUSH2 0x137C CALLER DUP3 PUSH2 0x1A8F JUMP JUMPDEST DUP1 PUSH1 0x8 PUSH0 CALLER PUSH20 0xFFFFFFFFFFFFFFFFFFFFFFFFFFFFFFFFFFFFFFFF AND PUSH20 0xFFFFFFFFFFFFFFFFFFFFFFFFFFFFFFFFFFFFFFFF AND DUP2 MSTORE PUSH1 0x20 ADD SWAP1 DUP2 MSTORE PUSH1 0x20 ADD PUSH0 KECCAK256 PUSH0 DUP3 DUP3 SLOAD PUSH2 0x13C8 SWAP2 SWAP1 PUSH2 0x2647 JUMP JUMPDEST SWAP3 POP POP DUP2 SWAP1 SSTORE POP DUP1 PUSH1 0xC PUSH0 DUP3 DUP3 SLOAD PUSH2 0x13E0 SWAP2 SWAP1 PUSH2 0x2647 JUMP JUMPDEST SWAP3 POP POP DUP2 SWAP1 SSTORE POP TIMESTAMP PUSH1 0xA PUSH0 CALLER PUSH20 0xFFFFFFFFFFFFFFFFFFFFFFFFFFFFFFFFFFFFFFFF AND PUSH20 0xFFFFFFFFFFFFFFFFFFFFFFFFFFFFFFFFFFFFFFFF AND DUP2 MSTORE PUSH1 0x20 ADD SWAP1 DUP2 MSTORE PUSH1 0x20 ADD PUSH0 KECCAK256 DUP2 SWAP1 SSTORE POP POP JUMP JUMPDEST PUSH2 0x1434 PUSH2 0x1807 JUMP JUMPDEST PUSH0 PUSH20 0xFFFFFFFFFFFFFFFFFFFFFFFFFFFFFFFFFFFFFFFF AND DUP2 PUSH20 0xFFFFFFFFFFFFFFFFFFFFFFFFFFFFFFFFFFFFFFFF AND SUB PUSH2 0x14A2 JUMPI PUSH1 0x40 MLOAD PUSH32 0x8C379A000000000000000000000000000000000000000000000000000000000 DUP2 MSTORE PUSH1 0x4 ADD PUSH2 0x1499 SWAP1 PUSH2 0x2AAE JUMP JUMPDEST PUSH1 0x40 MLOAD DUP1 SWAP2 SUB SWAP1 REVERT JUMPDEST PUSH2 0x14AB DUP2 PUSH2 0x1B7C JUMP JUMPDEST POP JUMP JUMPDEST PUSH0 DUP1 PUSH2 0x14B8 PUSH2 0x17EE JUMP JUMPDEST SWAP1 POP PUSH2 0x14C5 DUP2 DUP6 DUP6 PUSH2 0x1920 JUMP JUMPDEST PUSH1 0x1 SWAP2 POP POP SWAP3 SWAP2 POP POP JUMP JUMPDEST PUSH0 PUSH2 0x14DA CALLER PUSH2 0x156D JUMP JUMPDEST SWAP1 POP PUSH0 DUP2 GT PUSH2 0x151E JUMPI PUSH1 0x40 MLOAD PUSH32 0x8C379A000000000000000000000000000000000000000000000000000000000 DUP2 MSTORE PUSH1 0x4 ADD PUSH2 0x1515 SWAP1 PUSH2 0x2B16 JUMP JUMPDEST PUSH1 0x40 MLOAD DUP1 SWAP2 SUB SWAP1 REVERT JUMPDEST PUSH0 PUSH1 0x9 PUSH0 CALLER PUSH20 0xFFFFFFFFFFFFFFFFFFFFFFFFFFFFFFFFFFFFFFFF AND PUSH20 0xFFFFFFFFFFFFFFFFFFFFFFFFFFFFFFFFFFFFFFFF AND DUP2 MSTORE PUSH1 0x20 ADD SWAP1 DUP2 MSTORE PUSH1 0x20 ADD PUSH0 KECCAK256 DUP2 SWAP1 SSTORE POP PUSH2 0x156A CALLER DUP3 PUSH2 0x1A10 JUMP JUMPDEST POP JUMP JUMPDEST PUSH0 DUP1 PUSH2 0x2710 PUSH1 0xD SLOAD PUSH1 0x8 PUSH0 DUP7 PUSH20 0xFFFFFFFFFFFFFFFFFFFFFFFFFFFFFFFFFFFFFFFF AND PUSH20 0xFFFFFFFFFFFFFFFFFFFFFFFFFFFFFFFFFFFFFFFF AND DUP2 MSTORE PUSH1 0x20 ADD SWAP1 DUP2 MSTORE PUSH1 0x20 ADD PUSH0 KECCAK256 SLOAD PUSH2 0x15BD SWAP2 SWAP1 PUSH2 0x2708 JUMP JUMPDEST PUSH2 0x15C7 SWAP2 SWAP1 PUSH2 0x2776 JUMP JUMPDEST SWAP1 POP PUSH0 PUSH1 0xA PUSH0 DUP6 PUSH20 0xFFFFFFFFFFFFFFFFFFFFFFFFFFFFFFFFFFFFFFFF AND PUSH20 0xFFFFFFFFFFFFFFFFFFFFFFFFFFFFFFFFFFFFFFFF AND DUP2 MSTORE PUSH1 0x20 ADD SWAP1 DUP2 MSTORE PUSH1 0x20 ADD PUSH0 KECCAK256 SLOAD SWAP1 POP PUSH0 DUP2 GT ISZERO PUSH2 0x1696 JUMPI PUSH0 DUP2 TIMESTAMP PUSH2 0x161F SWAP2 SWAP1 PUSH2 0x257F JUMP JUMPDEST SWAP1 POP PUSH5 0x496CEBB800 DUP2 PUSH1 0xD SLOAD PUSH1 0x8 PUSH0 DUP10 PUSH20 0xFFFFFFFFFFFFFFFFFFFFFFFFFFFFFFFFFFFFFFFF AND PUSH20 0xFFFFFFFFFFFFFFFFFFFFFFFFFFFFFFFFFFFFFFFF AND DUP2 MSTORE PUSH1 0x20 ADD SWAP1 DUP2 MSTORE PUSH1 0x20 ADD PUSH0 KECCAK256 SLOAD PUSH2 0x1673 SWAP2 SWAP1 PUSH2 0x2708 JUMP JUMPDEST PUSH2 0x167D SWAP2 SWAP1 PUSH2 0x2708 JUMP JUMPDEST PUSH2 0x1687 SWAP2 SWAP1 PUSH2 0x2776 JUMP JUMPDEST DUP4 PUSH2 0x1692 SWAP2 SWAP1 PUSH2 0x2647 JUMP JUMPDEST SWAP3 POP POP JUMPDEST PUSH1 0x9 PUSH0 DUP6 PUSH20 0xFFFFFFFFFFFFFFFFFFFFFFFFFFFFFFFFFFFFFFFF AND PUSH20 0xFFFFFFFFFFFFFFFFFFFFFFFFFFFFFFFFFFFFFFFF AND DUP2 MSTORE PUSH1 0x20 ADD SWAP1 DUP2 MSTORE PUSH1 0x20 ADD PUSH0 KECCAK256 SLOAD DUP3 PUSH2 0x16DF SWAP2 SWAP1 PUSH2 0x2647 JUMP JUMPDEST SWAP3 POP POP POP SWAP2 SWAP1 POP JUMP JUMPDEST PUSH0 PUSH1 0x1 PUSH0 DUP5 PUSH20 0xFFFFFFFFFFFFFFFFFFFFFFFFFFFFFFFFFFFFFFFF AND PUSH20 0xFFFFFFFFFFFFFFFFFFFFFFFFFFFFFFFFFFFFFFFF AND DUP2 MSTORE PUSH1 0x20 ADD SWAP1 DUP2 MSTORE PUSH1 0x20 ADD PUSH0 KECCAK256 PUSH0 DUP4 PUSH20 0xFFFFFFFFFFFFFFFFFFFFFFFFFFFFFFFFFFFFFFFF AND PUSH20 0xFFFFFFFFFFFFFFFFFFFFFFFFFFFFFFFFFFFFFFFF AND DUP2 MSTORE PUSH1 0x20 ADD SWAP1 DUP2 MSTORE PUSH1 0x20 ADD PUSH0 KECCAK256 SLOAD SWAP1 POP SWAP3 SWAP2 POP POP JUMP JUMPDEST PUSH2 0x1772 PUSH2 0x1807 JUMP JUMPDEST PUSH0 PUSH20 0xFFFFFFFFFFFFFFFFFFFFFFFFFFFFFFFFFFFFFFFF AND DUP2 PUSH20 0xFFFFFFFFFFFFFFFFFFFFFFFFFFFFFFFFFFFFFFFF AND SUB PUSH2 0x17E2 JUMPI PUSH0 PUSH1 0x40 MLOAD PUSH32 0x1E4FBDF700000000000000000000000000000000000000000000000000000000 DUP2 MSTORE PUSH1 0x4 ADD PUSH2 0x17D9 SWAP2 SWAP1 PUSH2 0x2246 JUMP JUMPDEST PUSH1 0x40 MLOAD DUP1 SWAP2 SUB SWAP1 REVERT JUMPDEST PUSH2 0x17EB DUP2 PUSH2 0x1B7C JUMP JUMPDEST POP JUMP JUMPDEST PUSH0 CALLER SWAP1 POP SWAP1 JUMP JUMPDEST PUSH2 0x1802 DUP4 DUP4 DUP4 PUSH1 0x1 PUSH2 0x1C3F JUMP JUMPDEST POP POP POP JUMP JUMPDEST PUSH2 0x180F PUSH2 0x17EE JUMP JUMPDEST PUSH20 0xFFFFFFFFFFFFFFFFFFFFFFFFFFFFFFFFFFFFFFFF AND PUSH2 0x182D PUSH2 0x1157 JUMP JUMPDEST PUSH20 0xFFFFFFFFFFFFFFFFFFFFFFFFFFFFFFFFFFFFFFFF AND EQ PUSH2 0x188C JUMPI PUSH2 0x1850 PUSH2 0x17EE JUMP JUMPDEST PUSH1 0x40 MLOAD PUSH32 0x118CDAA700000000000000000000000000000000000000000000000000000000 DUP2 MSTORE PUSH1 0x4 ADD PUSH2 0x1883 SWAP2 SWAP1 PUSH2 0x2246 JUMP JUMPDEST PUSH1 0x40 MLOAD DUP1 SWAP2 SUB SWAP1 REVERT JUMPDEST JUMP JUMPDEST PUSH0 PUSH2 0x1899 DUP5 DUP5 PUSH2 0x16E8 JUMP JUMPDEST SWAP1 POP PUSH32 0xFFFFFFFFFFFFFFFFFFFFFFFFFFFFFFFFFFFFFFFFFFFFFFFFFFFFFFFFFFFFFFFF DUP2 EQ PUSH2 0x191A JUMPI DUP2 DUP2 LT ISZERO PUSH2 0x190B JUMPI DUP3 DUP2 DUP4 PUSH1 0x40 MLOAD PUSH32 0xFB8F41B200000000000000000000000000000000000000000000000000000000 DUP2 MSTORE PUSH1 0x4 ADD PUSH2 0x1902 SWAP4 SWAP3 SWAP2 SWAP1 PUSH2 0x2B34 JUMP JUMPDEST PUSH1 0x40 MLOAD DUP1 SWAP2 SUB SWAP1 REVERT JUMPDEST PUSH2 0x1919 DUP5 DUP5 DUP5 DUP5 SUB PUSH0 PUSH2 0x1C3F JUMP JUMPDEST JUMPDEST POP POP POP POP JUMP JUMPDEST PUSH0 PUSH20 0xFFFFFFFFFFFFFFFFFFFFFFFFFFFFFFFFFFFFFFFF AND DUP4 PUSH20 0xFFFFFFFFFFFFFFFFFFFFFFFFFFFFFFFFFFFFFFFF AND SUB PUSH2 0x1990 JUMPI PUSH0 PUSH1 0x40 MLOAD PUSH32 0x96C6FD1E00000000000000000000000000000000000000000000000000000000 DUP2 MSTORE PUSH1 0x4 ADD PUSH2 0x1987 SWAP2 SWAP1 PUSH2 0x2246 JUMP JUMPDEST PUSH1 0x40 MLOAD DUP1 SWAP2 SUB SWAP1 REVERT JUMPDEST PUSH0 PUSH20 0xFFFFFFFFFFFFFFFFFFFFFFFFFFFFFFFFFFFFFFFF AND DUP3 PUSH20 0xFFFFFFFFFFFFFFFFFFFFFFFFFFFFFFFFFFFFFFFF AND SUB PUSH2 0x1A00 JUMPI PUSH0 PUSH1 0x40 MLOAD PUSH32 0xEC442F0500000000000000000000000000000000000000000000000000000000 DUP2 MSTORE PUSH1 0x4 ADD PUSH2 0x19F7 SWAP2 SWAP1 PUSH2 0x2246 JUMP JUMPDEST PUSH1 0x40 MLOAD DUP1 SWAP2 SUB SWAP1 REVERT JUMPDEST PUSH2 0x1A0B DUP4 DUP4 DUP4 PUSH2 0x1E0E JUMP JUMPDEST POP POP POP JUMP JUMPDEST PUSH0 PUSH20 0xFFFFFFFFFFFFFFFFFFFFFFFFFFFFFFFFFFFFFFFF AND DUP3 PUSH20 0xFFFFFFFFFFFFFFFFFFFFFFFFFFFFFFFFFFFFFFFF AND SUB PUSH2 0x1A80 JUMPI PUSH0 PUSH1 0x40 MLOAD PUSH32 0xEC442F0500000000000000000000000000000000000000000000000000000000 DUP2 MSTORE PUSH1 0x4 ADD PUSH2 0x1A77 SWAP2 SWAP1 PUSH2 0x2246 JUMP JUMPDEST PUSH1 0x40 MLOAD DUP1 SWAP2 SUB SWAP1 REVERT JUMPDEST PUSH2 0x1A8B PUSH0 DUP4 DUP4 PUSH2 0x1E0E JUMP JUMPDEST POP POP JUMP JUMPDEST PUSH0 PUSH20 0xFFFFFFFFFFFFFFFFFFFFFFFFFFFFFFFFFFFFFFFF AND DUP3 PUSH20 0xFFFFFFFFFFFFFFFFFFFFFFFFFFFFFFFFFFFFFFFF AND SUB PUSH2 0x1AFF JUMPI PUSH0 PUSH1 0x40 MLOAD PUSH32 0x96C6FD1E00000000000000000000000000000000000000000000000000000000 DUP2 MSTORE PUSH1 0x4 ADD PUSH2 0x1AF6 SWAP2 SWAP1 PUSH2 0x2246 JUMP JUMPDEST PUSH1 0x40 MLOAD DUP1 SWAP2 SUB SWAP1 REVERT JUMPDEST PUSH2 0x1B0A DUP3 PUSH0 DUP4 PUSH2 0x1E0E JUMP JUMPDEST POP POP JUMP JUMPDEST PUSH11 0x295BE96E64066972000000 DUP2 PUSH2 0x1B23 PUSH2 0xADA JUMP JUMPDEST PUSH2 0x1B2D SWAP2 SWAP1 PUSH2 0x2647 JUMP JUMPDEST GT ISZERO PUSH2 0x1B6E JUMPI PUSH1 0x40 MLOAD PUSH32 0x8C379A000000000000000000000000000000000000000000000000000000000 DUP2 MSTORE PUSH1 0x4 ADD PUSH2 0x1B65 SWAP1 PUSH2 0x2BB3 JUMP JUMPDEST PUSH1 0x40 MLOAD DUP1 SWAP2 SUB SWAP1 REVERT JUMPDEST PUSH2 0x1B78 DUP3 DUP3 PUSH2 0x1A10 JUMP JUMPDEST POP POP JUMP JUMPDEST PUSH0 PUSH1 0x5 PUSH0 SWAP1 SLOAD SWAP1 PUSH2 0x100 EXP SWAP1 DIV PUSH20 0xFFFFFFFFFFFFFFFFFFFFFFFFFFFFFFFFFFFFFFFF AND SWAP1 POP DUP2 PUSH1 0x5 PUSH0 PUSH2 0x100 EXP DUP2 SLOAD DUP2 PUSH20 0xFFFFFFFFFFFFFFFFFFFFFFFFFFFFFFFFFFFFFFFF MUL NOT AND SWAP1 DUP4 PUSH20 0xFFFFFFFFFFFFFFFFFFFFFFFFFFFFFFFFFFFFFFFF AND MUL OR SWAP1 SSTORE POP DUP2 PUSH20 0xFFFFFFFFFFFFFFFFFFFFFFFFFFFFFFFFFFFFFFFF AND DUP2 PUSH20 0xFFFFFFFFFFFFFFFFFFFFFFFFFFFFFFFFFFFFFFFF AND PUSH32 0x8BE0079C531659141344CD1FD0A4F28419497F9722A3DAAFE3B4186F6B6457E0 PUSH1 0x40 MLOAD PUSH1 0x40 MLOAD DUP1 SWAP2 SUB SWAP1 LOG3 POP POP JUMP JUMPDEST PUSH0 PUSH20 0xFFFFFFFFFFFFFFFFFFFFFFFFFFFFFFFFFFFFFFFF AND DUP5 PUSH20 0xFFFFFFFFFFFFFFFFFFFFFFFFFFFFFFFFFFFFFFFF AND SUB PUSH2 0x1CAF JUMPI PUSH0 PUSH1 0x40 MLOAD PUSH32 0xE602DF0500000000000000000000000000000000000000000000000000000000 DUP2 MSTORE PUSH1 0x4 ADD PUSH2 0x1CA6 SWAP2 SWAP1 PUSH2 0x2246 JUMP JUMPDEST PUSH1 0x40 MLOAD DUP1 SWAP2 SUB SWAP1 REVERT JUMPDEST PUSH0 PUSH20 0xFFFFFFFFFFFFFFFFFFFFFFFFFFFFFFFFFFFFFFFF AND DUP4 PUSH20 0xFFFFFFFFFFFFFFFFFFFFFFFFFFFFFFFFFFFFFFFF AND SUB PUSH2 0x1D1F JUMPI PUSH0 PUSH1 0x40 MLOAD PUSH32 0x94280D6200000000000000000000000000000000000000000000000000000000 DUP2 MSTORE PUSH1 0x4 ADD PUSH2 0x1D16 SWAP2 SWAP1 PUSH2 0x2246 JUMP JUMPDEST PUSH1 0x40 MLOAD DUP1 SWAP2 SUB SWAP1 REVERT JUMPDEST DUP2 PUSH1 0x1 PUSH0 DUP7 PUSH20 0xFFFFFFFFFFFFFFFFFFFFFFFFFFFFFFFFFFFFFFFF AND PUSH20 0xFFFFFFFFFFFFFFFFFFFFFFFFFFFFFFFFFFFFFFFF AND DUP2 MSTORE PUSH1 0x20 ADD SWAP1 DUP2 MSTORE PUSH1 0x20 ADD PUSH0 KECCAK256 PUSH0 DUP6 PUSH20 0xFFFFFFFFFFFFFFFFFFFFFFFFFFFFFFFFFFFFFFFF AND PUSH20 0xFFFFFFFFFFFFFFFFFFFFFFFFFFFFFFFFFFFFFFFF AND DUP2 MSTORE PUSH1 0x20 ADD SWAP1 DUP2 MSTORE PUSH1 0x20 ADD PUSH0 KECCAK256 DUP2 SWAP1 SSTORE POP DUP1 ISZERO PUSH2 0x1E08 JUMPI DUP3 PUSH20 0xFFFFFFFFFFFFFFFFFFFFFFFFFFFFFFFFFFFFFFFF AND DUP5 PUSH20 0xFFFFFFFFFFFFFFFFFFFFFFFFFFFFFFFFFFFFFFFF AND PUSH32 0x8C5BE1E5EBEC7D5BD14F71427D1E84F3DD0314C0F7B2291E5B200AC8C7C3B925 DUP5 PUSH1 0x40 MLOAD PUSH2 0x1DFF SWAP2 SWAP1 PUSH2 0x2158 JUMP JUMPDEST PUSH1 0x40 MLOAD DUP1 SWAP2 SUB SWAP1 LOG3 JUMPDEST POP POP POP POP JUMP JUMPDEST PUSH0 PUSH20 0xFFFFFFFFFFFFFFFFFFFFFFFFFFFFFFFFFFFFFFFF AND DUP4 PUSH20 0xFFFFFFFFFFFFFFFFFFFFFFFFFFFFFFFFFFFFFFFF AND SUB PUSH2 0x1E5E JUMPI DUP1 PUSH1 0x2 PUSH0 DUP3 DUP3 SLOAD PUSH2 0x1E52 SWAP2 SWAP1 PUSH2 0x2647 JUMP JUMPDEST SWAP3 POP POP DUP2 SWAP1 SSTORE POP PUSH2 0x1F2C JUMP JUMPDEST PUSH0 DUP1 PUSH0 DUP6 PUSH20 0xFFFFFFFFFFFFFFFFFFFFFFFFFFFFFFFFFFFFFFFF AND PUSH20 0xFFFFFFFFFFFFFFFFFFFFFFFFFFFFFFFFFFFFFFFF AND DUP2 MSTORE PUSH1 0x20 ADD SWAP1 DUP2 MSTORE PUSH1 0x20 ADD PUSH0 KECCAK256 SLOAD SWAP1 POP DUP2 DUP2 LT ISZERO PUSH2 0x1EE7 JUMPI DUP4 DUP2 DUP4 PUSH1 0x40 MLOAD PUSH32 0xE450D38C00000000000000000000000000000000000000000000000000000000 DUP2 MSTORE PUSH1 0x4 ADD PUSH2 0x1EDE SWAP4 SWAP3 SWAP2 SWAP1 PUSH2 0x2B34 JUMP JUMPDEST PUSH1 0x40 MLOAD DUP1 SWAP2 SUB SWAP1 REVERT JUMPDEST DUP2 DUP2 SUB PUSH0 DUP1 DUP7 PUSH20 0xFFFFFFFFFFFFFFFFFFFFFFFFFFFFFFFFFFFFFFFF AND PUSH20 0xFFFFFFFFFFFFFFFFFFFFFFFFFFFFFFFFFFFFFFFF AND DUP2 MSTORE PUSH1 0x20 ADD SWAP1 DUP2 MSTORE PUSH1 0x20 ADD PUSH0 KECCAK256 DUP2 SWAP1 SSTORE POP POP JUMPDEST PUSH0 PUSH20 0xFFFFFFFFFFFFFFFFFFFFFFFFFFFFFFFFFFFFFFFF AND DUP3 PUSH20 0xFFFFFFFFFFFFFFFFFFFFFFFFFFFFFFFFFFFFFFFF AND SUB PUSH2 0x1F73 JUMPI DUP1 PUSH1 0x2 PUSH0 DUP3 DUP3 SLOAD SUB SWAP3 POP POP DUP2 SWAP1 SSTORE POP PUSH2 0x1FBD JUMP JUMPDEST DUP1 PUSH0 DUP1 DUP5 PUSH20 0xFFFFFFFFFFFFFFFFFFFFFFFFFFFFFFFFFFFFFFFF AND PUSH20 0xFFFFFFFFFFFFFFFFFFFFFFFFFFFFFFFFFFFFFFFF AND DUP2 MSTORE PUSH1 0x20 ADD SWAP1 DUP2 MSTORE PUSH1 0x20 ADD PUSH0 KECCAK256 PUSH0 DUP3 DUP3 SLOAD ADD SWAP3 POP POP DUP2 SWAP1 SSTORE POP JUMPDEST DUP2 PUSH20 0xFFFFFFFFFFFFFFFFFFFFFFFFFFFFFFFFFFFFFFFF AND DUP4 PUSH20 0xFFFFFFFFFFFFFFFFFFFFFFFFFFFFFFFFFFFFFFFF AND PUSH32 0xDDF252AD1BE2C89B69C2B068FC378DAA952BA7F163C4A11628F55A4DF523B3EF DUP4 PUSH1 0x40 MLOAD PUSH2 0x201A SWAP2 SWAP1 PUSH2 0x2158 JUMP JUMPDEST PUSH1 0x40 MLOAD DUP1 SWAP2 SUB SWAP1 LOG3 POP POP POP JUMP JUMPDEST PUSH0 DUP2 MLOAD SWAP1 POP SWAP2 SWAP1 POP JUMP JUMPDEST PUSH0 DUP3 DUP3 MSTORE PUSH1 0x20 DUP3 ADD SWAP1 POP SWAP3 SWAP2 POP POP JUMP JUMPDEST DUP3 DUP2 DUP4 MCOPY PUSH0 DUP4 DUP4 ADD MSTORE POP POP POP JUMP JUMPDEST PUSH0 PUSH1 0x1F NOT PUSH1 0x1F DUP4 ADD AND SWAP1 POP SWAP2 SWAP1 POP JUMP JUMPDEST PUSH0 PUSH2 0x2069 DUP3 PUSH2 0x2027 JUMP JUMPDEST PUSH2 0x2073 DUP2 DUP6 PUSH2 0x2031 JUMP JUMPDEST SWAP4 POP PUSH2 0x2083 DUP2 DUP6 PUSH1 0x20 DUP7 ADD PUSH2 0x2041 JUMP JUMPDEST PUSH2 0x208C DUP2 PUSH2 0x204F JUMP JUMPDEST DUP5 ADD SWAP2 POP POP SWAP3 SWAP2 POP POP JUMP JUMPDEST PUSH0 PUSH1 0x20 DUP3 ADD SWAP1 POP DUP2 DUP2 SUB PUSH0 DUP4 ADD MSTORE PUSH2 0x20AF DUP2 DUP5 PUSH2 0x205F JUMP JUMPDEST SWAP1 POP SWAP3 SWAP2 POP POP JUMP JUMPDEST PUSH0 DUP1 REVERT JUMPDEST PUSH0 PUSH20 0xFFFFFFFFFFFFFFFFFFFFFFFFFFFFFFFFFFFFFFFF DUP3 AND SWAP1 POP SWAP2 SWAP1 POP JUMP JUMPDEST PUSH0 PUSH2 0x20E4 DUP3 PUSH2 0x20BB JUMP JUMPDEST SWAP1 POP SWAP2 SWAP1 POP JUMP JUMPDEST PUSH2 0x20F4 DUP2 PUSH2 0x20DA JUMP JUMPDEST DUP2 EQ PUSH2 0x20FE JUMPI PUSH0 DUP1 REVERT JUMPDEST POP JUMP JUMPDEST PUSH0 DUP2 CALLDATALOAD SWAP1 POP PUSH2 0x210F DUP2 PUSH2 0x20EB JUMP JUMPDEST SWAP3 SWAP2 POP POP JUMP JUMPDEST PUSH0 PUSH1 0x20 DUP3 DUP5 SUB SLT ISZERO PUSH2 0x212A JUMPI PUSH2 0x2129 PUSH2 0x20B7 JUMP JUMPDEST JUMPDEST PUSH0 PUSH2 0x2137 DUP5 DUP3 DUP6 ADD PUSH2 0x2101 JUMP JUMPDEST SWAP2 POP POP SWAP3 SWAP2 POP POP JUMP JUMPDEST PUSH0 DUP2 SWAP1 POP SWAP2 SWAP1 POP JUMP JUMPDEST PUSH2 0x2152 DUP2 PUSH2 0x2140 JUMP JUMPDEST DUP3 MSTORE POP POP JUMP JUMPDEST PUSH0 PUSH1 0x20 DUP3 ADD SWAP1 POP PUSH2 0x216B PUSH0 DUP4 ADD DUP5 PUSH2 0x2149 JUMP JUMPDEST SWAP3 SWAP2 POP POP JUMP JUMPDEST PUSH2 0x217A DUP2 PUSH2 0x2140 JUMP JUMPDEST DUP2 EQ PUSH2 0x2184 JUMPI PUSH0 DUP1 REVERT JUMPDEST POP JUMP JUMPDEST PUSH0 DUP2 CALLDATALOAD SWAP1 POP PUSH2 0x2195 DUP2 PUSH2 0x2171 JUMP JUMPDEST SWAP3 SWAP2 POP POP JUMP JUMPDEST PUSH0 DUP1 PUSH1 0x40 DUP4 DUP6 SUB SLT ISZERO PUSH2 0x21B1 JUMPI PUSH2 0x21B0 PUSH2 0x20B7 JUMP JUMPDEST JUMPDEST PUSH0 PUSH2 0x21BE DUP6 DUP3 DUP7 ADD PUSH2 0x2101 JUMP JUMPDEST SWAP3 POP POP PUSH1 0x20 PUSH2 0x21CF DUP6 DUP3 DUP7 ADD PUSH2 0x2187 JUMP JUMPDEST SWAP2 POP POP SWAP3 POP SWAP3 SWAP1 POP JUMP JUMPDEST PUSH0 DUP2 ISZERO ISZERO SWAP1 POP SWAP2 SWAP1 POP JUMP JUMPDEST PUSH2 0x21ED DUP2 PUSH2 0x21D9 JUMP JUMPDEST DUP3 MSTORE POP POP JUMP JUMPDEST PUSH0 PUSH1 0x20 DUP3 ADD SWAP1 POP PUSH2 0x2206 PUSH0 DUP4 ADD DUP5 PUSH2 0x21E4 JUMP JUMPDEST SWAP3 SWAP2 POP POP JUMP JUMPDEST PUSH0 PUSH1 0x20 DUP3 DUP5 SUB SLT ISZERO PUSH2 0x2221 JUMPI PUSH2 0x2220 PUSH2 0x20B7 JUMP JUMPDEST JUMPDEST PUSH0 PUSH2 0x222E DUP5 DUP3 DUP6 ADD PUSH2 0x2187 JUMP JUMPDEST SWAP2 POP POP SWAP3 SWAP2 POP POP JUMP JUMPDEST PUSH2 0x2240 DUP2 PUSH2 0x20DA JUMP JUMPDEST DUP3 MSTORE POP POP JUMP JUMPDEST PUSH0 PUSH1 0x20 DUP3 ADD SWAP1 POP PUSH2 0x2259 PUSH0 DUP4 ADD DUP5 PUSH2 0x2237 JUMP JUMPDEST SWAP3 SWAP2 POP POP JUMP JUMPDEST PUSH0 DUP1 PUSH0 PUSH1 0x60 DUP5 DUP7 SUB SLT ISZERO PUSH2 0x2276 JUMPI PUSH2 0x2275 PUSH2 0x20B7 JUMP JUMPDEST JUMPDEST PUSH0 PUSH2 0x2283 DUP7 DUP3 DUP8 ADD PUSH2 0x2101 JUMP JUMPDEST SWAP4 POP POP PUSH1 0x20 PUSH2 0x2294 DUP7 DUP3 DUP8 ADD PUSH2 0x2101 JUMP JUMPDEST SWAP3 POP POP PUSH1 0x40 PUSH2 0x22A5 DUP7 DUP3 DUP8 ADD PUSH2 0x2187 JUMP JUMPDEST SWAP2 POP POP SWAP3 POP SWAP3 POP SWAP3 JUMP JUMPDEST PUSH0 PUSH1 0xFF DUP3 AND SWAP1 POP SWAP2 SWAP1 POP JUMP JUMPDEST PUSH2 0x22C4 DUP2 PUSH2 0x22AF JUMP JUMPDEST DUP3 MSTORE POP POP JUMP JUMPDEST PUSH0 PUSH1 0x20 DUP3 ADD SWAP1 POP PUSH2 0x22DD PUSH0 DUP4 ADD DUP5 PUSH2 0x22BB JUMP JUMPDEST SWAP3 SWAP2 POP POP JUMP JUMPDEST PUSH0 DUP2 MLOAD SWAP1 POP SWAP2 SWAP1 POP JUMP JUMPDEST PUSH0 DUP3 DUP3 MSTORE PUSH1 0x20 DUP3 ADD SWAP1 POP SWAP3 SWAP2 POP POP JUMP JUMPDEST PUSH0 DUP2 SWAP1 POP PUSH1 0x20 DUP3 ADD SWAP1 POP SWAP2 SWAP1 POP JUMP JUMPDEST PUSH2 0x2315 DUP2 PUSH2 0x20DA JUMP JUMPDEST DUP3 MSTORE POP POP JUMP JUMPDEST PUSH0 PUSH2 0x2326 DUP4 DUP4 PUSH2 0x230C JUMP JUMPDEST PUSH1 0x20 DUP4 ADD SWAP1 POP SWAP3 SWAP2 POP POP JUMP JUMPDEST PUSH0 PUSH1 0x20 DUP3 ADD SWAP1 POP SWAP2 SWAP1 POP JUMP JUMPDEST PUSH0 PUSH2 0x2348 DUP3 PUSH2 0x22E3 JUMP JUMPDEST PUSH2 0x2352 DUP2 DUP6 PUSH2 0x22ED JUMP JUMPDEST SWAP4 POP PUSH2 0x235D DUP4 PUSH2 0x22FD JUMP JUMPDEST DUP1 PUSH0 JUMPDEST DUP4 DUP2 LT ISZERO PUSH2 0x238D JUMPI DUP2 MLOAD PUSH2 0x2374 DUP9 DUP3 PUSH2 0x231B JUMP JUMPDEST SWAP8 POP PUSH2 0x237F DUP4 PUSH2 0x2332 JUMP JUMPDEST SWAP3 POP POP PUSH1 0x1 DUP2 ADD SWAP1 POP PUSH2 0x2360 JUMP JUMPDEST POP DUP6 SWAP4 POP POP POP POP SWAP3 SWAP2 POP POP JUMP JUMPDEST PUSH0 PUSH1 0x20 DUP3 ADD SWAP1 POP DUP2 DUP2 SUB PUSH0 DUP4 ADD MSTORE PUSH2 0x23B2 DUP2 DUP5 PUSH2 0x233E JUMP JUMPDEST SWAP1 POP SWAP3 SWAP2 POP POP JUMP JUMPDEST PUSH0 DUP1 PUSH1 0x40 DUP4 DUP6 SUB SLT ISZERO PUSH2 0x23D0 JUMPI PUSH2 0x23CF PUSH2 0x20B7 JUMP JUMPDEST JUMPDEST PUSH0 PUSH2 0x23DD DUP6 DUP3 DUP7 ADD PUSH2 0x2101 JUMP JUMPDEST SWAP3 POP POP PUSH1 0x20 PUSH2 0x23EE DUP6 DUP3 DUP7 ADD PUSH2 0x2101 JUMP JUMPDEST SWAP2 POP POP SWAP3 POP SWAP3 SWAP1 POP JUMP JUMPDEST PUSH32 0x4E487B7100000000000000000000000000000000000000000000000000000000 PUSH0 MSTORE PUSH1 0x22 PUSH1 0x4 MSTORE PUSH1 0x24 PUSH0 REVERT JUMPDEST PUSH0 PUSH1 0x2 DUP3 DIV SWAP1 POP PUSH1 0x1 DUP3 AND DUP1 PUSH2 0x243C JUMPI PUSH1 0x7F DUP3 AND SWAP2 POP JUMPDEST PUSH1 0x20 DUP3 LT DUP2 SUB PUSH2 0x244F JUMPI PUSH2 0x244E PUSH2 0x23F8 JUMP JUMPDEST JUMPDEST POP SWAP2 SWAP1 POP JUMP JUMPDEST PUSH32 0x4E6F7420616E2061646D696E0000000000000000000000000000000000000000 PUSH0 DUP3 ADD MSTORE POP JUMP JUMPDEST PUSH0 PUSH2 0x2489 PUSH1 0xC DUP4 PUSH2 0x2031 JUMP JUMPDEST SWAP2 POP PUSH2 0x2494 DUP3 PUSH2 0x2455 JUMP JUMPDEST PUSH1 0x20 DUP3 ADD SWAP1 POP SWAP2 SWAP1 POP JUMP JUMPDEST PUSH0 PUSH1 0x20 DUP3 ADD SWAP1 POP DUP2 DUP2 SUB PUSH0 DUP4 ADD MSTORE PUSH2 0x24B6 DUP2 PUSH2 0x247D JUMP JUMPDEST SWAP1 POP SWAP2 SWAP1 POP JUMP JUMPDEST PUSH32 0x43616E6E6F742072656D6F766520746865206C6173742061646D696E00000000 PUSH0 DUP3 ADD MSTORE POP JUMP JUMPDEST PUSH0 PUSH2 0x24F1 PUSH1 0x1C DUP4 PUSH2 0x2031 JUMP JUMPDEST SWAP2 POP PUSH2 0x24FC DUP3 PUSH2 0x24BD JUMP JUMPDEST PUSH1 0x20 DUP3 ADD SWAP1 POP SWAP2 SWAP1 POP JUMP JUMPDEST PUSH0 PUSH1 0x20 DUP3 ADD SWAP1 POP DUP2 DUP2 SUB PUSH0 DUP4 ADD MSTORE PUSH2 0x251E DUP2 PUSH2 0x24E5 JUMP JUMPDEST SWAP1 POP SWAP2 SWAP1 POP JUMP JUMPDEST PUSH32 0x4E487B7100000000000000000000000000000000000000000000000000000000 PUSH0 MSTORE PUSH1 0x32 PUSH1 0x4 MSTORE PUSH1 0x24 PUSH0 REVERT JUMPDEST PUSH32 0x4E487B7100000000000000000000000000000000000000000000000000000000 PUSH0 MSTORE PUSH1 0x11 PUSH1 0x4 MSTORE PUSH1 0x24 PUSH0 REVERT JUMPDEST PUSH0 PUSH2 0x2589 DUP3 PUSH2 0x2140 JUMP JUMPDEST SWAP2 POP PUSH2 0x2594 DUP4 PUSH2 0x2140 JUMP JUMPDEST SWAP3 POP DUP3 DUP3 SUB SWAP1 POP DUP2 DUP2 GT ISZERO PUSH2 0x25AC JUMPI PUSH2 0x25AB PUSH2 0x2552 JUMP JUMPDEST JUMPDEST SWAP3 SWAP2 POP POP JUMP JUMPDEST PUSH32 0x4E487B7100000000000000000000000000000000000000000000000000000000 PUSH0 MSTORE PUSH1 0x31 PUSH1 0x4 MSTORE PUSH1 0x24 PUSH0 REVERT JUMPDEST PUSH32 0x496E73756666696369656E74207374616B652062616C616E6365000000000000 PUSH0 DUP3 ADD MSTORE POP JUMP JUMPDEST PUSH0 PUSH2 0x2613 PUSH1 0x1A DUP4 PUSH2 0x2031 JUMP JUMPDEST SWAP2 POP PUSH2 0x261E DUP3 PUSH2 0x25DF JUMP JUMPDEST PUSH1 0x20 DUP3 ADD SWAP1 POP SWAP2 SWAP1 POP JUMP JUMPDEST PUSH0 PUSH1 0x20 DUP3 ADD SWAP1 POP DUP2 DUP2 SUB PUSH0 DUP4 ADD MSTORE PUSH2 0x2640 DUP2 PUSH2 0x2607 JUMP JUMPDEST SWAP1 POP SWAP2 SWAP1 POP JUMP JUMPDEST PUSH0 PUSH2 0x2651 DUP3 PUSH2 0x2140 JUMP JUMPDEST SWAP2 POP PUSH2 0x265C DUP4 PUSH2 0x2140 JUMP JUMPDEST SWAP3 POP DUP3 DUP3 ADD SWAP1 POP DUP1 DUP3 GT ISZERO PUSH2 0x2674 JUMPI PUSH2 0x2673 PUSH2 0x2552 JUMP JUMPDEST JUMPDEST SWAP3 SWAP2 POP POP JUMP JUMPDEST PUSH32 0x436F6F6C646F776E20706572696F64206E6F74206D657420666F7220756E7374 PUSH0 DUP3 ADD MSTORE PUSH32 0x616B696E67000000000000000000000000000000000000000000000000000000 PUSH1 0x20 DUP3 ADD MSTORE POP JUMP JUMPDEST PUSH0 PUSH2 0x26D4 PUSH1 0x25 DUP4 PUSH2 0x2031 JUMP JUMPDEST SWAP2 POP PUSH2 0x26DF DUP3 PUSH2 0x267A JUMP JUMPDEST PUSH1 0x40 DUP3 ADD SWAP1 POP SWAP2 SWAP1 POP JUMP JUMPDEST PUSH0 PUSH1 0x20 DUP3 ADD SWAP1 POP DUP2 DUP2 SUB PUSH0 DUP4 ADD MSTORE PUSH2 0x2701 DUP2 PUSH2 0x26C8 JUMP JUMPDEST SWAP1 POP SWAP2 SWAP1 POP JUMP JUMPDEST PUSH0 PUSH2 0x2712 DUP3 PUSH2 0x2140 JUMP JUMPDEST SWAP2 POP PUSH2 0x271D DUP4 PUSH2 0x2140 JUMP JUMPDEST SWAP3 POP DUP3 DUP3 MUL PUSH2 0x272B DUP2 PUSH2 0x2140 JUMP JUMPDEST SWAP2 POP DUP3 DUP3 DIV DUP5 EQ DUP4 ISZERO OR PUSH2 0x2742 JUMPI PUSH2 0x2741 PUSH2 0x2552 JUMP JUMPDEST JUMPDEST POP SWAP3 SWAP2 POP POP JUMP JUMPDEST PUSH32 0x4E487B7100000000000000000000000000000000000000000000000000000000 PUSH0 MSTORE PUSH1 0x12 PUSH1 0x4 MSTORE PUSH1 0x24 PUSH0 REVERT JUMPDEST PUSH0 PUSH2 0x2780 DUP3 PUSH2 0x2140 JUMP JUMPDEST SWAP2 POP PUSH2 0x278B DUP4 PUSH2 0x2140 JUMP JUMPDEST SWAP3 POP DUP3 PUSH2 0x279B JUMPI PUSH2 0x279A PUSH2 0x2749 JUMP JUMPDEST JUMPDEST DUP3 DUP3 DIV SWAP1 POP SWAP3 SWAP2 POP POP JUMP JUMPDEST PUSH32 0x416C6C20746F6B656E73206D696E656400000000000000000000000000000000 PUSH0 DUP3 ADD MSTORE POP JUMP JUMPDEST PUSH0 PUSH2 0x27DA PUSH1 0x10 DUP4 PUSH2 0x2031 JUMP JUMPDEST SWAP2 POP PUSH2 0x27E5 DUP3 PUSH2 0x27A6 JUMP JUMPDEST PUSH1 0x20 DUP3 ADD SWAP1 POP SWAP2 SWAP1 POP JUMP JUMPDEST PUSH0 PUSH1 0x20 DUP3 ADD SWAP1 POP DUP2 DUP2 SUB PUSH0 DUP4 ADD MSTORE PUSH2 0x2807 DUP2 PUSH2 0x27CE JUMP JUMPDEST SWAP1 POP SWAP2 SWAP1 POP JUMP JUMPDEST PUSH0 DUP2 PUSH1 0x60 SHL SWAP1 POP SWAP2 SWAP1 POP JUMP JUMPDEST PUSH0 PUSH2 0x2824 DUP3 PUSH2 0x280E JUMP JUMPDEST SWAP1 POP SWAP2 SWAP1 POP JUMP JUMPDEST PUSH0 PUSH2 0x2835 DUP3 PUSH2 0x281A JUMP JUMPDEST SWAP1 POP SWAP2 SWAP1 POP JUMP JUMPDEST PUSH2 0x284D PUSH2 0x2848 DUP3 PUSH2 0x20DA JUMP JUMPDEST PUSH2 0x282B JUMP JUMPDEST DUP3 MSTORE POP POP JUMP JUMPDEST PUSH0 DUP2 SWAP1 POP SWAP2 SWAP1 POP JUMP JUMPDEST PUSH2 0x286D PUSH2 0x2868 DUP3 PUSH2 0x2140 JUMP JUMPDEST PUSH2 0x2853 JUMP JUMPDEST DUP3 MSTORE POP POP JUMP JUMPDEST PUSH0 PUSH2 0x287E DUP3 DUP6 PUSH2 0x283C JUMP JUMPDEST PUSH1 0x14 DUP3 ADD SWAP2 POP PUSH2 0x288E DUP3 DUP5 PUSH2 0x285C JUMP JUMPDEST PUSH1 0x20 DUP3 ADD SWAP2 POP DUP2 SWAP1 POP SWAP4 SWAP3 POP POP POP JUMP JUMPDEST PUSH32 0x4D696E696E6720646966666963756C7479206E6F74206D657400000000000000 PUSH0 DUP3 ADD MSTORE POP JUMP JUMPDEST PUSH0 PUSH2 0x28D2 PUSH1 0x19 DUP4 PUSH2 0x2031 JUMP JUMPDEST SWAP2 POP PUSH2 0x28DD DUP3 PUSH2 0x289E JUMP JUMPDEST PUSH1 0x20 DUP3 ADD SWAP1 POP SWAP2 SWAP1 POP JUMP JUMPDEST PUSH0 PUSH1 0x20 DUP3 ADD SWAP1 POP DUP2 DUP2 SUB PUSH0 DUP4 ADD MSTORE PUSH2 0x28FF DUP2 PUSH2 0x28C6 JUMP JUMPDEST SWAP1 POP SWAP2 SWAP1 POP JUMP JUMPDEST PUSH32 0x416C726561647920616E2061646D696E00000000000000000000000000000000 PUSH0 DUP3 ADD MSTORE POP JUMP JUMPDEST PUSH0 PUSH2 0x293A PUSH1 0x10 DUP4 PUSH2 0x2031 JUMP JUMPDEST SWAP2 POP PUSH2 0x2945 DUP3 PUSH2 0x2906 JUMP JUMPDEST PUSH1 0x20 DUP3 ADD SWAP1 POP SWAP2 SWAP1 POP JUMP JUMPDEST PUSH0 PUSH1 0x20 DUP3 ADD SWAP1 POP DUP2 DUP2 SUB PUSH0 DUP4 ADD MSTORE PUSH2 0x2967 DUP2 PUSH2 0x292E JUMP JUMPDEST SWAP1 POP SWAP2 SWAP1 POP JUMP JUMPDEST PUSH32 0x43616E6E6F74207374616B65203020746F6B656E730000000000000000000000 PUSH0 DUP3 ADD MSTORE POP JUMP JUMPDEST PUSH0 PUSH2 0x29A2 PUSH1 0x15 DUP4 PUSH2 0x2031 JUMP JUMPDEST SWAP2 POP PUSH2 0x29AD DUP3 PUSH2 0x296E JUMP JUMPDEST PUSH1 0x20 DUP3 ADD SWAP1 POP SWAP2 SWAP1 POP JUMP JUMPDEST PUSH0 PUSH1 0x20 DUP3 ADD SWAP1 POP DUP2 DUP2 SUB PUSH0 DUP4 ADD MSTORE PUSH2 0x29CF DUP2 PUSH2 0x2996 JUMP JUMPDEST SWAP1 POP SWAP2 SWAP1 POP JUMP JUMPDEST PUSH32 0x436F6F6C646F776E20706572696F64206E6F74206D657420666F72207374616B PUSH0 DUP3 ADD MSTORE PUSH32 0x696E670000000000000000000000000000000000000000000000000000000000 PUSH1 0x20 DUP3 ADD MSTORE POP JUMP JUMPDEST PUSH0 PUSH2 0x2A30 PUSH1 0x23 DUP4 PUSH2 0x2031 JUMP JUMPDEST SWAP2 POP PUSH2 0x2A3B DUP3 PUSH2 0x29D6 JUMP JUMPDEST PUSH1 0x40 DUP3 ADD SWAP1 POP SWAP2 SWAP1 POP JUMP JUMPDEST PUSH0 PUSH1 0x20 DUP3 ADD SWAP1 POP DUP2 DUP2 SUB PUSH0 DUP4 ADD MSTORE PUSH2 0x2A5D DUP2 PUSH2 0x2A24 JUMP JUMPDEST SWAP1 POP SWAP2 SWAP1 POP JUMP JUMPDEST PUSH32 0x496E76616C6964206E6577206F776E6572000000000000000000000000000000 PUSH0 DUP3 ADD MSTORE POP JUMP JUMPDEST PUSH0 PUSH2 0x2A98 PUSH1 0x11 DUP4 PUSH2 0x2031 JUMP JUMPDEST SWAP2 POP PUSH2 0x2AA3 DUP3 PUSH2 0x2A64 JUMP JUMPDEST PUSH1 0x20 DUP3 ADD SWAP1 POP SWAP2 SWAP1 POP JUMP JUMPDEST PUSH0 PUSH1 0x20 DUP3 ADD SWAP1 POP DUP2 DUP2 SUB PUSH0 DUP4 ADD MSTORE PUSH2 0x2AC5 DUP2 PUSH2 0x2A8C JUMP JUMPDEST SWAP1 POP SWAP2 SWAP1 POP JUMP JUMPDEST PUSH32 0x4E6F207265776172647320746F20776974686472617700000000000000000000 PUSH0 DUP3 ADD MSTORE POP JUMP JUMPDEST PUSH0 PUSH2 0x2B00 PUSH1 0x16 DUP4 PUSH2 0x2031 JUMP JUMPDEST SWAP2 POP PUSH2 0x2B0B DUP3 PUSH2 0x2ACC JUMP JUMPDEST PUSH1 0x20 DUP3 ADD SWAP1 POP SWAP2 SWAP1 POP JUMP JUMPDEST PUSH0 PUSH1 0x20 DUP3 ADD SWAP1 POP DUP2 DUP2 SUB PUSH0 DUP4 ADD MSTORE PUSH2 0x2B2D DUP2 PUSH2 0x2AF4 JUMP JUMPDEST SWAP1 POP SWAP2 SWAP1 POP JUMP JUMPDEST PUSH0 PUSH1 0x60 DUP3 ADD SWAP1 POP PUSH2 0x2B47 PUSH0 DUP4 ADD DUP7 PUSH2 0x2237 JUMP JUMPDEST PUSH2 0x2B54 PUSH1 0x20 DUP4 ADD DUP6 PUSH2 0x2149 JUMP JUMPDEST PUSH2 0x2B61 PUSH1 0x40 DUP4 ADD DUP5 PUSH2 0x2149 JUMP JUMPDEST SWAP5 SWAP4 POP POP POP POP JUMP JUMPDEST PUSH32 0x4D696E74696E672065786365656473206D617820737570706C79000000000000 PUSH0 DUP3 ADD MSTORE POP JUMP JUMPDEST PUSH0 PUSH2 0x2B9D PUSH1 0x1A DUP4 PUSH2 0x2031 JUMP JUMPDEST SWAP2 POP PUSH2 0x2BA8 DUP3 PUSH2 0x2B69 JUMP JUMPDEST PUSH1 0x20 DUP3 ADD SWAP1 POP SWAP2 SWAP1 POP JUMP JUMPDEST PUSH0 PUSH1 0x20 DUP3 ADD SWAP1 POP DUP2 DUP2 SUB PUSH0 DUP4 ADD MSTORE PUSH2 0x2BCA DUP2 PUSH2 0x2B91 JUMP JUMPDEST SWAP1 POP SWAP2 SWAP1 POP JUMP INVALID LOG2 PUSH5 0x6970667358 0x22 SLT KECCAK256 0xC4 GAS SWAP6 0xEE 0xAA MSTORE DUP16 SWAP12 PUSH21 0xE29CE055F60C1132FB7D1DE34EE80423786713A28E 0xAD PUSH1 0x64 PUSH20 0x6F6C634300081A00330000000000000000000000 "
				},
				"gasEstimates": {
					"creation": {
						"codeDepositCost": "2254200",
						"executionCost": "infinite",
						"totalCost": "infinite"
					},
					"external": {
						"COOLDOWN_PERIOD()": "393",
						"MAX_SUPPLY()": "370",
						"addAdmin(address)": "infinite",
						"admins(uint256)": "5057",
						"allowance(address,address)": "infinite",
						"approve(address,uint256)": "infinite",
						"balanceOf(address)": "2941",
						"burn(uint256)": "infinite",
						"burnFrom(address,uint256)": "infinite",
						"calculateReward(address)": "infinite",
						"changeOwner(address)": "infinite",
						"decimals()": "428",
						"difficulty()": "2537",
						"getAdmins()": "infinite",
						"isAdmin(address)": "2879",
						"lastStakeTime(address)": "2913",
						"lastUnstakeTime(address)": "2869",
						"mine(uint256)": "infinite",
						"name()": "infinite",
						"owner()": "2560",
						"removeAdmin(address)": "infinite",
						"renounceOwnership()": "infinite",
						"rewardRate()": "2514",
						"rewards(address)": "2871",
						"setDifficulty(uint256)": "24800",
						"setRewardRate(uint256)": "24843",
						"stake(uint256)": "infinite",
						"stakes(address)": "2848",
						"symbol()": "infinite",
						"totalMined()": "2558",
						"totalStaked()": "2558",
						"totalSupply()": "2522",
						"transfer(address,uint256)": "infinite",
						"transferFrom(address,address,uint256)": "infinite",
						"transferOwnership(address)": "infinite",
						"unstake(uint256)": "infinite",
						"withdrawRewards()": "infinite"
					},
					"internal": {
						"_mintWithCapCheck(address,uint256)": "infinite"
					}
				},
				"methodIdentifiers": {
					"COOLDOWN_PERIOD()": "6e99d52f",
					"MAX_SUPPLY()": "32cb6b0c",
					"addAdmin(address)": "70480275",
					"admins(uint256)": "14bfd6d0",
					"allowance(address,address)": "dd62ed3e",
					"approve(address,uint256)": "095ea7b3",
					"balanceOf(address)": "70a08231",
					"burn(uint256)": "42966c68",
					"burnFrom(address,uint256)": "79cc6790",
					"calculateReward(address)": "d82e3962",
					"changeOwner(address)": "a6f9dae1",
					"decimals()": "313ce567",
					"difficulty()": "19cae462",
					"getAdmins()": "31ae450b",
					"isAdmin(address)": "24d7806c",
					"lastStakeTime(address)": "7bb1ca19",
					"lastUnstakeTime(address)": "331e03a8",
					"mine(uint256)": "4d474898",
					"name()": "06fdde03",
					"owner()": "8da5cb5b",
					"removeAdmin(address)": "1785f53c",
					"renounceOwnership()": "715018a6",
					"rewardRate()": "7b0a47ee",
					"rewards(address)": "0700037d",
					"setDifficulty(uint256)": "602512e1",
					"setRewardRate(uint256)": "9e447fc6",
					"stake(uint256)": "a694fc3a",
					"stakes(address)": "16934fc4",
					"symbol()": "95d89b41",
					"totalMined()": "5556db65",
					"totalStaked()": "817b1cd2",
					"totalSupply()": "18160ddd",
					"transfer(address,uint256)": "a9059cbb",
					"transferFrom(address,address,uint256)": "23b872dd",
					"transferOwnership(address)": "f2fde38b",
					"unstake(uint256)": "2e17de78",
					"withdrawRewards()": "c7b8981c"
				}
			},
			"storageLayout": {
				"storage": [
					{
						"astId": 307,
						"contract": "contracts/regalium.sol:RegaliumToken",
						"label": "_balances",
						"offset": 0,
						"slot": "0",
						"type": "t_mapping(t_address,t_uint256)"
					},
					{
						"astId": 313,
						"contract": "contracts/regalium.sol:RegaliumToken",
						"label": "_allowances",
						"offset": 0,
						"slot": "1",
						"type": "t_mapping(t_address,t_mapping(t_address,t_uint256))"
					},
					{
						"astId": 315,
						"contract": "contracts/regalium.sol:RegaliumToken",
						"label": "_totalSupply",
						"offset": 0,
						"slot": "2",
						"type": "t_uint256"
					},
					{
						"astId": 317,
						"contract": "contracts/regalium.sol:RegaliumToken",
						"label": "_name",
						"offset": 0,
						"slot": "3",
						"type": "t_string_storage"
					},
					{
						"astId": 319,
						"contract": "contracts/regalium.sol:RegaliumToken",
						"label": "_symbol",
						"offset": 0,
						"slot": "4",
						"type": "t_string_storage"
					},
					{
						"astId": 8,
						"contract": "contracts/regalium.sol:RegaliumToken",
						"label": "_owner",
						"offset": 0,
						"slot": "5",
						"type": "t_address"
					},
					{
						"astId": 999,
						"contract": "contracts/regalium.sol:RegaliumToken",
						"label": "totalMined",
						"offset": 0,
						"slot": "6",
						"type": "t_uint256"
					},
					{
						"astId": 1004,
						"contract": "contracts/regalium.sol:RegaliumToken",
						"label": "difficulty",
						"offset": 0,
						"slot": "7",
						"type": "t_uint256"
					},
					{
						"astId": 1008,
						"contract": "contracts/regalium.sol:RegaliumToken",
						"label": "stakes",
						"offset": 0,
						"slot": "8",
						"type": "t_mapping(t_address,t_uint256)"
					},
					{
						"astId": 1012,
						"contract": "contracts/regalium.sol:RegaliumToken",
						"label": "rewards",
						"offset": 0,
						"slot": "9",
						"type": "t_mapping(t_address,t_uint256)"
					},
					{
						"astId": 1016,
						"contract": "contracts/regalium.sol:RegaliumToken",
						"label": "lastStakeTime",
						"offset": 0,
						"slot": "10",
						"type": "t_mapping(t_address,t_uint256)"
					},
					{
						"astId": 1020,
						"contract": "contracts/regalium.sol:RegaliumToken",
						"label": "lastUnstakeTime",
						"offset": 0,
						"slot": "11",
						"type": "t_mapping(t_address,t_uint256)"
					},
					{
						"astId": 1022,
						"contract": "contracts/regalium.sol:RegaliumToken",
						"label": "totalStaked",
						"offset": 0,
						"slot": "12",
						"type": "t_uint256"
					},
					{
						"astId": 1025,
						"contract": "contracts/regalium.sol:RegaliumToken",
						"label": "rewardRate",
						"offset": 0,
						"slot": "13",
						"type": "t_uint256"
					},
					{
						"astId": 1031,
						"contract": "contracts/regalium.sol:RegaliumToken",
						"label": "admins",
						"offset": 0,
						"slot": "14",
						"type": "t_array(t_address)dyn_storage"
					},
					{
						"astId": 1035,
						"contract": "contracts/regalium.sol:RegaliumToken",
						"label": "isAdmin",
						"offset": 0,
						"slot": "15",
						"type": "t_mapping(t_address,t_bool)"
					}
				],
				"types": {
					"t_address": {
						"encoding": "inplace",
						"label": "address",
						"numberOfBytes": "20"
					},
					"t_array(t_address)dyn_storage": {
						"base": "t_address",
						"encoding": "dynamic_array",
						"label": "address[]",
						"numberOfBytes": "32"
					},
					"t_bool": {
						"encoding": "inplace",
						"label": "bool",
						"numberOfBytes": "1"
					},
					"t_mapping(t_address,t_bool)": {
						"encoding": "mapping",
						"key": "t_address",
						"label": "mapping(address => bool)",
						"numberOfBytes": "32",
						"value": "t_bool"
					},
					"t_mapping(t_address,t_mapping(t_address,t_uint256))": {
						"encoding": "mapping",
						"key": "t_address",
						"label": "mapping(address => mapping(address => uint256))",
						"numberOfBytes": "32",
						"value": "t_mapping(t_address,t_uint256)"
					},
					"t_mapping(t_address,t_uint256)": {
						"encoding": "mapping",
						"key": "t_address",
						"label": "mapping(address => uint256)",
						"numberOfBytes": "32",
						"value": "t_uint256"
					},
					"t_string_storage": {
						"encoding": "bytes",
						"label": "string",
						"numberOfBytes": "32"
					},
					"t_uint256": {
						"encoding": "inplace",
						"label": "uint256",
						"numberOfBytes": "32"
					}
				}
			},
			"userdoc": {
				"kind": "user",
				"methods": {},
				"version": 1
			}
		}
	}
}