{
  "_format": "hh-sol-artifact-1",
  "contractName": "RegaliumToken",
  "sourceName": "contracts/presale.sol",
  "abi": [
    {
      "inputs": [],
      "stateMutability": "nonpayable",
      "type": "constructor"
    },
    {
      "inputs": [
        {
          "internalType": "address",
          "name": "spender",
          "type": "address"
        },
        {
          "internalType": "uint256",
          "name": "allowance",
          "type": "uint256"
        },
        {
          "internalType": "uint256",
          "name": "needed",
          "type": "uint256"
        }
      ],
      "name": "ERC20InsufficientAllowance",
      "type": "error"
    },
    {
      "inputs": [
        {
          "internalType": "address",
          "name": "sender",
          "type": "address"
        },
        {
          "internalType": "uint256",
          "name": "balance",
          "type": "uint256"
        },
        {
          "internalType": "uint256",
          "name": "needed",
          "type": "uint256"
        }
      ],
      "name": "ERC20InsufficientBalance",
      "type": "error"
    },
    {
      "inputs": [
        {
          "internalType": "address",
          "name": "approver",
          "type": "address"
        }
      ],
      "name": "ERC20InvalidApprover",
      "type": "error"
    },
    {
      "inputs": [
        {
          "internalType": "address",
          "name": "receiver",
          "type": "address"
        }
      ],
      "name": "ERC20InvalidReceiver",
      "type": "error"
    },
    {
      "inputs": [
        {
          "internalType": "address",
          "name": "sender",
          "type": "address"
        }
      ],
      "name": "ERC20InvalidSender",
      "type": "error"
    },
    {
      "inputs": [
        {
          "internalType": "address",
          "name": "spender",
          "type": "address"
        }
      ],
      "name": "ERC20InvalidSpender",
      "type": "error"
    },
    {
      "anonymous": false,
      "inputs": [
        {
          "indexed": true,
          "internalType": "address",
          "name": "owner",
          "type": "address"
        },
        {
          "indexed": true,
          "internalType": "address",
          "name": "spender",
          "type": "address"
        },
        {
          "indexed": false,
          "internalType": "uint256",
          "name": "value",
          "type": "uint256"
        }
      ],
      "name": "Approval",
      "type": "event"
    },
    {
      "anonymous": false,
      "inputs": [
        {
          "indexed": true,
          "internalType": "address",
          "name": "user",
          "type": "address"
        },
        {
          "indexed": false,
          "internalType": "uint256",
          "name": "gasUsed",
          "type": "uint256"
        }
      ],
      "name": "GasEstimate",
      "type": "event"
    },
    {
      "anonymous": false,
      "inputs": [
        {
          "indexed": false,
          "internalType": "bytes32",
          "name": "hash",
          "type": "bytes32"
        },
        {
          "indexed": false,
          "internalType": "uint256",
          "name": "difficulty",
          "type": "uint256"
        }
      ],
      "name": "MiningAttempt",
      "type": "event"
    },
    {
      "anonymous": false,
      "inputs": [
        {
          "indexed": true,
          "internalType": "address",
          "name": "buyer",
          "type": "address"
        },
        {
          "indexed": false,
          "internalType": "uint256",
          "name": "amount",
          "type": "uint256"
        }
      ],
      "name": "TokensBought",
      "type": "event"
    },
    {
      "anonymous": false,
      "inputs": [
        {
          "indexed": true,
          "internalType": "address",
          "name": "seller",
          "type": "address"
        },
        {
          "indexed": false,
          "internalType": "uint256",
          "name": "amount",
          "type": "uint256"
        }
      ],
      "name": "TokensSold",
      "type": "event"
    },
    {
      "anonymous": false,
      "inputs": [
        {
          "indexed": true,
          "internalType": "address",
          "name": "from",
          "type": "address"
        },
        {
          "indexed": true,
          "internalType": "address",
          "name": "to",
          "type": "address"
        },
        {
          "indexed": false,
          "internalType": "uint256",
          "name": "value",
          "type": "uint256"
        }
      ],
      "name": "Transfer",
      "type": "event"
    },
    {
      "inputs": [],
      "name": "COOLDOWN_PERIOD",
      "outputs": [
        {
          "internalType": "uint256",
          "name": "",
          "type": "uint256"
        }
      ],
      "stateMutability": "view",
      "type": "function"
    },
    {
      "inputs": [],
      "name": "MAX_SUPPLY",
      "outputs": [
        {
          "internalType": "uint256",
          "name": "",
          "type": "uint256"
        }
      ],
      "stateMutability": "view",
      "type": "function"
    },
    {
      "inputs": [
        {
          "internalType": "address",
          "name": "owner",
          "type": "address"
        },
        {
          "internalType": "address",
          "name": "spender",
          "type": "address"
        }
      ],
      "name": "allowance",
      "outputs": [
        {
          "internalType": "uint256",
          "name": "",
          "type": "uint256"
        }
      ],
      "stateMutability": "view",
      "type": "function"
    },
    {
      "inputs": [
        {
          "internalType": "address",
          "name": "spender",
          "type": "address"
        },
        {
          "internalType": "uint256",
          "name": "value",
          "type": "uint256"
        }
      ],
      "name": "approve",
      "outputs": [
        {
          "internalType": "bool",
          "name": "",
          "type": "bool"
        }
      ],
      "stateMutability": "nonpayable",
      "type": "function"
    },
    {
      "inputs": [
        {
          "internalType": "address",
          "name": "account",
          "type": "address"
        }
      ],
      "name": "balanceOf",
      "outputs": [
        {
          "internalType": "uint256",
          "name": "",
          "type": "uint256"
        }
      ],
      "stateMutability": "view",
      "type": "function"
    },
    {
      "inputs": [
        {
          "internalType": "uint256",
          "name": "value",
          "type": "uint256"
        }
      ],
      "name": "burn",
      "outputs": [],
      "stateMutability": "nonpayable",
      "type": "function"
    },
    {
      "inputs": [
        {
          "internalType": "address",
          "name": "account",
          "type": "address"
        },
        {
          "internalType": "uint256",
          "name": "value",
          "type": "uint256"
        }
      ],
      "name": "burnFrom",
      "outputs": [],
      "stateMutability": "nonpayable",
      "type": "function"
    },
    {
      "inputs": [],
      "name": "buybackEnabled",
      "outputs": [
        {
          "internalType": "bool",
          "name": "",
          "type": "bool"
        }
      ],
      "stateMutability": "view",
      "type": "function"
    },
    {
      "inputs": [],
      "name": "buybackRate",
      "outputs": [
        {
          "internalType": "uint256",
          "name": "",
          "type": "uint256"
        }
      ],
      "stateMutability": "view",
      "type": "function"
    },
    {
      "inputs": [],
      "name": "decimals",
      "outputs": [
        {
          "internalType": "uint8",
          "name": "",
          "type": "uint8"
        }
      ],
      "stateMutability": "view",
      "type": "function"
    },
    {
      "inputs": [],
      "name": "difficulty",
      "outputs": [
        {
          "internalType": "uint256",
          "name": "",
          "type": "uint256"
        }
      ],
      "stateMutability": "view",
      "type": "function"
    },
    {
      "inputs": [
        {
          "internalType": "address",
          "name": "",
          "type": "address"
        }
      ],
      "name": "lastStakeTime",
      "outputs": [
        {
          "internalType": "uint256",
          "name": "",
          "type": "uint256"
        }
      ],
      "stateMutability": "view",
      "type": "function"
    },
    {
      "inputs": [
        {
          "internalType": "address",
          "name": "",
          "type": "address"
        }
      ],
      "name": "lastUnstakeTime",
      "outputs": [
        {
          "internalType": "uint256",
          "name": "",
          "type": "uint256"
        }
      ],
      "stateMutability": "view",
      "type": "function"
    },
    {
      "inputs": [
        {
          "internalType": "uint256",
          "name": "nonce",
          "type": "uint256"
        }
      ],
      "name": "mine",
      "outputs": [],
      "stateMutability": "nonpayable",
      "type": "function"
    },
    {
      "inputs": [],
      "name": "name",
      "outputs": [
        {
          "internalType": "string",
          "name": "",
          "type": "string"
        }
      ],
      "stateMutability": "view",
      "type": "function"
    },
    {
      "inputs": [],
      "name": "presaleEndTime",
      "outputs": [
        {
          "internalType": "uint256",
          "name": "",
          "type": "uint256"
        }
      ],
      "stateMutability": "view",
      "type": "function"
    },
    {
      "inputs": [],
      "name": "presaleRate",
      "outputs": [
        {
          "internalType": "uint256",
          "name": "",
          "type": "uint256"
        }
      ],
      "stateMutability": "view",
      "type": "function"
    },
    {
      "inputs": [],
      "name": "rewardRate",
      "outputs": [
        {
          "internalType": "uint256",
          "name": "",
          "type": "uint256"
        }
      ],
      "stateMutability": "view",
      "type": "function"
    },
    {
      "inputs": [
        {
          "internalType": "address",
          "name": "",
          "type": "address"
        }
      ],
      "name": "rewards",
      "outputs": [
        {
          "internalType": "uint256",
          "name": "",
          "type": "uint256"
        }
      ],
      "stateMutability": "view",
      "type": "function"
    },
    {
      "inputs": [
        {
          "internalType": "uint256",
          "name": "tokenAmount",
          "type": "uint256"
        }
      ],
      "name": "sellTokens",
      "outputs": [],
      "stateMutability": "nonpayable",
      "type": "function"
    },
    {
      "inputs": [
        {
          "internalType": "bool",
          "name": "_enabled",
          "type": "bool"
        }
      ],
      "name": "setBuybackEnabled",
      "outputs": [],
      "stateMutability": "nonpayable",
      "type": "function"
    },
    {
      "inputs": [
        {
          "internalType": "uint256",
          "name": "amount",
          "type": "uint256"
        }
      ],
      "name": "stake",
      "outputs": [],
      "stateMutability": "nonpayable",
      "type": "function"
    },
    {
      "inputs": [
        {
          "internalType": "address",
          "name": "",
          "type": "address"
        }
      ],
      "name": "stakes",
      "outputs": [
        {
          "internalType": "uint256",
          "name": "",
          "type": "uint256"
        }
      ],
      "stateMutability": "view",
      "type": "function"
    },
    {
      "inputs": [],
      "name": "symbol",
      "outputs": [
        {
          "internalType": "string",
          "name": "",
          "type": "string"
        }
      ],
      "stateMutability": "view",
      "type": "function"
    },
    {
      "inputs": [],
      "name": "totalMined",
      "outputs": [
        {
          "internalType": "uint256",
          "name": "",
          "type": "uint256"
        }
      ],
      "stateMutability": "view",
      "type": "function"
    },
    {
      "inputs": [],
      "name": "totalStaked",
      "outputs": [
        {
          "internalType": "uint256",
          "name": "",
          "type": "uint256"
        }
      ],
      "stateMutability": "view",
      "type": "function"
    },
    {
      "inputs": [],
      "name": "totalSupply",
      "outputs": [
        {
          "internalType": "uint256",
          "name": "",
          "type": "uint256"
        }
      ],
      "stateMutability": "view",
      "type": "function"
    },
    {
      "inputs": [
        {
          "internalType": "address",
          "name": "to",
          "type": "address"
        },
        {
          "internalType": "uint256",
          "name": "value",
          "type": "uint256"
        }
      ],
      "name": "transfer",
      "outputs": [
        {
          "internalType": "bool",
          "name": "",
          "type": "bool"
        }
      ],
      "stateMutability": "nonpayable",
      "type": "function"
    },
    {
      "inputs": [
        {
          "internalType": "address",
          "name": "from",
          "type": "address"
        },
        {
          "internalType": "address",
          "name": "to",
          "type": "address"
        },
        {
          "internalType": "uint256",
          "name": "value",
          "type": "uint256"
        }
      ],
      "name": "transferFrom",
      "outputs": [
        {
          "internalType": "bool",
          "name": "",
          "type": "bool"
        }
      ],
      "stateMutability": "nonpayable",
      "type": "function"
    },
    {
      "inputs": [
        {
          "internalType": "uint256",
          "name": "amount",
          "type": "uint256"
        }
      ],
      "name": "unstake",
      "outputs": [],
      "stateMutability": "nonpayable",
      "type": "function"
    },
    {
      "stateMutability": "payable",
      "type": "receive"
    }
  ],
  "bytecode": "0x60806040526402540be4006006556064600c5534801561001e57600080fd5b506040518060400160405280600881526020017f526567616c69756d0000000000000000000000000000000000000000000000008152506040518060400160405280600481526020017f52474c4d00000000000000000000000000000000000000000000000000000000815250816003908161009a919061069b565b5080600490816100aa919061069b565b5050506369541c80600d819055506014600e81905550600f80819055506000601060006101000a81548160ff02191690831515021790555061011533606460146a295be96e64066972000000610100919061079c565b61010a919061080d565b61011a60201b60201c565b6109ac565b6a295be96e640669720000008161013561019460201b60201c565b61013f919061083e565b1115610180576040517f08c379a0000000000000000000000000000000000000000000000000000000008152600401610177906108cf565b60405180910390fd5b610190828261019e60201b60201c565b5050565b6000600254905090565b600073ffffffffffffffffffffffffffffffffffffffff168273ffffffffffffffffffffffffffffffffffffffff16036102105760006040517fec442f050000000000000000000000000000000000000000000000000000000081526004016102079190610930565b60405180910390fd5b6102226000838361022660201b60201c565b5050565b600073ffffffffffffffffffffffffffffffffffffffff168373ffffffffffffffffffffffffffffffffffffffff160361027857806002600082825461026c919061083e565b9250508190555061034b565b60008060008573ffffffffffffffffffffffffffffffffffffffff1673ffffffffffffffffffffffffffffffffffffffff16815260200190815260200160002054905081811015610304578381836040517fe450d38c0000000000000000000000000000000000000000000000000000000081526004016102fb9392919061095a565b60405180910390fd5b8181036000808673ffffffffffffffffffffffffffffffffffffffff1673ffffffffffffffffffffffffffffffffffffffff16815260200190815260200160002081905550505b600073ffffffffffffffffffffffffffffffffffffffff168273ffffffffffffffffffffffffffffffffffffffff160361039457806002600082825403925050819055506103e1565b806000808473ffffffffffffffffffffffffffffffffffffffff1673ffffffffffffffffffffffffffffffffffffffff168152602001908152602001600020600082825401925050819055505b8173ffffffffffffffffffffffffffffffffffffffff168373ffffffffffffffffffffffffffffffffffffffff167fddf252ad1be2c89b69c2b068fc378daa952ba7f163c4a11628f55a4df523b3ef8360405161043e9190610991565b60405180910390a3505050565b600081519050919050565b7f4e487b7100000000000000000000000000000000000000000000000000000000600052604160045260246000fd5b7f4e487b7100000000000000000000000000000000000000000000000000000000600052602260045260246000fd5b600060028204905060018216806104cc57607f821691505b6020821081036104df576104de610485565b5b50919050565b60008190508160005260206000209050919050565b60006020601f8301049050919050565b600082821b905092915050565b6000600883026105477fffffffffffffffffffffffffffffffffffffffffffffffffffffffffffffffff8261050a565b610551868361050a565b95508019841693508086168417925050509392505050565b6000819050919050565b6000819050919050565b600061059861059361058e84610569565b610573565b610569565b9050919050565b6000819050919050565b6105b28361057d565b6105c66105be8261059f565b848454610517565b825550505050565b600090565b6105db6105ce565b6105e68184846105a9565b505050565b5b8181101561060a576105ff6000826105d3565b6001810190506105ec565b5050565b601f82111561064f57610620816104e5565b610629846104fa565b81016020851015610638578190505b61064c610644856104fa565b8301826105eb565b50505b505050565b600082821c905092915050565b600061067260001984600802610654565b1980831691505092915050565b600061068b8383610661565b9150826002028217905092915050565b6106a48261044b565b67ffffffffffffffff8111156106bd576106bc610456565b5b6106c782546104b4565b6106d282828561060e565b600060209050601f83116001811461070557600084156106f3578287015190505b6106fd858261067f565b865550610765565b601f198416610713866104e5565b60005b8281101561073b57848901518255600182019150602085019450602081019050610716565b868310156107585784890151610754601f891682610661565b8355505b6001600288020188555050505b505050505050565b7f4e487b7100000000000000000000000000000000000000000000000000000000600052601160045260246000fd5b60006107a782610569565b91506107b283610569565b92508282026107c081610569565b915082820484148315176107d7576107d661076d565b5b5092915050565b7f4e487b7100000000000000000000000000000000000000000000000000000000600052601260045260246000fd5b600061081882610569565b915061082383610569565b925082610833576108326107de565b5b828204905092915050565b600061084982610569565b915061085483610569565b925082820190508082111561086c5761086b61076d565b5b92915050565b600082825260208201905092915050565b7f4d696e74696e672065786365656473206d617820737570706c79000000000000600082015250565b60006108b9601a83610872565b91506108c482610883565b602082019050919050565b600060208201905081810360008301526108e8816108ac565b9050919050565b600073ffffffffffffffffffffffffffffffffffffffff82169050919050565b600061091a826108ef565b9050919050565b61092a8161090f565b82525050565b60006020820190506109456000830184610921565b92915050565b61095481610569565b82525050565b600060608201905061096f6000830186610921565b61097c602083018561094b565b610989604083018461094b565b949350505050565b60006020820190506109a6600083018461094b565b92915050565b612870806109bb6000396000f3fe6080604052600436106101d15760003560e01c80634d474898116100f75780637bb1ca1911610095578063a694fc3a11610064578063a694fc3a146107aa578063a9059cbb146107d3578063dd62ed3e14610810578063f76024c41461084d576102d5565b80637bb1ca19146106ee578063817b1cd21461072b57806395d89b41146107565780639a9b567d14610781576102d5565b80636e99d52f116100d15780636e99d52f1461063257806370a082311461065d57806379cc67901461069a5780637b0a47ee146106c3576102d5565b80634d474898146105b55780635556db65146105de5780636c11bcd314610609576102d5565b806323b872dd1161016f57806332cb6b0c1161013e57806332cb6b0c146104f9578063331e03a81461052457806342966c681461056157806342f393811461058a576102d5565b806323b872dd1461043d578063249b7c191461047a5780632e17de78146104a5578063313ce567146104ce576102d5565b8063160d0da5116101ab578063160d0da51461037f57806316934fc4146103aa57806318160ddd146103e757806319cae46214610412576102d5565b806306fdde03146102da5780630700037d14610305578063095ea7b314610342576102d5565b366102d557600d54421061021a576040517f08c379a000000000000000000000000000000000000000000000000000000000815260040161021190611bbe565b60405180910390fd5b6000341161025d576040517f08c379a000000000000000000000000000000000000000000000000000000000815260040161025490611c2a565b60405180910390fd5b6000600a600e543461026f9190611c83565b6102799190611cf4565b90506102853382610878565b3373ffffffffffffffffffffffffffffffffffffffff167f745f661b8143944fb883f50694ebed3a871e43c451d9d4bf4648a9d551d7e47a826040516102cb9190611d34565b60405180910390a2005b600080fd5b3480156102e657600080fd5b506102ef6108fa565b6040516102fc9190611dce565b60405180910390f35b34801561031157600080fd5b5061032c60048036038101906103279190611e53565b61098c565b6040516103399190611d34565b60405180910390f35b34801561034e57600080fd5b5061036960048036038101906103649190611eac565b6109a4565b6040516103769190611f07565b60405180910390f35b34801561038b57600080fd5b506103946109c7565b6040516103a19190611f07565b60405180910390f35b3480156103b657600080fd5b506103d160048036038101906103cc9190611e53565b6109da565b6040516103de9190611d34565b60405180910390f35b3480156103f357600080fd5b506103fc6109f2565b6040516104099190611d34565b60405180910390f35b34801561041e57600080fd5b506104276109fc565b6040516104349190611d34565b60405180910390f35b34801561044957600080fd5b50610464600480360381019061045f9190611f22565b610a02565b6040516104719190611f07565b60405180910390f35b34801561048657600080fd5b5061048f610a31565b60405161049c9190611d34565b60405180910390f35b3480156104b157600080fd5b506104cc60048036038101906104c79190611f75565b610a37565b005b3480156104da57600080fd5b506104e3610ca1565b6040516104f09190611fbe565b60405180910390f35b34801561050557600080fd5b5061050e610caa565b60405161051b9190611d34565b60405180910390f35b34801561053057600080fd5b5061054b60048036038101906105469190611e53565b610cb9565b6040516105589190611d34565b60405180910390f35b34801561056d57600080fd5b5061058860048036038101906105839190611f75565b610cd1565b005b34801561059657600080fd5b5061059f610ce5565b6040516105ac9190611d34565b60405180910390f35b3480156105c157600080fd5b506105dc60048036038101906105d79190611f75565b610ceb565b005b3480156105ea57600080fd5b506105f3610e9c565b6040516106009190611d34565b60405180910390f35b34801561061557600080fd5b50610630600480360381019061062b9190611f75565b610ea2565b005b34801561063e57600080fd5b506106476110e9565b6040516106549190611d34565b60405180910390f35b34801561066957600080fd5b50610684600480360381019061067f9190611e53565b6110f0565b6040516106919190611d34565b60405180910390f35b3480156106a657600080fd5b506106c160048036038101906106bc9190611eac565b611138565b005b3480156106cf57600080fd5b506106d8611158565b6040516106e59190611d34565b60405180910390f35b3480156106fa57600080fd5b5061071560048036038101906107109190611e53565b61115e565b6040516107229190611d34565b60405180910390f35b34801561073757600080fd5b50610740611176565b60405161074d9190611d34565b60405180910390f35b34801561076257600080fd5b5061076b61117c565b6040516107789190611dce565b60405180910390f35b34801561078d57600080fd5b506107a860048036038101906107a39190612005565b61120e565b005b3480156107b657600080fd5b506107d160048036038101906107cc9190611f75565b61122b565b005b3480156107df57600080fd5b506107fa60048036038101906107f59190611eac565b611423565b6040516108079190611f07565b60405180910390f35b34801561081c57600080fd5b5061083760048036038101906108329190612032565b611446565b6040516108449190611d34565b60405180910390f35b34801561085957600080fd5b506108626114cd565b60405161086f9190611d34565b60405180910390f35b600073ffffffffffffffffffffffffffffffffffffffff168273ffffffffffffffffffffffffffffffffffffffff16036108ea5760006040517fec442f050000000000000000000000000000000000000000000000000000000081526004016108e19190612081565b60405180910390fd5b6108f6600083836114d3565b5050565b606060038054610909906120cb565b80601f0160208091040260200160405190810160405280929190818152602001828054610935906120cb565b80156109825780601f1061095757610100808354040283529160200191610982565b820191906000526020600020905b81548152906001019060200180831161096557829003601f168201915b5050505050905090565b60086020528060005260406000206000915090505481565b6000806109af6116f8565b90506109bc818585611700565b600191505092915050565b601060009054906101000a900460ff1681565b60076020528060005260406000206000915090505481565b6000600254905090565b60065481565b600080610a0d6116f8565b9050610a1a858285611712565b610a258585856117a6565b60019150509392505050565b600d5481565b60005a905081600760003373ffffffffffffffffffffffffffffffffffffffff1673ffffffffffffffffffffffffffffffffffffffff168152602001908152602001600020541015610abe576040517f08c379a0000000000000000000000000000000000000000000000000000000008152600401610ab590612148565b60405180910390fd5b62015180600960003373ffffffffffffffffffffffffffffffffffffffff1673ffffffffffffffffffffffffffffffffffffffff16815260200190815260200160002054610b0c9190612168565b421015610b4e576040517f08c379a0000000000000000000000000000000000000000000000000000000008152600401610b459061220e565b60405180910390fd5b81600760003373ffffffffffffffffffffffffffffffffffffffff1673ffffffffffffffffffffffffffffffffffffffff16815260200190815260200160002054610b99919061222e565b600760003373ffffffffffffffffffffffffffffffffffffffff1673ffffffffffffffffffffffffffffffffffffffff1681526020019081526020016000208190555081600b54610bea919061222e565b600b81905550610bfa3383610878565b42600a60003373ffffffffffffffffffffffffffffffffffffffff1673ffffffffffffffffffffffffffffffffffffffff1681526020019081526020016000208190555060005a82610c4c919061222e565b90503373ffffffffffffffffffffffffffffffffffffffff167fea076a79ed2ec2ae56f18e13d3eb09cd2a42769b4f5e2bf2f244a049fa25bafe82604051610c949190611d34565b60405180910390a2505050565b60006012905090565b6a295be96e6406697200000081565b600a6020528060005260406000206000915090505481565b610ce2610cdc6116f8565b8261189a565b50565b600e5481565b60005a9050606460506a295be96e64066972000000610d0a9190611c83565b610d149190611cf4565b60055410610d57576040517f08c379a0000000000000000000000000000000000000000000000000000000008152600401610d4e906122ae565b60405180910390fd5b60003383604051602001610d6c929190612337565b6040516020818303038152906040528051906020012090507f8d1e1a42df80547a25ada7b9df02096c6b07d45e0bd9970c4933a9a4863b9fb481600654604051610db792919061237c565b60405180910390a16006548160001c10610e06576040517f08c379a0000000000000000000000000000000000000000000000000000000008152600401610dfd906123f1565b60405180910390fd5b60006802b5e3af16b18800009050610e1e338261191c565b8060056000828254610e309190612168565b9250508190555060005a84610e45919061222e565b90503373ffffffffffffffffffffffffffffffffffffffff167fea076a79ed2ec2ae56f18e13d3eb09cd2a42769b4f5e2bf2f244a049fa25bafe82604051610e8d9190611d34565b60405180910390a25050505050565b60055481565b601060009054906101000a900460ff16610ef1576040517f08c379a0000000000000000000000000000000000000000000000000000000008152600401610ee89061245d565b60405180910390fd5b60008111610f34576040517f08c379a0000000000000000000000000000000000000000000000000000000008152600401610f2b906124ef565b60405180910390fd5b80610f3e336110f0565b1015610f7f576040517f08c379a0000000000000000000000000000000000000000000000000000000008152600401610f769061255b565b60405180910390fd5b6000600f54600a83610f919190611c83565b610f9b9190611cf4565b905080471015610fe0576040517f08c379a0000000000000000000000000000000000000000000000000000000008152600401610fd7906125c7565b60405180910390fd5b610fea338361189a565b60003373ffffffffffffffffffffffffffffffffffffffff168260405161101090612618565b60006040518083038185875af1925050503d806000811461104d576040519150601f19603f3d011682016040523d82523d6000602084013e611052565b606091505b5050905080611096576040517f08c379a000000000000000000000000000000000000000000000000000000000815260040161108d90612679565b60405180910390fd5b3373ffffffffffffffffffffffffffffffffffffffff167f57d61f3ccd4ccd25ec5d234d6049553a586fac134c85c98d0b0d9d5724f4e43e846040516110dc9190611d34565b60405180910390a2505050565b6201518081565b60008060008373ffffffffffffffffffffffffffffffffffffffff1673ffffffffffffffffffffffffffffffffffffffff168152602001908152602001600020549050919050565b61114a826111446116f8565b83611712565b611154828261189a565b5050565b600c5481565b60096020528060005260406000206000915090505481565b600b5481565b60606004805461118b906120cb565b80601f01602080910402602001604051908101604052809291908181526020018280546111b7906120cb565b80156112045780601f106111d957610100808354040283529160200191611204565b820191906000526020600020905b8154815290600101906020018083116111e757829003601f168201915b5050505050905090565b80601060006101000a81548160ff02191690831515021790555050565b60005a905060008211611273576040517f08c379a000000000000000000000000000000000000000000000000000000000815260040161126a906126e5565b60405180910390fd5b62015180600960003373ffffffffffffffffffffffffffffffffffffffff1673ffffffffffffffffffffffffffffffffffffffff168152602001908152602001600020546112c19190612168565b421015611303576040517f08c379a00000000000000000000000000000000000000000000000000000000081526004016112fa90612777565b60405180910390fd5b61130d338361189a565b81600760003373ffffffffffffffffffffffffffffffffffffffff1673ffffffffffffffffffffffffffffffffffffffff168152602001908152602001600020600082825461135c9190612168565b9250508190555081600b60008282546113759190612168565b9250508190555042600960003373ffffffffffffffffffffffffffffffffffffffff1673ffffffffffffffffffffffffffffffffffffffff1681526020019081526020016000208190555060005a826113ce919061222e565b90503373ffffffffffffffffffffffffffffffffffffffff167fea076a79ed2ec2ae56f18e13d3eb09cd2a42769b4f5e2bf2f244a049fa25bafe826040516114169190611d34565b60405180910390a2505050565b60008061142e6116f8565b905061143b8185856117a6565b600191505092915050565b6000600160008473ffffffffffffffffffffffffffffffffffffffff1673ffffffffffffffffffffffffffffffffffffffff16815260200190815260200160002060008373ffffffffffffffffffffffffffffffffffffffff1673ffffffffffffffffffffffffffffffffffffffff16815260200190815260200160002054905092915050565b600f5481565b600073ffffffffffffffffffffffffffffffffffffffff168373ffffffffffffffffffffffffffffffffffffffff16036115255780600260008282546115199190612168565b925050819055506115f8565b60008060008573ffffffffffffffffffffffffffffffffffffffff1673ffffffffffffffffffffffffffffffffffffffff168152602001908152602001600020549050818110156115b1578381836040517fe450d38c0000000000000000000000000000000000000000000000000000000081526004016115a893929190612797565b60405180910390fd5b8181036000808673ffffffffffffffffffffffffffffffffffffffff1673ffffffffffffffffffffffffffffffffffffffff16815260200190815260200160002081905550505b600073ffffffffffffffffffffffffffffffffffffffff168273ffffffffffffffffffffffffffffffffffffffff1603611641578060026000828254039250508190555061168e565b806000808473ffffffffffffffffffffffffffffffffffffffff1673ffffffffffffffffffffffffffffffffffffffff168152602001908152602001600020600082825401925050819055505b8173ffffffffffffffffffffffffffffffffffffffff168373ffffffffffffffffffffffffffffffffffffffff167fddf252ad1be2c89b69c2b068fc378daa952ba7f163c4a11628f55a4df523b3ef836040516116eb9190611d34565b60405180910390a3505050565b600033905090565b61170d838383600161198a565b505050565b600061171e8484611446565b90507fffffffffffffffffffffffffffffffffffffffffffffffffffffffffffffffff81146117a05781811015611790578281836040517ffb8f41b200000000000000000000000000000000000000000000000000000000815260040161178793929190612797565b60405180910390fd5b61179f8484848403600061198a565b5b50505050565b600073ffffffffffffffffffffffffffffffffffffffff168373ffffffffffffffffffffffffffffffffffffffff16036118185760006040517f96c6fd1e00000000000000000000000000000000000000000000000000000000815260040161180f9190612081565b60405180910390fd5b600073ffffffffffffffffffffffffffffffffffffffff168273ffffffffffffffffffffffffffffffffffffffff160361188a5760006040517fec442f050000000000000000000000000000000000000000000000000000000081526004016118819190612081565b60405180910390fd5b6118958383836114d3565b505050565b600073ffffffffffffffffffffffffffffffffffffffff168273ffffffffffffffffffffffffffffffffffffffff160361190c5760006040517f96c6fd1e0000000000000000000000000000000000000000000000000000000081526004016119039190612081565b60405180910390fd5b611918826000836114d3565b5050565b6a295be96e64066972000000816119316109f2565b61193b9190612168565b111561197c576040517f08c379a00000000000000000000000000000000000000000000000000000000081526004016119739061281a565b60405180910390fd5b6119868282610878565b5050565b600073ffffffffffffffffffffffffffffffffffffffff168473ffffffffffffffffffffffffffffffffffffffff16036119fc5760006040517fe602df050000000000000000000000000000000000000000000000000000000081526004016119f39190612081565b60405180910390fd5b600073ffffffffffffffffffffffffffffffffffffffff168373ffffffffffffffffffffffffffffffffffffffff1603611a6e5760006040517f94280d62000000000000000000000000000000000000000000000000000000008152600401611a659190612081565b60405180910390fd5b81600160008673ffffffffffffffffffffffffffffffffffffffff1673ffffffffffffffffffffffffffffffffffffffff16815260200190815260200160002060008573ffffffffffffffffffffffffffffffffffffffff1673ffffffffffffffffffffffffffffffffffffffff168152602001908152602001600020819055508015611b5b578273ffffffffffffffffffffffffffffffffffffffff168473ffffffffffffffffffffffffffffffffffffffff167f8c5be1e5ebec7d5bd14f71427d1e84f3dd0314c0f7b2291e5b200ac8c7c3b92584604051611b529190611d34565b60405180910390a35b50505050565b600082825260208201905092915050565b7f50726573616c6520656e64656400000000000000000000000000000000000000600082015250565b6000611ba8600d83611b61565b9150611bb382611b72565b602082019050919050565b60006020820190508181036000830152611bd781611b9b565b9050919050565b7f53656e64204d4154494320746f2062757920746f6b656e730000000000000000600082015250565b6000611c14601883611b61565b9150611c1f82611bde565b602082019050919050565b60006020820190508181036000830152611c4381611c07565b9050919050565b6000819050919050565b7f4e487b7100000000000000000000000000000000000000000000000000000000600052601160045260246000fd5b6000611c8e82611c4a565b9150611c9983611c4a565b9250828202611ca781611c4a565b91508282048414831517611cbe57611cbd611c54565b5b5092915050565b7f4e487b7100000000000000000000000000000000000000000000000000000000600052601260045260246000fd5b6000611cff82611c4a565b9150611d0a83611c4a565b925082611d1a57611d19611cc5565b5b828204905092915050565b611d2e81611c4a565b82525050565b6000602082019050611d496000830184611d25565b92915050565b600081519050919050565b60005b83811015611d78578082015181840152602081019050611d5d565b60008484015250505050565b6000601f19601f8301169050919050565b6000611da082611d4f565b611daa8185611b61565b9350611dba818560208601611d5a565b611dc381611d84565b840191505092915050565b60006020820190508181036000830152611de88184611d95565b905092915050565b600080fd5b600073ffffffffffffffffffffffffffffffffffffffff82169050919050565b6000611e2082611df5565b9050919050565b611e3081611e15565b8114611e3b57600080fd5b50565b600081359050611e4d81611e27565b92915050565b600060208284031215611e6957611e68611df0565b5b6000611e7784828501611e3e565b91505092915050565b611e8981611c4a565b8114611e9457600080fd5b50565b600081359050611ea681611e80565b92915050565b60008060408385031215611ec357611ec2611df0565b5b6000611ed185828601611e3e565b9250506020611ee285828601611e97565b9150509250929050565b60008115159050919050565b611f0181611eec565b82525050565b6000602082019050611f1c6000830184611ef8565b92915050565b600080600060608486031215611f3b57611f3a611df0565b5b6000611f4986828701611e3e565b9350506020611f5a86828701611e3e565b9250506040611f6b86828701611e97565b9150509250925092565b600060208284031215611f8b57611f8a611df0565b5b6000611f9984828501611e97565b91505092915050565b600060ff82169050919050565b611fb881611fa2565b82525050565b6000602082019050611fd36000830184611faf565b92915050565b611fe281611eec565b8114611fed57600080fd5b50565b600081359050611fff81611fd9565b92915050565b60006020828403121561201b5761201a611df0565b5b600061202984828501611ff0565b91505092915050565b6000806040838503121561204957612048611df0565b5b600061205785828601611e3e565b925050602061206885828601611e3e565b9150509250929050565b61207b81611e15565b82525050565b60006020820190506120966000830184612072565b92915050565b7f4e487b7100000000000000000000000000000000000000000000000000000000600052602260045260246000fd5b600060028204905060018216806120e357607f821691505b6020821081036120f6576120f561209c565b5b50919050565b7f496e73756666696369656e74207374616b652062616c616e6365000000000000600082015250565b6000612132601a83611b61565b915061213d826120fc565b602082019050919050565b6000602082019050818103600083015261216181612125565b9050919050565b600061217382611c4a565b915061217e83611c4a565b925082820190508082111561219657612195611c54565b5b92915050565b7f436f6f6c646f776e20706572696f64206e6f74206d657420666f7220756e737460008201527f616b696e67000000000000000000000000000000000000000000000000000000602082015250565b60006121f8602583611b61565b91506122038261219c565b604082019050919050565b60006020820190508181036000830152612227816121eb565b9050919050565b600061223982611c4a565b915061224483611c4a565b925082820390508181111561225c5761225b611c54565b5b92915050565b7f416c6c20746f6b656e73206d696e656400000000000000000000000000000000600082015250565b6000612298601083611b61565b91506122a382612262565b602082019050919050565b600060208201905081810360008301526122c78161228b565b9050919050565b60008160601b9050919050565b60006122e6826122ce565b9050919050565b60006122f8826122db565b9050919050565b61231061230b82611e15565b6122ed565b82525050565b6000819050919050565b61233161232c82611c4a565b612316565b82525050565b600061234382856122ff565b6014820191506123538284612320565b6020820191508190509392505050565b6000819050919050565b61237681612363565b82525050565b6000604082019050612391600083018561236d565b61239e6020830184611d25565b9392505050565b7f4d696e696e6720646966666963756c7479206e6f74206d657400000000000000600082015250565b60006123db601983611b61565b91506123e6826123a5565b602082019050919050565b6000602082019050818103600083015261240a816123ce565b9050919050565b7f4275796261636b206973206e6f7420656e61626c656400000000000000000000600082015250565b6000612447601683611b61565b915061245282612411565b602082019050919050565b600060208201905081810360008301526124768161243a565b9050919050565b7f5370656369667920616e20616d6f756e74206f6620746f6b656e7320746f207360008201527f656c6c0000000000000000000000000000000000000000000000000000000000602082015250565b60006124d9602383611b61565b91506124e48261247d565b604082019050919050565b60006020820190508181036000830152612508816124cc565b9050919050565b7f4e6f7420656e6f75676820746f6b656e73000000000000000000000000000000600082015250565b6000612545601183611b61565b91506125508261250f565b602082019050919050565b6000602082019050818103600083015261257481612538565b9050919050565b7f4e6f7420656e6f756768204d4154494320696e20636f6e747261637400000000600082015250565b60006125b1601c83611b61565b91506125bc8261257b565b602082019050919050565b600060208201905081810360008301526125e0816125a4565b9050919050565b600081905092915050565b50565b60006126026000836125e7565b915061260d826125f2565b600082019050919050565b6000612623826125f5565b9150819050919050565b7f5472616e73666572206661696c65640000000000000000000000000000000000600082015250565b6000612663600f83611b61565b915061266e8261262d565b602082019050919050565b6000602082019050818103600083015261269281612656565b9050919050565b7f43616e6e6f74207374616b65203020746f6b656e730000000000000000000000600082015250565b60006126cf601583611b61565b91506126da82612699565b602082019050919050565b600060208201905081810360008301526126fe816126c2565b9050919050565b7f436f6f6c646f776e20706572696f64206e6f74206d657420666f72207374616b60008201527f696e670000000000000000000000000000000000000000000000000000000000602082015250565b6000612761602383611b61565b915061276c82612705565b604082019050919050565b6000602082019050818103600083015261279081612754565b9050919050565b60006060820190506127ac6000830186612072565b6127b96020830185611d25565b6127c66040830184611d25565b949350505050565b7f4d696e74696e672065786365656473206d617820737570706c79000000000000600082015250565b6000612804601a83611b61565b915061280f826127ce565b602082019050919050565b60006020820190508181036000830152612833816127f7565b905091905056fea264697066735822122010873a8b915135cfeb8031985e555789dc990858a1f3ff9d827ca188f32907dc64736f6c634300081a0033",
  "linkReferences": {},
  "deployedLinkReferences": {}
}